:020000040800F2
:100000000000022079E9000889010008C5E900081C
:10001000E9010008F1010008F901000800000000F2
:10002000000000000000000000000000DD69000882
:100030000102000800000000D56B0008256C0008D4
:10004000C5E90008C5E90008C5E90008C5E90008D8
:10005000C5E90008C5E90008DD1C0008111D0008FD
:10006000C5E90008C5E90008C5E90008C5E90008B8
:10007000C5E90008C5E90008C5E90008C5E90008A8
:10008000C5E90008C5E90008C5E90008C5E9000898
:10009000C5E90008C5E90008C5E90008C5E9000888
:1000A000C5E90008C5E90008C5E90008C5E9000878
:1000B000C5E90008C5E90008C5E90008C5E9000868
:1000C000C5E90008C5E90008C5E90008C5E9000858
:1000D000C5E90008C5E90008C5E90008551300088E
:1000E000C5E90008C5E90008C5E90008C5E9000838
:1000F000C5E90008C5E90008C5E90008C5E9000828
:10010000C5E9000865290008C5E90008C5E9000837
:10011000C5E90008C5E90008C5E90008C5E9000807
:10012000C5E90008C5E90008C5E90008712900080B
:10013000C5E90008C5E90008C5E90008C5E90008E7
:10014000C5E90008C5E90008C5E90008C5E90008D7
:10015000C5E90008C5E90008C5E90008C5E90008C7
:10016000C5E90008C5E90008C5E90008C5E90008B7
:10017000C5E90008C5E90008C5E90008C5E90008A7
:08018000C5E90008C5E900080B
:1001880080B400AFBD4680BC704700BF80B48BB060
:1001980000AF78607B681B687B627B685B683B624A
:1001A8007B689B68FB617B68DB68BB617B681B695C
:1001B8007B617B685B693B617B689B69FB607B68F3
:1001C800DB69BB60FEE700BF1EF0040F0CBFEFF356
:1001D8000880EFF309808169004A104795010008FB
:1001E80080B400AFFEE700BF80B400AFFEE700BFF9
:1001F80080B400AFFEE700BF80B400AFBD4680BC4E
:10020800704700BF80B500AF4FF46053C4F20203DB
:100218004FF46052C4F20202126842F001021A60FE
:100228004FF46053C4F202034FF000029A604FF497
:100238006053C4F202034FF46052C4F2020212681F
:1002480022F0847222F480321A604FF46053C4F2B0
:10025800020343F21002C2F200425A604FF46053A4
:10026800C4F202034FF46052C4F20202126822F48C
:1002780080221A604FF46053C4F202034FF0000268
:10028800DA6000F0CFF84FF46D43CEF200034FF080
:1002980000629A604FF46D43CEF200034FF46D4252
:1002A800CEF20002D2F8882042F47002C3F8882007
:1002B80080BD00BF80B487B000AF4FF000033B6142
:1002C8004FF000037B614FF00203FB604FF0000327
:1002D800BB604FF002037B604FF46053C4F202032B
:1002E8009B6803F00C033B613B69042B0DD0082B82
:1002F80015D0002B69D140F20003C2F200034FF47D
:100308001052C0F2F4021A6069E040F20003C2F22F
:1003180000034FF49052C0F27A021A605FE04FF483
:100328006053C4F202035B6803F480034FEA9353FB
:10033800BB604FF46053C4F202035B6803F03F03F1
:100348007B60BB68002B14D04FF49053C0F27A0343
:100358007A68B3FBF2F24FF46053C4F202035968AF
:1003680047F6C0730B404FEA931303FB02F37B611C
:1003780013E04FF41053C0F2F4037A68B3FBF2F2BF
:100388004FF46053C4F20203596847F6C0730B4038
:100398004FEA931303FB02F37B614FF46053C4F2FB
:1003A80002035B6803F440334FEA134303F101038C
:1003B8004FEA4303FB607A69FB68B2FBF3F240F251
:1003C8000003C2F200031A6009E040F20003C2F21F
:1003D80000034FF41052C0F2F4021A6000BF4FF449
:1003E8006053C4F202039B6803F0F0034FEA131250
:1003F80040F20403C2F200039B5CDBB23B6140F2B3
:100408000003C2F200031A683B6922FA03F240F2C1
:100418000003C2F200031A6007F11C07BD4680BC46
:10042800704700BF80B483B000AF4FF000037B601B
:100438004FF000033B604FF46053C4F202034FF4E3
:100448006052C4F20202126842F480321A604FF419
:100458006053C4F202031B6803F400333B607B68FB
:1004680003F101037B603B68002B03D17B68B3F584
:10047800A06FECD14FF46053C4F202031B6803F47D
:100488000033002B03D04FF001033B6002E04FF034
:1004980000033B603B68012B40F082804FF46053BF
:1004A800C4F202034FF46052C4F20202126C42F02A
:1004B80080521A644FF4E043C4F200034FF4E04260
:1004C800C4F20002126842F480421A604FF460538A
:1004D800C4F202034FF46052C4F2020292689A60B6
:1004E8004FF46053C4F202034FF46052C4F20202A4
:1004F800926842F400429A604FF46053C4F20203D7
:100508004FF46052C4F20202926842F4A0529A6018
:100518004FF46053C4F2020345F20842C0F240723D
:100528005A604FF46053C4F202034FF46052C4F2AD
:100538000202126842F080721A6000BF4FF46053E2
:10054800C4F202031B6803F00073002BF6D04FF4CB
:100558007053C4F2020340F205621A604FF460530C
:10056800C4F202034FF46052C4F20202926822F00D
:1005780003029A604FF46053C4F202034FF46052CE
:10058800C4F20202926842F002029A6000BF4FF47D
:100598006053C4F202039B6803F00C03082BF6D1E6
:1005A8004FF46053C4F202034FF46052C4F20202E3
:1005B800926822F400029A604FF46053C4F2020376
:1005C8004FF44052C5F20002C3F884204FF4605340
:1005D800C4F202034FF46052C4F20202126842F0FD
:1005E80080621A6000BF4FF46053C4F202031B68B4
:1005F80003F00063002BF6D007F10C07BD4680BC62
:10060800704700BF80B483B000AF03463960FB7108
:1006180097F90730002B10DA4FF46D43CEF2000340
:10062800FA7902F00F02A2F104013A68D2B24FEA55
:100638000212D2B25B181A760DE04FF46143CEF283
:10064800000397F907103A68D2B24FEA0212D2B201
:100658005B1883F8002307F10C07BD4680BC704780
:1006680080B582B000AF78607A686FF07F439A42B5
:1006780002D94FF001031FE04EF21003CEF200033F
:100688007A6822F07F4202F1FF325A604FF0FF3061
:100698004FF00F01FFF7B6FF4EF21003CEF2000342
:1006A8004FF000029A604EF21003CEF200034FF0B2
:1006B80007021A604FF00003184607F10807BD4605
:1006C80080BD00BF80B500AF40F20003C2F2000356
:1006D8001A6844F6D353C1F26203A3FB02134FEA2C
:1006E80093131846FFF7BCFF0346002B00D0FEE724
:1006F80080BD00BF80B582B000AF4FF040004FF022
:1007080001010BF05DFA46F2E0733B604FF0010324
:100718003B714FF00003BB714FF00003FB714FF0CA
:1007280000037B713B464FF4C050C4F202001946E7
:100738000AF0CEFC07F10807BD4680BD80B58CB035
:1007480000AF4FF004004FF001010BF0B7FA4FF083
:1007580002004FF001010BF033FA4FF0C0037B6247
:100768004FF0020387F828304FF0030387F8293049
:100778004FF0000387F82A304FF0010387F82B3039
:1007880007F124034FF48060C4F2020019460AF00E
:100798009FFC4FF48060C4F202004FF006014FF056
:1007A80002020AF023FE4FF48060C4F202004FF008
:1007B80007014FF002020AF019FE4FF05403FB85BF
:1007C80044F61F63FB61FB8D3B834FF000033B84C2
:1007D8004FF000037B8307F118034FF40060C4F265
:1007E800000019460BF038FE4FF06003BB804FF055
:1007F8000103FB804FF00003FB604FF000033B82D6
:1008080007F104034FF40060C4F2000019460BF02E
:10081800D9FF4FF40060C4F200004FF008010CF05B
:100828001DFB07F104034FF40060C4F200001946F1
:100838000CF046F84FF40060C4F200004FF00801D5
:100848000CF028FB4FF40060C4F200004FF00101E7
:100858000BF040FF4FF40060C4F200004FF00101BC
:100868000BF090FF07F13007BD4680BD80B584B01E
:1008780000AF78604FF4C050C4F202004FF4CC418E
:100888000AF06EFD4FF00003FB60C3E04FF4C05068
:10089800C4F202004FF480410AF054FD4FF0020008
:1008A80007F00EFB4FF4C050C4F202004FF40051A1
:1008B8000AF056FD4FF0020007F002FB4FF4C0505B
:1008C800C4F202004FF480610AF03CFD4FF00200D0
:1008D80007F0F6FA4FF4C050C4F202004FF400716A
:1008E8000AF03EFD4FF0020007F0EAFA4FF4C0505C
:1008F800C4F202004FF480410AF032FD4FF00200CA
:1009080007F0DEFA4FF4C050C4F202004FF4005171
:100918000AF018FD4FF0020007F0D2FA4FF4C05069
:10092800C4F202004FF480610AF00CFD4FF002009F
:1009380007F0C6FA4FF4C050C4F202004FF4007139
:100948000AF00EFD4FF0020007F0BAFA4FF4C0505B
:10095800C4F202004FF480410AF002FD4FF0020099
:1009680007F0AEFA4FF4C050C4F202004FF4005141
:100978000AF0E8FC4FF0020007F0A2FA4FF4C0506A
:10098800C4F202004FF480610AF0EAFC4FF0020062
:1009980007F096FA4FF4C050C4F202004FF4007109
:1009A8000AF0D0FC4FF0020007F08AFA4FF4C0506A
:1009B800C4F202004FF480410AF0C4FC4FF0020078
:1009C80007F07EFA4FF4C050C4F202004FF4005111
:1009D8000AF0C6FC4FF0020007F072FA4FF4C0505C
:1009E800C4F202004FF480610AF0BAFC4FF0020032
:1009F80007F066FA4FF4C050C4F202004FF40071D9
:100A08000AF0A0FC4FF0020007F05AFAFB6803F165
:100A18000103FB60FA687B689A42FFF637AF07F17B
:100A28001007BD4680BD00BF80B584B000AF7860B8
:100A38004FF4C050C4F202004FF4CC410AF090FCCD
:100A48004FF00003FB60C3E04FF4C050C4F2020053
:100A58004FF400710AF076FC4FF0020007F030FA0C
:100A68004FF4C050C4F202004FF480610AF078FCE1
:100A78004FF0020007F024FA4FF4C050C4F202000D
:100A88004FF400510AF05EFC4FF0020007F018FA2C
:100A98004FF4C050C4F202004FF480410AF060FCE9
:100AA8004FF0020007F00CFA4FF4C050C4F20200F5
:100AB8004FF400710AF054FC4FF0020007F000FAFE
:100AC8004FF4C050C4F202004FF480610AF03AFCBF
:100AD8004FF0020007F0F4F94FF4C050C4F20200DE
:100AE8004FF400510AF02EFC4FF0020007F0E8F92D
:100AF8004FF4C050C4F202004FF480410AF030FCB9
:100B08004FF0020007F0DCF94FF4C050C4F20200C5
:100B18004FF400710AF024FC4FF0020007F0D0F9FE
:100B28004FF4C050C4F202004FF480610AF00AFC8E
:100B38004FF0020007F0C4F94FF4C050C4F20200AD
:100B48004FF400510AF00CFC4FF0020007F0B8F91E
:100B58004FF4C050C4F202004FF480410AF0F2FB97
:100B68004FF0020007F0ACF94FF4C050C4F2020095
:100B78004FF400710AF0E6FB4FF0020007F0A0F90D
:100B88004FF4C050C4F202004FF480610AF0E8FB51
:100B98004FF0020007F094F94FF4C050C4F202007D
:100BA8004FF400510AF0DCFB4FF0020007F088F91F
:100BB8004FF4C050C4F202004FF480410AF0C2FB67
:100BC8004FF0020007F07CF9FB6803F10103FB60BA
:100BD800FA687B689A42FFF637AF07F11007BD46FF
:100BE80080BD00BF80B584B000AF78604FF4C050BE
:100BF800C4F202004FF4F0710AF0B2FB4FF00003A8
:100C0800FB60C3E04FF4C050C4F202004FF0200173
:100C18000AF098FB4FF0020007F052F94FF4C05069
:100C2800C4F202004FF040010AF09AFB4FF00200B4
:100C380007F046F94FF4C050C4F202004FF08001AB
:100C48000AF080FB4FF0020007F03AF94FF4C05069
:100C5800C4F202004FF480710AF082FB4FF00200E8
:100C680007F02EF94FF4C050C4F202004FF02001F3
:100C78000AF076FB4FF0020007F022F94FF4C0505B
:100C8800C4F202004FF040010AF05CFB4FF0020092
:100C980007F016F94FF4C050C4F202004FF080017B
:100CA8000AF050FB4FF0020007F00AF94FF4C05069
:100CB800C4F202004FF480710AF052FB4FF00200B8
:100CC80007F0FEF84FF4C050C4F202004FF02001C4
:100CD8000AF046FB4FF0020007F0F2F84FF4C0505C
:100CE800C4F202004FF040010AF02CFB4FF0020062
:100CF80007F0E6F84FF4C050C4F202004FF080014C
:100D08000AF02EFB4FF0020007F0DAF84FF4C0505B
:100D1800C4F202004FF480710AF014FB4FF0020095
:100D280007F0CEF84FF4C050C4F202004FF0200193
:100D38000AF008FB4FF0020007F0C2F84FF4C05069
:100D4800C4F202004FF040010AF00AFB4FF0020023
:100D580007F0B6F84FF4C050C4F202004FF080011B
:100D68000AF0FEFA4FF0020007F0AAF84FF4C0505C
:100D7800C4F202004FF480710AF0E4FA4FF0020066
:100D880007F09EF8FB6803F10103FB60FA687B68D3
:100D98009A42FFF637AF07F11007BD4680BD00BF86
:100DA80080B584B000AF78604FF4C050C4F2020040
:100DB8004FF4F0710AF0D4FA4FF00003FB60C3E07F
:100DC8004FF4C050C4F202004FF480710AF0BAFA2E
:100DD8004FF0020007F074F84FF4C050C4F202005C
:100DE8004FF080010AF0BCFA4FF0020007F068F8F3
:100DF8004FF4C050C4F202004FF040010AF0A2FACA
:100E08004FF0020007F05CF84FF4C050C4F2020043
:100E18004FF020010AF0A4FA4FF0020007F050F852
:100E28004FF4C050C4F202004FF480710AF098FAEF
:100E38004FF0020007F044F84FF4C050C4F202002B
:100E48004FF080010AF07EFA4FF0020007F038F800
:100E58004FF4C050C4F202004FF040010AF072FA99
:100E68004FF0020007F02CF84FF4C050C4F2020013
:100E78004FF020010AF074FA4FF0020007F020F852
:100E88004FF4C050C4F202004FF480710AF068FABF
:100E98004FF0020007F014F84FF4C050C4F20200FB
:100EA8004FF080010AF04EFA4FF0020007F008F800
:100EB8004FF4C050C4F202004FF040010AF050FA5B
:100EC8004FF0020006F0FCFF4FF4C050C4F20200DD
:100ED8004FF020010AF036FA4FF0020006F0F0FF5A
:100EE8004FF4C050C4F202004FF480710AF02AFA9D
:100EF8004FF0020006F0E4FF4FF4C050C4F20200C5
:100F08004FF080010AF02CFA4FF0020006F0D8FFEB
:100F18004FF4C050C4F202004FF040010AF020FA2A
:100F28004FF0020006F0CCFF4FF4C050C4F20200AC
:100F38004FF020010AF006FA4FF0020006F0C0FF59
:100F4800FB6803F10103FB60FA687B689A42FFF6CD
:100F580037AF07F11007BD4680BD00BF80B500AFB1
:100F68004FF04100FFF73EFE4FF04100FFF77EFCD7
:100F780080BD00BF80B500AF4FF40063C4F200032A
:100F880040F2A4625A634FF4FA7006F099FF80BDEC
:100F980080B500AF4FF40063C4F200034FF46172F0
:100FA8005A634FF4FA7006F08BFF80BD80B500AF2E
:100FB800FFF7EEFF4FF04100FFF736FD4FF041001D
:100FC800FFF7EEFE4FF04100FFF750FC4FF04100F5
:100FD800FFF708FEFFF7CEFFEAE700BF80B584B051
:100FE80004AFFFF76FFBFFF7A9FBFFF783FBFFF7E2
:100FF800C1FFFFF7B3FF4FF0050300934FF0000365
:1010080001934FF0000302934FF00003039340F65F
:10101800B570C0F600004FF63801C0F600014FF475
:1010280000724FF0000306F0B3FD07F09DF94FF092
:1010380000031846BD4680BD80B400AFBD4680BCE5
:10104800704700BF80B500AF05F0B2FDFEE700BFF6
:1010580080B400AFBD4680BC704700BF80B582B089
:1010680000AF7860396005F0A3FDFEE780B485B075
:1010780000AFF860B9607A604FF0FF33184607F1A7
:101088001407BD4680BC704780B584B000AFF860D7
:10109800B9607A600DF094FC03464FF016021A60AE
:1010A8004FF0FF33184607F11007BD4680BD00BF5B
:1010B80080B485B000AFF860B9607A604FF0000383
:1010C800184607F11407BD4680BC704780B586B046
:1010D80000AFF860B9607A60BB68002B02D14FF0AE
:1010E800000322E04FF000037B6119E000BF4FF4DA
:1010F8009043C4F200031B889BB203F04003002B0B
:10110800F5D07B69BA68D3181B784FF49040C4F2C5
:10111800000019460DF07AF97B6903F101037B6140
:101128007A697B689A42E1DB7B68184607F1180701
:10113800BD4680BD80B483B000AF78604FF0000337
:10114800184607F10C07BD4680BC704780B584B0CF
:1011580000AF786040F2A803C2F200031B68002BBE
:1011680008D140F2A803C2F2000343F69C32C2F24F
:1011780001021A6040F2A803C2F200031B68FB6078
:1011880040F2A803C2F200031A687B68D2186B46C3
:101198009A4208D90DF014FC03464FF00C021A606D
:1011A8004FF0FF330CE040F2A803C2F200031A68C4
:1011B8007B68D21840F2A803C2F200031A60FB68E9
:1011C800184607F11007BD4680BD00BF80B582B044
:1011D80000AF7860396038684FF000014FF03C028A
:1011E8000DF00CFC3B684FF400525A604FF00003BE
:1011F800184607F10807BD4680BD00BF80B483B01C
:1012080000AF78604FF00103184607F10C07BD46A0
:1012180080BC704780B582B000AF786039600DF04F
:10122800CFFB03464FF016021A604FF0FF33184603
:1012380007F10807BD4680BD80B400AF4FF0010339
:101248001846BD4680BC704780B58AB000AF78604C
:101258004FF480204FF001010AF030FD4FF00200FA
:101268004FF001010AF0ACFC4FF440633B624FF0D1
:10127800020387F824304FF0020387F825304FF037
:10128800000387F826304FF0010387F8273007F16D
:1012980020034FF48060C4F20200194609F018FFD9
:1012A8004FF48060C4F202004FF00A014FF00702C9
:1012B8000AF09CF84FF48060C4F202004FF00B0172
:1012C8004FF007020AF092F87B683B614FF0000389
:1012D800BB824FF00003FB824FF000033B834FF0CB
:1012E8000003BB834FF00C037B8307F110034FF41B
:1012F8009040C4F2000019460CF0CCFE4FF4904028
:10130800C4F2000040F225514FF001020DF028FA16
:101318004FF027033B734FF000037B734FF000033C
:10132800BB734FF00103FB7307F10C03184608F079
:1013380023FD4FF49040C4F200004FF001010CF07F
:10134800E5FF07F12807BD4680BD00BF80B582B024
:1013580000AF4FF49040C4F2000040F225510DF068
:1013680083FA0346002B00F0AC804FF44060C4F2CF
:1013780002004FF480410AF027F84FF49040C4F27D
:1013880000000DF057F80346DAB242F67863C2F26D
:1013980001031A7040F2C403C2F200031B78312B18
:1013A80049D840F2C403C2F200031B781A4642F639
:1013B8007863C2F20103197842F67C63C2F2010332
:1013C800995442F67863C2F201031B78302B07D197
:1013D8004FF44060C4F202004FF4004109F0F4FFFA
:1013E80040F2C403C2F200031B781A4642F67C633B
:1013F800C2F201039B5CDBB20D2B0ED140F2AC03B1
:10140800C2F200034FF001021A7040F2C403C2F2A4
:1014180000034FF000021A701BE040F2C403C2F24E
:1014280000031B7803F10103DAB240F2C403C2F2ED
:1014380000031A700DE040F2AC03C2F200034FF053
:1014480001021A7040F2C403C2F200034FF0000216
:101458001A7040F2AC03C2F200031B78002B30D0A4
:101468004FF49040C4F2000042F67C61C2F20101E0
:1014780000F02CF84FF49040C4F200004FF64401FD
:10148800C0F6000100F022F800F05CF940F2AC036D
:10149800C2F200034FF000021A704FF000037B60A5
:1014A8000CE042F67C63C2F201037A689B184FF0A5
:1014B80000021A707B6803F101037B607B68312BA3
:1014C800EFDD07F10807BD4680BD00BF80B582B0DB
:1014D80000AF7860396018E000BF4FF49040C4F264
:1014E80000004FF080010DF08DF90346002BF4D079
:1014F8003B681B78DBB2786819460CF087FF3B68BD
:101508001B783B6803F101033B603B681B78DBB247
:10151800002BE1D107F10807BD4680BD80B58AB030
:1015280000AF786039603B68002B5DD140F2BC03A6
:10153800C2F200031B781A4607F1280082184FF000
:10154800300102F8141C03F10103DAB240F2BC03C3
:10155800C2F200031A7047E039684CF6CD43CCF666
:10156800CC43A3FB01234FEAD30213464FEA83037C
:101578009B184FEA4303CA1A40F2C003C2F20003A1
:101588001A6040F2C003C2F200031B683A68D31A1B
:101598003B603A684CF6CD43CCF6CC43A3FB020340
:1015A8004FEAD3033B6040F2BC03C2F200031B784E
:1015B800194640F2C003C2F200031B68DBB203F114
:1015C8003003DAB207F12800431803F8142C40F26C
:1015D800BC03C2F200031B7803F10103DAB240F244
:1015E800BC03C2F200031A703B68002BB4D14FF061
:1015F80000037B6220E040F2BC03C2F200031B78C8
:1016080003F1FF33DAB240F2BC03C2F200031A70EE
:1016180040F2BC03C2F200031B7807F12801CB1883
:1016280013F8143CDAB207F108017B6ACB181A7078
:101638007B6A03F101037B6240F2BC03C2F2000340
:101648001B78002BD7D107F108027B6AD3184FF01B
:1016580000021A7007F108034FF49040C4F200002A
:101668001946FFF733FF40F2BC03C2F200034FF004
:1016780000021A704FF000033B6211E007F11402F8
:101688003B6AD3184FF000021A7007F108023B6A50
:10169800D3184FF000021A703B6A03F101033B6252
:1016A8003B6A092BEADD07F12807BD4680BD00BF6C
:1016B80080B582B000AF0346FB7100BF40F2B003B3
:1016C800C2F200031B6818464FF000014FF0FF32CA
:1016D8004FF0000305F086FE0346002BEED0FB79A1
:1016E8009BB24FF49040C4F2000019460CF08EFEF5
:1016F8004FF49040C4F2000040F227714FF001020D
:101708000DF02EF807F10807BD4680BD80B582B000
:1017180000AF00BF40F2B403C2F200031A6807F139
:101728000403104619464FF0FF324FF0000305F04E
:1017380059FE0346002BEDD03B79184607F1080700
:10174800BD4680BD80B500AF40F2AC03C2F20003D5
:101758001B78002B00F08D8142F67C63C2F20103F6
:101768001B78DBB22B2B64D140F21803C2F20003C2
:101778001A6840F21403C2F200031B68D21840F240
:101788001803C2F200031A6040F21C03C2F20003FD
:101798001A6840F21403C2F200031B68D21840F220
:1017A8001C03C2F200031A6040F21803C2F20003DD
:1017B8001A6840F21C03C2F200031B68104619465F
:1017C80000F0E4F94FF49040C4F200004FF64801ED
:1017D800C0F60001FFF77AFE40F21803C2F20003D8
:1017E8001B684FF49040C4F200001946FFF796FEBC
:1017F8004FF49040C4F200004FF65001C0F60001CB
:10180800FFF764FE40F21C03C2F200031B684FF4AA
:101818009040C4F200001946FFF780FE4FF4904054
:10182800C4F200004FF65801C0F60001FFF74EFE63
:101838001FE142F67C63C2F201031B78DBB22D2B59
:1018480064D140F21803C2F200031A6840F214038C
:10185800C2F200031B68D21A40F21803C2F2000356
:101868001A6040F21C03C2F200031A6840F2140323
:10187800C2F200031B68D21A40F21C03C2F2000332
:101888001A6040F21803C2F200031A6840F21C03FF
:10189800C2F200031B681046194600F077F94FF4AE
:1018A8009040C4F200004FF64801C0F60001FFF76F
:1018B8000DFE40F21803C2F200031B684FF490407B
:1018C800C4F200001946FFF729FE4FF49040C4F215
:1018D80000004FF65001C0F60001FFF7F7FD40F297
:1018E8001C03C2F200031B684FF49040C4F20000CE
:1018F8001946FFF713FE4FF49040C4F200004FF66C
:101908005801C0F60001FFF7E1FDB2E042F67C6342
:10191800C2F201031B78DBB2652B02D100F02AFA70
:10192800A7E042F67C63C2F201031B78DBB2752B99
:1019380041D142F67C63C2F201035B78DBB2612BD2
:1019480018D14FF49040C4F200004FF65C01C0F685
:101958000001FFF7BBFD4FF0010000F007FB4FF45B
:101968009040C4F200004FF65801C0F60001FFF79E
:10197800ADFD7EE042F67C63C2F201035B78DBB228
:10198800622B76D14FF49040C4F200004FF6680104
:10199800C0F60001FFF79AFD4FF0010000F05EFB72
:1019A8004FF49040C4F200004FF65801C0F6000111
:1019B800FFF78CFD5DE042F67C63C2F201031B7801
:1019C800DBB2642B41D142F67C63C2F201035B783F
:1019D800DBB2612B18D14FF49040C4F200004FF6EF
:1019E8007401C0F60001FFF771FD4FF0020000F02E
:1019F800BDFA4FF49040C4F200004FF65801C0F60B
:101A08000001FFF763FD34E042F67C63C2F2010394
:101A18005B78DBB2622B2CD14FF49040C4F200000B
:101A28004FF68001C0F60001FFF750FD4FF00200AD
:101A380000F014FB4FF49040C4F200004FF6580138
:101A4800C0F60001FFF742FD13E04FF49040C4F2E6
:101A5800000042F67C61C2F20101FFF737FD4FF446
:101A68009040C4F200004FF65801C0F60001FFF79D
:101A78002DFD80BD80B58AB000AF4FF004004FF057
:101A880001010AF01BF94FF008004FF001010AF0BC
:101A980097F84FF440433B624FF0020387F8243035
:101AA8004FF0000387F826304FF0030387F82530FE
:101AB8004FF0010387F8273007F120034FF4406007
:101AC800C4F20200194609F003FB4FF44060C4F267
:101AD80002004FF00E014FF0020209F087FC4FF4AC
:101AE8004060C4F202004FF00F014FF0020209F00B
:101AF8007DFC4FF0FF03BB614FF01F03BB824FF02B
:101B08000003BB834FF00003FB8207F114034FF47B
:101B18000060C4F2000019460AF09EFC4FF0600312
:101B28003B804FF001037B804FF00003BB814FF0F7
:101B38007C03BB603B464FF40060C4F200001946CA
:101B48000AF052FF4FF40060C4F200004FF00801A1
:101B58000BF0C0F93B464FF40060C4F20000194690
:101B68000AF0D2FF4FF40060C4F200004FF0080101
:101B78000BF0CCF94FF40060C4F200004FF0010103
:101B88000AF000FE07F12807BD4680BD80B582B087
:101B980000AF786039604FF40060C4F200007968E3
:101BA8000BF0C8F84FF40060C4F2000039680BF07D
:101BB800CFF807F10807BD4680BD00BF80B582B0E9
:101BC80000AF4FF001004FF0010109F0F9FF3B466B
:101BD800184609F01FFB4FF00F033B604FF000035E
:101BE8003B714FF003037B714FF00103FB713B46E0
:101BF8004FF00000C4F20200194609F069FA07F133
:101C08000807BD4680BD00BF80B584B000AF4FF463
:101C180080404FF001010AF07BF84FF000004FF0D0
:101C2800000107F0FFFF4FF00103BB604FF0000316
:101C38003B734FF008037B734FF00103BB7307F14D
:101C48000803184608F09EFD4FF0010008F0C0FE9A
:101C58004FF006033B714FF003037B714FF0030312
:101C6800BB714FF00103FB7107F10403184608F03C
:101C780083F84FF000004FF0010107F0D3FF4FF059
:101C88000203BB604FF000033B734FF008037B7304
:101C98004FF00103BB7307F10803184608F072FD03
:101CA8004FF0020008F094FE4FF007033B714FF02D
:101CB80003037B714FF00303BB714FF00103FB710A
:101CC80007F10403184608F057F807F11007BD4656
:101CD80080BD00BF80B500AF4FF0010008F04CFE9A
:101CE8000346002B0FD040F2C803C2F200031B6862
:101CF80003F1010240F2C803C2F200031A604FF078
:101D0800010008F065FE80BD80B500AF4FF002000D
:101D180008F032FE0346002B0FD040F2CC03C2F28B
:101D280000031B6803F1010240F2CC03C2F2000376
:101D38001A604FF0020008F04BFE80BD80B485B0F9
:101D480000AF78607B68BB604FF00003BB7307F19E
:101D58001407BD4680BC704780B485B000AF78607A
:101D68007B68BB604FF00103BB7307F11407BD46E6
:101D780080BC704780B500AF4FF00100FFF7DEFF71
:101D88004FF00200FFF7DAFF4FF49040C4F2000072
:101D98004FF68C01C0F60001FFF798FB40F2C8032C
:101DA800C2F200031B684FF49040C4F200001946C9
:101DB800FFF7B4FB4FF49040C4F200004FF69401D3
:101DC800C0F60001FFF782FB40F2CC03C2F2000329
:101DD8001B684FF49040C4F200001946FFF79EFBC1
:101DE8004FF49040C4F200004FF69C01C0F6000189
:101DF800FFF76CFB40F2C803C2F200034FF0000289
:101E08001A6040F2CC03C2F200034FF000021A60DD
:101E18004FF00100FFF7A0FF4FF00200FFF79CFF13
:101E280080BD00BF80B582B000AF4FF008004FF012
:101E3800010109F0C5FE4FF01E033B604FF000039F
:101E48003B714FF002037B714FF00203FB713B467D
:101E58004FF44060C4F20200194609F039F907F15D
:101E68000807BD4680BD00BF80B582B000AF4FF007
:101E780010004FF0010109F0A3FE4FF00F033B6083
:101E88004FF001033B714FF00003BB714FF00303A8
:101E98007B714FF00003FB713B464FF48050C4F256
:101EA8000200194609F014F94FF48050C4F20200F8
:101EB8004FF001014FF0000209F060FA4FF4805032
:101EC800C4F202004FF002014FF0000209F056FA86
:101ED8004FF48050C4F202004FF004014FF00002AA
:101EE80009F04CFA4FF48050C4F202004FF0080198
:101EF8004FF0000209F042FA07F10807BD4680BD1D
:101F080090B583B002AFFFF7AFFFFFF78BFF42F248
:101F18005513C0F6000300934FF6A000C0F600006A
:101F28004FF032014FF001024FF0030307F0BCFA03
:101F3800024642F6B063C2F201031A6042F6B06389
:101F4800C2F201031C6806F031FB03464FF00002A1
:101F5800009220464FF000011A464FF0000307F0A8
:101F6800DBFA07F10407BD4690BD00BF80B582B01B
:101F780000AF78607B68002B1BD14FF48050C4F20F
:101F880002004FF001014FF0000209F0F7F94FF499
:101F98008050C4F202004FF002014FF0000209F035
:101FA800EDF940F2D003C2F200034FF000021A70BC
:101FB80050E07B68012B25D100F0DCF90346012BAA
:101FC80020D000F0D7F90346032B1BD04FF48050E4
:101FD800C4F202004FF001014FF0010209F0CEF9FE
:101FE8004FF48050C4F202004FF002014FF000029B
:101FF80009F0C4F940F2D003C2F200034FF0010225
:102008001A7027E07B68022B24D100F0B3F903464D
:10201800022B1FD000F0AEF90346032B1AD04FF461
:102028008050C4F202004FF001014FF0000209F0A5
:10203800A5F94FF48050C4F202004FF002014FF0AE
:10204800010209F09BF940F2D003C2F200034FF0FD
:1020580002021A7007F10807BD4680BD80B582B03C
:1020680000AF78607B68002B1BD14FF48050C4F21E
:1020780002004FF004014FF0000209F07FF94FF41D
:102088008050C4F202004FF008014FF0000209F03E
:1020980075F940F2D103C2F200034FF000021A7042
:1020A80050E07B68012B25D100F09CF90346012BF9
:1020B80020D000F097F90346032B1BD04FF4805033
:1020C800C4F202004FF004014FF0010209F056F982
:1020D8004FF48050C4F202004FF008014FF00002A4
:1020E80009F04CF940F2D103C2F200034FF00102AB
:1020F8001A7027E07B68022B24D100F073F903469D
:10210800022B1FD000F06EF90346032B1AD04FF4B0
:102118008050C4F202004FF004014FF0000209F0B1
:102128002DF94FF48050C4F202004FF008014FF02F
:10213800010209F023F940F2D103C2F200034FF083
:1021480002021A7007F10807BD4680BD80B500AFCE
:1021580040F2D003C2F200031B78012B04D0022BFB
:102168003DD0002B77D075E040F2D403C2F20003D3
:102178001B6803F1010240F2D403C2F200031A60A3
:1021880000F0F8F80346012B04D000F0F3F80346FA
:10219800032B0AD14FF00000FFF7E8FE40F2D0030E
:1021A800C2F200034FF000021A7040F2D403C2F2E8
:1021B80000031B68132B50DD4FF00000FFF7D6FE1D
:1021C80040F2D003C2F200034FF000021A7040F24E
:1021D800D403C2F200034FF000021A603DE040F25F
:1021E800D403C2F200031B6803F1010240F2D403D6
:1021F800C2F200031A6000F0BDF80346022B04D0B7
:1022080000F0B8F80346032B0AD14FF00000FFF79F
:10221800ADFE40F2D003C2F200034FF000021A7084
:1022280040F2D403C2F200031B68132B17DD4FF0F2
:102238000000FFF79BFE40F2D003C2F200034FF00C
:1022480000021A7040F2D403C2F200034FF00002F9
:102258001A6004E004E000BF02E000BF00E000BF35
:1022680040F2D103C2F200031B78012B04D0022BE9
:102278003DD0002B78D075E040F2D803C2F20003BD
:102288001B6803F1010240F2D803C2F200031A608E
:1022980000F0A8F80346012B04D000F0A3F8034689
:1022A800032B0AD14FF00000FFF7D8FE40F2D1030C
:1022B800C2F200034FF000021A7040F2D803C2F2D3
:1022C80000031B68132B51DD4FF00000FFF7C6FE1B
:1022D80040F2D103C2F200034FF000021A7040F23C
:1022E800D803C2F200034FF000021A603EE040F249
:1022F800D803C2F200031B6803F1010240F2D803BD
:10230800C2F200031A6000F06DF80346022B04D0F5
:1023180000F068F80346032B0AD14FF00000FFF7DE
:102328009DFE40F2D103C2F200034FF000021A7082
:1023380040F2D803C2F200031B68132B18DD4FF0DC
:102348000000FFF78BFE40F2D103C2F200034FF00A
:1023580000021A7040F2D803C2F200034FF00002E4
:102368001A6005E000BF04E000BF02E000BF00E023
:1023780000BF80BD80B500AF4FF44060C4F20200DA
:102388004FF0020108F086FF0346002B0CBF002324
:102398000123DBB21A4640F2E003C2F200031A60DE
:1023A8004FF44060C4F202004FF0040108F072FFDD
:1023B8000346002B02D04FF0020201E04FF000026A
:1023C80040F2E003C2F200031B681A4340F2E00344
:1023D800C2F200031A6040F2E003C2F200031B6875
:1023E800184680BD80B500AF4FF44060C4F20200CB
:1023F8004FF0080108F04EFF0346002B0CBF0023E6
:102408000123DBB21A4640F2DC03C2F200031A6071
:102418004FF44060C4F202004FF0100108F03AFF98
:102428000346002B02D04FF0020201E04FF00002F9
:1024380040F2DC03C2F200031B681A4340F2DC03DB
:10244800C2F200031A6040F2DC03C2F200031B6808
:10245800184680BD80B582B000AF4FF00003FB7115
:102468004FF000004FF4806102F0B6FE0346FB71A6
:10247800FB79002B07D0FB794FF6C400C0F60000AB
:1024880019460CF0C3FAFB79002B35D14FF6DC0066
:10249800C0F600000CF0BAFA43F2B440C2F20100F0
:1024A8004FF000014FF400724FF0020302F016F8EB
:1024B8000346FB71FB79002B05D04FF60C10C0F6D4
:1024C80000000CF0A3FA02F0D5F90346FB71FB7982
:1024D800002B05D04FF62810C0F600000CF096FA35
:1024E80000BF00F063FE0346002BFAD14FF64810F8
:1024F800C0F600000CF08AFAFB79002B0ED143F2EB
:10250800B440C2F201004FF4806100F035F903468F
:102518001A4640F2E403C2F200031A7040F2E403E0
:10252800C2F200031B78DBB2012B05D14FF65C1019
:10253800C0F600000CF06AFA07F10807BD4680BD36
:1025480080B582B000AF43F6B400C2F201004FF488
:10255800007143F20F2200F0BFF843F6B400C2F254
:1025680001004FF000014FF4007202F0F3F9034646
:10257800FB7102F071FD0346FB7100BF00F016FE0F
:102588000346002BFAD1FB79002B15D143F2B42076
:10259800C2F201004FF000014FF4007201F0C0FEDA
:1025A8000346FB7102F066F90346FB7100BF00F0B9
:1025B800FDFD0346002BFAD1FB79002B12D143F61F
:1025C800B400C2F2010043F2B421C2F201014FF497
:1025D800007200F0A5F803461A4640F2E503C2F27D
:1025E80000031A7040F2E503C2F200031B78DBB265
:1025F800012B05D14FF67410C0F600000CF006FA56
:1026080007F10807BD4680BD80B582B000AF42F62D
:10261800B460C2F201004FF480614FF0000200F094
:102628005BF842F6B460C2F201004FF000014FF4CB
:1026380000724FF0020302F0BDFB0346FB7102F08B
:102648000BFD0346FB7100BF00F0B0FD0346002BF5
:10265800FAD1FB79002B17D143F2B440C2F2010042
:102668004FF000014FF400724FF0020302F01CF823
:102678000346FB7102F0FEF80346FB7100BF00F051
:1026880095FD0346002BFAD1FB79002B12D142F6B7
:10269800B460C2F2010043F2B441C2F201014FF446
:1026A800806200F03DF803461A4640F2E603C2F2A3
:1026B80000031A7040F2E603C2F200031B78DBB293
:1026C800012B05D14FF69410C0F600000CF09EF9CE
:1026D80007F10807BD4680BD80B487B000AFF86039
:1026E800B9607A604FF00003FB824FF00003FB8271
:1026F8000DE0FB8AFA68D318FA8AD1B27A68D2B2A6
:102708008A18D2B21A70FB8A03F10103FB82FA8A93
:10271800BB689A42EDD307F11C07BD4680BC7047E1
:1027280080B485B000AFF860B9607A6010E0FB68EB
:102738001A78BB681B789A4202D04FF0000315E064
:10274800FB6803F10103FB60BB6803F10103BB6095
:102758007B68002B0CBF00230123DBB27A6802F1EF
:10276800FF327A60002BE2D14FF00103184607F1DF
:102778001407BD4680BC704780B483B000AF786052
:1027880039600EE07B681B78FF2B06D07B681B78CE
:10279800002B02D04FF0000311E07B6803F1010326
:1027A8007B603B68002B0CBF00230123DBB23A6837
:1027B80002F1FF323A60002BE4D14FF001031846D2
:1027C80007F10C07BD4680BC704700BF80B582B0DA
:1027D80000AF00F09BF800F06FFC0346FB714FF66A
:1027E800B810C0F600000CF011F9FB79002B06D1E7
:1027F8004FF6D010C0F600000CF008F90DE04FF6C7
:10280800E410C0F600000CF001F9FB794FF6F41063
:10281800C0F6000019460CF0F9F843F6D023C2F2CE
:10282800010393F856304FF60420C0F6000019460D
:102838000CF0ECF843F6D023C2F20103D3E91223DB
:102848004FF61420C0F600000CF0E0F843F6D02351
:10285800C2F201031B6D4FF62820C0F6000019468E
:102868000CF0D4F843F6D023C2F2010393F82C30CD
:10287800DBB24FF63C20C0F6000019460CF0C6F853
:1028880043F6D023C2F20103B3F854304FF6502078
:10289800C0F6000019460CF0B9F829E040F2200310
:1028A800C2F200031B68012B04D0012B0CD3022BAE
:1028B80014D01DE0FFF744FE40F22003C2F20003EB
:1028C8004FF000021A6013E0FFF7C4FD40F2200346
:1028D800C2F200034FF002021A6009E0FFF794FE0B
:1028E80040F22003C2F200034FF003021A6000BF57
:1028F800FB79002B06D140F22003C2F200031B68CB
:10290800032BCBD107F10807BD4680BD80B582B047
:1029180000AF4FF4407007F01BFA4FF031033B71E2
:102928004FF000037B714FF00003BB714FF00103C0
:10293800FB7107F10403184607F01EFA4FF03B033A
:102948003B714FF001037B7107F10403184607F050
:1029580013FA07F10807BD4680BD00BF80B500AF78
:1029680002F03AFF80BD00BF80B500AF02F0BCFFA7
:1029780080BD00BF80B584B000AF3B46184608F064
:10298800CFFF3B684FF65C20C0F6000019460CF0FC
:102998003DF87B684FF66C20C0F6000019460CF035
:1029A80035F8BB684FF67820C0F6000019460CF0E1
:1029B8002DF8FB684FF68820C0F6000019460CF089
:1029C80025F807F11007BD4680BD00BF80B586B069
:1029D80000AF786039604FF000037B614FF000036F
:1029E8003B614FF00003FB813B681B787B734FF022
:1029F80000037B615FE04FF00A000CF01FF87B6971
:102A08004FEA03127B68D3184FF69820C0F60000EF
:102A180019460BF0FBFF4FF000033B6114E0FB8904
:102A28003A68D3181B787B73FB8903F10103FB8198
:102A38007B7B4FF6A420C0F6000019460BF0E6FF9A
:102A48003B6903F101033B613B690F2BE7D94FF663
:102A5800AC20C0F600000BF0D9FFFB89A3F11003EE
:102A6800FB814FF000033B6118E0FB893A68D318FB
:102A78001B787B73FB8903F10103FB817B7B202B94
:102A880004D97B7B18460BF0D9FF03E04FF02E00EA
:102A98000BF0D4FF3B6903F101033B613B690F2B4A
:102AA800E3D94FF6B020C0F600000BF0AFFF7B690A
:102AB80003F101037B617B691F2B9CD907F1180780
:102AC800BD4680BD80B5ADF5047D00AF07F10403B8
:102AD80018604FF00003C7F80C3235E007F108031F
:102AE8001846D7F80C124FF400724FF0010301F0AA
:102AF800F5FC034687F80B3297F80B32002B04D00D
:102B080097F80B32184600F035F800BF00F04EFB7E
:102B18000346002BFAD1D7F80C324FEA432207F1CB
:102B2800080310461946FFF751FFD7F80C32D7F8BB
:102B38000C2202F10102C7F80C224FF6B420C0F6AD
:102B4800000019460BF062FF07F104031B68002B15
:102B58000CBF00230123DBB207F1040207F10401D3
:102B6800096801F1FF311160002BB7D107F504772F
:102B7800BD4680BD80B5ACB000AF0346FB714FF6D3
:102B88003463C0F6000307F108011A464FF0A803A2
:102B9800084611461A460BF028FFFA79FB794FEAE6
:102BA800830307F1B001CB1853F8A83C4FF6C420B3
:102BB800C0F6000011461A460BF028FF07F1B007CF
:102BC800BD4680BDB0B58CB000AF0346FB714FF673
:102BD800A073C0F6000307F10C041D460FCD0FC407
:102BE8000FCD0FC42B682360FB79072B11D8FA7916
:102BF800FB794FEA830307F13001CB1853F8243CE3
:102C08004FF6DC60C0F6000011461A460BF0FEFED7
:102C180009E0FA79FB6A4FF6DC60C0F6000011465D
:102C28001A460BF0F3FE07F13007BD46B0BD00BFF2
:102C3800F0B58BB000AF40F23423C0F6010307F1C2
:102C480004069E46BEE80F000FC69EE80F0086E801
:102C58000F004FF6C470C0F600000BF0D7FE43F625
:102C6800D020C2F2010000F003FE034687F82730A7
:102C780097F82730002B0DD04FF6D470C0F600001F
:102C88000BF0C4FE97F827301846FFF773FF97F844
:102C9800273003E197F82730002B40F0FD8000F043
:102CA800A3FA03461846FFF78DFF43F6D023C2F276
:102CB80001031B6D40F20400C0F6010019460BF039
:102CC800A5FE43F6D023C2F20103D3E9122340F252
:102CD8001800C0F601000BF099FE43F6D023C2F2AB
:102CE8000103D3E912234FEA03314FEA12540C438C
:102CF8004FEA1355234640F23000C0F6010019464A
:102D08000BF084FE43F6D023C2F2010393F8563049
:102D18004FEA830307F12802D31853F8243C40F202
:102D28003C00C0F6010019460BF070FE43F6D023B4
:102D3800C2F20103B3F8543040F24800C0F6010073
:102D480019460BF063FE43F6D023C2F201035B7908
:102D5800DBB240F25400C0F6010019460BF056FEF3
:102D680043F6D023C2F201031B6940F27000C0F69B
:102D7800010019460BF04AFE43F6D023C2F20103C4
:102D88001B7EDBB240F28800C0F6010019460BF04A
:102D98003DFE43F6D023C2F201031B7ADBB240F2B8
:102DA800A400C0F6010019460BF030FE43F6D0230C
:102DB800C2F20103DB7FDBB240F2BC00C0F60100C7
:102DC80019460BF023FE40F2D800C0F601000BF0C4
:102DD8001DFE43F6D023C2F2010393F82C30DBB278
:102DE80040F2E000C0F6010019460BF00FFE43F672
:102DF800D023C2F201031B6B40F2F800C0F60100B9
:102E080019460BF003FE43F6D023C2F2010393F8F0
:102E18003430DBB240F20C10C0F6010019460BF05A
:102E2800F5FD43F6D023C2F2010393F83530DBB247
:102E380040F22010C0F6010019460BF0E7FD43F6FA
:102E4800D023C2F201039B6B40F23010C0F60100A0
:102E580019460BF0DBFD43F6D023C2F20103DB8FEA
:102E68009BB240F24010C0F6010019460BF0CEFDAF
:102E780043F6D023C2F2010393F84030DBB240F2AC
:102E88005810C0F6010019460BF0C0FD00F0ACF96F
:102E980003461846FFF796FE4FF00003184607F161
:102EA8002C07BD46F0BD00BF80B586B000AF40F22C
:102EB8005420C0F601000BF0A9FD07F104031846E1
:102EC80001F070F80346FB75FB7D002B0BD040F238
:102ED8006420C0F601000BF099FDFB7D1846FFF752
:102EE80049FEFB7D5DE0FB7D002B58D13B79DBB2D1
:102EF80040F29820C0F6010019460BF087FD7B7957
:102F0800DBB240F2B020C0F6010019460BF07EFD9E
:102F1800FB889BB240F2C820C0F6010019460BF0AE
:102F280075FDBB6840F2E020C0F6010019460BF0C1
:102F38006DFD3B7BDBB240F20030C0F60100194664
:102F48000BF064FD7B7BDBB240F21430C0F601006D
:102F580019460BF05BFDBB7BDBB240F23030C0F6AC
:102F6800010019460BF052FD3B8A9BB240F24030FB
:102F7800C0F6010019460BF049FDBB7CDBB240F2FC
:102F88005430C0F6010019460BF040FDFB7CDBB263
:102F980040F26C30C0F6010019460BF037FD4FF0D7
:102FA8000003184607F11807BD4680BD80B582B0FA
:102FB80000AF40F28430C0F601000BF027FDFFF7A8
:102FC800D9FC40F22403C2F200031B6840F29C3093
:102FD800C0F6010019460BF019FD40F22403C2F2B5
:102FE80000031A6848F68903C8F68803A3FB02138E
:102FF8004FEA931340F2D430C0F6010019460BF0A3
:1030080005FD40F22403C2F200031B684FEA930354
:1030180040F21040C0F6010019460BF0F7FC40F2F0
:103028005440C0F601000BF0F1FC00F045F80346EF
:10303800FB71FB79002B09D040F26440C0F6010017
:103048000BF0E4FCFB791846FFF794FDFFF7F0FD61
:10305800FFF72AFF40F29040C0F601000BF0D6FCC3
:1030680043F6D020C2F2010000F002FC0346FB71D7
:10307800FB79002B09D04FF6D470C0F600000BF096
:10308800C5FCFB791846FFF775FD43F6D023C2F25D
:1030980001031B6940F2AC40C0F6010019460BF071
:1030A800B5FC07F10807BD4680BD00BF80B500AF7D
:1030B80003F068FA80BD00BF80B582B000AF4FF062
:1030C8000003FB7103F0D8FA07F092FC00F0C0F897
:1030D8000346FB71FB79DBB2002B02D0FB79DBB234
:1030E8005FE000F08BFA0346FB71FB79DBB2002B43
:1030F80002D0FB79DBB254E043F62833C2F2010375
:103108004FF002021A7543F62833C2F201034FF05A
:1031180000021A6043F62833C2F201034FF000029E
:103128005A6043F62833C2F201034FF000029A6056
:1031380043F62833C2F201034FF00002DA6043F687
:103148002833C2F201034FF000021A6143F6283017
:10315800C2F2010007F05CFC43F6D020C2F2010085
:1031680000F086FB0346FB71FB79DBB2002B0CD128
:1031780043F6D023C2F20103B3F854304FEA0343B5
:10318800184601F091F80346FB71FB79DBB2002B7E
:1031980005D14FF4006000F0D9FF0346FB71FB79BD
:1031A800DBB2184607F10807BD4680BD80B582B07E
:1031B80000AF4FF00403FB7100F016F80346FB71F3
:1031C800FB79042B02D14FF0000307E0FB79FF2BBA
:1031D80002D14FF0020301E04FF00103184607F156
:1031E8000807BD4680BD00BF80B582B000AF4FF074
:1031F80000037B6000F01EF80346012B12D107F193
:103208000403184602F018F90346002B02D04FF0C9
:10321800FF0309E07B684FEA5323DBB203F00F0397
:10322800DBB201E04FF0FF03184607F10807BD467F
:1032380080BD00BF80B483B000AF4FF00103FB71C5
:10324800FB79DBB2184607F10C07BD4680BC704716
:1032580080B586B000AF4FF00003FB714FF000035C
:103268007B614FF000033B614FF00003FB604FF0C0
:103278000003BB6043F62833C2F201034FF0760225
:103288001A7543F62833C2F201034FF000021A60A0
:1032980043F62833C2F201034FF000025A6043F6A6
:1032A8002833C2F201034FF000029A6043F6283334
:1032B800C2F201034FF00002DA6043F62833C2F28B
:1032C80001034FF000021A6143F62830C2F20100F0
:1032D80007F09EFB4FF0030007F000FC4FF00100E1
:1032E80007F0ECFB43F6B823C2F201034FF00002EB
:1032F8001A6043F6B823C2F201034FF000025A6085
:1033080043F6B823C2F201034FF000029A6043F675
:10331800B823C2F201034FF00002DA6043F6B82383
:10332800C2F201034FF480621A6143F6B820C2F278
:10333800010007F0F1FB02F0F3FA0346FB71FB7999
:10334800DBB2002B02D0FB79DBB242E143F6B823B3
:10335800C2F201034FF4D5721A6043F6B823C2F2E1
:1033680001034FF008025A6043F6B823C2F2010382
:103378004FF040029A6043F6B823C2F201034FF0BF
:103388000002DA6043F6B823C2F201034FF4806208
:103398001A6143F6B820C2F2010007F0BDFB02F043
:1033A800E9FA0346FB71FB79DBB2002B0AD140F244
:1033B800E803C2F200034FF001021A604FF08043A5
:1033C800BB602EE043F6B823C2F201034FF00002BF
:1033D8001A6043F6B823C2F201034FF037025A606D
:1033E80043F6B823C2F201034FF040029A6043F655
:1033F800B823C2F201034FF00002DA6043F6B823A3
:10340800C2F201034FF480621A6143F6B820C2F297
:10341800010007F081FB4FF0370002F0F3FA034692
:10342800FB7143F6B823C2F201034FF000021A60A1
:1034380043F6B823C2F201034FF037025A6043F64D
:10344800B823C2F201034FF040029A6043F6B82352
:10345800C2F201034FF00002DA6043F6B823C2F269
:1034680001034FF480621A6143F6B820C2F20100EA
:1034780007F052FB4FF0370002F0C4FA0346FB7125
:10348800FB79DBB2002B40F0A2807EE043F6B82344
:10349800C2F201034FF000021A6043F6B823C2F2E9
:1034A80001034FF037025A6043F6B823C2F2010312
:1034B8004FF040029A6043F6B823C2F201034FF07E
:1034C8000002DA6043F6B823C2F201034FF48062C7
:1034D8001A6143F6B820C2F2010007F01DFB4FF055
:1034E800370002F08FFA0346FB71FB79DBB2002B41
:1034F80002D0FB79DBB26CE0BB6843F0004242F4D7
:10350800801243F6B823C2F201031A6043F6B823C7
:10351800C2F201034FF029025A6043F6B823C2F2FF
:1035280001034FF040029A6043F6B823C2F2010348
:103538004FF00002DA6043F6B823C2F201034FF4F9
:1035480080621A6143F6B820C2F2010007F0E4FA7B
:1035580002F048FB0346FB71FB79DBB2002B02D07B
:10356800FB79DBB235E04FF0000007F033FB786100
:103578007B694FEAD373012B14BF00230123DBB20D
:10358800FB603B6903F101033B61FB68002B05D13C
:103598003A694FF6FE739A427FF678AF3A694FF66A
:1035A800FE739A4205D94FF01B03FB71FB79DBB21E
:1035B8000FE07B6903F080437B617B69002B06D0B9
:1035C80040F2E803C2F200034FF002021A60FB79EE
:1035D800DBB2184607F11807BD4680BD80B582B03A
:1035E80000AF4FF00003FB714FF0000007F076FAD0
:1035F800FB79184607F10807BD4680BD80B582B043
:1036080000AF4FF00003FB714FF00103BB8007F0E0
:1036180075FA0346002B04D14FF02503FB71FB79A3
:1036280021E140F2E803C2F200031B68042B59D0E1
:1036380043F6B823C2F201034FF000021A6043F6C2
:10364800B823C2F201034FF002025A6043F6B823CE
:10365800C2F201034FF0C0029A6043F6B823C2F2E7
:1036680001034FF00002DA6043F6B823C2F2010307
:103678004FF480621A6143F6B820C2F2010007F0E5
:103688004BFA02F0DFFA0346FB71FB79002B01D0FD
:10369800FB79E8E04FF0000007F09CFA024640F2A0
:1036A800FC03C2F200031A604FF0040007F092FA1C
:1036B800024640F2FC03C2F200035A604FF00800D1
:1036C80007F088FA024640F2FC03C2F200039A604F
:1036D8004FF00C0007F07EFA024640F2FC03C2F2FB
:1036E8000003DA6040F2E803C2F200031B68002B13
:1036F80014D040F2E803C2F200031B68012B0DD07E
:1037080040F2E803C2F200031B68062B06D040F221
:10371800E803C2F200031B68022B36D143F6B82334
:10372800C2F201034FF000021A6043F6B823C2F256
:1037380001034FF003025A6043F6B823C2F20103B3
:103748004FF040029A6043F6B823C2F201034FF0EB
:103758000002DA6043F6B823C2F201034FF4806234
:103768001A6143F6B820C2F2010007F0D5F907F153
:1037780004034FF00300194602F0A2FA0346FB7156
:10378800FB79002B01D0FB796DE040F2E803C2F22F
:1037980000031B68042B62D0BB881A4640F20C1346
:1037A800C2F200031A60BB884FEA03431A4643F685
:1037B800B823C2F201031A6043F6B823C2F2010328
:1037C8004FF009025A6043F6B823C2F201034FF0E2
:1037D800C0029A6043F6B823C2F201034FF0000218
:1037E800DA6043F6B823C2F201034FF480621A612B
:1037F80043F6B820C2F2010007F08EF902F022FA6F
:103808000346FB71FB79002B01D0FB792BE04FF0CD
:10381800000007F0DFF9024640F2EC03C2F20003B1
:103828001A604FF0040007F0D5F9024640F2EC03A5
:10383800C2F200035A604FF0080007F0CBF90246C5
:1038480040F2EC03C2F200039A604FF00C0007F05C
:10385800C1F9024640F2EC03C2F20003DA604FF00D
:103868000003FB71FB79184607F10807BD4680BDC8
:10387800B0B485B000AF78604FF00001B9734FF075
:103888000001F97340F2E801C2F200010968C8B208
:10389800796881F8560040F20C11C2F200010968FB
:1038A80088B27968A1F8540040F2EC01C2F2000134
:1038B80009684FEA1161F973F97B4FEA9111C8B2AF
:1038C80079680870F97B01F03C014FEAA101C8B2A0
:1038D80079684870F97B01F00301C8B2796888708B
:1038E80040F2EC01C2F20001096801F47F014FEADD
:1038F8001141F9737968F87BC87040F2EC01C2F2A3
:103908000001096801F47F414FEA1121F9737968D0
:10391800F87B087140F2EC01C2F200010968F97302
:103928007968F87B487140F2EC01C2F200014968FD
:103938004FEA1161F973F97B89B24FEA011188B234
:103948007968C88040F2EC01C2F20001496801F4CC
:103958007F014FEA1141F9737968C98888B2F97B08
:103968004FEA1111C9B2014388B27968C880F97B5E
:1039780001F00F01C8B27968087240F2EC01C2F296
:103988000001496801F47F414FEA1121F973F97B7D
:103998004FEAD111C8B279684872F97B01F0400149
:1039A8004FEAA111C8B279688872F97B01F0200149
:1039B8004FEA6111C8B27968C872F97B01F0100149
:1039C8004FEA2111C8B27968087379684FF000008E
:1039D800487340F2E801C2F200010968002907D0E3
:1039E80040F2E801C2F200010968012940F0AF8005
:1039F800FB7B03F003034FEA83231A467B681A61B3
:103A080040F2EC03C2F200035B68FB737B681A693F
:103A1800FB7B4FEA83031A437B681A6140F2EC038D
:103A2800C2F200039B684FEA1363FB737B681A6951
:103A3800FB7B4FEA9313DBB21A437B681A61FB7B6B
:103A480003F038034FEAE303DAB27B681A75FB7BAD
:103A580003F00703DAB27B685A7540F2EC03C2F24E
:103A680000039B6803F47F034FEA1343FB73FB7B5C
:103A78004FEA5313DAB27B689A75FB7B03F01C0399
:103A88004FEAA303DAB27B68DA75FB7B03F0030322
:103A9800DBB24FEA4303DAB27B681A7640F2EC03F2
:103AA800C2F200039B6803F47F434FEA1323FB73BE
:103AB8007B681B7EDAB2FB7B4FEAD313DBB213437E
:103AC800DAB27B681A767B681B6903F101010A4642
:103AD8004FF000037968C1E912237B68D3E912012A
:103AE8007B681B7EDBB203F102034FF0010202FA8E
:103AF80003F422464FEAE27302FB01F500FB03F4EC
:103B08002C19A0FB0223E1180B467968C1E912239E
:103B18007B681B7ADBB24FF0010202FA03F31A4604
:103B28007B681A657B68D3E912017B681C6D2246A5
:103B38004FF0000302FB01F500FB03F42C19A0FB76
:103B48000223E1180B467968C1E9122353E040F2D9
:103B5800E801C2F20001096802294CD140F2EC01E7
:103B6800C2F200014968F973F97B01F03F014FEA9D
:103B7800014108467968086140F2EC01C2F200018F
:103B880089684FEA1161F97379680869F97B4FEA26
:103B9800012108437968086140F2EC01C2F2000192
:103BA800896801F47F014FEA1141F973796808695E
:103BB800F97B08437968086140F2EC01C2F2000120
:103BC800896801F47F414FEA1121F973796809691D
:103BD80001F1010420464FF000014FEA50344FEA4A
:103BE800C14323434FEAC0427968C1E912237B6885
:103BF8004FF400721A65FB7B03F040034FEAA313EE
:103C0800DAB27B685A76FB7B03F03F03DBB24FEAFC
:103C18004303DAB27B689A7640F2EC03C2F20003FF
:103C28009B68FB737B689B7EDAB2FB7B4FEAD313FE
:103C3800DBB21343DAB27B689A76FB7B03F07F032F
:103C4800DAB27B68DA7640F2EC03C2F20003DB6892
:103C58004FEA1363FB73FB7B4FEAD313DAB27B683B
:103C68001A77FB7B03F060034FEA6313DAB27B68D1
:103C78005A77FB7B03F01C034FEAA303DAB27B6895
:103C88009A77FB7B03F00303DBB24FEA8303DAB2D4
:103C98007B68DA7740F2EC03C2F20003DB6803F4D6
:103CA8007F034FEA1343FB737B68DB7FDAB2FB7B4E
:103CB8004FEA9313DBB21343DAB27B68DA77FB7B04
:103CC80003F020034FEA6313DAB27B6883F82020FD
:103CD8007B684FF0000283F82120FB7B03F001038F
:103CE800DAB27B6883F8222040F2EC03C2F20003C8
:103CF800DB6803F47F434FEA1323FB73FB7B4FEA34
:103D0800D313DAB27B6883F82320FB7B03F04003EC
:103D18004FEAA313DAB27B6883F82420FB7B03F015
:103D280020034FEA6313DAB27B6883F82520FB7B14
:103D380003F010034FEA2313DAB27B6883F82620D6
:103D4800FB7B03F00C034FEAA303DAB27B6883F82A
:103D58002720FB7B03F00303DAB27B6883F8282073
:103D680040F2EC03C2F20003DB68FB73FB7B4FEA13
:103D78005303DAB27B6883F829207B684FF001028D
:103D880083F82A2040F2FC03C2F200031B684FEAC2
:103D98001363FB737B68FA7B83F82C2040F2FC03E7
:103DA800C2F200031B6803F47F034FEA1343FB735B
:103DB800FB7B9BB24FEA03239AB27B68DA8540F219
:103DC800FC03C2F200031B6803F47F434FEA13238A
:103DD800FB737B68DB8D9AB2FB7B9BB213439AB271
:103DE8007B68DA8540F2FC03C2F200031B68FB73B0
:103DF800FB7B4FEA03631A467B681A6340F2FC03B5
:103E0800C2F200035B684FEA1363FB737B681A6BAB
:103E1800FB7B4FEA03431A437B681A6340F2FC03B7
:103E2800C2F200035B6803F47F034FEA1343FB739A
:103E38007B681A6BFB7B4FEA03231A437B681A6380
:103E480040F2FC03C2F200035B6803F47F434FEACD
:103E58001323FB737B681A6BFB7B1A437B681A631B
:103E680040F2FC03C2F200035B68FB737B68FA7BD9
:103E780083F8342040F2FC03C2F200039B684FEA47
:103E88001363FB737B68FA7B83F8352040F2FC03ED
:103E9800C2F200039B6803F47F034FEA1343FB73EA
:103EA800FB7B4FEA03631A467B689A6340F2FC0384
:103EB800C2F200039B6803F47F434FEA1323FB73AA
:103EC8007B689A6BFB7B4FEA03431A437B689A63D0
:103ED80040F2FC03C2F200039B68FB737B689A6B99
:103EE800FB7B4FEA03231A437B689A6340F2FC0387
:103EF800C2F20003DB684FEA1363FB737B689A6BBB
:103F0800FB7B1A437B689A6340F2FC03C2F200030E
:103F1800DB6803F47F034FEA1343FB737B6893F872
:103F28003C30DAB2FB7B4FEA1313DBB21343DAB24D
:103F38007B6883F83C20FB7B9BB203F00F039BB2AA
:103F48004FEA03239AB27B68DA8740F2FC03C2F295
:103F58000003DB6803F47F434FEA1323FB737B689A
:103F6800DB8F9AB2FB7B9BB213439AB27B68DA87EA
:103F780040F2FC03C2F20003DB68FB73FB7B4FEAF1
:103F88005303DAB27B6883F840207B684FF0010264
:103F980083F84120BB7B184607F11407BD46B0BC27
:103FA800704700BF80B584B000AF78604FF0000361
:103FB800FB734FF00003BB7340F21010C2F2000015
:103FC80001F090FA0346FB73FB7B002B01D0FB7BCF
:103FD800B7E040F21013C2F200031B784FEA9313C4
:103FE800BB737B68BA7B1A7040F21013C2F20003ED
:103FF8001B7803F020034FEA6313BB737B68BA7B1B
:104008005A7040F21013C2F200039B78BB73BB7B5B
:104018009BB24FEA03239AB27B685A8040F210138E
:10402800C2F20003DB78BB737B685B889AB2BB7B08
:104038009BB213439AB27B685A8040F21013C2F2C3
:1040480000031B79BB73BB7B4FEA03631A467B688B
:104058005A6040F21013C2F200035B79BB737B68AD
:104068005A68BB7B4FEA03431A437B685A6040F2A5
:104078001013C2F200039B79BB737B685A68BB7B41
:104088004FEA03231A437B685A6040F21013C2F2C6
:104098000003DB79BB737B685A68BB7B1A437B6878
:1040A8005A6040F21013C2F200031B7ABB737B689C
:1040B800BA7B1A7240F21013C2F200035B7ABB7328
:1040C8007B68BA7B5A7240F21013C2F200039B7AE3
:1040D8004FEA1313BB737B68BA7B9A7240F21013D2
:1040E800C2F20003DB7ABB73BB7B9BB24FEA0323AC
:1040F8009AB27B689A8140F21013C2F200031B7BCC
:10410800BB737B689B899AB2BB7B9BB213439AB201
:104118007B689A8140F21013C2F200035B7B4FEA7E
:104128009303BB737B68BA7B9A7340F21013C2F295
:1041380000035B7B03F00303BB737B68BA7BDA7312
:10414800FB7B184607F11007BD4680BD80B584B0DB
:1041580000AF78604FF00003FB7340F2E803C2F24F
:1041680000031B68032B04D14FF02703FB73FB7B71
:1041780095E040F2E803C2F200031B68002B0DD063
:1041880040F2E803C2F200031B68012B06D040F29C
:10419800E803C2F200031B68022B7FD17B68B3F5EA
:1041A800805F04D14FF02703FB73FB7B77E07B68CC
:1041B800B3F5006F39D14FF0010001F0F7FD034668
:1041C800FB73FB7B002B69D143F62833C2F2010352
:1041D8004FF002021A7543F62833C2F201034FF07A
:1041E80000021A6043F62833C2F201034FF00002BE
:1041F8005A6043F62833C2F201034FF000029A6076
:1042080043F62833C2F201034FF40062DA6043F642
:104218002833C2F201034FF000021A6143F6283036
:10422800C2F2010006F0F4FB38E04FF0000001F0A4
:10423800BDFD0346FB73FB7B002B2FD143F62833D0
:10424800C2F201034FF002021A7543F62833C2F294
:1042580001034FF000021A6043F62833C2F201034B
:104268004FF000025A6043F62833C2F201034FF0C0
:1042780000029A6043F62833C2F201034FF00002AD
:10428800DA6043F62833C2F201034FF000021A61E4
:1042980043F62830C2F2010006F0BAFBFB7B184651
:1042A80007F11007BD4680BD80B584B000AF7860C7
:1042B8004FF00003FB7343F6B823C2F201037A6898
:1042C8001A6043F6B823C2F201034FF007025A609E
:1042D80043F6B823C2F201034FF040029A6043F656
:1042E800B823C2F201034FF00002DA6043F6B823A4
:1042F800C2F201034FF480621A6143F6B820C2F299
:10430800010006F009FC4FF0070001F07BFB0346B3
:10431800FB73FB7B184607F11007BD4680BD00BF45
:1043280080B586B000AFF860B9601346FB804FF0E7
:104338000003FB7540F22413C2F200034FF00002A1
:104348001A7040F22813C2F200034FF000021A60FC
:1043580040F22013C2F200034FF000021A604FF43B
:104368003053C4F201034FF00002DA6240F2E8036E
:10437800C2F200031B68022B06D14FF40073FB80C6
:10438800BB684FEA5323BB60FA8843F6B823C2F2EE
:1043980001031A6043F6B823C2F201034FF010027A
:1043A8005A6043F6B823C2F201034FF040029A6004
:1043B80043F6B823C2F201034FF00002DA6043F675
:1043C800B823C2F201034FF480621A6143F6B820A1
:1043D800C2F2010006F0A0FB4FF0100001F012FB42
:1043E8000346FB75FB7D002B01D0FB7D71E043F696
:1043F8004033C2F201034FF0FF321A60FA8843F6E5
:104408004033C2F201035A6043F64033C2F201035B
:104418004FF090029A6043F64033C2F201034FF026
:104428000202DA6043F64033C2F201034FF00002A1
:104438001A6143F64033C2F201034FF001025A6198
:1044480043F64030C2F2010006F0DAFB43F6B82327
:10445800C2F20103BA681A6043F6B823C2F2010334
:104468004FF011025A6043F6B823C2F201034FF02D
:1044780040029A6043F6B823C2F201034FF00002EB
:10448800DA6043F6B823C2F201034FF480621A617E
:1044980043F6B820C2F2010006F03EFB4FF01100CF
:1044A80001F0B0FA0346FB75FB7D002B01D0FB7DC4
:1044B8000FE040F22A304FF0010106F0C7FC4FF040
:1044C800010006F0B3FCFB88F868194602F0DAF937
:1044D800FB7D184607F11807BD4680BD80B586B03C
:1044E80000AFF860B9603B601346FB804FF00003F3
:1044F800FB7540F22413C2F200034FF000021A7059
:1045080040F22813C2F200034FF000021A6040F292
:104518002013C2F200034FF001021A604FF4305327
:10452800C4F201034FF00002DA6240F2E803C2F27B
:1045380000031B68022B06D14FF40073FB80BB6895
:104548004FEA5323BB60FA8843F6B823C2F201034B
:104558001A6043F6B823C2F201034FF010025A6002
:1045680043F6B823C2F201034FF040029A6043F6C3
:10457800B823C2F201034FF00002DA6043F6B82311
:10458800C2F201034FF480621A6143F6B820C2F206
:10459800010006F0C1FA4FF0100001F033FA0346AB
:1045A800FB75FB7D002B01D0FB7D77E043F64033A4
:1045B800C2F201034FF0FF321A60FB883A6802FB2F
:1045C80003F243F64033C2F201035A6043F6403324
:1045D800C2F201034FF090029A6043F64033C2F2F0
:1045E80001034FF00202DA6043F64033C2F20103DE
:1045F8004FF000021A6143F64033C2F201034FF054
:1046080001025A6143F64030C2F2010006F0F8FA9E
:1046180043F6B823C2F20103BA681A6043F6B82316
:10462800C2F201034FF012025A6043F6B823C2F2F5
:1046380001034FF040029A6043F6B823C2F2010327
:104648004FF00002DA6043F6B823C2F201034FF4D8
:1046580080621A6143F6B820C2F2010006F05CFAE3
:104668004FF0120001F0CEF90346FB75FB7D002BDD
:1046780001D0FB7D12E040F22A304FF0010106F034
:10468800E5FB4FF0010006F0D1FBFB883A6802FB1E
:1046980003F3F868194602F0F5F8FB7D184607F1B0
:1046A8001807BD4680BD00BF80B586B000AFF86072
:1046B800B9607A603B604FF00003FB7540F2241349
:1046C800C2F200034FF000021A7040F22813C2F23F
:1046D80000034FF000021A6040F22013C2F20003F8
:1046E8004FF001021A604FF43053C4F201034FF047
:1046F8000002DA6240F2E803C2F200031B68022BF0
:1047080003D14FF400737B6004E0BB687A6802FB56
:1047180003F3BB6043F6B823C2F201037A681A6058
:1047280043F6B823C2F201034FF010025A6043F671
:10473800B823C2F201034FF040029A6043F6B8234F
:10474800C2F201034FF00002DA6043F6B823C2F266
:1047580001034FF480621A6143F6B820C2F20100E7
:1047680006F0DAF94FF0100001F04CF90346FB753A
:10477800FB7D002B01D0FB7D77E043F64033C2F28E
:1047880001034FF0FF321A603B687A6802FB03F2BC
:1047980043F64033C2F201035A6043F64033C2F293
:1047A80001034FF090029A6043F64033C2F20103CE
:1047B8004FF00202DA6043F64033C2F201034FF0D1
:1047C80000021A6143F64033C2F201034FF00102BE
:1047D8005A6143F64030C2F2010006F011FA43F67E
:1047E800B823C2F20103BA681A6043F6B823C2F2CA
:1047F80001034FF012025A6043F6B823C2F20103D4
:104808004FF040029A6043F6B823C2F201034FF01A
:104818000002DA6043F6B823C2F201034FF4806263
:104828001A6143F6B820C2F2010006F075F94FF09C
:10483800120001F0E7F80346FB75FB7D002B01D061
:10484800FB7D12E040F22A304FF0010106F0FEFA3B
:104858004FF0010006F0EAFA3B687A6802FB03F3BE
:10486800F868194602F00EF8FB7D184607F118079C
:10487800BD4680BD80B582B000AF4FF00003FB712C
:104888004FF0FF333B6003E03B6803F1FF333B60CD
:1048980040F22C13C2F200031B68002B11D140F226
:1048A8002813C2F200031B68002B0AD140F224131C
:1048B800C2F200031B78DBB2002B02D13B68002B4D
:1048C800E2D140F22C13C2F200034FF000021A604A
:1048D8004FF0FF333B6003E03B6803F1FF333B607D
:1048E8004FF43053C4F201035B6B03F40053002B05
:1048F80002D03B68002BEFD140F22013C2F2000334
:104908001B68012B03D100F02BFC0346FB713B68AD
:10491800002B05D1FB79002B02D14FF00403FB716A
:1049280040F2FF5006F0DAFA40F22413C2F2000314
:104938001B78DBB2002B06D040F22413C2F200032E
:104948001B78DBB200E0FB79184607F10807BD4683
:1049580080BD00BF80B586B000AFF860B96013466F
:10496800FB804FF00003FB7540F22413C2F20003F2
:104978004FF000021A7040F22813C2F200034FF001
:1049880000021A6040F22013C2F200034FF0000246
:104998001A604FF43053C4F201034FF00002DA6298
:1049A80040F2E803C2F200031B68022B06D14FF461
:1049B8000073FB80BB684FEA5323BB60FA8843F659
:1049C800B823C2F201031A6043F6B823C2F2010306
:1049D8004FF010025A6043F6B823C2F201034FF0B9
:1049E80040029A6043F6B823C2F201034FF0000276
:1049F800DA6043F6B823C2F201034FF480621A6109
:104A080043F6B820C2F2010006F086F84FF0100015
:104A180000F0F8FF0346FB75FB7D002B01D0FB7D02
:104A280071E043F6B823C2F20103BA681A6043F68C
:104A3800B823C2F201034FF018025A6043F6B823B4
:104A4800C2F201034FF040029A6043F6B823C2F263
:104A580001034FF00002DA6043F6B823C2F2010303
:104A68004FF480621A6143F6B820C2F2010006F0E2
:104A780053F84FF0180000F0C5FF0346FB75FB7DA7
:104A8800002B01D0FB7D3EE043F64033C2F2010328
:104A98004FF0FF321A60FA8843F64033C2F201033E
:104AA8005A6043F64033C2F201034FF090029A6015
:104AB80043F64033C2F201034FF00002DA6043F6D6
:104AC8004033C2F201034FF000021A6143F640334B
:104AD800C2F201034FF001025A6143F64030C2F2BC
:104AE800010006F08DF840F22A304FF0010106F07F
:104AF800ADF9FB88F868194601F054FE4FF0010043
:104B080006F094F9FB7D184607F11807BD4680BDED
:104B180080B586B000AFF860B9603B601346FB8093
:104B28004FF00003FB7540F22413C2F200034FF06C
:104B380000021A7040F22813C2F200034FF000027C
:104B48001A6040F22013C2F200034FF001021A600B
:104B58004FF43053C4F201034FF00002DA6240F21E
:104B6800E803C2F200031B68022B06D14FF400735E
:104B7800FB80BB684FEA5323BB60FA8843F6B8232F
:104B8800C2F201031A6043F6B823C2F201034FF0E0
:104B980010025A6043F6B823C2F201034FF04002F4
:104BA8009A6043F6B823C2F201034FF00002DA60BC
:104BB80043F6B823C2F201034FF480621A6143F648
:104BC800B820C2F2010005F0A7FF4FF0100000F076
:104BD80019FF0346FB75FB7D002B01D0FB7DE3E04D
:104BE80040F20C13C2F200031B684FEA034243F67B
:104BF800B823C2F201031A6043F6B823C2F20103D4
:104C08004FF037025A6043F6B823C2F201034FF05F
:104C180040029A6043F6B823C2F201034FF0000243
:104C2800DA6043F6B823C2F201034FF480621A61D6
:104C380043F6B820C2F2010005F06EFF4FF03700CE
:104C480000F0E0FE0346FB75FB7D002B01D0FB7DE9
:104C5800AAE043F6B823C2F201033A681A6043F6A1
:104C6800B823C2F201034FF017025A6043F6B82383
:104C7800C2F201034FF040029A6043F6B823C2F231
:104C880001034FF00002DA6043F6B823C2F20103D1
:104C98004FF480621A6143F6B820C2F2010005F0B1
:104CA8003BFF4FF0170000F0ADFE0346FB75FB7DA0
:104CB800002B01D0FB7D77E043F6B823C2F2010355
:104CC800BA681A6043F6B823C2F201034FF019021A
:104CD8005A6043F6B823C2F201034FF040029A60CB
:104CE80043F6B823C2F201034FF00002DA6043F63C
:104CF800B823C2F201034FF480621A6143F6B82068
:104D0800C2F2010005F008FF4FF0190000F07AFE2A
:104D18000346FB75FB7D002B01D0FB7D44E043F689
:104D28004033C2F201034FF0FF321A60FB883A6841
:104D380002FB03F243F64033C2F201035A6043F622
:104D48004033C2F201034FF090029A6043F64033B9
:104D5800C2F201034FF00002DA6043F64033C2F2B8
:104D680001034FF000021A6143F64033C2F2010317
:104D78004FF001025A6143F64030C2F2010005F0DB
:104D88003FFF40F22A304FF0010106F05FF84FF084
:104D9800010006F04BF8FB883A6802FB03F3F86859
:104DA800194601F0FFFCFB7D184607F11807BD46C0
:104DB80080BD00BF80B586B000AFF860B9607A608A
:104DC8003B604FF00003FB7540F22413C2F200036E
:104DD8004FF000021A7040F22813C2F200034FF09D
:104DE80000021A6040F22013C2F200034FF00102E1
:104DF8001A604FF43053C4F201034FF00002DA6234
:104E080040F2E803C2F200031B68022B03D14FF4FF
:104E180000737B6004E0BB687A6802FB03F3BB6045
:104E280043F6B823C2F201037A681A6043F6B8233E
:104E3800C2F201034FF010025A6043F6B823C2F2DF
:104E480001034FF040029A6043F6B823C2F201030F
:104E58004FF00002DA6043F6B823C2F201034FF4C0
:104E680080621A6143F6B820C2F2010005F054FED0
:104E78004FF0100000F0C6FD0346FB75FB7D002BCC
:104E880001D0FB7DE3E040F20C13C2F200031B6883
:104E98004FEA034243F6B823C2F201031A6043F60D
:104EA800B823C2F201034FF037025A6043F6B82321
:104EB800C2F201034FF040029A6043F6B823C2F2EF
:104EC80001034FF00002DA6043F6B823C2F201038F
:104ED8004FF480621A6143F6B820C2F2010005F06F
:104EE8001BFE4FF0370000F08DFD0346FB75FB7D80
:104EF800002B01D0FB7DAAE043F6B823C2F20103E0
:104F08003A681A6043F6B823C2F201034FF0170259
:104F18005A6043F6B823C2F201034FF040029A6088
:104F280043F6B823C2F201034FF00002DA6043F6F9
:104F3800B823C2F201034FF480621A6143F6B82025
:104F4800C2F2010005F0E8FD4FF0170000F05AFD2D
:104F58000346FB75FB7D002B01D0FB7D77E043F614
:104F6800B823C2F20103BA681A6043F6B823C2F242
:104F780001034FF019025A6043F6B823C2F2010345
:104F88004FF040029A6043F6B823C2F201034FF093
:104F98000002DA6043F6B823C2F201034FF48062DC
:104FA8001A6143F6B820C2F2010005F0B5FD4FF0D2
:104FB800190000F027FD0346FB75FB7D002B01D08F
:104FC800FB7D44E043F64033C2F201034FF0FF3269
:104FD8001A603B687A6802FB03F243F64033C2F278
:104FE80001035A6043F64033C2F201034FF09002C6
:104FF8009A6043F64033C2F201034FF00002DA60D0
:1050080043F64033C2F201034FF000021A6143F63F
:105018004033C2F201034FF001025A6143F64030B7
:10502800C2F2010005F0ECFD40F22A304FF0010118
:1050380005F00CFF4FF0010005F0F8FE3B687A68B8
:1050480002FB03F3F868194601F0ACFBFB7D184638
:1050580007F11807BD4680BD80B582B000AF4FF09C
:105068000003FB714FF0FF333B6003E03B6803F143
:10507800FF333B6040F22C13C2F200031B68002B85
:1050880011D140F22813C2F200031B68002B0AD189
:1050980040F22413C2F200031B78DBB2002B02D1CA
:1050A8003B68002BE2D140F22C13C2F200034FF010
:1050B80000021A604FF0FF333B6003E03B6803F1E6
:1050C800FF333B604FF43053C4F201035B6B03F4CE
:1050D8008053002B02D03B68002BEFD140F2201305
:1050E800C2F200031B68012B03D100F039F8034614
:1050F800FB713B68002B05D1FB79002B02D14FF0E7
:105108000403FB7140F2FF5005F0E8FE40F224135F
:10511800C2F200031B78DBB2002B06D040F2241346
:10512800C2F200031B78DBB200E0FB79184607F1F6
:105138000807BD4680BD00BF80B400AF4FF43053B0
:10514800C4F201035B6B03F44053002B02D04FF011
:10515800010301E04FF000031846BD4680BC7047CC
:1051680080B582B000AF4FF00003FB7143F6B8235F
:10517800C2F201034FF000021A6043F6B823C2F2EC
:1051880001034FF00C025A6043F6B823C2F2010340
:105198004FF040029A6043F6B823C2F201034FF081
:1051A8000002DA6043F6B823C2F201034FF48062CA
:1051B8001A6143F6B820C2F2010005F0ADFC4FF0C9
:1051C8000C0000F01FFC0346FB71FB79184607F141
:1051D8000807BD4680BD00BF80B586B000AF7860C7
:1051E80039604FF00003FB754FF000033B614FF04F
:1051F8000003FB604FF00003FB7240F2EC03C2F2C5
:1052080000035B684FEA135303F02003002B04D11B
:105218004FF02503FB75FB7D09E14FF43053C4F2D1
:1052280001035B68DBB203F102024DF2C043C0F236
:105238000103B3FBF2F3FB604FF0000005F0CAFC7A
:10524800034603F00073002B04D04FF00E03FB75E8
:10525800FB7DECE040F2E803C2F200031B68022B7E
:1052680007D17B684FEA53237B603B684FEA53239F
:105278003B6040F2E803C2F200031B68002B0DD02C
:1052880040F2E803C2F200031B68012B06D040F28B
:10529800E803C2F200031B68022B65D143F6B8236A
:1052A800C2F201037A681A6043F6B823C2F2010316
:1052B8004FF020025A6043F6B823C2F201034FF0C0
:1052C80040029A6043F6B823C2F201034FF000028D
:1052D800DA6043F6B823C2F201034FF480621A6120
:1052E80043F6B820C2F2010005F016FC4FF020008A
:1052F80000F088FB0346FB75FB7D002B01D0FB7D8E
:1053080095E043F6B823C2F201033A681A6043F6FF
:10531800B823C2F201034FF021025A6043F6B823C2
:10532800C2F201034FF040029A6043F6B823C2F27A
:1053380001034FF00002DA6043F6B823C2F201031A
:105348004FF480621A6143F6B820C2F2010005F0FA
:10535800E3FB4FF0210000F055FB0346FB75FB7D96
:10536800002B01D0FB7D62E043F6B823C2F20103B3
:105378004FF000021A6043F6B823C2F201034FF05F
:1053880026025A6043F6B823C2F201034FF04002E6
:105398009A6043F6B823C2F201034FF00002DA60C4
:1053A80043F6B823C2F201034FF480621A6143F650
:1053B800B820C2F2010005F0AFFB4FF0260000F064
:1053C80021FB0346FB75FB7D002B01D0FB7D2EE006
:1053D8004FF000033B6103E03B6903F101033B61CC
:1053E800FB683A699A42F7D307F10B03184600F0B5
:1053F80005FE0346FB754FF0FF333B610AE007F1FA
:105408000B03184600F0FAFD0346FB753B6903F1F0
:10541800FF333B613B69002B08D0FB7D002B05D196
:10542800FB7A072BEBD0FB7A062BE8D0FB7D1846DE
:1054380007F11807BD4680BD80B584B000AF78601D
:105448004FF00003FB737B68002B04D14FF0260359
:10545800FB73FB7B40E040F20C13C2F200031B68B5
:105468004FEA034243F6B823C2F201031A6043F637
:10547800B823C2F201034FF00D025A6043F6B82375
:10548800C2F201034FF040029A6043F6B823C2F219
:1054980001034FF00002DA6043F6B823C2F20103B9
:1054A8004FF480621A6143F6B820C2F2010005F099
:1054B80033FB4FF00D0000F0A5FA0346FB73FB7BAE
:1054C800002B01D0FB7B07E04FF0000005F082FBCA
:1054D80002467B681A60FB7B184607F11007BD4639
:1054E80080BD00BF90B585B000AF78604FF0000375
:1054F800FB724FF00003FB604FF0000005F06AFB01
:10550800034603F00073002B04D04FF00E03FB7228
:10551800FB7A5BE143F6B823C2F201034FF0400285
:105528001A6043F6B823C2F201034FF010025A6022
:1055380043F6B823C2F201034FF040029A6043F6E3
:10554800B823C2F201034FF00002DA6043F6B82331
:10555800C2F201034FF480621A6143F6B820C2F226
:10556800010005F0D9FA4FF0100000F04BFA03469D
:10557800FB72FB7A002B01D0FB7A27E140F20C1377
:10558800C2F200031B684FEA034243F6B823C2F293
:1055980001031A6043F6B823C2F201034FF0370241
:1055A8005A6043F6B823C2F201034FF040029A60F2
:1055B80043F6B823C2F201034FF00002DA6043F663
:1055C800B823C2F201034FF480621A6143F6B8208F
:1055D800C2F2010005F0A0FA4FF0370000F012FA0D
:1055E8000346FB72FB7A002B01D0FB7AEEE043F610
:1055F8004033C2F201034FF0FF321A6043F64033E2
:10560800C2F201034FF040025A6043F64033C2F23F
:1056180001034FF060029A6043F64033C2F201037F
:105628004FF00202DA6043F64033C2F201034FF052
:1056380000021A6143F64033C2F201034FF001023F
:105648005A6143F64030C2F2010005F0D9FA43F638
:10565800B823C2F201034FF000021A6043F6B823E0
:10566800C2F201034FF00D025A6043F6B823C2F2AA
:1056780001034FF040029A6043F6B823C2F20103D7
:105688004FF00002DA6043F6B823C2F201034FF488
:1056980080621A6143F6B820C2F2010005F03CFAB4
:1056A8004FF00D0000F0AEF90346FB72FB7A002BB9
:1056B80021D0FB7A8AE04FF4004005F0F1FB034665
:1056C800002B19D04FF00003FB600CE0FB684FEA99
:1056D80083037A68D41805F0F9FA03462360FB6857
:1056E80003F10103FB60FB68072BEFD97B6803F12B
:1056F80020037B6000E000BF4FF43053C4F2010385
:105708005A6B40F22A631340002BD4D04FF00800A4
:1057180005F0C6FB0346002B08D04FF0080005F043
:10572800DDFB4FF00403FB72FB7A4FE04FF0020001
:1057380005F0B6FB0346002B08D04FF0020005F039
:10574800CDFB4FF00203FB72FB7A3FE04FF02000E5
:1057580005F0A6FB0346002B08D04FF0200005F00B
:10576800BDFB4FF00603FB72FB7A2FE04FF400708D
:1057780005F096FB0346002B08D04FF4007005F0A7
:10578800ADFB4FF00703FB72FB7A1FE04FF0FF33CE
:10579800FB600CE005F09AFA02467B681A607B68A9
:1057A80003F104037B60FB6803F1FF33FB604FF4F4
:1057B800001005F075FB0346002B02D0FB68002B98
:1057C800E8D140F2FF5005F089FBFB7A184607F153
:1057D8001407BD4690BD00BF80B500AF4FF4807080
:1057E80005F08CFB0346002B12D040F22413C2F2C2
:1057F80000034FF000021A704FF4807005F09CFB14
:1058080040F22813C2F200034FF001021A605DE073
:105818004FF0020005F072FB0346002B0BD04FF04F
:10582800020005F089FB40F22413C2F200034FF096
:1058380002021A704AE04FF0080005F05FFB0346C9
:10584800002B0BD04FF0080005F076FB40F2241334
:10585800C2F200034FF004021A7037E04FF0200044
:1058680005F04CFB0346002B0BD04FF0200005F051
:1058780063FB40F22413C2F200034FF006021A70D1
:1058880024E04FF0100005F039FB0346002B0BD045
:105898004FF0100005F050FB40F22413C2F2000351
:1058A8004FF005021A7011E04FF4007005F026FB66
:1058B8000346002B0AD04FF4007005F03DFB40F280
:1058C8002413C2F200034FF007021A704CF23A3068
:1058D8004FF0000105F0BAFA40F22413C2F20003B7
:1058E8001B78DBB2184680BD80B500AF4FF4C843C3
:1058F800C4F202031B6803F0C053002B0ED040F221
:105908002C13C2F200034FF001021A6046F258400D
:10591800C4F202004FF0C25104F010FE80BD00BF77
:1059280080B582B000AF4FF00003FB704FF48033B6
:105938007B6003E07B6803F1FF337B607B68002BAF
:1059480006D04FF0800005F0ABFA0346002BF1D0EB
:105958007B68002B04D14FF00303FB70FB7804E055
:1059680040F2FF5005F0BAFAFB78184607F108072D
:10597800BD4680BD80B584B000AF4FF00003FB7119
:105988004FF48033BB604FF43053C4F201035B6BB8
:10599800FB6009E0BB6803F1FF33BB604FF4305391
:1059A800C4F201035B6BFB60FB6803F04503002B4B
:1059B80002D1BB68002BEDD1BB68002B04D0FB687B
:1059C80003F00403002B08D04FF00303FB714FF0E2
:1059D800040005F083FAFB790EE0FB6803F040034E
:1059E800002B08D04FF00003FB714FF0400005F08A
:1059F80075FAFB7900E0FB79184607F11007BD46F8
:105A080080BD00BF80B586B000AF0346FB714FF084
:105A18000003FB744FF43053C4F201035B6B7B61EA
:105A280005E04FF43053C4F201035B6B7B617B6983
:105A380003F04503002BF4D07B6903F00403002B2B
:105A480008D04FF00303FB744FF0040005F046FA4A
:105A5800FB7CC2E07B6903F00103002B08D04FF008
:105A68000103FB744FF0010005F038FAFB7CB4E049
:105A780005F0A4F80346FA799A4204D04FF01003CF
:105A8800FB74FB7CA9E040F2FF5005F027FA4FF0C9
:105A9800000005F09FF8F860FA684EF20803CFF6A8
:105AA800FF531340002B01D1FB7C96E0FB68002BD1
:105AB80002DA4FF01C0390E0FB6803F08043002BF0
:105AC80002D04FF0090388E0FB6803F00053002B75
