:020000040800F2
:100000000000022035DE00088901000881DE0008BA
:10001000E9010008F1010008F901000800000000F2
:10002000000000000000000000000000F162000875
:100030000102000800000000E9640008FD08000853
:1000400081DE000881DE000881DE000881DE000814
:1000500081DE000881DE000881DE000881DE000804
:1000600081DE000881DE000881DE000881DE0008F4
:1000700081DE000881DE000881DE000881DE0008E4
:1000800081DE000881DE000881DE000881DE0008D4
:1000900081DE000881DE000881DE000881DE0008C4
:1000A00081DE000881DE000881DE000881DE0008B4
:1000B00081DE000881DE000881DE000881DE0008A4
:1000C00081DE000881DE000881DE000881DE000894
:1000D00081DE000881DE000881DE000881DE000884
:1000E00081DE000881DE000881DE000881DE000874
:1000F00081DE000881DE000881DE000881DE000864
:1001000081DE00087922000881DE000881DE000817
:1001100081DE000881DE000881DE000881DE000843
:1001200081DE000881DE000881DE000885220008EB
:1001300081DE000881DE000881DE000881DE000823
:1001400081DE000881DE000881DE000881DE000813
:1001500081DE000881DE000881DE000881DE000803
:1001600081DE000881DE000881DE000881DE0008F3
:1001700081DE000881DE000881DE000881DE0008E3
:0801800081DE000881DE0008A9
:1001880080B400AFBD4680BC704700BF80B48BB060
:1001980000AF78607B681B687B627B685B683B624A
:1001A8007B689B68FB617B68DB68BB617B681B695C
:1001B8007B617B685B693B617B689B69FB607B68F3
:1001C800DB69BB60FEE700BF1EF0040F0CBFEFF356
:1001D8000880EFF309808169004A104795010008FB
:1001E80080B400AFFEE700BF80B400AFFEE700BFF9
:1001F80080B400AFFEE700BF80B400AFBD4680BC4E
:10020800704700BF80B500AF4FF46053C4F20203DB
:100218004FF46052C4F20202126842F001021A60FE
:100228004FF46053C4F202034FF000029A604FF497
:100238006053C4F202034FF46052C4F2020212681F
:1002480022F0847222F480321A604FF46053C4F2B0
:10025800020343F21002C2F200425A604FF46053A4
:10026800C4F202034FF46052C4F20202126822F48C
:1002780080221A604FF46053C4F202034FF0000268
:10028800DA6000F0CFF84FF46D43CEF200034FF080
:1002980000629A604FF46D43CEF200034FF46D4252
:1002A800CEF20002D2F8882042F47002C3F8882007
:1002B80080BD00BF80B487B000AF4FF000033B6142
:1002C8004FF000037B614FF00203FB604FF0000327
:1002D800BB604FF002037B604FF46053C4F202032B
:1002E8009B6803F00C033B613B69042B0DD0082B82
:1002F80015D0002B69D140F20003C2F200034FF47D
:100308001052C0F2F4021A6069E040F20003C2F22F
:1003180000034FF49052C0F27A021A605FE04FF483
:100328006053C4F202035B6803F480034FEA9353FB
:10033800BB604FF46053C4F202035B6803F03F03F1
:100348007B60BB68002B14D04FF49053C0F27A0343
:100358007A68B3FBF2F24FF46053C4F202035968AF
:1003680047F6C0730B404FEA931303FB02F37B611C
:1003780013E04FF41053C0F2F4037A68B3FBF2F2BF
:100388004FF46053C4F20203596847F6C0730B4038
:100398004FEA931303FB02F37B614FF46053C4F2FB
:1003A80002035B6803F440334FEA134303F101038C
:1003B8004FEA4303FB607A69FB68B2FBF3F240F251
:1003C8000003C2F200031A6009E040F20003C2F21F
:1003D80000034FF41052C0F2F4021A6000BF4FF449
:1003E8006053C4F202039B6803F0F0034FEA131250
:1003F80040F20403C2F200039B5CDBB23B6140F2B3
:100408000003C2F200031A683B6922FA03F240F2C1
:100418000003C2F200031A6007F11C07BD4680BC46
:10042800704700BF80B483B000AF4FF000037B601B
:100438004FF000033B604FF46053C4F202034FF4E3
:100448006052C4F20202126842F480321A604FF419
:100458006053C4F202031B6803F400333B607B68FB
:1004680003F101037B603B68002B03D17B68B3F584
:10047800A06FECD14FF46053C4F202031B6803F47D
:100488000033002B03D04FF001033B6002E04FF034
:1004980000033B603B68012B40F082804FF46053BF
:1004A800C4F202034FF46052C4F20202126C42F02A
:1004B80080521A644FF4E043C4F200034FF4E04260
:1004C800C4F20002126842F480421A604FF460538A
:1004D800C4F202034FF46052C4F2020292689A60B6
:1004E8004FF46053C4F202034FF46052C4F20202A4
:1004F800926842F400429A604FF46053C4F20203D7
:100508004FF46052C4F20202926842F4A0529A6018
:100518004FF46053C4F2020345F20842C0F240723D
:100528005A604FF46053C4F202034FF46052C4F2AD
:100538000202126842F080721A6000BF4FF46053E2
:10054800C4F202031B6803F00073002BF6D04FF4CB
:100558007053C4F2020340F205621A604FF460530C
:10056800C4F202034FF46052C4F20202926822F00D
:1005780003029A604FF46053C4F202034FF46052CE
:10058800C4F20202926842F002029A6000BF4FF47D
:100598006053C4F202039B6803F00C03082BF6D1E6
:1005A8004FF46053C4F202034FF46052C4F20202E3
:1005B800926822F400029A604FF46053C4F2020376
:1005C8004FF44052C5F20002C3F884204FF4605340
:1005D800C4F202034FF46052C4F20202126842F0FD
:1005E80080621A6000BF4FF46053C4F202031B68B4
:1005F80003F00063002BF6D007F10C07BD4680BC62
:10060800704700BF80B500AF00F0A0F900F0DAF93C
:1006180000F0B4F900F02EFC00F020FC00F0D0FC53
:10062800FEE700BF80B400AFBD4680BC704700BF86
:1006380080B500AF05F046FFFEE700BF80B400AF0D
:10064800BD4680BC704700BF80B582B000AF7860FF
:10065800396005F037FFFEE780B485B000AFF86079
:10066800B9607A604FF0FF33184607F11407BD46AA
:1006780080BC704780B584B000AFF860B9607A601C
:100688000DF000FC03464FF016021A604FF0FF33DE
:10069800184607F11007BD4680BD00BF80B485B07D
:1006A80000AFF860B9607A604FF00003184607F1B0
:1006B8001407BD4680BC704780B586B000AFF860AF
:1006C800B9607A60BB68002B02D14FF0000322E0CA
:1006D8004FF000037B6119E000BF4FF49043C4F270
:1006E80000031B889BB203F04003002BF5D07B6905
:1006F800BA68D3181B784FF49040C4F2000019462A
:100708000DF0E2F87B6903F101037B617A697B688C
:100718009A42E1DB7B68184607F11807BD4680BDA1
:1007280080B483B000AF78604FF00003184607F13B
:100738000C07BD4680BC704780B584B000AF7860B8
:1007480040F2A003C2F200031B68002B08D140F25C
:10075800A003C2F2000344F25C02C2F201021A6072
:1007680040F2A003C2F200031B68FB6040F2A00342
:10077800C2F200031A687B68D2186B469A4208D9FD
:100788000DF080FB03464FF00C021A604FF0FF3368
:100798000CE040F2A003C2F200031A687B68D2188A
:1007A80040F2A003C2F200031A60FB68184607F182
:1007B8001007BD4680BD00BF80B582B000AF78602D
:1007C800396038684FF000014FF03C020DF07AFEB6
:1007D8003B684FF400525A604FF00003184607F187
:1007E8000807BD4680BD00BF80B483B000AF786005
:1007F8004FF00103184607F10C07BD4680BC70474F
:1008080080B582B000AF786039600DF03BFB0346DD
:100818004FF016021A604FF0FF33184607F1080729
:10082800BD4680BD80B400AF4FF001031846BD46F9
:1008380080BC704780B483B000AF03463960FB7159
:1008480097F90730002B10DA4FF46D43CEF200030E
:10085800FA7902F00F02A2F104013A68D2B24FEA23
:100868000212D2B25B181A760DE04FF46143CEF251
:10087800000397F907103A68D2B24FEA0212D2B2CF
:100888005B1883F8002307F10C07BD4680BC70474E
:1008980080B582B000AF78607A686FF07F439A4283
:1008A80002D94FF001031FE04EF21003CEF200030D
:1008B8007A6822F07F4202F1FF325A604FF0FF302F
:1008C8004FF00F01FFF7B6FF4EF21003CEF2000310
:1008D8004FF000029A604EF21003CEF200034FF080
:1008E80007021A604FF00003184607F10807BD46D3
:1008F80080BD00BF80B400AF43F27033C2F2010381
:100908001B6803F1010243F27033C2F201031A605B
:10091800BD4680BC704700BF80B485B000AF78602A
:1009280043F27033C2F201031B68FB6000BF43F25D
:100938007033C2F201031A68FB68D21A7B689A42C4
:10094800F5D307F11407BD4680BC704780B500AFEA
:1009580040F20003C2F200031A6844F6D353C1F20E
:100968006203A3FB02134FEA93131846FFF790FFA5
:100978000346002B00D0FEE780BD00BF80B582B0E3
:1009880000AF4FF040004FF001010AF077FB46F24C
:10099800E0733B604FF001033B714FF00003BB7104
:1009A8004FF00003FB714FF000037B713B464FF49F
:1009B800C050C4F20200194609F0E8FD07F1080723
:1009C800BD4680BD80B58CB000AF4FF004004FF03D
:1009D80001010AF0D1FB4FF002004FF001010AF0CB
:1009E8004DFB4FF040037B624FF0020387F828303D
:1009F8004FF0030387F829304FF0000387F82A30B7
:100A08004FF0010387F82B3007F124034FF480607F
:100A1800C4F20200194609F0B9FD4FF48060C4F22F
:100A280002004FF006014FF0020209F03DFF4FF4BB
:100A38008060C4F202004FF007014FF0020209F093
:100A480033FF4FF05403FB8544F61F63FB61FB8DB6
:100A58003B834FF000033B844FF000037B8307F197
:100A680018034FF40060C4F2000019460AF052FF60
:100A78004FF06003BB804FF00103FB804FF0000391
:100A8800FB604FF000033B8207F104034FF4006062
:100A9800C4F2000019460BF0F3F84FF40060C4F2FA
:100AA80000004FF008010BF037FC07F104034FF486
:100AB8000060C4F2000019460BF060F94FF40060C2
:100AC800C4F200004FF008010BF042FC4FF4006044
:100AD800C4F200004FF001010BF05AF84FF4006027
:100AE800C4F200004FF001010BF0AAF807F130073B
:100AF800BD4680BD80B500AF4FF4C050C4F20200BF
:100B08004FF0200109F07CFE4FF00200FFF704FFD0
:100B18004FF4C050C4F202004FF0400109F07EFECD
:100B28004FF00200FFF7F8FE4FF4C050C4F2020085
:100B38004FF0800109F064FE4FF00200FFF7ECFE71
:100B48004FF4C050C4F202004FF4807109F066FE01
:100B58004FF00200FFF7E0FE4FF4C050C4F202006D
:100B68004FF0200109F05AFE4FF00200FFF7D4FEC3
:100B78004FF4C050C4F202004FF0400109F040FEAB
:100B88004FF00200FFF7C8FE4FF4C050C4F2020055
:100B98004FF0800109F034FE4FF00200FFF7BCFE71
:100BA8004FF4C050C4F202004FF4807109F036FED1
:100BB8004FF00200FFF7B0FE4FF4C050C4F202003D
:100BC8004FF0200109F02AFE4FF00200FFF7A4FEC3
:100BD8004FF4C050C4F202004FF0400109F010FE7B
:100BE8004FF00200FFF798FE4FF4C050C4F2020025
:100BF8004FF0800109F012FE4FF00200FFF78CFE63
:100C08004FF4C050C4F202004FF4807109F0F8FDAF
:100C18004FF00200FFF780FE4FF4C050C4F202000C
:100C28004FF0200109F0ECFD4FF00200FFF774FED1
:100C38004FF4C050C4F202004FF0400109F0EEFD3D
:100C48004FF00200FFF768FE4FF4C050C4F20200F4
:100C58004FF0800109F0E2FD4FF00200FFF75CFE63
:100C68004FF4C050C4F202004FF4807109F0C8FD7F
:100C78004FF00200FFF750FE80BD00BF80B500AF07
:100C88004FF4C050C4F202004FF4807109F0B8FD6F
:100C98004FF00200FFF740FE4FF4C050C4F20200CC
:100CA8004FF0800109F0BAFD4FF00200FFF734FE63
:100CB8004FF4C050C4F202004FF0400109F0A0FD0B
:100CC8004FF00200FFF728FE4FF4C050C4F20200B4
:100CD8004FF0200109F0A2FD4FF00200FFF71CFEC3
:100CE8004FF4C050C4F202004FF4807109F096FD31
:100CF8004FF00200FFF710FE4FF4C050C4F202009C
:100D08004FF0800109F07CFD4FF00200FFF704FE70
:100D18004FF4C050C4F202004FF0400109F070FDDA
:100D28004FF00200FFF7F8FD4FF4C050C4F2020084
:100D38004FF0200109F072FD4FF00200FFF7ECFDC3
:100D48004FF4C050C4F202004FF4807109F066FD00
:100D58004FF00200FFF7E0FD4FF4C050C4F202006C
:100D68004FF0800109F04CFD4FF00200FFF7D4FD71
:100D78004FF4C050C4F202004FF0400109F04EFD9C
:100D88004FF00200FFF7C8FD4FF4C050C4F2020054
:100D98004FF0200109F034FD4FF00200FFF7BCFDD1
:100DA8004FF4C050C4F202004FF4807109F028FDDE
:100DB8004FF00200FFF7B0FD4FF4C050C4F202003C
:100DC8004FF0800109F02AFD4FF00200FFF7A4FD63
:100DD8004FF4C050C4F202004FF0400109F01EFD6C
:100DE8004FF00200FFF798FD4FF4C050C4F2020024
:100DF8004FF0200109F004FD4FF00200FFF78CFDD1
:100E080080BD00BF80B584B000AF78607B68002BE0
:100E18000EDB4FF00003FB6005E0FFF72FFFFB68D8
:100E280003F10103FB60FA687B689A42F5DB11E085
:100E38007B68C3F100037B604FF00003BB6005E0F3
:100E4800FFF758FEBB6803F10103BB60BA687B6813
:100E58009A42F5DB07F11007BD4680BD80B500AFAB
:100E68006FF04000FFF7CEFF4FF4FA70FFF754FD24
:100E780080BD00BF80B500AF4FF40063C4F200032B
:100E880040F2A4625A634FF4FA70FFF745FD80BD43
:100E980080B500AF4FF40063C4F200034FF46172F1
:100EA8005A634FF4FA70FFF737FD80BD80B588B0FC
:100EB80000AF4FF00003FB614FF2F430C0F60000C2
:100EC8004FF20041C0F600010DF054F9B861BB695A
:100ED800002B70D065E03B464FF20440C0F600009E
:100EE80019460DF009FB3B4618464FF21441C0F66F
:100EF80000010DF00DFC78614FF21840C0F60000BB
:100F080079690DF0F9FA78690CF0B8FF38614FF299
:100F18002440C0F6000039690DF0EEFA4FF00000E9
:100F28004FF22C41C0F600010DF0F2FB78614FF250
:100F38003040C0F6000079690DF0DEFA78690CF0EF
:100F48009DFFF8604FF23C40C0F60000F9680DF0D4
:100F5800D3FA3869FFF756FF3B6983EAE372A2EBDD
:100F6800E372FB68002BB8BF5B429A420EDCFB6859
:100F780083EAE372A2EBE3723B69002BB8BF5B42E2
:100F8800D31A4FEA43131846FFF7C6FCFB6903F16F
:100F98000103FB614FF24440C0F60000F9690DF00F
:100FA800ABFA3B4618464FF00A01BA690CF0D6FF77
:100FB8000346002B8FD107F12007BD4680BD00BF37
:100FC80080B500AF4FF03F00FFF71CFF4FF0400027
:100FD800FFF7A2FCFFF75CFF6FF00100FFF712FFBD
:100FE8004FF00000FFF798FC6FF00100FFF70AFFD1
:100FF8004FF00000FFF790FC6FF00100FFF702FFD1
:101008004FF0FF30FFF7FEFE4FF02000FFF784FCA3
:101018006FF00100FFF7F6FE4FF00000FFF77CFCD1
:101028006FF00200FFF7EEFE6FF00200FFF7EAFE36
:101038006FF00100FFF7E6FE4FF0FF30FFF7E2FE2A
:101048004FF00000FFF768FC6FF00100FFF7DAFED1
:101058006FF00100FFF7D6FE6FF00100FFF7D2FE38
:101068004FF0FF30FFF7CEFE6FF00100FFF7CAFE2A
:101078006FF00100FFF7C6FE6FF00100FFF7C2FE38
:101088006FF00300FFF7BEFE6FF00300FFF7BAFE34
:101098004FF0FF30FFF7B6FE4FF00000FFF73CFCC3
:1010A8006FF00300FFF7AEFE4FF0FF30FFF7AAFE28
:1010B8004FF02000FFF730FC6FF00200FFF7A2FEB0
:1010C8004FF00000FFF79EFE4FF04000FFF724FCB2
:1010D8004FF0FF30FFF796FE4FF02000FFF71CFCA3
:1010E8006FF00100FFF78EFE4FF02000FFF714FCB1
:1010F8004FF0FF30FFF786FE4FF02000FFF70CFCA3
:101108004FF00000FFF77EFE4FF02000FFF704FCD1
:101118004FF0FF30FFF776FE4FF04000FFF7FCFB83
:101128004FF0FF30FFF76EFE4FF04000FFF7F4FB83
:101138004FF0FF30FFF766FE4FF04000FFF7ECFB83
:101148004FF0FF30FFF75EFE4FF02000FFF7E4FBA3
:101158004FF00000FFF756FE4FF08000FFF7DCFB72
:101168006FF00100FFF74EFE4FF04000FFF7D4FB91
:101178004FF0FF30FFF746FE4FF06000FFF7CCFB63
:101188004FF0FF30FFF73EFE4FF06000FFF7C4FB63
:101198004FF0FF30FFF736FE4FF04000FFF7BCFB83
:1011A8004FF00000FFF72EFE4FF06000FFF7B4FB92
:1011B8004FF0FF30FFF726FE4FF02000FFF7ACFBA3
:1011C8004FF00000FFF71EFE4FF04000FFF7A4FBB2
:1011D8004FF0FF30FFF716FE4FF02000FFF79CFBA3
:1011E8004FF00000FFF70EFE4FF02000FFF794FBD2
:1011F8004FF00100FFF706FE4FF02000FFF78CFBD1
:101208004FF00400FFF7FEFD4FF00200FFF7FAFD74
:101218004FF00200FFF7F6FD4FF00300FFF7F2FD75
:101228004FF00300FFF7EEFD4FF00100FFF7EAFD76
:101238004FF00300FFF7E6FD4FF00200FFF7E2FD75
:101248004FF00300FFF7DEFD4FF00300FFF7DAFD74
:101258004FF00100FFF7D6FD4FF00300FFF7D2FD76
:101268004FF00500FFF7CEFD4FF00200FFF7CAFD73
:101278004FF00200FFF7C6FD4FF00100FFF7C2FD77
:101288004FF00200FFF7BEFD4FF00200FFF7BAFD76
:101298004FF00200FFF7B6FD4FF00000FFF73CFBF0
:1012A8004FF00000FFF7AEFD4FF02000FFF734FBD2
:1012B8004FF00200FFF7A6FD4FF00100FFF7A2FD77
:1012C8004FF02000FFF728FB4FF00000FFF79AFDD2
:1012D8004FF04000FFF720FB4FF00200FFF792FDB0
:1012E8004FF02000FFF718FB4FF00200FFF78AFDD0
:1012F8004FF02000FFF710FB4FF00000FFF782FDD2
:101308004FF0A000FFF708FB4FF00000FFF77AFD51
:101318004FF0A000FFF700FB4FF00100FFF772FD50
:101328004FF0A000FFF7F8FA4FF00000FFF76AFD52
:101338004FF06000FFF7F0FA4FF0FF30FFF762FD63
:101348004FF02000FFF7E8FA4FF0FF30FFF75AFDA3
:101358004FF04000FFF7E0FA6FF00100FFF752FD91
:101368004FF00000FFF7D8FA4FF0FF30FFF74AFDC3
:101378004FF04000FFF7D0FA6FF00100FFF742FD91
:101388004FF00000FFF7C8FA6FF00100FFF73AFDD1
:101398004FF0FF30FFF736FD4FF00000FFF7BCFAC3
:1013A8006FF00100FFF72EFD6FF00100FFF72AFD37
:1013B8006FF00300FFF726FD6FF00200FFF722FD34
:1013C8006FF00300FFF71EFD4FF0FF30FFF71AFD27
:1013D8004FF02000FFF7A0FA6FF00100FFF712FDB1
:1013E8004FF0FF30FFF70EFD4FF00000FFF794FAC3
:1013F8006FF00100FFF706FD4FF02000FFF78CFAB1
:101408004FF0FF30FFF7FEFC4FF02000FFF784FAA3
:101418004FF00000FFF7F6FC4FF04000FFF77CFAB2
:101428006FF00100FFF7EEFC4FF04000FFF774FA91
:101438004FF00000FFF7E6FC4FF06000FFF76CFA92
:101448004FF00000FFF7DEFC4FF06000FFF764FA92
:101458004FF00100FFF7D6FC4FF08000FFF75CFA71
:101468004FF00100FFF7CEFC4FF02000FFF754FAD1
:101478004FF00300FFF7C6FC4FF00000FFF74CFAEF
:101488004FF00100FFF7BEFC4FF00000FFF744FAF1
:101498004FF00000FFF7B6FC4FF02000FFF73CFAD2
:1014A8004FF00100FFF7AEFC4FF00100FFF7AAFC78
:1014B8004FF00100FFF7A6FC4FF00000FFF72CFAF1
:1014C8004FF00300FFF79EFC4FF00200FFF79AFC75
:1014D8004FF00200FFF796FC4FF00100FFF792FC77
:1014E8004FF00000FFF718FA4FF00200FFF78AFCF0
:1014F8004FF00100FFF786FC4FF00000FFF70CFAF1
:101508004FF00100FFF77EFC4FF00000FFF704FAF0
:101518004FF00000FFF776FC4FF06000FFF7FCF992
:101528004FF00100FFF76EFC4FF00000FFF7F4F9F1
:101538004FF00100FFF766FC4FF04000FFF7ECF9B1
:101548004FF00000FFF75EFC4FF04000FFF7E4F9B2
:101558004FF00000FFF756FC4FF04000FFF7DCF9B2
:101568004FF0FF30FFF74EFC4FF02000FFF7D4F9A3
:101578004FF0FF30FFF746FC4FF04000FFF7CCF983
:101588004FF0FF30FFF73EFC4FF00000FFF7C4F9C3
:101598004FF00000FFF736FC4FF00000FFF7BCF9F2
:1015A8004FF0FF30FFF72EFC4FF0FF30FFF72AFC1B
:1015B8004FF00000FFF726FC4FF02000FFF7ACF9D2
:1015C8004FF00000FFF71EFC4FF02000FFF7A4F9D2
:1015D8004FF00100FFF716FC4FF04000FFF79CF9B1
:1015E8004FF00000FFF70EFC4FF02000FFF794F9D2
:1015F8004FF00000FFF706FC4FF04000FFF78CF9B2
:101608004FF00000FFF7FEFB4FF04000FFF784F9B2
:101618004FF00000FFF7F6FB4FF06000FFF77CF992
:101628004FF0FF30FFF7EEFB4FF00000FFF774F9C3
:101638004FF0FF30FFF7E6FB4FF00000FFF76CF9C3
:101648004FF00000FFF7DEFB4FF02000FFF764F9D2
:101658006FF00100FFF7D6FB4FF0FF30FFF7D2FB2A
:101668006FF00100FFF7CEFB4FF0FF30FFF7CAFB2A
:101678004FF00000FFF750F96FF00100FFF7C2FBD1
:101688004FF0FF30FFF7BEFB4FF02000FFF744F9A3
:101698004FF0FF30FFF7B6FB4FF0FF30FFF7B2FB1C
:1016A8004FF02000FFF738F94FF0FF30FFF7AAFBA3
:1016B8004FF00000FFF730F94FF0FF30FFF7A2FBC3
:1016C8004FF02000FFF728F94FF00000FFF79AFBD2
:1016D8004FF04000FFF720F94FF00000FFF792FBB2
:1016E8004FF06000FFF718F94FF00000FFF78AFB92
:1016F8004FF06000FFF710F94FF00100FFF782FB91
:101708004FF02000FFF708F94FF00100FFF77AFBD0
:101718004FF08000FFF700F94FF00200FFF772FB6F
:101728004FF00200FFF76EFB4FF02000FFF7F4F8D0
:101738004FF00400FFF766FB4FF00200FFF762FB73
:101748004FF00400FFF75EFB4FF00400FFF75AFB71
:101758004FF00100FFF756FB4FF02000FFF7DCF8D1
:101768004FF00200FFF74EFB4FF00000FFF74AFB77
:101778004FF02000FFF7D0F84FF00100FFF742FBD1
:101788004FF00000FFF7C8F84FF00100FFF73AFBF1
:101798004FF02000FFF7C0F84FF00000FFF732FBD2
:1017A8004FF02000FFF7B8F84FF00100FFF72AFBD1
:1017B8004FF04000FFF7B0F84FF00000FFF722FBB2
:1017C8004FF04000FFF7A8F84FF00100FFF71AFBB1
:1017D8004FF02000FFF7A0F84FF00000FFF712FBD2
:1017E8004FF06000FFF798F84FF00000FFF70AFB92
:1017F8004FF02000FFF790F84FF00000FFF702FBD2
:101808004FF06000FFF788F84FF00000FFF7FAFA92
:101818004FF02000FFF780F86FF00100FFF7F2FAB1
:101828004FF02000FFF778F84FF00000FFF7EAFAD2
:101838004FF04000FFF770F84FF0FF30FFF7E2FA83
:101848004FF02000FFF768F84FF0FF30FFF7DAFAA3
:101858004FF02000FFF760F86FF00100FFF7D2FAB1
:101868004FF00000FFF758F86FF00100FFF7CAFAD1
:101878004FF00000FFF750F84FF0FF30FFF7C2FAC3
:101888004FF0FF30FFF7BEFA4FF00000FFF744F8C3
:101898004FF0FF30FFF7B6FA4FF00000FFF73CF8C3
:1018A8006FF00100FFF7AEFA6FF00100FFF7AAFA38
:1018B8006FF00200FFF7A6FA4FF0FF30FFF7A2FA29
:1018C8006FF00100FFF79EFA6FF00300FFF79AFA36
:1018D8004FF0FF30FFF796FA6FF00100FFF792FA2A
:1018E8004FF0FF30FFF78EFA4FF00000FFF714F8C3
:1018F8004FF0FF30FFF786FA4FF00000FFF70CF8C3
:101908006FF00100FFF77EFA4FF00000FFF704F8D0
:101918004FF0FF30FFF776FA4FF02000FEF7FCFF9C
:101928004FF0FF30FFF76EFA6FF00100FFF76AFA29
:101938004FF02000FEF7F0FF4FF0FF30FFF762FA9C
:101948004FF04000FEF7E8FF4FF0FF30FFF75AFA7C
:101958004FF02000FEF7E0FF4FF00000FFF752FACB
:101968004FF04000FEF7D8FF4FF0FF30FFF74AFA7C
:101978004FF02000FEF7D0FF4FF00000FFF742FACB
:101988004FF04000FEF7C8FF6FF00200FFF73AFA89
:101998004FF0FF30FFF736FA4FF08000FEF7BCFF3C
:1019A8004FF0FF30FFF72EFA4FF04000FEF7B4FF7C
:1019B8004FF0FF30FFF726FA4FF02000FEF7ACFF9C
:1019C8004FF0FF30FFF71EFA4FF04000FEF7A4FF7C
:1019D8004FF0FF30FFF716FA4FF02000FEF79CFF9C
:1019E8004FF0FF30FFF70EFA4FF02000FEF794FF9C
:1019F8004FF00000FFF706FA4FF04000FEF78CFFAB
:101A08004FF00000FFF7FEF94FF02000FEF784FFCB
:101A18004FF00200FFF7F6F94FF00200FFF7F2F976
:101A28004FF00200FFF7EEF94FF00000FFF7EAF978
:101A38004FF00000FEF770FF4FF00200FFF7E2F9E9
:101A48004FF00100FFF7DEF94FF00000FEF764FFEA
:101A58004FF00200FFF7D6F94FF00000FFF7D2F978
:101A68004FF00000FEF758FF4FF00100FFF7CAF9EA
:101A78004FF00200FFF7C6F94FF0FF30FFF7C2F949
:101A88004FF02000FEF748FF6FF00100FFF7BAF9AA
:101A98004FF00000FFF7B6F94FF04000FEF73CFFAB
:101AA8004FF0FF30FFF7AEF94FF02000FEF734FF9C
:101AB8004FF0FF30FFF7A6F94FF02000FEF72CFF9C
:101AC8004FF0FF30FFF79EF94FF00000FEF724FFBC
:101AD8004FF0FF30FFF796F94FF00000FEF71CFFBC
:101AE8004FF00000FFF78EF94FF04000FEF714FFAB
:101AF8004FF00000FFF786F94FF04000FEF70CFFAB
:101B08004FF0FF30FFF77EF94FF02000FEF704FF9B
:101B18004FF00000FFF776F94FF02000FEF7FCFECB
:101B28004FF0FF30FFF76EF94FF00000FEF7F4FEBC
:101B38004FF00500FFF766F94FF0FF30FFF762F945
:101B48004FF04000FEF7E8FE4FF00000FFF75AF9AB
:101B58004FF04000FEF7E0FE4FF00000FFF752F9AB
:101B68004FF02000FEF7D8FE4FF00000FFF74AF9CB
:101B78004FF04000FEF7D0FE4FF00000FFF742F9AB
:101B88004FF06000FEF7C8FE4FF00100FFF73AF98A
:101B98004FF06000FEF7C0FE4FF00000FFF732F98B
:101BA8004FF02000FEF7B8FE4FF00100FFF72AF9CA
:101BB8004FF02000FEF7B0FE4FF00200FFF722F9C9
:101BC8004FF02000FEF7A8FE4FF00100FFF71AF9CA
:101BD8004FF02000FEF7A0FE4FF00200FFF712F9C9
:101BE8004FF00300FFF70EF94FF00000FFF70AF976
:101BF8004FF04000FEF790FE4FF00200FFF702F9A9
:101C08004FF00200FFF7FEF84FF00200FFF7FAF876
:101C18004FF00200FFF7F6F84FF00200FFF7F2F876
:101C28004FF00300FFF7EEF84FF00200FFF7EAF875
:101C38004FF00200FFF7E6F84FF00300FFF7E2F875
:101C48004FF00200FFF7DEF84FF00000FEF764FEE9
:101C58004FF00100FFF7D6F84FF00100FFF7D2F878
:101C68004FF00000FEF758FE4FF00200FFF7CAF8E9
:101C78004FF00000FFF7C6F84FF02000FEF74CFECB
:101C88004FF00200FFF7BEF84FF00100FFF7BAF877
:101C98004FF00000FEF740FE4FF00100FFF7B2F8EA
:101CA8004FF00100FFF7AEF84FF00000FEF734FEEA
:101CB8004FF00000FFF7A6F84FF00000FEF72CFEEB
:101CC8004FF00200FFF79EF84FF00100FFF79AF877
:101CD8004FF00000FEF720FE4FF00100FFF792F8EA
:101CE8004FF00000FEF718FE4FF00100FFF78AF8EA
:101CF8004FF00000FFF786F84FF02000FEF70CFECB
:101D08004FF00200FFF77EF84FF00000FFF77AF877
:101D18004FF04000FEF700FE4FF00200FFF772F8A8
:101D28004FF00100FFF76EF84FF00000FEF7F4FDEA
:101D38004FF00100FFF766F84FF00000FEF7ECFDEA
:101D48004FF00000FFF75EF84FF06000FEF7E4FD8B
:101D58004FF00000FFF756F84FF02000FEF7DCFDCB
:101D6800FFF788F880BD00BF80B582B000AF4FF0A4
:101D78000003FB714FF000004FF4806102F0B6FEE3
:101D88000346FB71FB79002B07D0FB794FF25040DB
:101D9800C0F6000019460CF0AFFBFB79002B35D1DB
:101DA8004FF26840C0F600000CF0A6FB43F6741032
:101DB800C2F201004FF000014FF400724FF002032D
:101DC80002F016F80346FB71FB79002B05D04FF2A1
:101DD8009840C0F600000CF08FFB02F0D5F90346DE
:101DE800FB71FB79002B05D04FF2B440C0F6000020
:101DF8000CF082FB00BF00F063FE0346002BFAD113
:101E08004FF2D440C0F600000CF076FBFB79002BB3
:101E18000ED143F67410C2F201004FF4806100F055
:101E280035F903461A4640F2A403C2F200031A70B9
:101E380040F2A403C2F200031B78DBB2012B05D1E8
:101E48004FF2E840C0F600000CF056FB07F1080717
:101E5800BD4680BD80B582B000AF43F67450C2F273
:101E680001004FF4007143F20F2200F0BFF843F66F
:101E78007450C2F201004FF000014FF4007202F0FA
:101E8800F3F90346FB7102F071FD0346FB7100BFD5
:101E980000F016FE0346002BFAD1FB79002B15D172
:101EA80043F27470C2F201004FF000014FF4007267
:101EB80001F0C0FE0346FB7102F066F90346FB71B0
:101EC80000BF00F0FDFD0346002BFAD1FB79002B83
:101ED80012D143F67450C2F2010043F27471C2F297
:101EE80001014FF4007200F0A5F803461A4640F2CB
:101EF800A503C2F200031A7040F2A503C2F2000360
:101F08001B78DBB2012B05D14FF20050C0F6000060
:101F18000CF0F2FA07F10807BD4680BD80B582B023
:101F280000AF43F27430C2F201004FF480614FF009
:101F3800000200F05BF843F27430C2F201004FF087
:101F480000014FF400724FF0020302F0BDFB03469C
:101F5800FB7102F00BFD0346FB7100BF00F0B0FD02
:101F68000346002BFAD1FB79002B17D143F67410E6
:101F7800C2F201004FF000014FF400724FF002036B
:101F880002F01CF80346FB7102F0FEF80346FB71F1
:101F980000BF00F095FD0346002BFAD1FB79002B1A
:101FA80012D143F27430C2F2010043F67411C2F246
:101FB80001014FF4806200F03DF803461A4640F2F2
:101FC800A603C2F200031A7040F2A603C2F200038D
:101FD8001B78DBB2012B05D14FF22050C0F6000070
:101FE8000CF08AFA07F10807BD4680BD80B487B0B7
:101FF80000AFF860B9607A604FF00003FB824FF0E1
:102008000003FB820DE0FB8AFA68D318FA8AD1B282
:102018007A68D2B28A18D2B21A70FB8A03F1010325
:10202800FB82FA8ABB689A42EDD307F11C07BD46CA
:1020380080BC704780B485B000AFF860B9607A6042
:1020480010E0FB681A78BB681B789A4202D04FF000
:10205800000315E0FB6803F10103FB60BB6803F1B3
:102068000103BB607B68002B0CBF00230123DBB29C
:102078007A6802F1FF327A60002BE2D14FF0010357
:10208800184607F11407BD4680BC704780B483B07A
:1020980000AF786039600EE07B681B78FF2B06D0B4
:1020A8007B681B78002B02D04FF0000311E07B689F
:1020B80003F101037B603B68002B0CBF0023012365
:1020C800DBB23A6802F1FF323A60002BE4D14FF0FC
:1020D8000103184607F10C07BD4680BC704700BFD6
:1020E80080B582B000AF00F09BF800F06FFC0346AB
:1020F800FB714FF24450C0F600000CF0FDF9FB797B
:10210800002B06D14FF25C50C0F600000CF0F4F939
:102118000DE04FF27050C0F600000CF0EDF9FB79BD
:102128004FF28050C0F6000019460CF0E5F943F66E
:102138009073C2F2010393F856304FF29050C0F6F4
:10214800000019460CF0D8F943F69073C2F2010367
:10215800D3E912234FF2A050C0F600000CF0CCF9DE
:1021680043F69073C2F201031B6D4FF2B450C0F6F0
:10217800000019460CF0C0F943F69073C2F201034F
:1021880093F82C30DBB24FF2C850C0F60000194665
:102198000CF0B2F943F69073C2F20103B3F854306D
:1021A8004FF2DC50C0F6000019460CF0A5F929E002
:1021B80040F21403C2F200031B68012B04D0012B68
:1021C8000CD3022B14D01DE0FFF744FE40F2140399
:1021D800C2F200034FF000021A6013E0FFF7C4FDDB
:1021E80040F21403C2F200034FF002021A6009E041
:1021F800FFF794FE40F21403C2F200034FF003020B
:102208001A6000BFFB79002B06D140F21403C2F21A
:1022180000031B68032BCBD107F10807BD4680BD1F
:1022280080B582B000AF4FF4407007F04FF94FF01F
:1022380031033B714FF000037B714FF00003BB711A
:102248004FF00103FB7107F10403184607F052F938
:102258004FF03B033B714FF001037B7107F104031F
:10226800184607F047F907F10807BD4680BD00BFCB
:1022780080B500AF02F03AFF80BD00BF80B500AF67
:1022880002F0BCFF80BD00BF80B584B000AF3B4604
:10229800184608F0A3FD3B684FF2E850C0F600006E
:1022A80019460CF029F97B684FF2F850C0F6000087
:1022B80019460CF021F9BB684FF20460C0F6000023
:1022C80019460CF019F9FB684FF21460C0F60000CB
:1022D80019460CF011F907F11007BD4680BD00BF83
:1022E80080B586B000AF786039604FF000037B613D
:1022F8004FF000033B614FF00003FB813B681B7804
:102308007B734FF000037B615FE04FF00A000CF035
:102318000BF97B694FEA03127B68D3184FF22460EC
:10232800C0F6000019460CF0E7F84FF000033B61D7
:1023380014E0FB893A68D3181B787B73FB8903F197
:102348000103FB817B7B4FF23060C0F60000194629
:102358000CF0D2F83B6903F101033B613B690F2B99
:10236800E7D94FF23860C0F600000CF0C5F8FB89D9
:10237800A3F11003FB814FF000033B6118E0FB89D8
:102388003A68D3181B787B73FB8903F10103FB813F
:102398007B7B202B04D97B7B18460CF0C5F803E027
:1023A8004FF02E000CF0C0F83B6903F101033B61CC
:1023B8003B690F2BE3D94FF23C60C0F600000CF0EC
:1023C8009BF87B6903F101037B617B691F2B9CD917
:1023D80007F11807BD4680BD80B5ADF5047D00AF97
:1023E80007F1040318604FF00003C7F80C3235E01A
:1023F80007F108031846D7F80C124FF400724FF093
:10240800010301F0F5FC034687F80B3297F80B320D
:10241800002B04D097F80B32184600F035F800BFAF
:1024280000F04EFB0346002BFAD1D7F80C324FEAE6
:10243800432207F1080310461946FFF751FFD7F862
:102448000C32D7F80C2202F10102C7F80C224FF225
:102458004060C0F6000019460CF04EF807F104037E
:102468001B68002B0CBF00230123DBB207F1040219
:1024780007F10401096801F1FF311160002BB7D1A0
:1024880007F50477BD4680BD80B5ACB000AF034604
:10249800FB714FF6C013C0F6000307F108011A4696
:1024A8004FF0A803084611461A460CF002F8FA79CC
:1024B800FB794FEA830307F1B001CB1853F8A83C26
:1024C8004FF25060C0F6000011461A460CF014F89E
:1024D80007F1B007BD4680BDB0B58CB000AF03466C
:1024E800FB714FF62C33C0F6000307F10C041D46B0
:1024F8000FCD0FC40FCD0FC42B682360FB79072BBA
:1025080011D8FA79FB794FEA830307F13001CB1828
:1025180053F8243C4FF66820C0F6000011461A46CE
:102528000BF0EAFF09E0FA79FB6A4FF66820C0F67B
:10253800000011461A460BF0DFFF07F13007BD46D1
:10254800B0BD00BFF0B58BB000AF4FF6C053C0F6BA
:10255800000307F104069E46BEE80F000FC69EE87A
:102568000F0086E80F004FF65030C0F600000BF061
:10257800C3FF43F69070C2F2010000F003FE034669
:1025880087F8273097F82730002B0DD04FF66030AA
:10259800C0F600000BF0B0FF97F827301846FFF799
:1025A80073FF97F8273003E197F82730002B40F0A6
:1025B800FD8000F0A3FA03461846FFF78DFF43F6A7
:1025C8009073C2F201031B6D4FF69030C0F6000005
:1025D80019460BF091FF43F69073C2F20103D3E959
:1025E80012234FF6A430C0F600000BF085FF43F627
:1025F8009073C2F20103D3E912234FEA03314FEA81
:1026080012540C434FEA135523464FF6BC30C0F61C
:10261800000019460BF070FF43F69073C2F20103F5
:1026280093F856304FEA830307F12802D31853F87A
:10263800243C4FF6C830C0F6000019460BF05CFF8A
:1026480043F69073C2F20103B3F854304FF6D43016
:10265800C0F6000019460BF04FFF43F69073C2F224
:1026680001035B79DBB24FF6E030C0F60000194693
:102678000BF042FF43F69073C2F201031B694FF659
:10268800FC30C0F6000019460BF036FF43F6907395
:10269800C2F201031B7EDBB24FF61440C0F6000005
:1026A80019460BF029FF43F69073C2F201031B7A17
:1026B800DBB24FF63040C0F6000019460BF01CFFA5
:1026C80043F69073C2F20103DB7FDBB24FF648405A
:1026D800C0F6000019460BF00FFF4FF66440C0F635
:1026E80000000BF009FF43F69073C2F2010393F860
:1026F8002C30DBB24FF66C40C0F6000019460BF0E8
:10270800FBFE43F69073C2F201031B6B4FF6844045
:10271800C0F6000019460BF0EFFE43F69073C2F2C4
:10272800010393F83430DBB24FF69840C0F600004E
:1027380019460BF0E1FE43F69073C2F2010393F8D9
:102748003530DBB24FF6AC40C0F6000019460BF04E
:10275800D3FE43F69073C2F201039B6B4FF6BC4065
:10276800C0F6000019460BF0C7FE43F69073C2F29C
:102778000103DB8F9BB24FF6CC40C0F60000194630
:102788000BF0BAFE43F69073C2F2010393F840309F
:10279800DBB24FF6E440C0F6000019460BF0ACFE81
:1027A80000F0ACF903461846FFF796FE4FF0000319
:1027B800184607F12C07BD46F0BD00BF80B586B0AE
:1027C80000AF4FF6E050C0F600000BF095FE07F1A1
:1027D8000403184601F070F80346FB75FB7D002BD7
:1027E8000BD04FF6F050C0F600000BF085FEFB7DD5
:1027F8001846FFF749FEFB7D5DE0FB7D002B58D1B5
:102808003B79DBB24FF62460C0F6000019460BF0A6
:1028180073FE7B79DBB24FF63C60C0F600001946C8
:102828000BF06AFEFB889BB24FF65460C0F60000BE
:1028380019460BF061FEBB684FF66C60C0F60000ED
:1028480019460BF059FE3B7BDBB24FF68C60C0F6A5
:10285800000019460BF050FE7B7BDBB24FF6A06000
:10286800C0F6000019460BF047FEBB7BDBB24FF603
:10287800BC60C0F6000019460BF03EFE3B8A9BB2D6
:102888004FF6CC60C0F6000019460BF035FEBB7C55
:10289800DBB24FF6E060C0F6000019460BF02CFEE4
:1028A800FB7CDBB24FF6F860C0F6000019460BF06F
:1028B80023FE4FF00003184607F11807BD4680BDF8
:1028C80080B582B000AF4FF61070C0F600000BF074
:1028D80013FEFFF7D9FC40F21803C2F200031B688D
:1028E8004FF62870C0F6000019460BF005FE40F2BE
:1028F8001803C2F200031A6848F68903C8F6880369
:10290800A3FB02134FEA93134FF66070C0F6000062
:1029180019460BF0F1FD40F21803C2F200031B68E0
:102928004FEA93034FF69C70C0F6000019460BF06F
:10293800E3FD4FF6E070C0F600000BF0DDFD00F09F
:1029480045F80346FB71FB79002B09D04FF6F07070
:10295800C0F600000BF0D0FDFB791846FFF794FD98
:10296800FFF7F0FDFFF72AFF40F21C00C0F6010058
:102978000BF0C2FD43F69070C2F2010000F002FCB9
:102988000346FB71FB79002B09D04FF66030C0F687
:1029980000000BF0B1FDFB791846FFF775FD43F613
:1029A8009073C2F201031B6940F23800C0F60100BF
:1029B80019460BF0A1FD07F10807BD4680BD00BF11
:1029C80080B500AF03F068FA80BD00BF80B582B063
:1029D80000AF4FF00003FB7103F0D8FA07F066FA76
:1029E80000F0C0F80346FB71FB79DBB2002B02D084
:1029F800FB79DBB25FE000F08BFA0346FB71FB79F1
:102A0800DBB2002B02D0FB79DBB254E043F6E8736B
:102A1800C2F201034FF002021A7543F6E873C2F2DC
:102A280001034FF000021A6043F6E873C2F2010393
:102A38004FF000025A6043F6E873C2F201034FF008
:102A480000029A6043F6E873C2F201034FF00002F5
:102A5800DA6043F6E873C2F201034FF000021A612C
:102A680043F6E870C2F2010007F030FA43F69070BE
:102A7800C2F2010000F086FB0346FB71FB79DBB272
:102A8800002B0CD143F69073C2F20103B3F8543013
:102A98004FEA0343184601F091F80346FB71FB79AE
:102AA800DBB2002B05D14FF4006000F0D9FF0346DC
:102AB800FB71FB79DBB2184607F10807BD4680BDFC
:102AC80080B582B000AF4FF00403FB7100F016F838
:102AD8000346FB71FB79042B02D14FF0000307E09A
:102AE800FB79FF2B02D14FF0020301E04FF0010305
:102AF800184607F10807BD4680BD00BF80B582B003
:102B080000AF4FF000037B6000F01EF80346012B76
:102B180012D107F10403184602F018F90346002BF6
:102B280002D04FF0FF0309E07B684FEA5323DBB282
:102B380003F00F03DBB201E04FF0FF03184607F183
:102B48000807BD4680BD00BF80B483B000AF4FF01A
:102B58000103FB71FB79DBB2184607F10C07BD4690
:102B680080BC704780B586B000AF4FF00003FB71A2
:102B78004FF000037B614FF000033B614FF000030F
:102B8800FB604FF00003BB6043F6E873C2F2010339
:102B98004FF076021A7543F6E873C2F201034FF05C
:102BA80000021A6043F6E873C2F201034FF0000214
:102BB8005A6043F6E873C2F201034FF000029A60CC
:102BC80043F6E873C2F201034FF00002DA6043F6FD
:102BD800E873C2F201034FF000021A6143F6E8708D
:102BE800C2F2010007F072F94FF0030007F0D4F9C0
:102BF8004FF0010007F0C0F943F67873C2F2010301
:102C08004FF000021A6043F67873C2F201034FF0E6
:102C180000025A6043F67873C2F201034FF00002D3
:102C28009A6043F67873C2F201034FF00002DA604B
:102C380043F67873C2F201034FF480621A6143F6D7
:102C48007870C2F2010007F0C5F902F0F3FA034602
:102C5800FB71FB79DBB2002B02D0FB79DBB242E1DE
:102C680043F67873C2F201034FF4D5721A6043F643
:102C78007873C2F201034FF008025A6043F6787382
:102C8800C2F201034FF040029A6043F67873C2F231
:102C980001034FF00002DA6043F67873C2F20103D1
:102CA8004FF480621A6143F67870C2F2010007F0AF
:102CB80091F902F0E9FA0346FB71FB79DBB2002BCC
:102CC8000AD140F2A803C2F200034FF001021A60D1
:102CD8004FF08043BB602EE043F67873C2F20103E5
:102CE8004FF000021A6043F67873C2F201034FF006
:102CF80037025A6043F67873C2F201034FF040027C
:102D08009A6043F67873C2F201034FF00002DA606A
:102D180043F67873C2F201034FF480621A6143F6F6
:102D28007870C2F2010007F055F94FF0370002F051
:102D3800F3FA0346FB7143F67873C2F201034FF0CE
:102D480000021A6043F67873C2F201034FF03702AB
:102D58005A6043F67873C2F201034FF040029A605A
:102D680043F67873C2F201034FF00002DA6043F6CB
:102D78007873C2F201034FF480621A6143F67870E7
:102D8800C2F2010007F026F94FF0370002F0C4FA4A
:102D98000346FB71FB79DBB2002B40F0A2807EE09A
:102DA80043F67873C2F201034FF000021A6043F64B
:102DB8007873C2F201034FF037025A6043F6787312
:102DC800C2F201034FF040029A6043F67873C2F2F0
:102DD80001034FF00002DA6043F67873C2F2010390
:102DE8004FF480621A6143F67870C2F2010007F06E
:102DF800F1F84FF0370002F08FFA0346FB71FB79C8
:102E0800DBB2002B02D0FB79DBB26CE0BB6843F08D
:102E1800004242F4801243F67873C2F201031A604A
:102E280043F67873C2F201034FF029025A6043F661
:102E38007873C2F201034FF040029A6043F6787348
:102E4800C2F201034FF00002DA6043F67873C2F26F
:102E580001034FF480621A6143F67870C2F20100F0
:102E680007F0B8F802F048FB0346FB71FB79DBB2C8
:102E7800002B02D0FB79DBB235E04FF0000007F001
:102E880007F978617B694FEAD373012B14BF0023DC
:102E98000123DBB2FB603B6903F101033B61FB6883
:102EA800002B05D13A694FF6FE739A427FF678AF48
:102EB8003A694FF6FE739A4205D94FF01B03FB712E
:102EC800FB79DBB20FE07B6903F080437B617B69B0
:102ED800002B06D040F2A803C2F200034FF0020212
:102EE8001A60FB79DBB2184607F11807BD4680BDAA
:102EF80080B582B000AF4FF00003FB714FF00000C7
:102F080007F04AF8FB79184607F10807BD4680BD67
:102F180080B582B000AF4FF00003FB714FF00103A2
:102F2800BB8007F049F80346002B04D14FF0250376
:102F3800FB71FB7921E140F2A803C2F200031B6890
:102F4800042B59D043F67873C2F201034FF0000204
:102F58001A6043F67873C2F201034FF002025A6016
:102F680043F67873C2F201034FF0C0029A6043F649
:102F78007873C2F201034FF00002DA6043F6787307
:102F8800C2F201034FF480621A6143F67870C2F20C
:102F9800010007F01FF802F0DFFA0346FB71FB7926
:102FA800002B01D0FB79E8E04FF0000007F070F843
:102FB800024640F2BC03C2F200031A604FF004005C
:102FC80007F066F8024640F2BC03C2F200035A60FA
:102FD8004FF0080007F05CF8024640F2BC03C2F26A
:102FE80000039A604FF00C0007F052F8024640F2D6
:102FF800BC03C2F20003DA6040F2A803C2F2000385
:103008001B68002B14D040F2A803C2F200031B680F
:10301800012B0DD040F2A803C2F200031B68062B57
:1030280006D040F2A803C2F200031B68022B36D177
:1030380043F67873C2F201034FF000021A6043F6B8
:103048007873C2F201034FF003025A6043F67873B3
:10305800C2F201034FF040029A6043F67873C2F25D
:1030680001034FF00002DA6043F67873C2F20103FD
:103078004FF480621A6143F67870C2F2010006F0DC
:10308800A9FF07F104034FF00300194602F0A2FA62
:103098000346FB71FB79002B01D0FB796DE040F210
:1030A800A803C2F200031B68042B62D0BB881A462F
:1030B80040F2CC03C2F200031A60BB884FEA034314
:1030C8001A4643F67873C2F201031A6043F678731E
:1030D800C2F201034FF009025A6043F67873C2F254
:1030E80001034FF0C0029A6043F67873C2F20103FD
:1030F8004FF00002DA6043F67873C2F201034FF42E
:1031080080621A6143F67870C2F2010006F062FF2D
:1031180002F022FA0346FB71FB79002B01D0FB7900
:103128002BE04FF0000006F0B3FF024640F2AC037C
:10313800C2F200031A604FF0040006F0A9FF02462D
:1031480040F2AC03C2F200035A604FF0080006F0E8
:103158009FFF024640F2AC03C2F200039A604FF0B0
:103168000C0006F095FF024640F2AC03C2F20003E1
:10317800DA604FF00003FB71FB79184607F1080786
:10318800BD4680BDB0B485B000AF78604FF0000197
:10319800B9734FF00001F97340F2A801C2F20001BF
:1031A8000968C8B2796881F8560040F2CC01C2F2C9
:1031B8000001096888B27968A1F8540040F2AC01AE
:1031C800C2F2000109684FEA1161F973F97B4FEA0D
:1031D8009111C8B279680870F97B01F03C014FEA97
:1031E800A101C8B279684870F97B01F00301C8B23F
:1031F8007968887040F2AC01C2F20001096801F4F4
:103208007F014FEA1141F9737968F87BC87040F281
:10321800AC01C2F20001096801F47F414FEA1121B3
:10322800F9737968F87B087140F2AC01C2F20001C9
:103238000968F9737968F87B487140F2AC01C2F209
:10324800000149684FEA1161F973F97B89B24FEAC5
:10325800011188B27968C88040F2AC01C2F200015D
:10326800496801F47F014FEA1141F9737968C98807
:1032780088B2F97B4FEA1111C9B2014388B2796863
:10328800C880F97B01F00F01C8B27968087240F272
:10329800AC01C2F20001496801F47F414FEA1121F3
:1032A800F973F97B4FEAD111C8B279684872F97B92
:1032B80001F040014FEAA111C8B279688872F97B20
:1032C80001F020014FEA6111C8B27968C872F97B30
:1032D80001F010014FEA2111C8B2796808737968C2
:1032E8004FF00000487340F2A801C2F200010968DB
:1032F800002907D040F2A801C2F20001096801299B
:1033080040F0AF80FB7B03F003034FEA83231A46A8
:103318007B681A6140F2AC03C2F200035B68FB737E
:103328007B681A69FB7B4FEA83031A437B681A613F
:1033380040F2AC03C2F200039B684FEA1363FB73CD
:103348007B681A69FB7B4FEA9313DBB21A437B68ED
:103358001A61FB7B03F038034FEAE303DAB27B68B8
:103368001A75FB7B03F00703DAB27B685A7540F2E3
:10337800AC03C2F200039B6803F47F034FEA1343D4
:10338800FB73FB7B4FEA5313DAB27B689A75FB7BBE
:1033980003F01C034FEAA303DAB27B68DA75FB7B00
:1033A80003F00303DBB24FEA4303DAB27B681A7611
:1033B80040F2AC03C2F200039B6803F47F434FEA78
:1033C8001323FB737B681B7EDAB2FB7B4FEAD313B4
:1033D800DBB21343DAB27B681A767B681B6903F1A8
:1033E80001010A464FF000037968C1E912237B689E
:1033F800D3E912017B681B7EDBB203F102034FF0B5
:10340800010202FA03F422464FEAE27302FB01F5D5
:1034180000FB03F42C19A0FB0223E1180B46796882
:10342800C1E912237B681B7ADBB24FF0010202FA72
:1034380003F31A467B681A657B68D3E912017B6837
:103448001C6D22464FF0000302FB01F500FB03F45C
:103458002C19A0FB0223E1180B467968C1E9122355
:1034680053E040F2A801C2F20001096802294CD1D8
:1034780040F2AC01C2F200014968F973F97B01F02E
:103488003F014FEA014108467968086140F2AC0102
:10349800C2F2000189684FEA1161F9737968086915
:1034A800F97B4FEA012108437968086140F2AC01D1
:1034B800C2F20001896801F47F014FEA1141F973F2
:1034C80079680869F97B08437968086140F2AC01BA
:1034D800C2F20001896801F47F414FEA1121F973B2
:1034E8007968096901F1010420464FF000014FEAAB
:1034F80050344FEAC14323434FEAC0427968C1E9D7
:1035080012237B684FF400721A65FB7B03F04003BB
:103518004FEAA313DAB27B685A76FB7B03F03F03CA
:10352800DBB24FEA4303DAB27B689A7640F2AC0327
:10353800C2F200039B68FB737B689B7EDAB2FB7B5D
:103548004FEAD313DBB21343DAB27B689A76FB7B7C
:1035580003F07F03DAB27B68DA7640F2AC03C2F29A
:103568000003DB684FEA1363FB73FB7B4FEAD3135B
:10357800DAB27B681A77FB7B03F060034FEA6313C8
:10358800DAB27B685A77FB7B03F01C034FEAA3038C
:10359800DAB27B689A77FB7B03F00303DBB24FEA6E
:1035A8008303DAB27B68DA7740F2AC03C2F2000335
:1035B800DB6803F47F034FEA1343FB737B68DB7F0D
:1035C800DAB2FB7B4FEA9313DBB21343DAB27B68C0
:1035D800DA77FB7B03F020034FEA6313DAB27B68E8
:1035E80083F820207B684FF0000283F82120FB7BC2
:1035F80003F00103DAB27B6883F8222040F2AC03BF
:10360800C2F20003DB6803F47F434FEA1323FB7322
:10361800FB7B4FEAD313DAB27B6883F82320FB7B6A
:1036280003F040034FEAA313DAB27B6883F824203F
:10363800FB7B03F020034FEA6313DAB27B6883F85D
:103648002520FB7B03F010034FEA2313DAB27B68D3
:1036580083F82620FB7B03F00C034FEAA303DAB2BE
:103668007B6883F82720FB7B03F00303DAB27B68CF
:1036780083F8282040F2AC03C2F20003DB68FB7336
:10368800FB7B4FEA5303DAB27B6883F829207B6817
:103698004FF0010283F82A2040F2BC03C2F2000373
:1036A8001B684FEA1363FB737B68FA7B83F82C2053
:1036B80040F2BC03C2F200031B6803F47F034FEA25
:1036C8001343FB73FB7B9BB24FEA03239AB27B68DD
:1036D800DA8540F2BC03C2F200031B6803F47F439F
:1036E8004FEA1323FB737B68DB8D9AB2FB7B9BB29B
:1036F80013439AB27B68DA8540F2BC03C2F2000336
:103708001B68FB73FB7B4FEA03631A467B681A63EB
:1037180040F2BC03C2F200035B684FEA1363FB7319
:103728007B681A6BFB7B4FEA03431A437B681A6377
:1037380040F2BC03C2F200035B6803F47F034FEA64
:103748001343FB737B681A6BFB7B4FEA03231A4313
:103758007B681A6340F2BC03C2F200035B6803F49F
:103768007F434FEA1323FB737B681A6BFB7B1A4377
:103778007B681A6340F2BC03C2F200035B68FB7308
:103788007B68FA7B83F8342040F2BC03C2F2000362
:103798009B684FEA1363FB737B68FA7B83F83520D9
:1037A80040F2BC03C2F200039B6803F47F034FEAB4
:1037B8001343FB73FB7B4FEA03631A467B689A63E8
:1037C80040F2BC03C2F200039B6803F47F434FEA54
:1037D8001323FB737B689A6BFB7B4FEA03431A4303
:1037E8007B689A6340F2BC03C2F200039B68FB73D8
:1037F8007B689A6BFB7B4FEA03231A437B689A63C7
:1038080040F2BC03C2F20003DB684FEA1363FB73A8
:103818007B689A6BFB7B1A437B689A6340F2BC0314
:10382800C2F20003DB6803F47F034FEA1343FB7320
:103838007B6893F83C30DAB2FB7B4FEA1313DBB2B8
:103848001343DAB27B6883F83C20FB7B9BB203F01E
:103858000F039BB24FEA03239AB27B68DA8740F2E0
:10386800BC03C2F20003DB6803F47F434FEA13236F
:10387800FB737B68DB8F9AB2FB7B9BB213439AB2D4
:103888007B68DA8740F2BC03C2F20003DB68FB7393
:10389800FB7B4FEA5303DAB27B6883F840207B68EE
:1038A8004FF0010283F84120BB7B184607F114074B
:1038B800BD46B0BC704700BF80B584B000AF78602B
:1038C8004FF00003FB734FF00003BB7340F2D000CE
:1038D800C2F2000001F090FA0346FB73FB7B002B59
:1038E80001D0FB7BB7E040F2D003C2F200031B78A3
:1038F8004FEA9313BB737B68BA7B1A7040F2D0030C
:10390800C2F200031B7803F020034FEA6313BB7372
:103918007B68BA7B5A7040F2D003C2F200039B78EE
:10392800BB73BB7B9BB24FEA03239AB27B685A8076
:1039380040F2D003C2F20003DB78BB737B685B887C
:103948009AB2BB7B9BB213439AB27B685A8040F20F
:10395800D003C2F200031B79BB73BB7B4FEA03633E
:103968001A467B685A6040F2D003C2F200035B79C2
:10397800BB737B685A68BB7B4FEA03431A437B6877
:103988005A6040F2D003C2F200039B79BB737B6894
:103998005A68BB7B4FEA03231A437B685A6040F29C
:1039A800D003C2F20003DB79BB737B685A68BB7B28
:1039B8001A437B685A6040F2D003C2F200031B7AB4
:1039C800BB737B68BA7B1A7240F2D003C2F2000361
:1039D8005B7ABB737B68BA7B5A7240F2D003C2F23F
:1039E80000039B7A4FEA1313BB737B68BA7B9A7206
:1039F80040F2D003C2F20003DB7ABB73BB7B9BB2FD
:103A08004FEA03239AB27B689A8140F2D003C2F24C
:103A180000031B7BBB737B689B899AB2BB7B9BB201
:103A280013439AB27B689A8140F2D003C2F2000332
:103A38005B7B4FEA9303BB737B68BA7B9A7340F254
:103A4800D003C2F200035B7B03F00303BB737B6804
:103A5800BA7BDA73FB7B184607F11007BD4680BDB9
:103A680080B584B000AF78604FF00003FB7340F27C
:103A7800A803C2F200031B68032B04D14FF02703ED
:103A8800FB73FB7B95E040F2A803C2F200031B68BE
:103A9800002B0DD040F2A803C2F200031B68012BD3
:103AA80006D040F2A803C2F200031B68022B7FD1A4
:103AB8007B68B3F5805F04D14FF02703FB73FB7B72
:103AC80077E07B68B3F5006F39D14FF0010001F062
:103AD800F7FD0346FB73FB7B002B69D143F6E873C4
:103AE800C2F201034FF002021A7543F6E873C2F2FC
:103AF80001034FF000021A6043F6E873C2F20103B3
:103B08004FF000025A6043F6E873C2F201034FF027
:103B180000029A6043F6E873C2F201034FF40062B0
:103B2800DA6043F6E873C2F201034FF000021A614B
:103B380043F6E870C2F2010006F0C8F938E04FF029
:103B4800000001F0BDFD0346FB73FB7B002B2FD16A
:103B580043F6E873C2F201034FF002021A7543F606
:103B6800E873C2F201034FF000021A6043F6E873EB
:103B7800C2F201034FF000025A6043F6E873C2F242
:103B880001034FF000029A6043F6E873C2F20103A2
:103B98004FF00002DA6043F6E873C2F201034FF017
:103BA80000021A6143F6E870C2F2010006F08EF9CD
:103BB800FB7B184607F11007BD4680BD80B584B071
:103BC80000AF78604FF00003FB7343F67873C2F2DE
:103BD80001037A681A6043F67873C2F201034FF062
:103BE80007025A6043F67873C2F201034FF04002AD
:103BF8009A6043F67873C2F201034FF00002DA606C
:103C080043F67873C2F201034FF480621A6143F6F7
:103C18007870C2F2010006F0DDF94FF0070001F0FC
:103C28007BFB0346FB73FB7B184607F11007BD4679
:103C380080BD00BF80B586B000AFF860B96013469C
:103C4800FB804FF00003FB7540F2E403C2F200036F
:103C58004FF000021A7040F2E803C2F200034FF07E
:103C680000021A6040F2E003C2F200034FF00002C3
:103C78001A604FF43053C4F201034FF00002DA62C5
:103C880040F2A803C2F200031B68022B06D14FF4CE
:103C98000073FB80BB684FEA5323BB60FA8843F686
:103CA8007873C2F201031A6043F67873C2F2010313
:103CB8004FF010025A6043F67873C2F201034FF0D6
:103CC80040029A6043F67873C2F201034FF0000293
:103CD800DA6043F67873C2F201034FF480621A6126
:103CE80043F67870C2F2010006F074F94FF0100044
:103CF80001F012FB0346FB75FB7D002B01D0FB7D19
:103D080071E044F20003C2F201034FF0FF321A607F
:103D1800FA8844F20003C2F201035A6044F2000335
:103D2800C2F201034FF090029A6044F20003C2F21B
:103D380001034FF00202DA6044F20003C2F2010309
:103D48004FF000021A6144F20003C2F201034FF07F
:103D580001025A6144F20000C2F2010006F0AEF915
:103D680043F67873C2F20103BA681A6043F67873AF
:103D7800C2F201034FF011025A6043F67873C2F29F
:103D880001034FF040029A6043F67873C2F20103D0
:103D98004FF00002DA6043F67873C2F201034FF481
:103DA80080621A6143F67870C2F2010006F012F9D7
:103DB8004FF0110001F0B0FA0346FB75FB7D002BB4
:103DC80001D0FB7D0FE040F22A304FF0010106F0F0
:103DD8009BFA4FF0010006F087FAFB88F86819464D
:103DE80002F0DAF9FB7D184607F11807BD4680BDD9
:103DF80080B586B000AFF860B9603B601346FB80C1
:103E08004FF00003FB7540F2E403C2F200034FF0E9
:103E180000021A7040F2E803C2F200034FF00002F9
:103E28001A6040F2E003C2F200034FF001021A6088
:103E38004FF43053C4F201034FF00002DA6240F24B
:103E4800A803C2F200031B68022B06D14FF40073CB
:103E5800FB80BB684FEA5323BB60FA8843F678734C
:103E6800C2F201031A6043F67873C2F201034FF0FD
:103E780010025A6043F67873C2F201034FF0400211
:103E88009A6043F67873C2F201034FF00002DA60D9
:103E980043F67873C2F201034FF480621A6143F665
:103EA8007870C2F2010006F095F84FF0100001F0AA
:103EB80033FA0346FB75FB7D002B01D0FB7D77E0D1
:103EC80044F20003C2F201034FF0FF321A60FB888C
:103ED8003A6802FB03F244F20003C2F201035A609B
:103EE80044F20003C2F201034FF090029A6044F2D8
:103EF8000003C2F201034FF00202DA6044F2000349
:103F0800C2F201034FF000021A6144F20003C2F248
:103F180001034FF001025A6144F20000C2F20100AD
:103F280006F0CCF843F67873C2F20103BA681A6057
:103F380043F67873C2F201034FF012025A6043F657
:103F48007873C2F201034FF040029A6043F6787327
:103F5800C2F201034FF00002DA6043F67873C2F24E
:103F680001034FF480621A6143F67870C2F20100CF
:103F780006F030F84FF0120001F0CEF90346FB7559
:103F8800FB7D002B01D0FB7D12E040F22A304FF080
:103F9800010106F0B9F94FF0010006F0A5F9FB8818
:103FA8003A6802FB03F3F868194602F0F5F8FB7D5E
:103FB800184607F11807BD4680BD00BF80B586B01A
:103FC80000AFF860B9607A603B604FF00003FB75A2
:103FD80040F2E403C2F200034FF000021A7040F20C
:103FE800E803C2F200034FF000021A6040F2E00357
:103FF800C2F200034FF001021A604FF43053C4F2CA
:1040080001034FF00002DA6240F2A803C2F2000393
:104018001B68022B03D14FF400737B6004E0BB687C
:104028007A6802FB03F3BB6043F67873C2F20103BC
:104038007A681A6043F67873C2F201034FF01002EF
:104048005A6043F67873C2F201034FF040029A6057
:1040580043F67873C2F201034FF00002DA6043F6C8
:104068007873C2F201034FF480621A6143F67870E4
:10407800C2F2010005F0AEFF4FF0100001F04CF95C
:104088000346FB75FB7D002B01D0FB7D77E044F2F6
:104098000003C2F201034FF0FF321A603B687A68EE
:1040A80002FB03F244F20003C2F201035A6044F235
:1040B8000003C2F201034FF090029A6044F2000339
:1040C800C2F201034FF00202DA6044F20003C2F2C6
:1040D80001034FF000021A6144F20003C2F2010327
:1040E8004FF001025A6144F20000C2F2010005F0EB
:1040F800E5FF43F67873C2F20103BA681A6043F623
:104108007873C2F201034FF012025A6043F67873D3
:10411800C2F201034FF040029A6043F67873C2F28C
:1041280001034FF00002DA6043F67873C2F201032C
:104138004FF480621A6143F67870C2F2010005F00C
:1041480049FF4FF0120001F0E7F80346FB75FB7DCD
:10415800002B01D0FB7D12E040F22A304FF0010124
:1041680006F0D2F84FF0010006F0BEF83B687A6816
:1041780002FB03F3F868194602F00EF8FB7D1846B7
:1041880007F11807BD4680BD80B582B000AF4FF07B
:104198000003FB714FF0FF333B6003E03B6803F122
:1041A800FF333B6040F2EC03C2F200031B68002BB4
:1041B80011D140F2E803C2F200031B68002B0AD1B8
:1041C80040F2E403C2F200031B78DBB2002B02D1F9
:1041D8003B68002BE2D140F2EC03C2F200034FF03F
:1041E80000021A604FF0FF333B6003E03B6803F1C5
:1041F800FF333B604FF43053C4F201035B6B03F4AD
:104208000053002B02D03B68002BEFD140F2E003B3
:10421800C2F200031B68012B03D100F02BFC0346FC
:10422800FB713B68002B05D1FB79002B02D14FF0C5
:104238000403FB7140F2FF5006F0AEF840F2E403CD
:10424800C2F200031B78DBB2002B06D040F2E40375
:10425800C2F200031B78DBB200E0FB79184607F1D5
:104268000807BD4680BD00BF80B586B000AFF860C6
:10427800B9601346FB804FF00003FB7540F2E4037E
:10428800C2F200034FF000021A7040F2E803C2F2D3
:1042980000034FF000021A6040F2E003C2F200038C
:1042A8004FF000021A604FF43053C4F201034FF08C
:1042B8000002DA6240F2A803C2F200031B68022B74
:1042C80006D14FF40073FB80BB684FEA5323BB60F1
:1042D800FA8843F67873C2F201031A6043F67873DA
:1042E800C2F201034FF010025A6043F67873C2F22B
:1042F80001034FF040029A6043F67873C2F201035B
:104308004FF00002DA6043F67873C2F201034FF40B
:1043180080621A6143F67870C2F2010005F05AFE15
:104328004FF0100000F0F8FF0346FB75FB7D002BF3
:1043380001D0FB7D71E043F67873C2F20103BA68DD
:104348001A6043F67873C2F201034FF018025A60FC
:1043580043F67873C2F201034FF040029A6043F6C5
:104368007873C2F201034FF00002DA6043F6787303
:10437800C2F201034FF480621A6143F67870C2F208
:10438800010005F027FE4FF0180000F0C5FF0346B6
:10439800FB75FB7D002B01D0FB7D3EE044F2000362
:1043A800C2F201034FF0FF321A60FA8844F20003A8
:1043B800C2F201035A6044F20003C2F201034FF053
:1043C80090029A6044F20003C2F201034FF0000227
:1043D800DA6044F20003C2F201034FF000021A61EE
:1043E80044F20003C2F201034FF001025A6144F2A1
:1043F8000000C2F2010005F061FE40F22A304FF0E1
:10440800010105F081FFFB88F868194601F054FEA8
:104418004FF0010005F068FFFB7D184607F118070B
:10442800BD4680BD80B586B000AFF860B9603B601E
:104438001346FB804FF00003FB7540F2E403C2F221
:1044480000034FF000021A7040F2E803C2F20003C2
:104458004FF000021A6040F2E003C2F200034FF08E
:1044680001021A604FF43053C4F201034FF0000206
:10447800DA6240F2A803C2F200031B68022B06D1DD
:104488004FF40073FB80BB684FEA5323BB60FA8884
:1044980043F67873C2F201031A6043F67873C2F2E6
:1044A80001034FF010025A6043F67873C2F2010319
:1044B8004FF040029A6043F67873C2F201034FF05E
:1044C8000002DA6043F67873C2F201034FF48062A7
:1044D8001A6143F67870C2F2010005F07BFD4FF0D7
:1044E800100000F019FF0346FB75FB7D002B01D07F
:1044F800FB7DE3E040F2CC03C2F200031B684FEA05
:10450800034243F67873C2F201031A6043F67873E4
:10451800C2F201034FF037025A6043F67873C2F2D1
:1045280001034FF040029A6043F67873C2F2010328
:104538004FF00002DA6043F67873C2F201034FF4D9
:1045480080621A6143F67870C2F2010005F042FDFC
:104558004FF0370000F0E0FE0346FB75FB7D002BB3
:1045680001D0FB7DAAE043F67873C2F201033A68F2
:104578001A6043F67873C2F201034FF017025A60CB
:1045880043F67873C2F201034FF040029A6043F693
:104598007873C2F201034FF00002DA6043F67873D1
:1045A800C2F201034FF480621A6143F67870C2F2D6
:1045B800010005F00FFD4FF0170000F0ADFE0346B7
:1045C800FB75FB7D002B01D0FB7D77E043F678730C
:1045D800C2F20103BA681A6043F67873C2F20103A3
:1045E8004FF019025A6043F67873C2F201034FF094
:1045F80040029A6043F67873C2F201034FF000025A
:10460800DA6043F67873C2F201034FF480621A61EC
:1046180043F67870C2F2010005F0DCFC4FF0190097
:1046280000F07AFE0346FB75FB7D002B01D0FB7D75
:1046380044E044F20003C2F201034FF0FF321A6073
:10464800FB883A6802FB03F244F20003C2F201035A
:104658005A6044F20003C2F201034FF090029A60DC
:1046680044F20003C2F201034FF00002DA6044F2A0
:104678000003C2F201034FF000021A6144F2000382
:10468800C2F201034FF001025A6144F20000C2F283
:10469800010005F013FD40F22A304FF0010105F04A
:1046A80033FE4FF0010005F01FFEFB883A6802FB5D
:1046B80003F3F868194601F0FFFCFB7D184607F183
:1046C8001807BD4680BD00BF80B586B000AFF86052
:1046D800B9607A603B604FF00003FB7540F2E40379
:1046E800C2F200034FF000021A7040F2E803C2F26F
:1046F80000034FF000021A6040F2E003C2F2000328
:104708004FF001021A604FF43053C4F201034FF026
:104718000002DA6240F2A803C2F200031B68022B0F
:1047280003D14FF400737B6004E0BB687A6802FB36
:1047380003F3BB6043F67873C2F201037A681A6028
:1047480043F67873C2F201034FF010025A6043F641
:104758007873C2F201034FF040029A6043F678730F
:10476800C2F201034FF00002DA6043F67873C2F236
:1047780001034FF480621A6143F67870C2F20100B7
:1047880005F028FC4FF0100000F0C6FD0346FB754D
:10479800FB7D002B01D0FB7DE3E040F2CC03C2F2AD
:1047A80000031B684FEA034243F67873C2F2010321
:1047B8001A6043F67873C2F201034FF037025A6069
:1047C80043F67873C2F201034FF040029A6043F651
:1047D8007873C2F201034FF00002DA6043F678738F
:1047E800C2F201034FF480621A6143F67870C2F294
:1047F800010005F0EFFB4FF0370000F08DFD034698
:10480800FB75FB7D002B01D0FB7DAAE043F6787396
:10481800C2F201033A681A6043F67873C2F20103E0
:104828004FF017025A6043F67873C2F201034FF053
:1048380040029A6043F67873C2F201034FF0000217
:10484800DA6043F67873C2F201034FF480621A61AA
:1048580043F67870C2F2010005F0BCFB4FF0170078
:1048680000F05AFD0346FB75FB7D002B01D0FB7D54
:1048780077E043F67873C2F20103BA681A6043F628
:104888007873C2F201034FF019025A6043F6787345
:10489800C2F201034FF040029A6043F67873C2F205
:1048A80001034FF00002DA6043F67873C2F20103A5
:1048B8004FF480621A6143F67870C2F2010005F085
:1048C80089FB4FF0190000F027FD0346FB75FB7DBF
:1048D800002B01D0FB7D44E044F20003C2F2010347
:1048E8004FF0FF321A603B687A6802FB03F244F229
:1048F8000003C2F201035A6044F20003C2F201034A
:104908004FF090029A6044F20003C2F201034FF0A4
:104918000002DA6044F20003C2F201034FF0000221
:104928001A6144F20003C2F201034FF001025A6116
:1049380044F20000C2F2010005F0C0FB40F22A3048
:104948004FF0010105F0E0FC4FF0010005F0CCFC50
:104958003B687A6802FB03F3F868194601F0ACFB80
:10496800FB7D184607F11807BD4680BD80B582B0AB
:1049780000AF4FF00003FB714FF0FF333B6003E0E3
:104988003B6803F1FF333B6040F2EC03C2F20003E3
:104998001B68002B11D140F2E803C2F200031B6828
:1049A800002B0AD140F2E403C2F200031B78DBB209
:1049B800002B02D13B68002BE2D140F2EC03C2F29B
:1049C80000034FF000021A604FF0FF333B6003E032
:1049D8003B6803F1FF333B604FF43053C4F20103EB
:1049E8005B6B03F48053002B02D03B68002BEFD1A4
:1049F80040F2E003C2F200031B68012B03D100F070
:104A080039F80346FB713B68002B05D1FB79002B75
:104A180002D14FF00403FB7140F2FF5005F0BCFCDB
:104A280040F2E403C2F200031B78DBB2002B06D08D
:104A380040F2E403C2F200031B78DBB200E0FB792A
:104A4800184607F10807BD4680BD00BF80B400AF17
:104A58004FF43053C4F201035B6B03F44053002B53
:104A680002D04FF0010301E04FF000031846BD46A5
:104A780080BC704780B582B000AF4FF00003FB7177
:104A880043F67873C2F201034FF000021A6043F64E
:104A98007873C2F201034FF00C025A6043F6787340
:104AA800C2F201034FF040029A6043F67873C2F2F3
:104AB80001034FF00002DA6043F67873C2F2010393
:104AC8004FF480621A6143F67870C2F2010005F073
:104AD80081FA4FF00C0000F01FFC0346FB71FB79D4
:104AE800184607F10807BD4680BD00BF80B586B0EF
:104AF80000AF786039604FF00003FB754FF000039A
:104B08003B614FF00003FB604FF00003FB7240F283
:104B1800AC03C2F200035B684FEA135303F02003AF
:104B2800002B04D14FF02503FB75FB7D09E14FF401
:104B38003053C4F201035B68DBB203F102024DF2A9
:104B4800C043C0F20103B3FBF2F3FB604FF0000077
:104B580005F09EFA034603F00073002B04D04FF0D3
:104B68000E03FB75FB7DECE040F2A803C2F20003E4
:104B78001B68022B07D17B684FEA53237B603B6895
:104B88004FEA53233B6040F2A803C2F200031B68BC
:104B9800002B0DD040F2A803C2F200031B68012BC2
:104BA80006D040F2A803C2F200031B68022B65D1AD
:104BB80043F67873C2F201037A681A6043F6787391
:104BC800C2F201034FF020025A6043F67873C2F232
:104BD80001034FF040029A6043F67873C2F2010372
:104BE8004FF00002DA6043F67873C2F201034FF423
:104BF80080621A6143F67870C2F2010005F0EAF9A2
:104C08004FF0200000F088FB0346FB75FB7D002B6E
:104C180001D0FB7D95E043F67873C2F201033A6850
:104C28001A6043F67873C2F201034FF021025A600A
:104C380043F67873C2F201034FF040029A6043F6DC
:104C48007873C2F201034FF00002DA6043F678731A
:104C5800C2F201034FF480621A6143F67870C2F21F
:104C6800010005F0B7F94FF0210000F055FB0346AD
:104C7800FB75FB7D002B01D0FB7D62E043F678736A
:104C8800C2F201034FF000021A6043F67873C2F2D1
:104C980001034FF026025A6043F67873C2F201030B
:104CA8004FF040029A6043F67873C2F201034FF066
:104CB8000002DA6043F67873C2F201034FF48062AF
:104CC8001A6143F67870C2F2010005F083F94FF0DB
:104CD800260000F021FB0346FB75FB7D002B01D06D
:104CE800FB7D2EE04FF000033B6103E03B6903F1DD
:104CF80001033B61FB683A699A42F7D307F10B035A
:104D0800184600F005FE0346FB754FF0FF333B6184
:104D18000AE007F10B03184600F0FAFD0346FB759D
:104D28003B6903F1FF333B613B69002B08D0FB7DF6
:104D3800002B05D1FB7A072BEBD0FB7A062BE8D0AA
:104D4800FB7D184607F11807BD4680BD80B584B0C5
:104D580000AF78604FF00003FB737B68002B04D131
:104D68004FF02603FB73FB7B40E040F2CC03C2F21A
:104D780000031B684FEA034243F67873C2F201034B
:104D88001A6043F67873C2F201034FF00D025A60BD
:104D980043F67873C2F201034FF040029A6043F67B
:104DA8007873C2F201034FF00002DA6043F67873B9
:104DB800C2F201034FF480621A6143F67870C2F2BE
:104DC800010005F007F94FF00D0000F0A5FA0346C1
:104DD800FB73FB7B002B01D0FB7B07E04FF000004F
:104DE80005F056F902467B681A60FB7B184607F106
:104DF8001007BD4680BD00BF90B585B000AF786094
:104E08004FF00003FB724FF00003FB604FF000000F
:104E180005F03EF9034603F00073002B04D04FF071
:104E28000E03FB72FB7A5BE143F67873C2F201036F
:104E38004FF040021A6043F67873C2F201034FF054
:104E480010025A6043F67873C2F201034FF0400231
:104E58009A6043F67873C2F201034FF00002DA60F9
:104E680043F67873C2F201034FF480621A6143F685
:104E78007870C2F2010005F0ADF84FF0100000F0B4
:104E88004BFA0346FB72FB7A002B01D0FB7A27E131
:104E980040F2CC03C2F200031B684FEA034243F618
:104EA8007873C2F201031A6043F67873C2F2010301
:104EB8004FF037025A6043F67873C2F201034FF09D
:104EC80040029A6043F67873C2F201034FF0000281
:104ED800DA6043F67873C2F201034FF480621A6114
:104EE80043F67870C2F2010005F074F84FF037000D
:104EF80000F012FA0346FB72FB7A002B01D0FB7A12
:104F0800EEE044F20003C2F201034FF0FF321A60F0
:104F180044F20003C2F201034FF040025A6044F227
:104F28000003C2F201034FF060029A6044F20003EA
:104F3800C2F201034FF00202DA6044F20003C2F247
:104F480001034FF000021A6144F20003C2F20103A8
:104F58004FF001025A6144F20000C2F2010005F06C
:104F6800ADF843F67873C2F201034FF000021A60FD
:104F780043F67873C2F201034FF00D025A6043F60C
:104F88007873C2F201034FF040029A6043F67873D7
:104F9800C2F201034FF00002DA6043F67873C2F2FE
:104FA80001034FF480621A6143F67870C2F201007F
:104FB80005F010F84FF00D0000F0AEF90346FB7253
:104FC800FB7A002B21D0FB7A8AE04FF4004005F0F1
:104FD800C5F90346002B19D04FF00003FB600CE025
:104FE800FB684FEA83037A68D41805F0CDF80346C6
:104FF8002360FB6803F10103FB60FB68072BEFD913
:105008007B6803F120037B6000E000BF4FF430535E
:10501800C4F201035A6B40F22A631340002BD4D028
:105028004FF0080005F09AF90346002B08D04FF01E
:10503800080005F0B1F94FF00403FB72FB7A4FE06A
:105048004FF0020005F08AF90346002B08D04FF014
:10505800020005F0A1F94FF00203FB72FB7A3FE072
:105068004FF0200005F07AF90346002B08D04FF0E6
:10507800200005F091F94FF00603FB72FB7A2FE050
:105088004FF4007005F06AF90346002B08D04FF47E
:10509800007005F081F94FF00703FB72FB7A1FE0FF
:1050A8004FF0FF33FB600CE005F06EF802467B68BA
:1050B8001A607B6803F104037B60FB6803F1FF332C
:1050C800FB604FF4001005F049F90346002B02D0AD
:1050D800FB68002BE8D140F2FF5005F05DF9FB7A40
:1050E800184607F11407BD4690BD00BF80B500AF54
:1050F8004FF4807005F060F90346002B12D040F29F
:10510800E403C2F200034FF000021A704FF48070FB
:1051180005F070F940F2E803C2F200034FF0010213
:105128001A605DE04FF0020005F046F90346002BD7
:105138000BD04FF0020005F05DF940F2E403C2F233
:1051480000034FF002021A704AE04FF0080005F021
:1051580033F90346002B0BD04FF0080005F04AF94D
:1051680040F2E403C2F200034FF004021A7037E081
:105178004FF0200005F020F90346002B0BD04FF02C
:10518800200005F037F940F2E403C2F200034FF0C3
:1051980006021A7024E04FF0100005F00DF90346DE
:1051A800002B0BD04FF0100005F024F940F2E40377
:1051B800C2F200034FF005021A7011E04FF40070BC
:1051C80005F0FAF80346002B0AD04FF4007005F0FA
:1051D80011F940F2E403C2F200034FF007021A701B
:1051E8004CF23A304FF0000105F08EF840F2E4033B
:1051F800C2F200031B78DBB2184680BD80B500AF51
:105208004FF4C843C4F202031B6803F0C053002BD9
:105218000ED040F2EC03C2F200034FF001021A6014
:1052280046F25840C4F202004FF0C25104F044FD67
:1052380080BD00BF80B582B000AF4FF00003FB70A7
:105248004FF480337B6003E07B6803F1FF337B60BE
:105258007B68002B06D04FF0800005F07FF80346EE
:10526800002BF1D07B68002B04D14FF00303FB70B7
:10527800FB7804E040F2FF5005F08EF8FB78184602
:1052880007F10807BD4680BD80B584B000AF4FF078
:105298000003FB714FF48033BB604FF43053C4F20A
:1052A80001035B6BFB6009E0BB6803F1FF33BB6084
:1052B8004FF43053C4F201035B6BFB60FB6803F0EF
:1052C8004503002B02D1BB68002BEDD1BB68002B36
:1052D80004D0FB6803F00403002B08D04FF003034D
:1052E800FB714FF0040005F057F8FB790EE0FB68FE
:1052F80003F04003002B08D04FF00003FB714FF080
:10530800400005F049F8FB7900E0FB79184607F101
:105318001007BD4680BD00BF80B586B000AF03460C
:10532800FB714FF00003FB744FF43053C4F20103D8
:105338005B6B7B6105E04FF43053C4F201035B6B98
:105348007B617B6903F04503002BF4D07B6903F094
:105358000403002B08D04FF00303FB744FF0040044
:1053680005F01AF8FB7CC2E07B6903F00103002B0F
:1053780008D04FF00103FB744FF0010005F00CF862
:10538800FB7CB4E004F078FE0346FA799A4204D034
:105398004FF01003FB74FB7CA9E040F2FF5004F0CF
:1053A800FBFF4FF0000004F073FEF860FA684EF25D
:1053B8000803CFF6FF531340002B01D1FB7C96E086
:1053C800FB68002B02DA4FF01C0390E0FB6803F047
:1053D8008043002B02D04FF0090388E0FB6803F0FC
:1053E8000053002B02D04FF00A0380E0FB6803F063
:1053F8008053002B02D04FF00B0378E0FB6803F0DA
:105408000063002B02D04FF00C0370E0FB6803F040
:105418008063002B02D04FF00D0368E0FB6803F0B7
:105428008073002B02D04FF00E0360E0FB6803F49A
:105438000003002B02D04FF00F0358E0FB6803F481
:105448008003002B02D04FF0100350E0FB6803F4F8
:105458000013002B02D04FF0110348E0FB6803F45F
:105468008013002B02D04FF0120340E0FB6803F4D6
:105478000023002B02D04FF0130338E0FB6803F43D
:105488008023002B02D04FF0140330E0FB6803F4B4
:105498000033002B02D04FF0150328E0FB6803F41B
:1054A8008033002B02D04FF0160320E0FB6803F492
:1054B8000043002B02D04FF0170318E0FB6803F4F9
:1054C8008043002B02D04FF0180310E0FB6803F470
:1054D8000053002B02D04FF0190308E0FB6803F0DB
:1054E8000803002B02D04FF01A0300E0FB7C18469B
:1054F80007F11807BD4680BD80B582B000AF4FF0F8
:105508000003FB704FF43053C4F201035B6B7B6004
:1055180005E04FF43053C4F201035B6B7B607B689A
:1055280003F04503002BF4D07B6803F00403002B41
:1055380008D04FF00303FB704FF0040004F02CFF79
:10554800FB7804E040F2FF5004F026FFFB78184691
:1055580007F10807BD4680BD80B582B000AF4FF0A7
:105568000003FB704FF43053C4F201035B6B7B60A4
:1055780005E04FF43053C4F201035B6B7B607B683A
:1055880003F04503002BF4D07B6803F00403002BE1
:1055980008D04FF00303FB704FF0040004F0FCFE4A
:1055A800FB7812E07B6803F00103002B08D04FF072
:1055B8000103FB704FF0010004F0EEFEFB7804E0FD
:1055C80040F2FF5004F0E8FEFB78184607F10807A0
:1055D800BD4680BD80B586B000AF03463960FB711B
:1055E8004FF00003FB744FF43053C4F201035B6BBC
:1055F8007B6105E04FF43053C4F201035B6B7B61C0
:105608007B6903F04503002BF4D07B6903F00403A6
:10561800002B08D04FF00303FB744FF0040004F094
:10562800BBFEFB7C47E07B6903F00103002B08D03D
:105638004FF00103FB744FF0010004F0ADFEFB7C5A
:1056480039E004F019FD0346FA799A4204D04FF084
:105658001003FB74FB7C2EE040F2FF5004F09CFE2C
:105668004FF0000004F014FDF860FB6803F4604399
:10567800002B07D1FB684FEA13439AB23B681A80A4
:10568800FB7C18E0FB6803F40053002B02D04FF0BA
:10569800130310E0FB6803F48043002B02D04FF0A3
:1056A800100308E0FB6803F40043002B02D04FF01E
:1056B8000F0300E0FB7C184607F11807BD4680BDC4
:1056C80080B586B000AF0346FB714FF00003FB7551
:1056D8004FF00003FB604FF000033B614FF0000008
:1056E80004F0D6FC034603F00073002B04D04FF0FF
:1056F8000E03FB75FB7D06E140F2CC03C2F200030A
:105708001B689AB207F10C031046194600F02EFAEE
:105718000346FB75FB7D002B01D0FB7DF3E0FB7995
:10572800012B78D13B6903F48023002B6ED040F223
:10573800CC03C2F200031B684FEA034243F67873B6
:10574800C2F201031A6043F67873C2F201034FF004
:1057580037025A6043F67873C2F201034FF04002F1
:105768009A6043F67873C2F201034FF00002DA60E0
:1057780043F67873C2F201034FF480621A6143F66C
:105788007870C2F2010004F025FC4FF03700FFF7F3
:10579800C3FD0346FB75FB7D002B01D0FB7DB2E00A
:1057A80043F67873C2F201034FF002021A6043F61F
:1057B8007873C2F201034FF006025A6043F6787319
:1057C800C2F201034FF040029A6043F67873C2F2C6
:1057D80001034FF00002DA6043F67873C2F2010366
:1057E8004FF480621A6143F67870C2F2010004F047
:1057F800F1FB4FF00600FFF78FFD0346FB75FB7DBD
:10580800002B01D0FB7D7EE0FB7D7CE04FF0250383
:10581800FB75FB7D77E03B6903F48033002B6ED08A
:1058280040F2CC03C2F200031B684FEA034243F67E
:105838007873C2F201031A6043F67873C2F2010367
:105848004FF037025A6043F67873C2F201034FF003
:1058580040029A6043F67873C2F201034FF00002E7
:10586800DA6043F67873C2F201034FF480621A617A
:1058780043F67870C2F2010004F0ACFB4FF0370039
:10588800FFF74AFD0346FB75FB7D002B01D0FB7D2E
:1058980039E043F67873C2F201034FF000021A6050
:1058A80043F67873C2F201034FF006025A6043F6DA
:1058B8007873C2F201034FF040029A6043F678739E
:1058C800C2F201034FF00002DA6043F67873C2F2C5
:1058D80001034FF480621A6143F67870C2F2010046
:1058E80004F078FB4FF00600FFF716FD0346FB7542
:1058F800FB7D002B01D0FB7D05E0FB7D03E04FF035
:105908002503FB75FB7D184607F11807BD4680BDCA
:1059180080B586B000AF78604FF00003FB754FF09C
:1059280000033B614FF00003FB6040F2CC03C2F27E
:1059380000031B684FEA034243F67873C2F201037F
:105948001A6043F67873C2F201034FF00D025A60F1
:1059580043F67873C2F201034FF040029A6043F6AF
:105968007873C2F201034FF00002DA6043F67873ED
:10597800C2F201034FF480621A6143F67870C2F2F2
:10598800010004F027FB4FF43053C4F201035B6BB2
:10599800FB6005E04FF43053C4F201035B6BFB601E
:1059A800FB6803F04503002BF4D0FB6803F0040305
:1059B800002B08D04FF00303FB754FF0040004F0F0
:1059C800EBFCFB7DCDE0FB6803F00103002B08D066
:1059D8004FF00103FB754FF0010004F0DDFCFB7D87
:1059E800BFE004F049FB0346FB60FB680D2B04D0C5
:1059F8004FF01003FB75FB7DB3E040F2FF5004F05D
:105A0800CBFC4FF0000004F043FB03463B613B69CD
:105A18004FEA5323DBB203F00F03DAB27B681A7044
:105A28003A694EF20803CFF6FF531340002B01D119
:105A3800FB7D96E03B69002B02DA4FF01C0390E0F7
:105A48003B6903F08043002B02D04FF0090388E044
:105A58003B6903F00053002B02D04FF00A0380E0AB
:105A68003B6903F08053002B02D04FF00B0378E022
:105A78003B6903F00063002B02D04FF00C0370E089
:105A88003B6903F08063002B02D04FF00D0368E000
:105A98003B6903F08073002B02D04FF00E0360E0E7
:105AA8003B6903F40003002B02D04FF00F0358E0CA
:105AB8003B6903F48003002B02D04FF0100350E041
:105AC8003B6903F40013002B02D04FF0110348E0A8
