:020000040800F2
:100000000000022089D7000889010008D5D7000820
:10001000E9010008F1010008F901000800000000F2
:10002000000000000000000000000000455C000827
:1000300001020008000000003D5E0008FD08000805
:10004000D5D70008D5D70008D5D70008D5D70008E0
:10005000D5D70008D5D70008D5D70008D5D70008D0
:10006000D5D70008D5D70008D5D70008D5D70008C0
:10007000D5D70008D5D70008D5D70008D5D70008B0
:10008000D5D70008D5D70008D5D70008D5D70008A0
:10009000D5D70008D5D70008D5D70008D5D7000890
:1000A000D5D70008D5D70008D5D70008D5D7000880
:1000B000D5D70008D5D70008D5D70008D5D7000870
:1000C000D5D70008D5D70008D5D70008D5D7000860
:1000D000D5D70008D5D70008D5D70008D5D7000850
:1000E000D5D70008D5D70008D5D70008D5D7000840
:1000F000D5D70008D5D70008D5D70008D5D7000830
:10010000D5D70008CD1B0008D5D70008D5D70008E3
:10011000D5D70008D5D70008D5D70008D5D700080F
:10012000D5D70008D5D70008D5D70008D91B0008B7
:10013000D5D70008D5D70008D5D70008D5D70008EF
:10014000D5D70008D5D70008D5D70008D5D70008DF
:10015000D5D70008D5D70008D5D70008D5D70008CF
:10016000D5D70008D5D70008D5D70008D5D70008BF
:10017000D5D70008D5D70008D5D70008D5D70008AF
:08018000D5D70008D5D700080F
:1001880080B400AFBD4680BC704700BF80B48BB060
:1001980000AF78607B681B687B627B685B683B624A
:1001A8007B689B68FB617B68DB68BB617B681B695C
:1001B8007B617B685B693B617B689B69FB607B68F3
:1001C800DB69BB60FEE700BF1EF0040F0CBFEFF356
:1001D8000880EFF309808169004A104795010008FB
:1001E80080B400AFFEE700BF80B400AFFEE700BFF9
:1001F80080B400AFFEE700BF80B400AFBD4680BC4E
:10020800704700BF80B500AF4FF46053C4F20203DB
:100218004FF46052C4F20202126842F001021A60FE
:100228004FF46053C4F202034FF000029A604FF497
:100238006053C4F202034FF46052C4F2020212681F
:1002480022F0847222F480321A604FF46053C4F2B0
:10025800020343F21002C2F200425A604FF46053A4
:10026800C4F202034FF46052C4F20202126822F48C
:1002780080221A604FF46053C4F202034FF0000268
:10028800DA6000F0CFF84FF46D43CEF200034FF080
:1002980000629A604FF46D43CEF200034FF46D4252
:1002A800CEF20002D2F8882042F47002C3F8882007
:1002B80080BD00BF80B487B000AF4FF000033B6142
:1002C8004FF000037B614FF00203FB604FF0000327
:1002D800BB604FF002037B604FF46053C4F202032B
:1002E8009B6803F00C033B613B69042B0DD0082B82
:1002F80015D0002B69D140F20003C2F200034FF47D
:100308001052C0F2F4021A6069E040F20003C2F22F
:1003180000034FF49052C0F27A021A605FE04FF483
:100328006053C4F202035B6803F480034FEA9353FB
:10033800BB604FF46053C4F202035B6803F03F03F1
:100348007B60BB68002B14D04FF49053C0F27A0343
:100358007A68B3FBF2F24FF46053C4F202035968AF
:1003680047F6C0730B404FEA931303FB02F37B611C
:1003780013E04FF41053C0F2F4037A68B3FBF2F2BF
:100388004FF46053C4F20203596847F6C0730B4038
:100398004FEA931303FB02F37B614FF46053C4F2FB
:1003A80002035B6803F440334FEA134303F101038C
:1003B8004FEA4303FB607A69FB68B2FBF3F240F251
:1003C8000003C2F200031A6009E040F20003C2F21F
:1003D80000034FF41052C0F2F4021A6000BF4FF449
:1003E8006053C4F202039B6803F0F0034FEA131250
:1003F80040F20403C2F200039B5CDBB23B6140F2B3
:100408000003C2F200031A683B6922FA03F240F2C1
:100418000003C2F200031A6007F11C07BD4680BC46
:10042800704700BF80B483B000AF4FF000037B601B
:100438004FF000033B604FF46053C4F202034FF4E3
:100448006052C4F20202126842F480321A604FF419
:100458006053C4F202031B6803F400333B607B68FB
:1004680003F101037B603B68002B03D17B68B3F584
:10047800A06FECD14FF46053C4F202031B6803F47D
:100488000033002B03D04FF001033B6002E04FF034
:1004980000033B603B68012B40F082804FF46053BF
:1004A800C4F202034FF46052C4F20202126C42F02A
:1004B80080521A644FF4E043C4F200034FF4E04260
:1004C800C4F20002126842F480421A604FF460538A
:1004D800C4F202034FF46052C4F2020292689A60B6
:1004E8004FF46053C4F202034FF46052C4F20202A4
:1004F800926842F400429A604FF46053C4F20203D7
:100508004FF46052C4F20202926842F4A0529A6018
:100518004FF46053C4F2020345F20842C0F240723D
:100528005A604FF46053C4F202034FF46052C4F2AD
:100538000202126842F080721A6000BF4FF46053E2
:10054800C4F202031B6803F00073002BF6D04FF4CB
:100558007053C4F2020340F205621A604FF460530C
:10056800C4F202034FF46052C4F20202926822F00D
:1005780003029A604FF46053C4F202034FF46052CE
:10058800C4F20202926842F002029A6000BF4FF47D
:100598006053C4F202039B6803F00C03082BF6D1E6
:1005A8004FF46053C4F202034FF46052C4F20202E3
:1005B800926822F400029A604FF46053C4F2020376
:1005C8004FF44052C5F20002C3F884204FF4605340
:1005D800C4F202034FF46052C4F20202126842F0FD
:1005E80080621A6000BF4FF46053C4F202031B68B4
:1005F80003F00063002BF6D007F10C07BD4680BC62
:10060800704700BF80B500AF00F0A0F900F0DAF93C
:1006180000F0B4F900F02EFC00F020FC00F046FCDD
:10062800FEE700BF80B400AFBD4680BC704700BF86
:1006380080B500AF05F0F0FBFEE700BF80B400AF67
:10064800BD4680BC704700BF80B582B000AF7860FF
:10065800396005F0E1FBFEE780B485B000AFF860D3
:10066800B9607A604FF0FF33184607F11407BD46AA
:1006780080BC704780B584B000AFF860B9607A601C
:100688000DF0AAF803464FF016021A604FF0FF3338
:10069800184607F11007BD4680BD00BF80B485B07D
:1006A80000AFF860B9607A604FF00003184607F1B0
:1006B8001407BD4680BC704780B586B000AFF860AF
:1006C800B9607A60BB68002B02D14FF0000322E0CA
:1006D8004FF000037B6119E000BF4FF49043C4F270
:1006E80000031B889BB203F04003002BF5D07B6905
:1006F800BA68D3181B784FF49040C4F2000019462A
:100708000CF08CFD7B6903F101037B617A697B68DE
:100718009A42E1DB7B68184607F11807BD4680BDA1
:1007280080B483B000AF78604FF00003184607F13B
:100738000C07BD4680BC704780B584B000AF7860B8
:1007480040F2A003C2F200031B68002B08D140F25C
:10075800A003C2F2000344F25C02C2F201021A6072
:1007680040F2A003C2F200031B68FB6040F2A00342
:10077800C2F200031A687B68D2186B469A4208D9FD
:100788000DF02AF803464FF00C021A604FF0FF33C1
:100798000CE040F2A003C2F200031A687B68D2188A
:1007A80040F2A003C2F200031A60FB68184607F182
:1007B8001007BD4680BD00BF80B582B000AF78602D
:1007C800396038684FF000014FF03C020DF024FB0F
:1007D8003B684FF400525A604FF00003184607F187
:1007E8000807BD4680BD00BF80B483B000AF786005
:1007F8004FF00103184607F10C07BD4680BC70474F
:1008080080B582B000AF786039600CF0E5FF034630
:100818004FF016021A604FF0FF33184607F1080729
:10082800BD4680BD80B400AF4FF001031846BD46F9
:1008380080BC704780B483B000AF03463960FB7159
:1008480097F90730002B10DA4FF46D43CEF200030E
:10085800FA7902F00F02A2F104013A68D2B24FEA23
:100868000212D2B25B181A760DE04FF46143CEF251
:10087800000397F907103A68D2B24FEA0212D2B2CF
:100888005B1883F8002307F10C07BD4680BC70474E
:1008980080B582B000AF78607A686FF07F439A4283
:1008A80002D94FF001031FE04EF21003CEF200030D
:1008B8007A6822F07F4202F1FF325A604FF0FF302F
:1008C8004FF00F01FFF7B6FF4EF21003CEF2000310
:1008D8004FF000029A604EF21003CEF200034FF080
:1008E80007021A604FF00003184607F10807BD46D3
:1008F80080BD00BF80B400AF43F27033C2F2010381
:100908001B6803F1010243F27033C2F201031A605B
:10091800BD4680BC704700BF80B485B000AF78602A
:1009280043F27033C2F201031B68FB6000BF43F25D
:100938007033C2F201031A68FB68D21A7B689A42C4
:10094800F5D307F11407BD4680BC704780B500AFEA
:1009580040F20003C2F200031A6844F6D353C1F20E
:100968006203A3FB02134FEA93131846FFF790FFA5
:100978000346002B00D0FEE780BD00BF80B582B0E3
:1009880000AF4FF040004FF001010AF021F846F2A5
:10099800E0733B604FF001033B714FF00003BB7104
:1009A8004FF00003FB714FF000037B713B464FF49F
:1009B800C050C4F20200194609F092FA07F108077C
:1009C800BD4680BD80B58CB000AF4FF004004FF03D
:1009D80001010AF07BF84FF002004FF0010109F025
:1009E800F7FF4FF040037B624FF0020387F828308F
:1009F8004FF0030387F829304FF0000387F82A30B7
:100A08004FF0010387F82B3007F124034FF480607F
:100A1800C4F20200194609F063FA4FF48060C4F288
:100A280002004FF006014FF0020209F0E7FB4FF415
:100A38008060C4F202004FF007014FF0020209F093
:100A4800DDFB4FF05403FB8544F61F63FB61FB8D10
:100A58003B834FF000033B844FF000037B8307F197
:100A680018034FF40060C4F2000019460AF0FCFBBA
:100A78004FF06003BB804FF00103FB804FF0000391
:100A8800FB604FF000033B8207F104034FF4006062
:100A9800C4F2000019460AF09DFD4FF40060C4F24C
:100AA80000004FF008010BF0E1F807F104034FF4E0
:100AB8000060C4F2000019460AF00AFE4FF4006014
:100AC800C4F200004FF008010BF0ECF84FF400609E
:100AD800C4F200004FF001010AF004FD4FF4006079
:100AE800C4F200004FF001010AF054FD07F130078D
:100AF800BD4680BD80B500AF4FF4C050C4F20200BF
:100B08004FF0200109F026FB4FF00200FFF704FF29
:100B18004FF4C050C4F202004FF0400109F028FB26
:100B28004FF00200FFF7F8FE4FF4C050C4F2020085
:100B38004FF0800109F00EFB4FF00200FFF7ECFECA
:100B48004FF4C050C4F202004FF4807109F010FB5A
:100B58004FF00200FFF7E0FE4FF4C050C4F202006D
:100B68004FF0200109F004FB4FF00200FFF7D4FE1C
:100B78004FF4C050C4F202004FF0400109F0EAFA05
:100B88004FF00200FFF7C8FE4FF4C050C4F2020055
:100B98004FF0800109F0DEFA4FF00200FFF7BCFECB
:100BA8004FF4C050C4F202004FF4807109F0E0FA2B
:100BB8004FF00200FFF7B0FE4FF4C050C4F202003D
:100BC8004FF0200109F0D4FA4FF00200FFF7A4FE1D
:100BD8004FF4C050C4F202004FF0400109F0BAFAD5
:100BE8004FF00200FFF798FE4FF4C050C4F2020025
:100BF8004FF0800109F0BCFA4FF00200FFF78CFEBD
:100C08004FF4C050C4F202004FF4807109F0A2FA08
:100C18004FF00200FFF780FE4FF4C050C4F202000C
:100C28004FF0200109F096FA4FF00200FFF774FE2A
:100C38004FF4C050C4F202004FF0400109F098FA96
:100C48004FF00200FFF768FE4FF4C050C4F20200F4
:100C58004FF0800109F08CFA4FF00200FFF75CFEBC
:100C68004FF4C050C4F202004FF4807109F072FAD8
:100C78004FF00200FFF750FE80BD00BF80B500AF07
:100C88004FF4C050C4F202004FF4807109F062FAC8
:100C98004FF00200FFF740FE4FF4C050C4F20200CC
:100CA8004FF0800109F064FA4FF00200FFF734FEBC
:100CB8004FF4C050C4F202004FF0400109F04AFA64
:100CC8004FF00200FFF728FE4FF4C050C4F20200B4
:100CD8004FF0200109F04CFA4FF00200FFF71CFE1C
:100CE8004FF4C050C4F202004FF4807109F040FA8A
:100CF8004FF00200FFF710FE4FF4C050C4F202009C
:100D08004FF0800109F026FA4FF00200FFF704FEC9
:100D18004FF4C050C4F202004FF0400109F01AFA33
:100D28004FF00200FFF7F8FD4FF4C050C4F2020084
:100D38004FF0200109F01CFA4FF00200FFF7ECFD1C
:100D48004FF4C050C4F202004FF4807109F010FA59
:100D58004FF00200FFF7E0FD4FF4C050C4F202006C
:100D68004FF0800109F0F6F94FF00200FFF7D4FDCB
:100D78004FF4C050C4F202004FF0400109F0F8F9F6
:100D88004FF00200FFF7C8FD4FF4C050C4F2020054
:100D98004FF0200109F0DEF94FF00200FFF7BCFD2B
:100DA8004FF4C050C4F202004FF4807109F0D2F938
:100DB8004FF00200FFF7B0FD4FF4C050C4F202003C
:100DC8004FF0800109F0D4F94FF00200FFF7A4FDBD
:100DD8004FF4C050C4F202004FF0400109F0C8F9C6
:100DE8004FF00200FFF798FD4FF4C050C4F2020024
:100DF8004FF0200109F0AEF94FF00200FFF78CFD2B
:100E080080BD00BF80B584B000AF78607B68002BE0
:100E18000EDB4FF00003FB6005E0FFF72FFFFB68D8
:100E280003F10103FB60FA687B689A42F5DB11E085
:100E38007B68C3F100037B604FF00003BB6005E0F3
:100E4800FFF758FEBB6803F10103BB60BA687B6813
:100E58009A42F5DB07F11007BD4680BD80B500AFAB
:100E68006FF04000FFF7CEFF4FF4FA70FFF754FD24
:100E780080BD00BF80B500AF4FF40063C4F200032B
:100E880040F2A4625A634FF4FA70FFF745FD80BD43
:100E980080B500AF4FF40063C4F200034FF46172F1
:100EA8005A634FF4FA70FFF737FD80BD80B500AF85
:100EB800FFF7E0FF4FF00600FFF7A4FFFFF7E8FF9A
:100EC8004FF45870FFF728FD4FF00000FFF79AFF26
:100ED8004FF08000FFF720FD4FF00000FFF792FF72
:100EE8004FF08000FFF718FD4FF00100FFF78AFF71
:100EF8004FF06000FFF710FD4FF00200FFF782FF90
:100F08004FF04000FFF708FD4FF00100FFF77AFFB0
:100F18004FF06000FFF700FD6FF00100FFF772FF70
:100F28004FF04000FFF7F8FC6FF00100FFF76AFF91
:100F38004FF02000FFF7F0FCFFF79CFF4FF00F0089
:100F4800FFF760FFFFF7A4FF4FF0FF30FFF75AFFEE
:100F58004FF00000FFF7E0FC6FF00300FFF752FFCF
:100F68004FF00000FFF7D8FC4FF0FF30FFF74AFFC3
:100F78004FF06000FFF7D0FC4FF00000FFF742FF92
:100F88004FF08000FFF7C8FC4FF00000FFF73AFF72
:100F98004FF08000FFF7C0FC4FF00100FFF732FF71
:100FA8004FF02000FFF7B8FC4FF00000FFF72AFFD2
:100FB8004FF02000FFF7B0FC4FF00100FFF722FFD1
:100FC8004FF02000FFF7A8FC4FF00300FFF71AFFCF
:100FD8004FF00000FFF7A0FC4FF00400FFF712FFEE
:100FE8004FF00400FFF70EFF4FF00400FFF70AFF71
:100FF8004FF00400FFF706FF4FF00200FFF702FF73
:101008004FF04000FFF788FC4FF00100FFF7FAFEB1
:101018004FF06000FFF780FC4FF0FF30FFF7F2FE63
:101028004FF06000FFF778FC6FF00200FFF7EAFE70
:101038004FF02000FFF770FC4FF0FF30FFF7E2FEA3
:101048006FF00100FFF7DEFE4FF0FF30FFF7DAFE2A
:101058006FF00300FFF7D6FE6FF00200FFF7D2FE35
:101068004FF00000FFF758FC4FF00400FFF7CAFEEE
:101078004FF00400FFF7C6FE4FF00400FFF7C2FE72
:101088004FF0FF30FFF7BEFE4FF06000FFF744FC63
:101098006FF00200FFF7B6FE4FF02000FFF73CFCB0
:1010A8006FF00300FFF7AEFE6FF00300FFF7AAFE34
:1010B8006FF00300FFF7A6FE4FF0FF30FFF7A2FE28
:1010C8004FF00000FFF728FC4FF00000FFF79AFEF2
:1010D8004FF02000FFF720FC4FF0FF30FFF792FEA3
:1010E8004FF00000FFF718FC4FF00000FFF78AFEF2
:1010F8004FF08000FFF710FC4FF00100FFF782FE71
:101108004FF06000FFF708FC4FF00200FFF77AFE8F
:101118004FF04000FFF700FC4FF00100FFF772FEB0
:101128004FF00000FFF7F8FB4FF00200FFF76AFEF0
:101138004FF00000FFF766FE4FF00000FFF7ECFBF2
:101148004FF00300FFF75EFE4FF0FF30FFF75AFE47
:10115800FFF790FE4FF00700FFF754FEFFF798FEE9
:101168004FF00000FFF74EFE4FF00000FFF7D4FBF2
:101178006FF00300FFF746FE6FF00300FFF742FE33
:101188006FF00100FFF73EFE4FF00000FFF73AFE58
:101198004FF00000FFF7C0FBFFF76CFE4FF00900AF
:1011A800FFF730FEFFF774FE6FF00200FFF72AFE2C
:1011B800FFF760FE4FF00900FFF724FEFFF768FE17
:1011C8006FF00100FFF71EFE4FF00000FFF71AFE58
:1011D8004FF06000FFF7A0FB4FF00100FFF712FE91
:1011E8004FF00300FFF70EFE4FF0FF30FFF70AFE47
:1011F8004FF00000FFF790FB4FF00100FFF702FEF1
:101208004FF04000FFF788FB4FF00000FFF7FAFDB2
:101218004FF00000FFF780FB4FF00300FFF7F2FDEF
:101228004FF0FF30FFF7EEFD4FF00000FFF774FBC3
:101238004FF00400FFF7E6FD4FF00000FFF76CFBEE
:101248004FF00100FFF7DEFD4FF00000FFF764FBF1
:101258004FF00100FFF7D6FD4FF02000FFF75CFBD1
:101268004FF00000FFF7CEFD4FF00000FFF754FBF2
:101278004FF00100FFF7C6FD4FF06000FFF74CFB91
:101288004FF00000FFF7BEFD4FF04000FFF744FBB2
:101298006FF00200FFF7B6FD4FF00000FFF7B2FD58
:1012A8004FF04000FFF738FB4FF00000FFF7AAFDB2
:1012B8004FF08000FFF730FB4FF0FF30FFF7A2FD43
:1012C8004FF06000FFF728FB6FF00200FFF79AFD70
:1012D8004FF02000FFF720FB6FF00200FFF792FDB0
:1012E8004FF02000FFF718FB6FF00300FFF78AFDAF
:1012F8006FF00300FFF786FD6FF00300FFF782FD34
:101308006FF00300FFF77EFD6FF00300FFF77AFD33
:101318006FF00300FFF776FD6FF00200FFF772FD34
:101328004FF02000FFF7F8FA6FF00100FFF76AFDB1
:101338004FF04000FFF7F0FA4FF0FF30FFF762FD83
:101348004FF06000FFF7E8FA4FF00000FFF75AFD92
:101358004FF08000FFF7E0FA4FF00100FFF752FD71
:101368004FF06000FFF7D8FA4FF00200FFF74AFD90
:101378004FF04000FFF7D0FA4FF00200FFF742FDB0
:101388004FF04000FFF7C8FA4FF0FF30FFF73AFD83
:101398004FF06000FFF7C0FA6FF00200FFF732FD70
:1013A8004FF02000FFF7B8FA6FF00300FFF72AFDAF
:1013B800FFF760FD4FF00100FFF724FDFFF768FD20
:1013C8004FF47870FFF7A8FA4FF00000FFF71AFD06
:1013D8004FF04000FFF7A0FA4FF00100FFF712FDB1
:1013E8004FF04000FFF798FA4FF00000FFF70AFDB2
:1013F8004FF04000FFF790FA4FF00100FFF702FDB1
:101408004FF00000FFF788FA4FF00300FFF7FAFCEF
:101418004FF02000FFF780FA4FF00400FFF7F2FCCE
:101428004FF00400FFF7EEFC4FF00400FFF7EAFC72
:101438004FF00400FFF7E6FC4FF00400FFF7E2FC72
:101448004FF00400FFF7DEFC4FF00400FFF7DAFC72
:101458004FF00400FFF7D6FC4FF00400FFF7D2FC72
:101468004FF00000FFF7CEFC4FF08000FFF754FA72
:101478004FF00000FFF7C6FC4FF08000FFF74CFA72
:101488004FF00100FFF7BEFC4FF06000FFF744FA91
:101498004FF00000FFF7B6FC4FF08000FFF73CFA72
:1014A8004FF00000FFF7AEFC4FF08000FFF734FA72
:1014B8004FF00000FFF7A6FC4FF08000FFF72CFA72
:1014C8004FF00000FFF79EFC4FF06000FFF724FA92
:1014D800FFF7D0FC6FF00300FFF794FCFFF7D8FC90
:1014E8004FF04000FFF718FA4FF00000FFF78AFCB2
:1014F8004FF00000FFF710FA4FF0FF30FFF782FCC3
:101508004FF02000FFF708FA4FF00000FFF77AFCD1
:101518004FF00000FFF700FAFFF7ACFC4FF0FF3088
:10152800FFF770FCFFF7B4FC4FF42870FFF7F4F9ED
:101538004FF00000FFF766FC4FF02000FFF7ECF9D2
:101548006FF00300FFF75EFC6FF00300FFF75AFC33
:101558004FF00000FFF756FC4FF04000FFF7DCF9B2
:101568004FF00400FFF74EFC4FF00400FFF74AFC71
:101578004FF00200FFF746FC4FF02000FFF7CCF9D0
:101588004FF00000FFF73EFC4FF08000FFF7C4F972
:101598004FF00000FFF736FC4FF04000FFF7BCF9B2
:1015A800FFF768FC80BD00BF80B588B000AF4FF082
:1015B8000003FB614EF64850C0F600004EF6545149
:1015C800C0F600010CF080FAB861BB69002B70D03E
:1015D80065E03B464EF65850C0F6000019460CF040
:1015E80035FC3B4618464EF66851C0F600010CF033
:1015F80039FD78614EF66C50C0F6000079690CF040
:1016080025FC78690CF0E4F838614EF67850C0F69D
:10161800000039690CF01AFC4FF000004EF68051BA
:10162800C0F600010CF01EFD78614EF68450C0F63D
:10163800000079690CF00AFC78690CF0C9F8F860C8
:101648004EF69050C0F60000F9680CF0FFFB3869C0
:10165800FFF7D8FB3B6983EAE372A2EBE372FB680E
:10166800002BB8BF5B429A420EDCFB6883EAE37248
:10167800A2EBE3723B69002BB8BF5B42D31A4FEA77
:1016880043131846FFF748F9FB6903F10103FB61AF
:101698004EF69850C0F60000F9690CF0D7FB3B46AF
:1016A80018464FF00A01BA690CF002F90346002BFC
:1016B8008FD107F12007BD4680BD00BF80B582B03D
:1016C80000AF4FF00003FB714FF000004FF4806152
:1016D80002F0B6FE0346FB71FB79002B07D0FB79BD
:1016E8004EF6A450C0F6000019460CF0AFFBFB798B
:1016F800002B35D14EF6BC50C0F600000CF0A6FB0E
:1017080043F67410C2F201004FF000014FF400726A
:101718004FF0020302F016F80346FB71FB79002B29
:1017280005D04EF6EC50C0F600000CF08FFB02F02E
:10173800D5F90346FB71FB79002B05D04EF60860FE
:10174800C0F600000CF082FB00BF00F063FE034609
:10175800002BFAD14EF62860C0F600000CF076FB9C
:10176800FB79002B0ED143F67410C2F201004FF43E
:10177800806100F035F903461A4640F2A403C2F22C
:1017880000031A7040F2A403C2F200031B78DBB214
:10179800012B05D14EF63C60C0F600000CF056FB5C
:1017A80007F10807BD4680BD80B582B000AF43F69B
:1017B8007450C2F201004FF4007143F20F2200F09E
:1017C800BFF843F67450C2F201004FF000014FF425
:1017D800007202F0F3F90346FB7102F071FD034653
:1017E800FB7100BF00F016FE0346002BFAD1FB790F
:1017F800002B15D143F27470C2F201004FF00001C2
:101808004FF4007201F0C0FE0346FB7102F066F966
:101818000346FB7100BF00F0FDFD0346002BFAD123
:10182800FB79002B12D143F67450C2F2010043F247
:101838007471C2F201014FF4007200F0A5F803467A
:101848001A4640F2A503C2F200031A7040F2A5033B
:10185800C2F200031B78DBB2012B05D14EF65460AF
:10186800C0F600000CF0F2FA07F10807BD4680BD8B
:1018780080B582B000AF43F27430C2F201004FF479
:1018880080614FF0000200F05BF843F27430C2F25E
:1018980001004FF000014FF400724FF0020302F014
:1018A800BDFB0346FB7102F00BFD0346FB7100BF55
:1018B80000F0B0FD0346002BFAD1FB79002B17D1BD
:1018C80043F67410C2F201004FF000014FF40072A9
:1018D8004FF0020302F01CF80346FB7102F0FEF819
:1018E8000346FB7100BF00F095FD0346002BFAD1BB
:1018F800FB79002B12D143F27430C2F2010043F697
:101908007411C2F201014FF4806200F03DF8034601
:101918001A4640F2A603C2F200031A7040F2A60368
:10192800C2F200031B78DBB2012B05D14EF67460BE
:10193800C0F600000CF08AFA07F10807BD4680BD22
:1019480080B487B000AFF860B9607A604FF00003E8
:10195800FB824FF00003FB820DE0FB8AFA68D31884
:10196800FA8AD1B27A68D2B28A18D2B21A70FB8ACD
:1019780003F10103FB82FA8ABB689A42EDD307F1AF
:101988001C07BD4680BC704780B485B000AFF860C6
:10199800B9607A6010E0FB681A78BB681B789A42D5
:1019A80002D04FF0000315E0FB6803F10103FB6070
:1019B800BB6803F10103BB607B68002B0CBF0023ED
:1019C8000123DBB27A6802F1FF327A60002BE2D1A0
:1019D8004FF00103184607F11407BD4680BC704755
:1019E80080B483B000AF786039600EE07B681B7804
:1019F800FF2B06D07B681B78002B02D04FF000032A
:101A080011E07B6803F101037B603B68002B0CBF8E
:101A180000230123DBB23A6802F1FF323A60002B5F
:101A2800E4D14FF00103184607F10C07BD4680BC0E
:101A3800704700BF80B582B000AF00F09BF800F09F
:101A48006FFC0346FB714EF69860C0F600000CF080
:101A5800FDF9FB79002B06D14EF6B060C0F6000008
:101A68000CF0F4F90DE04EF6C460C0F600000CF07E
:101A7800EDF9FB794EF6D460C0F6000019460CF07B
:101A8800E5F943F69073C2F2010393F856304EF627
:101A9800E460C0F6000019460CF0D8F943F69073DC
:101AA800C2F20103D3E912234EF6F460C0F6000037
:101AB8000CF0CCF943F69073C2F201031B6D4EF69D
:101AC8000870C0F6000019460CF0C0F943F6907390
:101AD800C2F2010393F82C30DBB24EF61C70C0F64C
:101AE800000019460CF0B2F943F69073C2F20103F4
:101AF800B3F854304EF63070C0F6000019460CF0BA
:101B0800A5F929E040F21403C2F200031B68012B77
:101B180004D0012B0CD3022B14D01DE0FFF744FE98
:101B280040F21403C2F200034FF000021A6013E0FF
:101B3800FFF7C4FD40F21403C2F200034FF00202A3
:101B48001A6009E0FFF794FE40F21403C2F20003A2
:101B58004FF003021A6000BFFB79002B06D140F258
:101B68001403C2F200031B68032BCBD107F108074B
:101B7800BD4680BD80B582B000AF4FF4407007F01D
:101B88004FF94FF031033B714FF000037B714FF079
:101B98000003BB714FF00103FB7107F10403184602
:101BA80007F052F94FF03B033B714FF001037B7193
:101BB80007F10403184607F047F907F10807BD467F
:101BC80080BD00BF80B500AF02F03AFF80BD00BF06
:101BD80080B500AF02F0BCFF80BD00BF80B584B007
:101BE80000AF3B46184608F0A3FD3B684EF63C7034
:101BF800C0F6000019460CF029F97B684EF64C70C7
:101C0800C0F6000019460CF021F9BB684EF6587072
:101C1800C0F6000019460CF019F9FB684EF668701A
:101C2800C0F6000019460CF011F907F11007BD467F
:101C380080BD00BF80B586B000AF786039604FF0D6
:101C480000037B614FF000033B614FF00003FB8111
:101C58003B681B787B734FF000037B615FE04FF0BC
:101C68000A000CF00BF97B694FEA03127B68D31862
:101C78004EF67870C0F6000019460CF0E7F84FF001
:101C880000033B6114E0FB893A68D3181B787B7327
:101C9800FB8903F10103FB817B7B4EF68470C0F660
:101CA800000019460CF0D2F83B6903F101033B61CF
:101CB8003B690F2BE7D94EF68C70C0F600000CF08C
:101CC800C5F8FB89A3F11003FB814FF000033B61CA
:101CD80018E0FB893A68D3181B787B73FB8903F1FA
:101CE8000103FB817B7B202B04D97B7B18460CF0FE
:101CF800C5F803E04FF02E000CF0C0F83B6903F183
:101D080001033B613B690F2BE3D94EF69070C0F697
:101D180000000CF09BF87B6903F101037B617B6990
:101D28001F2B9CD907F11807BD4680BD80B5ADF5BE
:101D3800047D00AF07F1040318604FF00003C7F8F3
:101D48000C3235E007F108031846D7F80C124FF4A7
:101D580000724FF0010301F0F5FC034687F80B32DF
:101D680097F80B32002B04D097F80B32184600F086
:101D780035F800BF00F04EFB0346002BFAD1D7F828
:101D88000C324FEA432207F1080310461946FFF7C1
:101D980051FFD7F80C32D7F80C2202F10102C7F82C
:101DA8000C224EF69470C0F6000019460CF04EF85E
:101DB80007F104031B68002B0CBF00230123DBB2CF
:101DC80007F1040207F10401096801F1FF3111600C
:101DD800002BB7D107F50477BD4680BD80B5ACB000
:101DE80000AF0346FB714FF21433C0F6000307F14E
:101DF80008011A464FF0A803084611461A460CF087
:101E080002F8FA79FB794FEA830307F1B001CB189E
:101E180053F8A83C4EF6A470C0F6000011461A46C6
:101E28000CF014F807F1B007BD4680BDB0B58CB012
:101E380000AF0346FB714FF28043C0F6000307F181
:101E48000C041D460FCD0FC40FCD0FC42B682360A3
:101E5800FB79072B11D8FA79FB794FEA830307F14D
:101E68003001CB1853F8243C4FF2BC30C0F60000C8
:101E780011461A460BF0EAFF09E0FA79FB6A4FF2BD
:101E8800BC30C0F6000011461A460BF0DFFF07F120
:101E98003007BD46B0BD00BFF0B58BB000AF4FF204
:101EA8001473C0F6000307F104069E46BEE80F004F
:101EB8000FC69EE80F0086E80F004FF2A440C0F658
:101EC80000000BF0C3FF43F69070C2F2010000F06F
:101ED80003FE034687F8273097F82730002B0DD0EC
:101EE8004FF2B440C0F600000BF0B0FF97F827306F
:101EF8001846FFF773FF97F8273003E197F8273064
:101F0800002B40F0FD8000F0A3FA03461846FFF7C7
:101F18008DFF43F69073C2F201031B6D4FF2E4404C
:101F2800C0F6000019460BF091FF43F69073C2F219
:101F38000103D3E912234FF2F840C0F600000BF07A
:101F480085FF43F69073C2F20103D3E912234FEAE7
:101F580003314FEA12540C434FEA135523464FF20C
:101F68001050C0F6000019460BF070FF43F690734E
:101F7800C2F2010393F856304FEA830307F12802AF
:101F8800D31853F8243C4FF21C50C0F600001946F1
:101F98000BF05CFF43F69073C2F20103B3F85430C0
:101FA8004FF22850C0F6000019460BF04FFF43F6D9
:101FB8009073C2F201035B79DBB24FF23450C0F682
:101FC800000019460BF042FF43F69073C2F201037A
:101FD8001B694FF25050C0F6000019460BF036FF4F
:101FE80043F69073C2F201031B7EDBB24FF26850D6
:101FF800C0F6000019460BF029FF43F69073C2F2B1
:1020080001031B7ADBB24FF28450C0F60000194678
:102018000BF01CFF43F69073C2F20103DB7FDBB2C7
:102028004FF29C50C0F6000019460BF00FFF4FF21C
:10203800B850C0F600000BF009FF43F69073C2F2E7
:10204800010393F82C30DBB24FF2C050C0F6000009
:1020580019460BF0FBFE43F69073C2F201031B6BAB
:102068004FF2D850C0F6000019460BF0EFFE43F6C9
:102078009073C2F2010393F83430DBB24FF2EC50A4
:10208800C0F6000019460BF0E1FE43F69073C2F269
:10209800010393F83530DBB24FF20060C0F6000060
:1020A80019460BF0D3FE43F69073C2F201039B6B03
:1020B8004FF21060C0F6000019460BF0C7FE43F659
:1020C8009073C2F20103DB8F9BB24FF22060C0F61F
:1020D800000019460BF0BAFE43F69073C2F20103F2
:1020E80093F84030DBB24FF23860C0F60000194672
:1020F8000BF0ACFE00F0ACF903461846FFF796FE6D
:102108004FF00003184607F12C07BD46F0BD00BF8D
:1021180080B586B000AF4FF23470C0F600000BF007
:1021280095FE07F10403184601F070F80346FB75A5
:10213800FB7D002B0BD04FF24470C0F600000BF073
:1021480085FEFB7D1846FFF749FEFB7D5DE0FB7DC4
:10215800002B58D13B79DBB24FF27870C0F6000003
:1021680019460BF073FE7B79DBB24FF29070C0F624
:10217800000019460BF06AFEFB889BB24FF2A8706C
:10218800C0F6000019460BF061FEBB684FF2C07044
:10219800C0F6000019460BF059FE3B7BDBB24FF24C
:1021A800E070C0F6000019460BF050FE7B7BDBB2F6
:1021B8004FF2F470C0F6000019460BF047FEBB7BE7
:1021C800DBB24FF61000C0F6000019460BF03EFED9
:1021D8003B8A9BB24FF62000C0F6000019460BF070
:1021E80035FEBB7CDBB24FF63400C0F60000194662
:1021F8000BF02CFEFB7CDBB24FF64C00C0F6000067
:1022080019460BF023FE4FF00003184607F1180794
:10221800BD4680BD80B582B000AF4FF66400C0F601
:1022280000000BF013FEFFF7D9FC40F21803C2F2CE
:1022380000031B684FF67C00C0F6000019460BF03F
:1022480005FE40F21803C2F200031A6848F6890333
:10225800C8F68803A3FB02134FEA93134FF6B400A2
:10226800C0F6000019460BF0F1FD40F21803C2F267
:1022780000031B684FEA93034FF6F000C0F6000016
:1022880019460BF0E3FD4FF63410C0F600000BF0D2
:10229800DDFD00F045F80346FB71FB79002B09D002
:1022A8004FF64410C0F600000BF0D0FDFB7918463D
:1022B800FFF794FDFFF7F0FDFFF72AFF4FF67010C8
:1022C800C0F600000BF0C2FD43F69070C2F20100A8
:1022D80000F002FC0346FB71FB79002B09D04FF29A
:1022E800B440C0F600000BF0B1FDFB791846FFF7CB
:1022F80075FD43F69073C2F201031B694FF68C100B
:10230800C0F6000019460BF0A1FD07F10807BD460D
:1023180080BD00BF80B500AF03F068FA80BD00BF84
:1023280080B582B000AF4FF00003FB7103F0D8FA1C
:1023380007F066FA00F0C0F80346FB71FB79DBB2E0
:10234800002B02D0FB79DBB25FE000F08BFA03468A
:10235800FB71FB79DBB2002B02D0FB79DBB254E0D6
:1023680043F6E873C2F201034FF002021A7543F60E
:10237800E873C2F201034FF000021A6043F6E873F3
:10238800C2F201034FF000025A6043F6E873C2F24A
:1023980001034FF000029A6043F6E873C2F20103AA
:1023A8004FF00002DA6043F6E873C2F201034FF01F
:1023B80000021A6143F6E870C2F2010007F030FA31
:1023C80043F69070C2F2010000F086FB0346FB71F1
:1023D800FB79DBB2002B0CD143F69073C2F20103F8
:1023E800B3F854304FEA0343184601F091F8034616
:1023F800FB71FB79DBB2002B05D14FF4006000F0D4
:10240800D9FF0346FB71FB79DBB2184607F10807D1
:10241800BD4680BD80B582B000AF4FF00403FB71AC
:1024280000F016F80346FB71FB79042B02D14FF03C
:10243800000307E0FB79FF2B02D14FF0020301E014
:102448004FF00103184607F10807BD4680BD00BFDD
:1024580080B582B000AF4FF000037B6000F01EF83B
:102468000346012B12D107F10403184602F018F9AC
:102478000346002B02D04FF0FF0309E07B684FEAC8
:102488005323DBB203F00F03DBB201E04FF0FF038D
:10249800184607F10807BD4680BD00BF80B483B069
:1024A80000AF4FF00103FB71FB79DBB2184607F16F
:1024B8000C07BD4680BC704780B586B000AF4FF0B2
:1024C8000003FB714FF000037B614FF000033B6199
:1024D8004FF00003FB604FF00003BB6043F6E87366
:1024E800C2F201034FF076021A7543F6E873C2F29E
:1024F80001034FF000021A6043F6E873C2F20103C9
:102508004FF000025A6043F6E873C2F201034FF03D
:1025180000029A6043F6E873C2F201034FF000022A
:10252800DA6043F6E873C2F201034FF000021A6161
:1025380043F6E870C2F2010007F072F94FF00300A9
:1025480007F0D4F94FF0010007F0C0F943F67873AB
:10255800C2F201034FF000021A6043F67873C2F228
:1025680001034FF000025A6043F67873C2F2010388
:102578004FF000029A6043F67873C2F201034FF0FD
:102588000002DA6043F67873C2F201034FF4806206
:102598001A6143F67870C2F2010007F0C5F902F03B
:1025A800F3FA0346FB71FB79DBB2002B02D0FB790F
:1025B800DBB242E143F67873C2F201034FF4D572FD
:1025C8001A6043F67873C2F201034FF008025A60AA
:1025D80043F67873C2F201034FF040029A6043F663
:1025E8007873C2F201034FF00002DA6043F67873A1
:1025F800C2F201034FF480621A6143F67870C2F2A6
:10260800010007F091F902F0E9FA0346FB71FB7942
:10261800DBB2002B0AD140F2A803C2F200034FF04C
:1026280001021A604FF08043BB602EE043F67873D6
:10263800C2F201034FF000021A6043F67873C2F247
:1026480001034FF037025A6043F67873C2F2010370
:102658004FF040029A6043F67873C2F201034FF0DC
:102668000002DA6043F67873C2F201034FF4806225
:102678001A6143F67870C2F2010007F055F94FF07D
:10268800370002F0F3FA0346FB7143F67873C2F29F
:1026980001034FF000021A6043F67873C2F2010397
:1026A8004FF037025A6043F67873C2F201034FF0D5
:1026B80040029A6043F67873C2F201034FF00002B9
:1026C800DA6043F67873C2F201034FF480621A614C
:1026D80043F67870C2F2010007F026F94FF0370090
:1026E80002F0C4FA0346FB71FB79DBB2002B40F021
:1026F800A2807EE043F67873C2F201034FF0000235
:102708001A6043F67873C2F201034FF037025A6039
:1027180043F67873C2F201034FF040029A6043F621
:102728007873C2F201034FF00002DA6043F678735F
:10273800C2F201034FF480621A6143F67870C2F264
:10274800010007F0F1F84FF0370002F08FFA034666
:10275800FB71FB79DBB2002B02D0FB79DBB26CE0BA
:10276800BB6843F0004242F4801243F67873C2F229
:1027780001031A6043F67873C2F201034FF029028D
:102788005A6043F67873C2F201034FF040029A6030
:1027980043F67873C2F201034FF00002DA6043F6A1
:1027A8007873C2F201034FF480621A6143F67870BD
:1027B800C2F2010007F0B8F802F048FB0346FB71CB
:1027C800FB79DBB2002B02D0FB79DBB235E04FF0AE
:1027D800000007F007F978617B694FEAD373012B92
:1027E80014BF00230123DBB2FB603B6903F1010343
:1027F8003B61FB68002B05D13A694FF6FE739A429C
:102808007FF678AF3A694FF6FE739A4205D94FF0D2
:102818001B03FB71FB79DBB20FE07B6903F080439C
:102828007B617B69002B06D040F2A803C2F200034B
:102838004FF002021A60FB79DBB2184607F118075D
:10284800BD4680BD80B582B000AF4FF00003FB717C
:102858004FF0000007F04AF8FB79184607F108071F
:10286800BD4680BD80B582B000AF4FF00003FB715C
:102878004FF00103BB8007F049F80346002B04D151
:102888004FF02503FB71FB7921E140F2A803C2F266
:1028980000031B68042B59D043F67873C2F2010376
:1028A8004FF000021A6043F67873C2F201034FF04A
:1028B80002025A6043F67873C2F201034FF0C00275
:1028C8009A6043F67873C2F201034FF00002DA60AF
:1028D80043F67873C2F201034FF480621A6143F63B
:1028E8007870C2F2010007F01FF802F0DFFA034621
:1028F800FB71FB79002B01D0FB79E8E04FF0000079
:1029080007F070F8024640F2BC03C2F200031A60F6
:102918004FF0040007F066F8024640F2BC03C2F22A
:1029280000035A604FF0080007F05CF8024640F2D6
:10293800BC03C2F200039A604FF00C0007F052F893
:10294800024640F2BC03C2F20003DA6040F2A80378
:10295800C2F200031B68002B14D040F2A803C2F295
:1029680000031B68012B0DD040F2A803C2F200033C
:102978001B68062B06D040F2A803C2F200031B68AE
:10298800022B36D143F67873C2F201034FF00002EE
:102998001A6043F67873C2F201034FF003025A60DB
:1029A80043F67873C2F201034FF040029A6043F68F
:1029B8007873C2F201034FF00002DA6043F67873CD
:1029C800C2F201034FF480621A6143F67870C2F2D2
:1029D800010006F0A9FF07F104034FF003001946B0
:1029E80002F0A2FA0346FB71FB79002B01D0FB79B8
:1029F8006DE040F2A803C2F200031B68042B62D00A
:102A0800BB881A4640F2CC03C2F200031A60BB88A6
:102A18004FEA03431A4643F67873C2F201031A6079
:102A280043F67873C2F201034FF009025A6043F685
:102A38007873C2F201034FF0C0029A6043F67873CC
:102A4800C2F201034FF00002DA6043F67873C2F273
:102A580001034FF480621A6143F67870C2F20100F4
:102A680006F062FF02F022FA0346FB71FB79002BA5
:102A780001D0FB792BE04FF0000006F0B3FF0246CF
:102A880040F2AC03C2F200031A604FF0040006F0F3
:102A9800A9FF024640F2AC03C2F200035A604FF0AD
:102AA800080006F09FFF024640F2AC03C2F20003A2
:102AB8009A604FF00C0006F095FF024640F2AC0316
:102AC800C2F20003DA604FF00003FB71FB7918468D
:102AD80007F10807BD4680BDB0B485B000AF786087
:102AE8004FF00001B9734FF00001F97340F2A801EB
:102AF800C2F200010968C8B2796881F8560040F24C
:102B0800CC01C2F20001096888B27968A1F85400C2
:102B180040F2AC01C2F2000109684FEA1161F97391
:102B2800F97B4FEA9111C8B279680870F97B01F016
:102B38003C014FEAA101C8B279684870F97B01F0FD
:102B48000301C8B27968887040F2AC01C2F2000192
:102B5800096801F47F014FEA1141F9737968F87B3C
:102B6800C87040F2AC01C2F20001096801F47F416B
:102B78004FEA1121F9737968F87B087140F2AC01CA
:102B8800C2F200010968F9737968F87B487140F26C
:102B9800AC01C2F2000149684FEA1161F973F97B8F
:102BA80089B24FEA011188B27968C88040F2AC0155
:102BB800C2F20001496801F47F014FEA1141F9733B
:102BC8007968C98888B2F97B4FEA1111C9B2014303
:102BD80088B27968C880F97B01F00F01C8B27968BA
:102BE800087240F2AC01C2F20001496801F47F4169
:102BF8004FEA1121F973F97B4FEAD111C8B279680C
:102C08004872F97B01F040014FEAA111C8B2796816
:102C18008872F97B01F020014FEA6111C8B2796826
:102C2800C872F97B01F010014FEA2111C8B2796826
:102C3800087379684FF00000487340F2A801C2F2A7
:102C480000010968002907D040F2A801C2F200017A
:102C58000968012940F0AF80FB7B03F003034FEACA
:102C680083231A467B681A6140F2AC03C2F2000360
:102C78005B68FB737B681A69FB7B4FEA83031A4323
:102C88007B681A6140F2AC03C2F200039B684FEA0A
:102C98001363FB737B681A69FB7B4FEA9313DBB200
:102CA8001A437B681A61FB7B03F038034FEAE3039E
:102CB800DAB27B681A75FB7B03F00703DAB27B682C
:102CC8005A7540F2AC03C2F200039B6803F47F0319
:102CD8004FEA1343FB73FB7B4FEA5313DAB27B686B
:102CE8009A75FB7B03F01C034FEAA303DAB27B68F7
:102CF800DA75FB7B03F00303DBB24FEA4303DAB276
:102D08007B681A7640F2AC03C2F200039B6803F4B6
:102D18007F434FEA1323FB737B681B7EDAB2FB7B8E
:102D28004FEAD313DBB21343DAB27B681A767B68B7
:102D38001B6903F101010A464FF000037968C1E9F4
:102D480012237B68D3E912017B681B7EDBB203F197
:102D580002034FF0010202FA03F422464FEAE2733B
:102D680002FB01F500FB03F42C19A0FB0223E11878
:102D78000B467968C1E912237B681B7ADBB24FF0F6
:102D8800010202FA03F31A467B681A657B68D3E9E5
:102D980012017B681C6D22464FF0000302FB01F50F
:102DA80000FB03F42C19A0FB0223E1180B467968F9
:102DB800C1E9122353E040F2A801C2F200010968F8
:102DC80002294CD140F2AC01C2F200014968F97302
:102DD800F97B01F03F014FEA014108467968086133
:102DE80040F2AC01C2F2000189684FEA1161F9733F
:102DF80079680869F97B4FEA012108437968086115
:102E080040F2AC01C2F20001896801F47F014FEA87
:102E18001141F97379680869F97B08437968086191
:102E280040F2AC01C2F20001896801F47F414FEA27
:102E38001121F9737968096901F1010420464FF0FD
:102E480000014FEA50344FEAC14323434FEAC042DE
:102E58007968C1E912237B684FF400721A65FB7B1D
:102E680003F040034FEAA313DAB27B685A76FB7B80
:102E780003F03F03DBB24FEA4303DAB27B689A768A
:102E880040F2AC03C2F200039B68FB737B689B7E35
:102E9800DAB2FB7B4FEAD313DBB21343DAB27B68B7
:102EA8009A76FB7B03F07F03DAB27B68DA7640F22E
:102EB800AC03C2F20003DB684FEA1363FB73FB7BCE
:102EC8004FEAD313DAB27B681A77FB7B03F060030F
:102ED8004FEA6313DAB27B685A77FB7B03F01C0373
:102EE8004FEAA303DAB27B689A77FB7B03F003030C
:102EF800DBB24FEA8303DAB27B68DA7740F2AC03DD
:102F0800C2F20003DB6803F47F034FEA1343FB7349
:102F18007B68DB7FDAB2FB7B4FEA9313DBB21343A8
:102F2800DAB27B68DA77FB7B03F020034FEA63139E
:102F3800DAB27B6883F820207B684FF0000283F8C0
:102F48002120FB7B03F00103DAB27B6883F822209F
:102F580040F2AC03C2F20003DB6803F47F434FEA9C
:102F68001323FB73FB7B4FEAD313DAB27B6883F836
:102F78002320FB7B03F040034FEAA313DAB27B68FC
:102F880083F82420FB7B03F020034FEA6313DAB2B3
:102F98007B6883F82520FB7B03F010034FEA23139B
:102FA800DAB27B6883F82620FB7B03F00C034FEA38
:102FB800A303DAB27B6883F82720FB7B03F00303C3
:102FC800DAB27B6883F8282040F2AC03C2F200032F
:102FD800DB68FB73FB7B4FEA5303DAB27B6883F849
:102FE80029207B684FF0010283F82A2040F2BC03B5
:102FF800C2F200031B684FEA1363FB737B68FA7B1A
:1030080083F82C2040F2BC03C2F200031B6803F4CF
:103018007F034FEA1343FB73FB7B9BB24FEA032307
:103028009AB27B68DA8540F2BC03C2F200031B68DF
:1030380003F47F434FEA1323FB737B68DB8D9AB25B
:10304800FB7B9BB213439AB27B68DA8540F2BC03E0
:10305800C2F200031B68FB73FB7B4FEA03631A464B
:103068007B681A6340F2BC03C2F200035B684FEA54
:103078001363FB737B681A6BFB7B4FEA03431A43AA
:103088007B681A6340F2BC03C2F200035B6803F476
:103098007F034FEA1343FB737B681A6BFB7B4FEA92
:1030A80003231A437B681A6340F2BC03C2F200038D
:1030B8005B6803F47F434FEA1323FB737B681A6B47
:1030C800FB7B1A437B681A6340F2BC03C2F200031D
:1030D8005B68FB737B68FA7B83F8342040F2BC039F
:1030E800C2F200039B684FEA1363FB737B68FA7BA9
:1030F80083F8352040F2BC03C2F200039B6803F456
:103108007F034FEA1343FB73FB7B4FEA03631A46C3
:103118007B689A6340F2BC03C2F200039B6803F425
:103128007F434FEA1323FB737B689A6BFB7B4FEA61
:1031380003431A437B689A6340F2BC03C2F200035C
:103148009B68FB737B689A6BFB7B4FEA03231A43EC
:103158007B689A6340F2BC03C2F20003DB684FEA63
:103168001363FB737B689A6BFB7B1A437B689A63D8
:1031780040F2BC03C2F20003DB6803F47F034FEAAA
:103188001343FB737B6893F83C30DAB2FB7B4FEA5E
:103198001313DBB21343DAB27B6883F83C20FB7B62
:1031A8009BB203F00F039BB24FEA03239AB27B68EA
:1031B800DA8740F2BC03C2F20003DB6803F47F4302
:1031C8004FEA1323FB737B68DB8F9AB2FB7B9BB2BE
:1031D80013439AB27B68DA8740F2BC03C2F2000359
:1031E800DB68FB73FB7B4FEA5303DAB27B6883F837
:1031F80040207B684FF0010283F84120BB7B1846D2
:1032080007F11407BD46B0BC704700BF80B584B055
:1032180000AF78604FF00003FB734FF00003BB73FF
:1032280040F2D000C2F2000001F090FA0346FB73AE
:10323800FB7B002B01D0FB7BB7E040F2D003C2F24E
:1032480000031B784FEA9313BB737B68BA7B1A7031
:1032580040F2D003C2F200031B7803F020034FEAC8
:103268006313BB737B68BA7B5A7040F2D003C2F217
:1032780000039B78BB73BB7B9BB24FEA03239AB2D4
:103288007B685A8040F2D003C2F20003DB78BB733C
:103298007B685B889AB2BB7B9BB213439AB27B680C
:1032A8005A8040F2D003C2F200031B79BB73BB7B88
:1032B8004FEA03631A467B685A6040F2D003C2F2B1
:1032C80000035B79BB737B685A68BB7B4FEA034397
:1032D8001A437B685A6040F2D003C2F200039B791C
:1032E800BB737B685A68BB7B4FEA03231A437B682E
:1032F8005A6040F2D003C2F20003DB79BB737B68EB
:103308005A68BB7B1A437B685A6040F2D003C2F20A
:1033180000031B7ABB737B68BA7B1A7240F2D00336
:10332800C2F200035B7ABB737B68BA7B5A7240F2C5
:10333800D003C2F200039B7A4FEA1313BB737B6876
:10334800BA7B9A7240F2D003C2F20003DB7ABB73F5
:10335800BB7B9BB24FEA03239AB27B689A8140F207
:10336800D003C2F200031B7BBB737B689B899AB2B4
:10337800BB7B9BB213439AB27B689A8140F2D0031D
:10338800C2F200035B7B4FEA9303BB737B68BA7B93
:103398009A7340F2D003C2F200035B7B03F003038D
:1033A800BB737B68BA7BDA73FB7B184607F110079F
:1033B800BD4680BD80B584B000AF78604FF0000393
:1033C800FB7340F2A803C2F200031B68032B04D16D
:1033D8004FF02703FB73FB7B95E040F2A803C2F292
:1033E80000031B68002B0DD040F2A803C2F20003B3
:1033F8001B68012B06D040F2A803C2F200031B6829
:10340800022B7FD17B68B3F5805F04D14FF027038F
:10341800FB73FB7B77E07B68B3F5006F39D14FF026
:10342800010001F0F7FD0346FB73FB7B002B69D11C
:1034380043F6E873C2F201034FF002021A7543F62D
:10344800E873C2F201034FF000021A6043F6E87312
:10345800C2F201034FF000025A6043F6E873C2F269
:1034680001034FF000029A6043F6E873C2F20103C9
:103478004FF40062DA6043F6E873C2F201034FF0DA
:1034880000021A6143F6E870C2F2010006F0C8F9BA
:1034980038E04FF0000001F0BDFD0346FB73FB7BF5
:1034A800002B2FD143F6E873C2F201034FF002025A
:1034B8001A7543F6E873C2F201034FF000021A606E
:1034C80043F6E873C2F201034FF000025A6043F674
:1034D800E873C2F201034FF000029A6043F6E87302
:1034E800C2F201034FF00002DA6043F6E873C2F259
:1034F80001034FF000021A6143F6E870C2F20100BE
:1035080006F08EF9FB7B184607F11007BD4680BD13
:1035180080B584B000AF78604FF00003FB7343F6CA
:103528007873C2F201037A681A6043F67873C2F2BC
:1035380001034FF007025A6043F67873C2F20103A1
:103548004FF040029A6043F67873C2F201034FF0DD
:103558000002DA6043F67873C2F201034FF4806226
:103568001A6143F67870C2F2010006F0DDF94FF0F7
:10357800070001F07BFB0346FB73FB7B184607F152
:103588001007BD4680BD00BF80B586B000AFF860AB
:10359800B9601346FB804FF00003FB7540F2E4036B
:1035A800C2F200034FF000021A7040F2E803C2F2C0
:1035B80000034FF000021A6040F2E003C2F2000379
:1035C8004FF000021A604FF43053C4F201034FF079
:1035D8000002DA6240F2A803C2F200031B68022B61
:1035E80006D14FF40073FB80BB684FEA5323BB60DE
:1035F800FA8843F67873C2F201031A6043F67873C7
:10360800C2F201034FF010025A6043F67873C2F217
:1036180001034FF040029A6043F67873C2F2010347
:103628004FF00002DA6043F67873C2F201034FF4F8
:1036380080621A6143F67870C2F2010006F074F9EC
:103648004FF0100001F012FB0346FB75FB7D002BC9
:1036580001D0FB7D71E044F20003C2F201034FF098
:10366800FF321A60FA8844F20003C2F201035A607A
:1036780044F20003C2F201034FF090029A6044F250
:103688000003C2F201034FF00202DA6044F20003C1
:10369800C2F201034FF000021A6144F20003C2F2C1
:1036A80001034FF001025A6144F20000C2F2010026
:1036B80006F0AEF943F67873C2F20103BA681A60ED
:1036C80043F67873C2F201034FF011025A6043F6D1
:1036D8007873C2F201034FF040029A6043F67873A0
:1036E800C2F201034FF00002DA6043F67873C2F2C7
:1036F80001034FF480621A6143F67870C2F2010048
:1037080006F012F94FF0110001F0B0FA0346FB750C
:10371800FB7D002B01D0FB7D0FE040F22A304FF0FB
:10372800010106F09BFA4FF0010006F087FAFB88CA
:10373800F868194602F0DAF9FB7D184607F1180710
:10374800BD4680BD80B586B000AFF860B9603B600B
:103758001346FB804FF00003FB7540F2E403C2F20E
:1037680000034FF000021A7040F2E803C2F20003AF
:103778004FF000021A6040F2E003C2F200034FF07B
:1037880001021A604FF43053C4F201034FF00002F3
:10379800DA6240F2A803C2F200031B68022B06D1CA
:1037A8004FF40073FB80BB684FEA5323BB60FA8871
:1037B80043F67873C2F201031A6043F67873C2F2D3
:1037C80001034FF010025A6043F67873C2F2010306
:1037D8004FF040029A6043F67873C2F201034FF04B
:1037E8000002DA6043F67873C2F201034FF4806294
:1037F8001A6143F67870C2F2010006F095F84FF0AE
:10380800100001F033FA0346FB75FB7D002B01D055
:10381800FB7D77E044F20003C2F201034FF0FF3270
:103828001A60FB883A6802FB03F244F20003C2F212
:1038380001035A6044F20003C2F201034FF0900200
:103848009A6044F20003C2F201034FF00202DA6008
:1038580044F20003C2F201034FF000021A6144F27D
:103868000003C2F201034FF001025A6144F2000062
:10387800C2F2010006F0CCF843F67873C2F20103F5
:10388800BA681A6043F67873C2F201034FF0120265
:103898005A6043F67873C2F201034FF040029A600F
:1038A80043F67873C2F201034FF00002DA6043F680
:1038B8007873C2F201034FF480621A6143F678709C
:1038C800C2F2010006F030F84FF0120001F0CEF914
:1038D8000346FB75FB7D002B01D0FB7D12E040F217
:1038E8002A304FF0010106F0B9F94FF0010006F057
:1038F800A5F9FB883A6802FB03F3F868194602F059
:10390800F5F8FB7D184607F11807BD4680BD00BFD6
:1039180080B586B000AFF860B9607A603B604FF060
:103928000003FB7540F2E403C2F200034FF000020B
:103938001A7040F2E803C2F200034FF000021A6066
:1039480040F2E003C2F200034FF001021A604FF4A4
:103958003053C4F201034FF00002DA6240F2A803C8
:10396800C2F200031B68022B03D14FF400737B6083
:1039780004E0BB687A6802FB03F3BB6043F6787324
:10398800C2F201037A681A6043F67873C2F201033F
:103998004FF010025A6043F67873C2F201034FF0F9
:1039A80040029A6043F67873C2F201034FF00002B6
:1039B800DA6043F67873C2F201034FF480621A6149
:1039C80043F67870C2F2010005F0AEFF4FF0100028
:1039D80001F04CF90346FB75FB7D002B01D0FB7D04
:1039E80077E044F20003C2F201034FF0FF321A609D
:1039F8003B687A6802FB03F244F20003C2F2010357
:103A08005A6044F20003C2F201034FF090029A6038
:103A180044F20003C2F201034FF00202DA6044F2FA
:103A28000003C2F201034FF000021A6144F20003DE
:103A3800C2F201034FF001025A6144F20000C2F2DF
:103A4800010005F0E5FF43F67873C2F20103BA6896
:103A58001A6043F67873C2F201034FF012025A60FB
:103A680043F67873C2F201034FF040029A6043F6BE
:103A78007873C2F201034FF00002DA6043F67873FC
:103A8800C2F201034FF480621A6143F67870C2F201
:103A9800010005F049FF4FF0120001F0E7F8034676
:103AA800FB75FB7D002B01D0FB7D12E040F22A3034
:103AB8004FF0010106F0D2F84FF0010006F0BEF811
:103AC8003B687A6802FB03F3F868194602F00EF8BF
:103AD800FB7D184607F11807BD4680BD80B582B04A
:103AE80000AF4FF00003FB714FF0FF333B6003E082
:103AF8003B6803F1FF333B6040F2EC03C2F2000382
:103B08001B68002B11D140F2E803C2F200031B68C6
:103B1800002B0AD140F2E403C2F200031B78DBB2A7
:103B2800002B02D13B68002BE2D140F2EC03C2F239
:103B380000034FF000021A604FF0FF333B6003E0D0
:103B48003B6803F1FF333B604FF43053C4F2010389
:103B58005B6B03F40053002B02D03B68002BEFD1C2
:103B680040F2E003C2F200031B68012B03D100F00E
:103B78002BFC0346FB713B68002B05D1FB79002B1E
:103B880002D14FF00403FB7140F2FF5006F0AEF88B
:103B980040F2E403C2F200031B78DBB2002B06D02C
:103BA80040F2E403C2F200031B78DBB200E0FB79C9
:103BB800184607F10807BD4680BD00BF80B586B02E
:103BC80000AFF860B9601346FB804FF00003FB7547
:103BD80040F2E403C2F200034FF000021A7040F210
:103BE800E803C2F200034FF000021A6040F2E0035B
:103BF800C2F200034FF000021A604FF43053C4F2CF
:103C080001034FF00002DA6240F2A803C2F2000397
:103C18001B68022B06D14FF40073FB80BB684FEA88
:103C28005323BB60FA8843F67873C2F201031A6023
:103C380043F67873C2F201034FF010025A6043F65C
:103C48007873C2F201034FF040029A6043F678732A
:103C5800C2F201034FF00002DA6043F67873C2F251
:103C680001034FF480621A6143F67870C2F20100D2
:103C780005F05AFE4FF0100000F0F8FF0346FB7500
:103C8800FB7D002B01D0FB7D71E043F67873C2F217
:103C98000103BA681A6043F67873C2F201034FF061
:103CA80018025A6043F67873C2F201034FF04002DB
:103CB8009A6043F67873C2F201034FF00002DA60AB
:103CC80043F67873C2F201034FF480621A6143F637
:103CD8007870C2F2010005F027FE4FF0180000F0DE
:103CE800C5FF0346FB75FB7D002B01D0FB7D3EE045
:103CF80044F20003C2F201034FF0FF321A60FA885F
:103D080044F20003C2F201035A6044F20003C2F213
:103D180001034FF090029A6044F20003C2F20103DB
:103D28004FF00002DA6044F20003C2F201034FF0E0
:103D380000021A6144F20003C2F201034FF00102CB
:103D48005A6144F20000C2F2010005F061FE40F23F
:103D58002A304FF0010105F081FFFB88F868194609
:103D680001F054FE4FF0010005F068FFFB7D184696
:103D780007F11807BD4680BD80B586B000AFF86072
:103D8800B9603B601346FB804FF00003FB7540F2BF
:103D9800E403C2F200034FF000021A7040F2E80395
:103DA800C2F200034FF000021A6040F2E003C2F2D0
:103DB80000034FF001021A604FF43053C4F20103BC
:103DC8004FF00002DA6240F2A803C2F200031B6857
:103DD800022B06D14FF40073FB80BB684FEA5323D4
:103DE800BB60FA8843F67873C2F201031A6043F69F
:103DF8007873C2F201034FF010025A6043F67873E9
:103E0800C2F201034FF040029A6043F67873C2F29F
:103E180001034FF00002DA6043F67873C2F201033F
:103E28004FF480621A6143F67870C2F2010005F01F
:103E38007BFD4FF0100000F019FF0346FB75FB7D7A
:103E4800002B01D0FB7DE3E040F2CC03C2F200037B
:103E58001B684FEA034243F67873C2F201031A6003
:103E680043F67873C2F201034FF037025A6043F603
:103E78007873C2F201034FF040029A6043F67873F8
:103E8800C2F201034FF00002DA6043F67873C2F21F
:103E980001034FF480621A6143F67870C2F20100A0
:103EA80005F042FD4FF0370000F0E0FE0346FB75D9
:103EB800FB7D002B01D0FB7DAAE043F67873C2F2AC
:103EC80001033A681A6043F67873C2F201034FF0AF
:103ED80017025A6043F67873C2F201034FF04002AA
:103EE8009A6043F67873C2F201034FF00002DA6079
:103EF80043F67873C2F201034FF480621A6143F605
:103F08007870C2F2010005F00FFD4FF0170000F0C5
:103F1800ADFE0346FB75FB7D002B01D0FB7D77E0F2
:103F280043F67873C2F20103BA681A6043F67873ED
:103F3800C2F201034FF019025A6043F67873C2F2D5
:103F480001034FF040029A6043F67873C2F201030E
:103F58004FF00002DA6043F67873C2F201034FF4BF
:103F680080621A6143F67870C2F2010005F0DCFC49
:103F78004FF0190000F07AFE0346FB75FB7D002B1D
:103F880001D0FB7D44E044F20003C2F201034FF08C
:103F9800FF321A60FB883A6802FB03F244F200031E
:103FA800C2F201035A6044F20003C2F201034FF067
:103FB80090029A6044F20003C2F201034FF000023B
:103FC800DA6044F20003C2F201034FF000021A6102
:103FD80044F20003C2F201034FF001025A6144F2B5
:103FE8000000C2F2010005F013FD40F22A304FF044
:103FF800010105F033FE4FF0010005F01FFEFB88BC
:104008003A6802FB03F3F868194601F0FFFCFB7DF0
:10401800184607F11807BD4680BD00BF80B586B0B9
:1040280000AFF860B9607A603B604FF00003FB7541
:1040380040F2E403C2F200034FF000021A7040F2AB
:10404800E803C2F200034FF000021A6040F2E003F6
:10405800C2F200034FF001021A604FF43053C4F269
:1040680001034FF00002DA6240F2A803C2F2000333
:104078001B68022B03D14FF400737B6004E0BB681C
:104088007A6802FB03F3BB6043F67873C2F201035C
:104098007A681A6043F67873C2F201034FF010028F
:1040A8005A6043F67873C2F201034FF040029A60F7
:1040B80043F67873C2F201034FF00002DA6043F668
:1040C8007873C2F201034FF480621A6143F6787084
:1040D800C2F2010005F028FC4FF0100000F0C6FD08
:1040E8000346FB75FB7D002B01D0FB7DE3E040F22E
:1040F800CC03C2F200031B684FEA034243F678730D
:10410800C2F201031A6043F67873C2F201034FF05A
:1041180037025A6043F67873C2F201034FF0400247
:104128009A6043F67873C2F201034FF00002DA6036
:1041380043F67873C2F201034FF480621A6143F6C2
:104148007870C2F2010005F0EFFB4FF0370000F085
:104158008DFD0346FB75FB7D002B01D0FB7DAAE09E
:1041680043F67873C2F201033A681A6043F678732B
:10417800C2F201034FF017025A6043F67873C2F295
:1041880001034FF040029A6043F67873C2F20103CC
:104198004FF00002DA6043F67873C2F201034FF47D
:1041A80080621A6143F67870C2F2010005F0BCFB28
:1041B8004FF0170000F05AFD0346FB75FB7D002BFE
:1041C80001D0FB7D77E043F67873C2F20103BA6849
:1041D8001A6043F67873C2F201034FF019025A606D
:1041E80043F67873C2F201034FF040029A6043F637
:1041F8007873C2F201034FF00002DA6043F6787375
:10420800C2F201034FF480621A6143F67870C2F279
:10421800010005F089FB4FF0190000F027FD034667
:10422800FB75FB7D002B01D0FB7D44E044F20003CD
:10423800C2F201034FF0FF321A603B687A6802FB52
:1042480003F244F20003C2F201035A6044F200038D
:10425800C2F201034FF090029A6044F20003C2F2E6
:1042680001034FF00002DA6044F20003C2F20103D6
:104278004FF000021A6144F20003C2F201034FF04A
:1042880001025A6144F20000C2F2010005F0C0FBCD
:1042980040F22A304FF0010105F0E0FC4FF0010038
:1042A80005F0CCFC3B687A6802FB03F3F868194612
:1042B80001F0ACFBFB7D184607F11807BD4680BD31
:1042C80080B582B000AF4FF00003FB714FF0FF33B1
:1042D8003B6003E03B6803F1FF333B6040F2EC03D3
:1042E800C2F200031B68002B11D140F2E803C2F2AE
:1042F80000031B68002B0AD140F2E403C2F200035A
:104308001B78DBB2002B02D13B68002BE2D140F2D4
:10431800EC03C2F200034FF000021A604FF0FF33C3
:104328003B6003E03B6803F1FF333B604FF43053DD
:10433800C4F201035B6B03F48053002B02D03B688B
:10434800002BEFD140F2E003C2F200031B68012BFF
:1043580003D100F039F80346FB713B68002B05D107
:10436800FB79002B02D14FF00403FB7140F2FF50A0
:1043780005F0BCFC40F2E403C2F200031B78DBB298
:10438800002B06D040F2E403C2F200031B78DBB234
:1043980000E0FB79184607F10807BD4680BD00BF5D
:1043A80080B400AF4FF43053C4F201035B6B03F4E5
:1043B8004053002B02D04FF0010301E04FF00003FF
:1043C8001846BD4680BC704780B582B000AF4FF03C
:1043D8000003FB7143F67873C2F201034FF0000249
:1043E8001A6043F67873C2F201034FF00C025A6068
:1043F80043F67873C2F201034FF040029A6043F625
:104408007873C2F201034FF00002DA6043F6787362
:10441800C2F201034FF480621A6143F67870C2F267
:10442800010005F081FA4FF00C0000F01FFC034674
:10443800FB71FB79184607F10807BD4680BD00BF30
:1044480080B586B000AF786039604FF00003FB7527
:104458004FF000033B614FF00003FB604FF0000397
:10446800FB7240F2AC03C2F200035B684FEA1353DD
:1044780003F02003002B04D14FF02503FB75FB7DCF
:1044880009E14FF43053C4F201035B68DBB203F176
:1044980002024DF2C043C0F20103B3FBF2F3FB602A
:1044A8004FF0000005F09EFA034603F00073002B5E
:1044B80004D04FF00E03FB75FB7DECE040F2A8033F
:1044C800C2F200031B68022B07D17B684FEA532313
:1044D8007B603B684FEA53233B6040F2A803C2F27B
:1044E80000031B68002B0DD040F2A803C2F20003A2
:1044F8001B68012B06D040F2A803C2F200031B6818
:10450800022B65D143F67873C2F201037A681A6008
:1045180043F67873C2F201034FF020025A6043F663
:104528007873C2F201034FF040029A6043F6787341
:10453800C2F201034FF00002DA6043F67873C2F268
:1045480001034FF480621A6143F67870C2F20100E9
:1045580005F0EAF94FF0200000F088FB0346FB75F0
:10456800FB7D002B01D0FB7D95E043F67873C2F20A
:1045780001033A681A6043F67873C2F201034FF0F8
:1045880021025A6043F67873C2F201034FF04002E9
:104598009A6043F67873C2F201034FF00002DA60C2
:1045A80043F67873C2F201034FF480621A6143F64E
:1045B8007870C2F2010005F0B7F94FF0210000F061
:1045C80055FB0346FB75FB7D002B01D0FB7D62E0AC
:1045D80043F67873C2F201034FF000021A6043F603
:1045E8007873C2F201034FF026025A6043F67873DB
:1045F800C2F201034FF040029A6043F67873C2F2A8
:1046080001034FF00002DA6043F67873C2F2010347
:104618004FF480621A6143F67870C2F2010005F027
:1046280083F94FF0260000F021FB0346FB75FB7D64
:10463800002B01D0FB7D2EE04FF000033B6103E02F
:104648003B6903F101033B61FB683A699A42F7D37E
:1046580007F10B03184600F005FE0346FB754FF003
:10466800FF333B610AE007F10B03184600F0FAFD3F
:104678000346FB753B6903F1FF333B613B69002B44
:1046880008D0FB7D002B05D1FB7A072BEBD0FB7AFA
:10469800062BE8D0FB7D184607F11807BD4680BDFC
:1046A80080B584B000AF78604FF00003FB737B687F
:1046B800002B04D14FF02603FB73FB7B40E040F254
:1046C800CC03C2F200031B684FEA034243F6787337
:1046D800C2F201031A6043F67873C2F201034FF085
:1046E8000D025A6043F67873C2F201034FF040029C
:1046F8009A6043F67873C2F201034FF00002DA6061
:1047080043F67873C2F201034FF480621A6143F6EC
:104718007870C2F2010005F007F94FF00D0000F0C3
:10472800A5FA0346FB73FB7B002B01D0FB7B07E05C
:104738004FF0000005F056F902467B681A60FB7BD3
:10474800184607F11007BD4680BD00BF90B585B07B
:1047580000AF78604FF00003FB724FF00003FB607E
:104768004FF0000005F03EF9034603F00073002BFC
:1047780004D04FF00E03FB72FB7A5BE143F67873CB
:10478800C2F201034FF040021A6043F67873C2F296
:1047980001034FF010025A6043F67873C2F2010326
:1047A8004FF040029A6043F67873C2F201034FF06B
:1047B8000002DA6043F67873C2F201034FF48062B4
:1047C8001A6143F67870C2F2010005F0ADF84FF0B7
:1047D800100000F04BFA0346FB72FB7A002B01D065
:1047E800FB7A27E140F2CC03C2F200031B684FEAD0
:1047F800034243F67873C2F201031A6043F67873F2
:10480800C2F201034FF037025A6043F67873C2F2DE
:1048180001034FF040029A6043F67873C2F2010335
:104828004FF00002DA6043F67873C2F201034FF4E6
:1048380080621A6143F67870C2F2010005F074F8DC
:104848004FF0370000F012FA0346FB72FB7A002B98
:1048580001D0FB7AEEE044F20003C2F201034FF00C
:10486800FF321A6044F20003C2F201034FF0400223
:104878005A6044F20003C2F201034FF060029A60EA
:1048880044F20003C2F201034FF00202DA6044F27C
:104898000003C2F201034FF000021A6144F2000360
:1048A800C2F201034FF001025A6144F20000C2F261
:1048B800010005F0ADF843F67873C2F201034FF03A
:1048C80000021A6043F67873C2F201034FF00D023A
:1048D8005A6043F67873C2F201034FF040029A60BF
:1048E80043F67873C2F201034FF00002DA6043F630
:1048F8007873C2F201034FF480621A6143F678704C
:10490800C2F2010005F010F84FF00D0000F0AEF90A
:104918000346FB72FB7A002B21D0FB7A8AE04FF426
:10492800004005F0C5F90346002B19D04FF00003ED
:10493800FB600CE0FB684FEA83037A68D41805F043
:10494800CDF803462360FB6803F10103FB60FB68B5
:10495800072BEFD97B6803F120037B6000E000BFE1
:104968004FF43053C4F201035A6B40F22A631340E8
:10497800002BD4D04FF0080005F09AF90346002B1D
:1049880008D04FF0080005F0B1F94FF00403FB72AE
:10499800FB7A4FE04FF0020005F08AF90346002B3E
:1049A80008D04FF0020005F0A1F94FF00203FB72A6
:1049B800FB7A3FE04FF0200005F07AF90346002B20
:1049C80008D04FF0200005F091F94FF00603FB7274
:1049D800FB7A2FE04FF4007005F06AF90346002BCC
:1049E80008D04FF4007005F081F94FF00703FB720F
:1049F800FB7A1FE04FF0FF33FB600CE005F06EF828
:104A080002467B681A607B6803F104037B60FB68DD
:104A180003F1FF33FB604FF4001005F049F903463A
:104A2800002B02D0FB68002BE8D140F2FF5005F0C4
:104A38005DF9FB7A184607F11407BD4690BD00BF23
:104A480080B500AF4FF4807005F060F90346002B85
:104A580012D040F2E403C2F200034FF000021A70D1
:104A68004FF4807005F070F940F2E803C2F20003D9
:104A78004FF001021A605DE04FF0020005F046F9C0
:104A88000346002B0BD04FF0020005F05DF940F211
:104A9800E403C2F200034FF002021A704AE04FF03A
:104AA800080005F033F90346002B0BD04FF008003F
:104AB80005F04AF940F2E403C2F200034FF00402A1
:104AC8001A7037E04FF0200005F020F90346002B5C
:104AD8000BD04FF0200005F037F940F2E403C2F2A2
:104AE80000034FF006021A7024E04FF0100005F0A2
:104AF8000DF90346002B0BD04FF0100005F024F9F8
:104B080040F2E403C2F200034FF005021A7011E00C
:104B18004FF4007005F0FAF80346002B0AD04FF462
:104B2800007005F011F940F2E403C2F200034FF0FF
:104B380007021A704CF23A304FF0000105F08EF877
:104B480040F2E403C2F200031B78DBB2184680BDD2
:104B580080B500AF4FF4C843C4F202031B6803F0EA
:104B6800C053002B0ED040F2EC03C2F200034FF00A
:104B780001021A6046F25840C4F202004FF0C251D6
:104B880004F044FD80BD00BF80B582B000AF4FF097
:104B98000003FB704FF480337B6003E07B6803F114
:104BA800FF337B607B68002B06D04FF0800005F058
:104BB8007FF80346002BF1D07B68002B04D14FF01F
:104BC8000303FB70FB7804E040F2FF5005F08EF819
:104BD800FB78184607F10807BD4680BD80B584B04C
:104BE80000AF4FF00003FB714FF48033BB604FF40C
:104BF8003053C4F201035B6BFB6009E0BB6803F14F
:104C0800FF33BB604FF43053C4F201035B6BFB60AE
:104C1800FB6803F04503002B02D1BB68002BEDD1E4
:104C2800BB68002B04D0FB6803F00403002B08D0FA
:104C38004FF00303FB714FF0040005F057F8FB79C0
:104C48000EE0FB6803F04003002B08D04FF0000390
:104C5800FB714FF0400005F049F8FB7900E0FB7963
:104C6800184607F11007BD4680BD00BF80B586B065
:104C780000AF0346FB714FF00003FB744FF4305351
:104C8800C4F201035B6B7B6105E04FF43053C4F25F
:104C980001035B6B7B617B6903F04503002BF4D058
:104CA8007B6903F00403002B08D04FF00303FB7467
:104CB8004FF0040005F01AF8FB7CC2E07B6903F0B2
:104CC8000103002B08D04FF00103FB744FF00100E3
:104CD80005F00CF8FB7CB4E004F078FE0346FA79A2
:104CE8009A4204D04FF01003FB74FB7CA9E040F219
:104CF800FF5004F0FBFF4FF0000004F073FEF86073
:104D0800FA684EF20803CFF6FF531340002B01D187
:104D1800FB7C96E0FB68002B02DA4FF01C0390E066
:104D2800FB6803F08043002B02D04FF0090388E0B2
:104D3800FB6803F00053002B02D04FF00A0380E019
:104D4800FB6803F08053002B02D04FF00B0378E090
:104D5800FB6803F00063002B02D04FF00C0370E0F7
:104D6800FB6803F08063002B02D04FF00D0368E06E
:104D7800FB6803F08073002B02D04FF00E0360E055
:104D8800FB6803F40003002B02D04FF00F0358E038
:104D9800FB6803F48003002B02D04FF0100350E0AF
:104DA800FB6803F40013002B02D04FF0110348E016
:104DB800FB6803F48013002B02D04FF0120340E08D
:104DC800FB6803F40023002B02D04FF0130338E0F4
:104DD800FB6803F48023002B02D04FF0140330E06B
:104DE800FB6803F40033002B02D04FF0150328E0D2
:104DF800FB6803F48033002B02D04FF0160320E049
:104E0800FB6803F40043002B02D04FF0170318E0AF
:104E1800FB6803F48043002B02D04FF0180310E026
:104E2800FB6803F40053002B02D04FF0190308E08D
:104E3800FB6803F00803002B02D04FF01A0300E0D0
:104E4800FB7C184607F11807BD4680BD80B582B0C7
:104E580000AF4FF00003FB704FF43053C4F201036E
:104E68005B6B7B6005E04FF43053C4F201035B6B6E
:104E78007B607B6803F04503002BF4D07B6803F06C
:104E88000403002B08D04FF00303FB704FF004001D
:104E980004F02CFFFB7804E040F2FF5004F026FFFA
:104EA800FB78184607F10807BD4680BD80B582B07B
:104EB80000AF4FF00003FB704FF43053C4F201030E
:104EC8005B6B7B6005E04FF43053C4F201035B6B0E
:104ED8007B607B6803F04503002BF4D07B6803F00C
:104EE8000403002B08D04FF00303FB704FF00400BD
:104EF80004F0FCFEFB7812E07B6803F00103002B52
:104F080008D04FF00103FB704FF0010004F0EEFEF3
:104F1800FB7804E040F2FF5004F0E8FEFB78184606
:104F280007F10807BD4680BD80B586B000AF0346CF
:104F38003960FB714FF00003FB744FF43053C4F237
:104F480001035B6B7B6105E04FF43053C4F201034E
:104F58005B6B7B617B6903F04503002BF4D07B69B5
:104F680003F00403002B08D04FF00303FB744FF049
:104F7800040004F0BBFEFB7C47E07B6903F00103FF
:104F8800002B08D04FF00103FB744FF0010004F030
:104F9800ADFEFB7C39E004F019FD0346FA799A422C
:104FA80004D04FF01003FB74FB7C2EE040F2FF505E
:104FB80004F09CFE4FF0000004F014FDF860FB685C
:104FC80003F46043002B07D1FB684FEA13439AB2FE
:104FD8003B681A80FB7C18E0FB6803F40053002B45
:104FE80002D04FF0130310E0FB6803F48043002B5A
:104FF80002D04FF0100308E0FB6803F40043002BD5
:1050080002D04FF00F0300E0FB7C184607F11807A9
:10501800BD4680BD80B586B000AF0346FB714FF03A
:105028000003FB754FF00003FB604FF000033B618A
:105038004FF0000004F0D6FC034603F00073002B89
:1050480004D04FF00E03FB75FB7D06E140F2CC0364
:10505800C2F200031B689AB207F10C031046194606
:1050680000F02EFA0346FB75FB7D002B01D0FB7D7B
:10507800F3E0FB79012B78D13B6903F48023002B03
:105088006ED040F2CC03C2F200031B684FEA034221
:1050980043F67873C2F201031A6043F67873C2F2DA
:1050A80001034FF037025A6043F67873C2F20103E6
:1050B8004FF040029A6043F67873C2F201034FF052
:1050C8000002DA6043F67873C2F201034FF480629B
:1050D8001A6143F67870C2F2010004F025FC4FF023
:1050E8003700FFF7C3FD0346FB75FB7D002B01D09E
:1050F800FB7DB2E043F67873C2F201034FF002027F
:105108001A6043F67873C2F201034FF006025A6040
:1051180043F67873C2F201034FF040029A6043F6F7
:105128007873C2F201034FF00002DA6043F6787335
:10513800C2F201034FF480621A6143F67870C2F23A
:10514800010004F0F1FB4FF00600FFF78FFD034666
:10515800FB75FB7D002B01D0FB7D7EE0FB7D7CE0B9
:105168004FF02503FB75FB7D77E03B6903F4803343
:10517800002B6ED040F2CC03C2F200031B684FEA4A
:10518800034243F67873C2F201031A6043F6787358
:10519800C2F201034FF037025A6043F67873C2F245
:1051A80001034FF040029A6043F67873C2F201039C
:1051B8004FF00002DA6043F67873C2F201034FF44D
:1051C80080621A6143F67870C2F2010004F0ACFB09
:1051D8004FF03700FFF74AFD0346FB75FB7D002BB8
:1051E80001D0FB7D39E043F67873C2F201034FF03A
:1051F80000021A6043F67873C2F201034FF0060208
:105208005A6043F67873C2F201034FF040029A6085
:1052180043F67873C2F201034FF00002DA6043F6F6
:105228007873C2F201034FF480621A6143F6787012
:10523800C2F2010004F078FB4FF00600FFF716FDFC
:105248000346FB75FB7D002B01D0FB7D05E0FB7D54
:1052580003E04FF02503FB75FB7D184607F118079F
:10526800BD4680BD80B586B000AF78604FF00003C2
:10527800FB754FF000033B614FF00003FB6040F209
:10528800CC03C2F200031B684FEA034243F678736B
:10529800C2F201031A6043F67873C2F201034FF0B9
:1052A8000D025A6043F67873C2F201034FF04002D0
:1052B8009A6043F67873C2F201034FF00002DA6095
:1052C80043F67873C2F201034FF480621A6143F621
:1052D8007870C2F2010004F027FB4FF43053C4F297
:1052E80001035B6BFB6005E04FF43053C4F201032C
:1052F8005B6BFB60FB6803F04503002BF4D0FB6895
:1053080003F00403002B08D04FF00303FB754FF0A4
:10531800040004F0EBFCFB7DCDE0FB6803F0010327
:10532800002B08D04FF00103FB754FF0010004F08B
:10533800DDFCFB7DBFE004F049FB0346FB60FB6836
:105348000D2B04D04FF01003FB75FB7DB3E040F24A
:10535800FF5004F0CBFC4FF0000004F043FB034681
:105368003B613B694FEA5323DBB203F00F03DAB228
:105378007B681A703A694EF20803CFF6FF53134060
:10538800002B01D1FB7D96E03B69002B02DA4FF040
:105398001C0390E03B6903F08043002B02D04FF0E0
:1053A800090388E03B6903F00053002B02D04FF05B
:1053B8000A0380E03B6903F08053002B02D04FF0D2
:1053C8000B0378E03B6903F00063002B02D04FF039
:1053D8000C0370E03B6903F08063002B02D04FF0B0
:1053E8000D0368E03B6903F08073002B02D04FF097
:1053F8000E0360E03B6903F40003002B02D04FF07A
:105408000F0358E03B6903F48003002B02D04FF0F0
:10541800100350E03B6903F40013002B02D04FF057
:10542800110348E03B6903F48013002B02D04FF0CE
:10543800120340E03B6903F40023002B02D04FF035
:10544800130338E03B6903F48023002B02D04FF0AC
:10545800140330E03B6903F40033002B02D04FF013
:10546800150328E03B6903F48033002B02D04FF08A
:10547800160320E03B6903F40043002B02D04FF0F1
:10548800170318E03B6903F48043002B02D04FF068
:10549800180310E03B6903F40053002B02D04FF0CF
:1054A800190308E03B6903F00803002B02D04FF012
:1054B8001A0300E0FB7D184607F11807BD4680BDBA
:1054C80090B587B000AF03463960FB804FF000030A
:1054D8007B614FF00003FB744FF00003BB604FF09B
:1054E8000003FB6043F67873C2F201034FF0080231
:1054F8001A6043F67873C2F201034FF010025A6043
:1055080043F67873C2F201034FF040029A6043F603
:105518007873C2F201034FF00002DA6043F6787341
:10552800C2F201034FF480621A6143F67870C2F246
:10553800010004F0F9F94FF01000FFF797FB03465C
:10554800FB74FB7C002B01D0FB7C2EE140F2CC03EA
:10555800C2F200031B684FEA034243F67873C2F2B3
:1055680001031A6043F67873C2F201034FF0370261
:105578005A6043F67873C2F201034FF040029A6012
:1055880043F67873C2F201034FF00002DA6043F683
:105598007873C2F201034FF480621A6143F678709F
:1055A800C2F2010004F0C0F94FF03700FFF75EFBCC
:1055B8000346FB74FB7C002B01D0FB7CF5E044F236
:1055C8000003C2F201034FF0FF321A6044F20003F5
:1055D800C2F201034FF008025A6044F20003C2F21B
:1055E80001034FF030029A6044F20003C2F2010353
:1055F8004FF00202DA6044F20003C2F201034FF0F6
:1056080000021A6144F20003C2F201034FF00102E2
:105618005A6144F20000C2F2010004F0F9F943F6BD
:105628007873C2F201034FF000021A6043F67873F0
:10563800C2F201034FF033025A6043F67873C2F2A4
:1056480001034FF040029A6043F67873C2F20103F7
:105658004FF00002DA6043F67873C2F201034FF4A8
:1056680080621A6143F67870C2F2010004F05CF9B6
:105678004FF03300FFF7FAFA0346FB74FB7C002B6C
:1056880017D0FB7C91E04FF4001004F011FB0346A7
:10569800002B0FD07B694FEA830307F10802D41867
:1056A80004F01CFA034623607B6903F101037B6164
:1056B80000E000BF4FF43053C4F201035A6B40F2CC
:1056C8002A631340002BDED04FF0080004F0F0FAF4
:1056D8000346002B08D04FF0080004F007FB4FF0FA
:1056E8000403FB74FB7C60E04FF0020004F0E0FA76
:1056F8000346002B08D04FF0020004F0F7FA4FF0F1
:105708000203FB74FB7C50E04FF0200004F0D0FA59
:105718000346002B08D04FF0200004F0E7FA4FF0C2
:105728000603FB74FB7C40E04FF4007004F0C0FA01
:105738000346002B08D04FF4007004F0D7FA4FF05E
:105748000703FB74FB7C30E040F2FF5004F0CEFA14
:105758003B6803F10403BA684FEA0261BA6802F4CD
:105768007F424FEA02221143BA6802F47F024FEAED
:1057780012221143BA684FEA12620A431A60FB68A0
:105788004FEA0362FB6803F47F434FEA03231A439B
:10579800FB6803F47F034FEA13231A43FB684FEABD
:1057A80013631A433B681A60FB7C184607F11C0711
:1057B800BD4690BD80B485B000AF0346FB804FF076
:1057C8000003FB7307E0FB884FEA5303FB80FB7B76
:1057D80003F10103FB73FB88012BF4D1FB7B184613
:1057E80007F11407BD4680BC704700BF80B582B082
:1057F80000AF4FF0000004F069F84FF0000004F02B
:1058080075F803F0FDFF4FF400604FF0000105F05C
:1058180087F94FF40060C4F202004FF008014FF01E
:10582800000204F0EBFC4FF40060C4F202004FF0F9
:1058380009014FF0000204F0E1FC4FF40060C4F2EB
:1058480002004FF00A014FF0000204F0D7FC4FF4B9
:105858000060C4F202004FF00B014FF0000204F0A8
:10586800CDFC4FF40060C4F202004FF00C014FF081
:10587800000204F0C3FC4FF44060C4F202004FF091
:1058880002014FF0000204F0B9FC4FF470633B6072
:105898004FF000033B714FF00003FB713B464FF4A0
:1058A8000060C4F20200194604F01AFB4FF004032A
:1058B8003B603B464FF44060C4F20200194604F0D6
:1058C8000FFB4FF480533B603B464FF40060C4F23B
:1058D8000200194604F004FB07F10807BD4680BD25
:1058E80080B582B000AF4FF00C004FF0010105F019
:1058F8006FF84FF40060C4F202004FF008014FF057
:105908000C0204F07BFC4FF40060C4F202004FF07C
:1059180009014FF00C0204F071FC4FF40060C4F26E
:1059280002004FF00A014FF00C0204F067FC4FF43C
:105938000060C4F202004FF00B014FF00C0204F0BB
:105948005DFC4FF40060C4F202004FF00C014FF010
:105958000C0204F053FC4FF44060C4F202004FF014
:1059680002014FF00C0204F049FC4FF470633B60F5
:105978004FF001037B714FF002033B714FF00003BE
:10598800BB714FF00103FB713B464FF40060C4F25A
:105998000200194604F0A4FA4FF004033B603B46AA
:1059A8004FF44060C4F20200194604F099FA4FF42B
:1059B80080533B604FF00003FB713B464FF400609F
:1059C800C4F20200194604F08BFA4FF004033B605E
:1059D8004FF000033B714FF00103FB713B464FF45E
:1059E8000060C4F20200194604F07AFA4FF400602D
:1059F8004FF0010105F094F84FF480004FF00101D9
:105A080004F0E6FF07F10807BD4680BD80B592B0F7
:105A180000AF7860396046F25840C4F202004FF097
:105A2800FA5103F0F3FD46F25840C4F202004FF079
:105A3800000103F0A1FC46F25840C4F2020003F052
:105A4800DBFA4FF00063FB604FF43253C4F20103FA
:105A58003B617B687B614FF04003BB614FF0000303
:105A6800FB614FF000033B624FF480637B624FF4AD
:105A78008053BB624FF48043FB624FF000033B63EB
:105A88004FF440337B634FF00403BB634FF00303D1
:105A9800FB634FF400033B644FF400137B6407F18E
:105AA8000C0346F25840C4F20200194603F0C6FB44
:105AB80046F25840C4F202004FF010014FF00102C4
:105AC80003F0D4FD46F25840C4F202004FF0200122
