:020000040800F2
:100000000000022049D700088901000895D70008A0
:10001000E9010008F1010008F901000800000000F2
:10002000000000000000000000000000055C000867
:100030000102000800000000FD5D0008FD08000846
:1000400095D7000895D7000895D7000895D70008E0
:1000500095D7000895D7000895D7000895D70008D0
:1000600095D7000895D7000895D7000895D70008C0
:1000700095D7000895D7000895D7000895D70008B0
:1000800095D7000895D7000895D7000895D70008A0
:1000900095D7000895D7000895D7000895D7000890
:1000A00095D7000895D7000895D7000895D7000880
:1000B00095D7000895D7000895D7000895D7000870
:1000C00095D7000895D7000895D7000895D7000860
:1000D00095D7000895D7000895D7000895D7000850
:1000E00095D7000895D7000895D7000895D7000840
:1000F00095D7000895D7000895D7000895D7000830
:1001000095D700088D1B000895D7000895D70008E3
:1001100095D7000895D7000895D7000895D700080F
:1001200095D7000895D7000895D70008991B0008B7
:1001300095D7000895D7000895D7000895D70008EF
:1001400095D7000895D7000895D7000895D70008DF
:1001500095D7000895D7000895D7000895D70008CF
:1001600095D7000895D7000895D7000895D70008BF
:1001700095D7000895D7000895D7000895D70008AF
:0801800095D7000895D700088F
:1001880080B400AFBD4680BC704700BF80B48BB060
:1001980000AF78607B681B687B627B685B683B624A
:1001A8007B689B68FB617B68DB68BB617B681B695C
:1001B8007B617B685B693B617B689B69FB607B68F3
:1001C800DB69BB60FEE700BF1EF0040F0CBFEFF356
:1001D8000880EFF309808169004A104795010008FB
:1001E80080B400AFFEE700BF80B400AFFEE700BFF9
:1001F80080B400AFFEE700BF80B400AFBD4680BC4E
:10020800704700BF80B500AF4FF46053C4F20203DB
:100218004FF46052C4F20202126842F001021A60FE
:100228004FF46053C4F202034FF000029A604FF497
:100238006053C4F202034FF46052C4F2020212681F
:1002480022F0847222F480321A604FF46053C4F2B0
:10025800020343F21002C2F200425A604FF46053A4
:10026800C4F202034FF46052C4F20202126822F48C
:1002780080221A604FF46053C4F202034FF0000268
:10028800DA6000F0CFF84FF46D43CEF200034FF080
:1002980000629A604FF46D43CEF200034FF46D4252
:1002A800CEF20002D2F8882042F47002C3F8882007
:1002B80080BD00BF80B487B000AF4FF000033B6142
:1002C8004FF000037B614FF00203FB604FF0000327
:1002D800BB604FF002037B604FF46053C4F202032B
:1002E8009B6803F00C033B613B69042B0DD0082B82
:1002F80015D0002B69D140F20003C2F200034FF47D
:100308001052C0F2F4021A6069E040F20003C2F22F
:1003180000034FF49052C0F27A021A605FE04FF483
:100328006053C4F202035B6803F480034FEA9353FB
:10033800BB604FF46053C4F202035B6803F03F03F1
:100348007B60BB68002B14D04FF49053C0F27A0343
:100358007A68B3FBF2F24FF46053C4F202035968AF
:1003680047F6C0730B404FEA931303FB02F37B611C
:1003780013E04FF41053C0F2F4037A68B3FBF2F2BF
:100388004FF46053C4F20203596847F6C0730B4038
:100398004FEA931303FB02F37B614FF46053C4F2FB
:1003A80002035B6803F440334FEA134303F101038C
:1003B8004FEA4303FB607A69FB68B2FBF3F240F251
:1003C8000003C2F200031A6009E040F20003C2F21F
:1003D80000034FF41052C0F2F4021A6000BF4FF449
:1003E8006053C4F202039B6803F0F0034FEA131250
:1003F80040F20403C2F200039B5CDBB23B6140F2B3
:100408000003C2F200031A683B6922FA03F240F2C1
:100418000003C2F200031A6007F11C07BD4680BC46
:10042800704700BF80B483B000AF4FF000037B601B
:100438004FF000033B604FF46053C4F202034FF4E3
:100448006052C4F20202126842F480321A604FF419
:100458006053C4F202031B6803F400333B607B68FB
:1004680003F101037B603B68002B03D17B68B3F584
:10047800A06FECD14FF46053C4F202031B6803F47D
:100488000033002B03D04FF001033B6002E04FF034
:1004980000033B603B68012B40F082804FF46053BF
:1004A800C4F202034FF46052C4F20202126C42F02A
:1004B80080521A644FF4E043C4F200034FF4E04260
:1004C800C4F20002126842F480421A604FF460538A
:1004D800C4F202034FF46052C4F2020292689A60B6
:1004E8004FF46053C4F202034FF46052C4F20202A4
:1004F800926842F400429A604FF46053C4F20203D7
:100508004FF46052C4F20202926842F4A0529A6018
:100518004FF46053C4F2020345F20842C0F240723D
:100528005A604FF46053C4F202034FF46052C4F2AD
:100538000202126842F080721A6000BF4FF46053E2
:10054800C4F202031B6803F00073002BF6D04FF4CB
:100558007053C4F2020340F205621A604FF460530C
:10056800C4F202034FF46052C4F20202926822F00D
:1005780003029A604FF46053C4F202034FF46052CE
:10058800C4F20202926842F002029A6000BF4FF47D
:100598006053C4F202039B6803F00C03082BF6D1E6
:1005A8004FF46053C4F202034FF46052C4F20202E3
:1005B800926822F400029A604FF46053C4F2020376
:1005C8004FF44052C5F20002C3F884204FF4605340
:1005D800C4F202034FF46052C4F20202126842F0FD
:1005E80080621A6000BF4FF46053C4F202031B68B4
:1005F80003F00063002BF6D007F10C07BD4680BC62
:10060800704700BF80B500AF00F0A0F900F0DAF93C
:1006180000F0B4F900F032FC00F024FC00F04AFCD1
:10062800FEE700BF80B400AFBD4680BC704700BF86
:1006380080B500AF05F0D0FBFEE700BF80B400AF87
:10064800BD4680BC704700BF80B582B000AF7860FF
:10065800396005F0C1FBFEE780B485B000AFF860F3
:10066800B9607A604FF0FF33184607F11407BD46AA
:1006780080BC704780B584B000AFF860B9607A601C
:100688000DF08EF803464FF016021A604FF0FF3354
:10069800184607F11007BD4680BD00BF80B485B07D
:1006A80000AFF860B9607A604FF00003184607F1B0
:1006B8001407BD4680BC704780B586B000AFF860AF
:1006C800B9607A60BB68002B02D14FF0000322E0CA
:1006D8004FF000037B6119E000BF4FF49043C4F270
:1006E80000031B889BB203F04003002BF5D07B6905
:1006F800BA68D3181B784FF49040C4F2000019462A
:100708000CF06CFD7B6903F101037B617A697B68FE
:100718009A42E1DB7B68184607F11807BD4680BDA1
:1007280080B483B000AF78604FF00003184607F13B
:100738000C07BD4680BC704780B584B000AF7860B8
:1007480040F2A003C2F200031B68002B08D140F25C
:10075800A003C2F2000344F25C02C2F201021A6072
:1007680040F2A003C2F200031B68FB6040F2A00342
:10077800C2F200031A687B68D2186B469A4208D9FD
:100788000DF00EF803464FF00C021A604FF0FF33DD
:100798000CE040F2A003C2F200031A687B68D2188A
:1007A80040F2A003C2F200031A60FB68184607F182
:1007B8001007BD4680BD00BF80B582B000AF78602D
:1007C800396038684FF000014FF03C020DF062FCD0
:1007D8003B684FF400525A604FF00003184607F187
:1007E8000807BD4680BD00BF80B483B000AF786005
:1007F8004FF00103184607F10C07BD4680BC70474F
:1008080080B582B000AF786039600CF0C9FF03464C
:100818004FF016021A604FF0FF33184607F1080729
:10082800BD4680BD80B400AF4FF001031846BD46F9
:1008380080BC704780B483B000AF03463960FB7159
:1008480097F90730002B10DA4FF46D43CEF200030E
:10085800FA7902F00F02A2F104013A68D2B24FEA23
:100868000212D2B25B181A760DE04FF46143CEF251
:10087800000397F907103A68D2B24FEA0212D2B2CF
:100888005B1883F8002307F10C07BD4680BC70474E
:1008980080B582B000AF78607A686FF07F439A4283
:1008A80002D94FF001031FE04EF21003CEF200030D
:1008B8007A6822F07F4202F1FF325A604FF0FF302F
:1008C8004FF00F01FFF7B6FF4EF21003CEF2000310
:1008D8004FF000029A604EF21003CEF200034FF080
:1008E80007021A604FF00003184607F10807BD46D3
:1008F80080BD00BF80B400AF43F27033C2F2010381
:100908001B6803F1010243F27033C2F201031A605B
:10091800BD4680BC704700BF80B485B000AF78602A
:1009280043F27033C2F201031B68FB6000BF43F25D
:100938007033C2F201031A68FB68D21A7B689A42C4
:10094800F5D307F11407BD4680BC704780B500AFEA
:1009580040F20003C2F200031A6844F6D353C1F20E
:100968006203A3FB02134FEA93131846FFF790FFA5
:100978000346002B00D0FEE780BD00BF80B582B0E3
:1009880000AF4FF040004FF001010AF001F846F2C5
:10099800E0733B604FF001033B714FF00003BB7104
:1009A8004FF00003FB714FF000037B713B464FF49F
:1009B800C050C4F20200194609F072FA07F108079C
:1009C800BD4680BD80B58CB000AF4FF004004FF03D
:1009D80001010AF05BF84FF002004FF0010109F045
:1009E800D7FF4FF040037B624FF0020387F82830AF
:1009F8004FF0030387F829304FF0000387F82A30B7
:100A08004FF0010387F82B3007F124034FF480607F
:100A1800C4F20200194609F043FA4FF48060C4F2A8
:100A280002004FF006014FF0020209F0C7FB4FF435
:100A38008060C4F202004FF007014FF0020209F093
:100A4800BDFB4FF05403FB8544F61F63FB61FB8D30
:100A58003B834FF000033B844FF000037B8307F197
:100A680018034FF40060C4F2000019460AF0DCFBDA
:100A78004FF06003BB804FF00103FB804FF0000391
:100A8800FB604FF000033B8207F104034FF4006062
:100A9800C4F2000019460AF07DFD4FF40060C4F26C
:100AA80000004FF008010BF0C1F807F104034FF400
:100AB8000060C4F2000019460AF0EAFD4FF4006035
:100AC800C4F200004FF008010BF0CCF84FF40060BE
:100AD800C4F200004FF001010AF0E4FC4FF400609A
:100AE800C4F200004FF001010AF034FD07F13007AD
:100AF800BD4680BD80B500AF4FF4C050C4F20200BF
:100B08004FF4804109F006FB4FF00200FFF704FFA5
:100B18004FF4C050C4F202004FF4005109F008FB32
:100B28004FF00200FFF7F8FE4FF4C050C4F2020085
:100B38004FF4806109F0EEFA4FF00200FFF7ECFE87
:100B48004FF4C050C4F202004FF4007109F0F0FAFB
:100B58004FF00200FFF7E0FE4FF4C050C4F202006D
:100B68004FF4804109F0E4FA4FF00200FFF7D4FE99
:100B78004FF4C050C4F202004FF4005109F0CAFA11
:100B88004FF00200FFF7C8FE4FF4C050C4F2020055
:100B98004FF4806109F0BEFA4FF00200FFF7BCFE87
:100BA8004FF4C050C4F202004FF4007109F0C0FACB
:100BB8004FF00200FFF7B0FE4FF4C050C4F202003D
:100BC8004FF4804109F0B4FA4FF00200FFF7A4FE99
:100BD8004FF4C050C4F202004FF4005109F09AFAE1
:100BE8004FF00200FFF798FE4FF4C050C4F2020025
:100BF8004FF4806109F09CFA4FF00200FFF78CFE79
:100C08004FF4C050C4F202004FF4007109F082FAA8
:100C18004FF00200FFF780FE4FF4C050C4F202000C
:100C28004FF4804109F076FA4FF00200FFF774FEA6
:100C38004FF4C050C4F202004FF4005109F078FAA2
:100C48004FF00200FFF768FE4FF4C050C4F20200F4
:100C58004FF4806109F06CFA4FF00200FFF75CFE78
:100C68004FF4C050C4F202004FF4007109F052FA78
:100C78004FF00200FFF750FE80BD00BF80B500AF07
:100C88004FF4C050C4F202004FF4007109F042FA68
:100C98004FF00200FFF740FE4FF4C050C4F20200CC
:100CA8004FF4806109F044FA4FF00200FFF734FE78
:100CB8004FF4C050C4F202004FF4005109F02AFA70
:100CC8004FF00200FFF728FE4FF4C050C4F20200B4
:100CD8004FF4804109F02CFA4FF00200FFF71CFE98
:100CE8004FF4C050C4F202004FF4007109F020FA2A
:100CF8004FF00200FFF710FE4FF4C050C4F202009C
:100D08004FF4806109F006FA4FF00200FFF704FE85
:100D18004FF4C050C4F202004FF4005109F0FAF940
:100D28004FF00200FFF7F8FD4FF4C050C4F2020084
:100D38004FF4804109F0FCF94FF00200FFF7ECFD99
:100D48004FF4C050C4F202004FF4007109F0F0F9FA
:100D58004FF00200FFF7E0FD4FF4C050C4F202006C
:100D68004FF4806109F0D6F94FF00200FFF7D4FD87
:100D78004FF4C050C4F202004FF4005109F0D8F902
:100D88004FF00200FFF7C8FD4FF4C050C4F2020054
:100D98004FF4804109F0BEF94FF00200FFF7BCFDA7
:100DA8004FF4C050C4F202004FF4007109F0B2F9D8
:100DB8004FF00200FFF7B0FD4FF4C050C4F202003C
:100DC8004FF4806109F0B4F94FF00200FFF7A4FD79
:100DD8004FF4C050C4F202004FF4005109F0A8F9D2
:100DE8004FF00200FFF798FD4FF4C050C4F2020024
:100DF8004FF4804109F08EF94FF00200FFF78CFDA7
:100E080080BD00BF80B586B000AF78604FF00003AA
:100E1800FB607B68002B0EDB4FF000037B6105E075
:100E2800FFF72CFF7B6903F101037B617A697B681B
:100E38009A42F5DB11E07B68C3F100037B604FF059
:100E480000033B6105E0FFF755FE3B6903F1010331
:100E58003B613A697B689A42F5DB07F11807BD46A2
:100E680080BD00BF80B500AF6FF04000FFF7CAFF3C
:100E78004FF4FA70FFF750FD80BD00BF80B500AF9A
:100E88004FF40063C4F2000340F2A4625A634FF4C3
:100E9800FA70FFF741FD80BD80B500AF4FF40063E5
:100EA800C4F200034FF461725A634FF4FA70FFF70B
:100EB80033FD80BD80B500AFFFF7E0FF4FF02100A4
:100EC800FFF7A0FFFFF7E8FF4FF00400FFF79AFFD6
:100ED8004FF00400FFF796FF4FF00400FFF792FF72
:100EE8004FF00400FFF78EFF4FF00400FFF78AFF72
:100EF8004FF00400FFF786FF4FF00300FFF782FF73
:100F0800FFF7BCFF6FF00800FFF77CFFFFF7C4FF97
:100F18004FF0C000FFF700FD4FF0FF30FFF772FF02
:100F28004FF00000FFF7F8FC6FF00300FFF76AFFCF
:100F38004FF00000FFF7F0FC6FF00300FFF762FFCF
:100F48006FF00300FFF75EFF6FF00300FFF75AFF33
:100F58006FF00100FFF756FF4FF00100FFF752FF57
:100F68006FF00100FFF74EFF6FF00200FFF74AFF36
:100F78004FF00000FFF7D0FC6FF00100FFF742FFD1
:100F88004FF04000FFF7C8FC4FF0FF30FFF73AFF83
:100F98004FF06000FFF7C0FC4FF00100FFF732FF91
:100FA8004FF06000FFF7B8FC4FF00200FFF72AFF90
:100FB8004FF04000FFF7B0FC4FF00400FFF722FFAE
:100FC8004FF00400FFF71EFF4FF00400FFF71AFF71
:100FD8004FF00400FFF716FF4FF00000FFF712FF75
:100FE8004FF02000FFF798FC4FF00100FFF70AFFD1
:100FF8004FF02000FFF790FC4FF00000FFF702FFD2
:101008004FF02000FFF788FC4FF0FF30FFF7FAFEA3
:101018004FF06000FFF780FC6FF00200FFF7F2FE70
:101028004FF00000FFF778FC4FF00000FFF7EAFEF2
:101038004FF08000FFF770FC4FF00000FFF7E2FE72
:101048004FF08000FFF768FC6FF00200FFF7DAFE50
:101058004FF02000FFF760FC6FF00300FFF7D2FEAF
:101068006FF00300FFF7CEFE6FF00100FFF7CAFE36
:101078004FF04000FFF750FC4FF00100FFF7C2FEB1
:101088004FF06000FFF748FC4FF00300FFF7BAFE8F
:101098004FF02000FFF740FC4FF00100FFF7B2FED1
:1010A8004FF00000FFF738FC4FF00100FFF7AAFEF1
:1010B8004FF00100FFF7A6FE4FF00000FFF72CFCF1
:1010C8004FF00400FFF79EFE4FF00400FFF79AFE72
:1010D8004FF00400FFF796FE4FF00100FFF792FE75
:1010E8004FF00000FFF718FC4FF00100FFF78AFEF1
:1010F8004FF02000FFF710FC4FF00000FFF782FED2
:101108004FF00000FFF708FC4FF00100FFF77AFEF0
:101118004FF04000FFF700FC4FF00000FFF772FEB1
:101128004FF02000FFF7F8FBFFF7A8FE4FF0040090
:10113800FFF768FEFFF7B0FE4FF06000FFF7ECFB2B
:101148004FF00000FFF75EFE4FF00000FFF7E4FBF2
:101158004FF00000FFF756FE4FF08000FFF7DCFB72
:101168004FF0FF30FFF74EFE4FF06000FFF7D4FB63
:101178004FF0FF30FFF746FE4FF02000FFF7CCFBA3
:101188004FF00000FFF73EFE4FF00000FFF7C4FBF2
:10119800FFF774FE4FF0FF30FFF734FEFFF77CFED9
:1011A8004FF48070FFF7B8FB4FF00000FFF72AFEFE
:1011B8004FF06000FFF7B0FBFFF760FE4FF0020052
:1011C800FFF720FEFFF768FE4FF0E000FFF7A4FBF3
:1011D8004FF00000FFF716FE4FF04000FFF79CFBB2
:1011E8006FF00200FFF70EFE4FF00000FFF70AFE57
:1011F8004FF02000FFF790FB6FF00100FFF702FEB1
:101208004FF02000FFF788FB4FF00100FFF7FAFDD1
:101218004FF00000FFF780FB4FF00300FFF7F2FDEF
:101228004FF00000FFF7EEFD4FF00000FFF774FBF2
:101238006FF00100FFF7E6FD4FF02000FFF76CFBB1
:101248004FF00100FFF7DEFD4FF00000FFF764FBF1
:101258006FF00300FFF7D6FD4FF00000FFF75CFBCF
:101268004FF0FF30FFF7CEFD4FF00000FFF754FBC3
:101278006FF00100FFF7C6FD4FF00000FFF7C2FD59
:101288004FF00000FFF748FB6FF00300FFF7BAFDCF
:101298004FF00200FFF7B6FD6FF00100FFF7B2FD57
:1012A8004FF02000FFF738FB6FF00100FFF7AAFDB1
:1012B8006FF00300FFF7A6FD6FF00300FFF7A2FD34
:1012C8006FF00300FFF79EFD6FF00300FFF79AFD34
:1012D8006FF00100FFF796FD4FF04000FFF71CFB91
:1012E8004FF0FF30FFF78EFD4FF06000FFF714FB63
:1012F8004FF00000FFF786FD4FF08000FFF70CFB72
:101308004FF00000FFF77EFD4FF08000FFF704FB71
:101318004FF00200FFF776FD4FF04000FFF7FCFAB0
:101328004FF00300FFF76EFD4FF02000FFF7F4FACF
:101338004FF00400FFF766FD4FF00400FFF762FD71
:101348004FF00400FFF75EFD4FF00400FFF75AFD71
:101358004FF00400FFF756FD4FF00400FFF752FD71
:101368004FF00400FFF74EFD4FF00400FFF74AFD71
:101378004FF00400FFF746FD4FF00200FFF742FD73
:101388004FF04000FFF7C8FAFFF778FD6FF01F0035
:10139800FFF738FDFFF780FD4FF00200FFF732FD41
:1013A8006FF00200FFF72EFD6FF00100FFF72AFD36
:1013B8004FF0FF30FFF726FD4FF00000FFF7ACFAC3
:1013C8006FF00300FFF71EFD6FF00200FFF71AFD34
:1013D8004FF02000FFF7A0FA6FF00100FFF712FDB1
:1013E8004FF04000FFF798FA6FF00100FFF70AFD91
:1013F8004FF04000FFF790FA4FF0FF30FFF702FD83
:101408004FF06000FFF788FA6FF00100FFF7FAFC71
:101418004FF04000FFF780FA4FF0FF30FFF7F2FC83
:101428004FF06000FFF778FA4FF0FF30FFF7EAFC63
:101438004FF06000FFF770FA6FF00100FFF7E2FC71
:101448004FF04000FFF768FA4FF00100FFF7DAFCB1
:101458004FF06000FFF760FA4FF00400FFF7D2FC8E
:101468004FF00400FFF7CEFC4FF00400FFF7CAFC72
:101478004FF00400FFF7C6FC4FF00400FFF7C2FC72
:101488004FF00400FFF7BEFC4FF00300FFF7BAFC73
:10149800FFF7F4FC4FF00600FFF7B4FCFFF7FCFC85
:1014A8004FF00000FFF7AEFC4FF00000FFF734FAF2
:1014B8004FF00200FFF7A6FC4FF00000FFF7A2FC78
:1014C8004FF00000FFF728FAFFF7D8FC6FF015007F
:1014D800FFF798FCFFF7E0FC4FF0FF30FFF792FCB6
:1014E8006FF00200FFF78EFC4FF02000FFF714FAB0
:1014F8006FF00100FFF786FC4FF04000FFF70CFA91
:101508006FF00100FFF77EFC4FF0FF30FFF77AFC29
:101518004FF06000FFF700FA4FF0FF30FFF772FC62
:101528004FF06000FFF7F8F94FF00300FFF76AFC8F
:101538004FF00400FFF766FC4FF00200FFF762FC73
:10154800FFF79CFC80BD00BF80B586B000AF4FF0B0
:1015580000037B614EF6CC50C0F600004EF6D85121
:10156800C0F600010CF0AAFB38613B69002B37D0AC
:101578002BE03B4618464EF6DC51C0F600010CF055
:10158800AFFEF860F8680CF007F9014642F63863D8
:10159800C2F201037A6943F822104FF000004EF6B8
:1015A800E051C0F600010CF09BFEF860F8680CF002
:1015B800F3F8014643F2D403C2F201037A6943F80F
:1015C80022107B6903F101037B613B4618464FF00B
:1015D8000A013A690CF066FA0346002BC9D105E006
:1015E8004EF6E450C0F600000CF06EFD38690CF0C1
:1015F80033F907F11807BD4680BD00BF90B583B029
:1016080000AF4FF000037B6031E043F2D403C2F235
:1016180001037A6853F822301846FFF7F3FB42F6C5
:101628003860C2F201000CF0B3F8044643F2D4006B
:10163800C2F201000CF0ACF803469C4213DB42F600
:101648003860C2F201000CF0A3F8044643F2D4005B
:10165800C2F201000CF09CF80346E31A4FEA431368
:101668001846FFF759F97B6803F101037B607B6833
:10167800A62BCADD07F10C07BD4690BD80B582B028
:1016880000AF4FF00003FB714FF000004FF4806192
:1016980002F0B6FE0346FB71FB79002B07D0FB79FD
:1016A8004EF6F850C0F6000019460CF00DFDFB7917
:1016B800002B35D14EF61060C0F600000CF004FD8A
:1016C80043F67410C2F201004FF000014FF40072AB
:1016D8004FF0020302F016F80346FB71FB79002B6A
:1016E80005D04EF64060C0F600000CF0EDFC02F0AC
:1016F800D5F90346FB71FB79002B05D04EF65C60EB
:10170800C0F600000CF0E0FC00BF00F063FE0346EA
:10171800002BFAD14EF67C60C0F600000CF0D4FC29
:10172800FB79002B0ED143F67410C2F201004FF47E
:10173800806100F035F903461A4640F2A403C2F26C
:1017480000031A7040F2A403C2F200031B78DBB254
:10175800012B05D14EF69060C0F600000CF0B4FCE9
:1017680007F10807BD4680BD80B582B000AF43F6DB
:101778007450C2F201004FF4007143F20F2200F0DE
:10178800BFF843F67450C2F201004FF000014FF465
:10179800007202F0F3F90346FB7102F071FD034693
:1017A800FB7100BF00F016FE0346002BFAD1FB794F
:1017B800002B15D143F27470C2F201004FF0000102
:1017C8004FF4007201F0C0FE0346FB7102F066F9A7
:1017D8000346FB7100BF00F0FDFD0346002BFAD164
:1017E800FB79002B12D143F67450C2F2010043F288
:1017F8007471C2F201014FF4007200F0A5F80346BB
:101808001A4640F2A503C2F200031A7040F2A5037B
:10181800C2F200031B78DBB2012B05D14EF6A8609B
:10182800C0F600000CF050FC07F10807BD4680BD6B
:1018380080B582B000AF43F27430C2F201004FF4B9
:1018480080614FF0000200F05BF843F27430C2F29E
:1018580001004FF000014FF400724FF0020302F054
:10186800BDFB0346FB7102F00BFD0346FB7100BF95
:1018780000F0B0FD0346002BFAD1FB79002B17D1FD
:1018880043F67410C2F201004FF000014FF40072E9
:101898004FF0020302F01CF80346FB7102F0FEF859
:1018A8000346FB7100BF00F095FD0346002BFAD1FB
:1018B800FB79002B12D143F27430C2F2010043F6D7
:1018C8007411C2F201014FF4806200F03DF8034642
:1018D8001A4640F2A603C2F200031A7040F2A603A9
:1018E800C2F200031B78DBB2012B05D14EF6C860AB
:1018F800C0F600000CF0E8FB07F10807BD4680BD04
:1019080080B487B000AFF860B9607A604FF0000328
:10191800FB824FF00003FB820DE0FB8AFA68D318C4
:10192800FA8AD1B27A68D2B28A18D2B21A70FB8A0D
:1019380003F10103FB82FA8ABB689A42EDD307F1EF
:101948001C07BD4680BC704780B485B000AFF86006
:10195800B9607A6010E0FB681A78BB681B789A4215
:1019680002D04FF0000315E0FB6803F10103FB60B0
:10197800BB6803F10103BB607B68002B0CBF00232D
:101988000123DBB27A6802F1FF327A60002BE2D1E0
:101998004FF00103184607F11407BD4680BC704795
:1019A80080B483B000AF786039600EE07B681B7844
:1019B800FF2B06D07B681B78002B02D04FF000036A
:1019C80011E07B6803F101037B603B68002B0CBFCF
:1019D80000230123DBB23A6802F1FF323A60002BA0
:1019E800E4D14FF00103184607F10C07BD4680BC4F
:1019F800704700BF80B582B000AF00F09BF800F0E0
:101A08006FFC0346FB714EF6EC60C0F600000CF06C
:101A18005BFBFB79002B06D14EF60470C0F6000084
:101A28000CF052FB0DE04EF61870C0F600000CF0FA
:101A38004BFBFB794EF62870C0F6000019460CF0F7
:101A480043FB43F69073C2F2010393F856304EF607
:101A58003870C0F6000019460CF036FB43F6907358
:101A6800C2F20103D3E912234EF64870C0F6000013
:101A78000CF02AFB43F69073C2F201031B6D4EF67D
:101A88005C70C0F6000019460CF01EFB43F690731C
:101A9800C2F2010393F82C30DBB24EF67070C0F638
:101AA800000019460CF010FB43F69073C2F20103D4
:101AB800B3F854304EF68470C0F6000019460CF0A6
:101AC80003FB29E040F21403C2F200031B68012B58
:101AD80004D0012B0CD3022B14D01DE0FFF744FED9
:101AE80040F21403C2F200034FF000021A6013E040
:101AF800FFF7C4FD40F21403C2F200034FF00202E4
:101B08001A6009E0FFF794FE40F21403C2F20003E2
:101B18004FF003021A6000BFFB79002B06D140F298
:101B28001403C2F200031B68032BCBD107F108078B
:101B3800BD4680BD80B582B000AF4FF4407007F05D
:101B48004FF94FF031033B714FF000037B714FF0B9
:101B58000003BB714FF00103FB7107F10403184642
:101B680007F052F94FF03B033B714FF001037B71D3
:101B780007F10403184607F047F907F10807BD46BF
:101B880080BD00BF80B500AF02F03AFF80BD00BF46
:101B980080B500AF02F0BCFF80BD00BF80B584B047
:101BA80000AF3B46184608F0A3FD3B684EF6907020
:101BB800C0F6000019460CF087FA7B684EF6A07054
:101BC800C0F6000019460CF07FFABB684EF6AC7000
:101BD800C0F6000019460CF077FAFB684EF6BC70A8
:101BE800C0F6000019460CF06FFA07F11007BD4661
:101BF80080BD00BF80B586B000AF786039604FF017
:101C080000037B614FF000033B614FF00003FB8151
:101C18003B681B787B734FF000037B615FE04FF0FC
:101C28000A000CF069FA7B694FEA03127B68D31843
:101C38004EF6CC70C0F6000019460CF045FA4FF08D
:101C480000033B6114E0FB893A68D3181B787B7367
:101C5800FB8903F10103FB817B7B4EF6D870C0F64C
:101C6800000019460CF030FA3B6903F101033B61AF
:101C78003B690F2BE7D94EF6E070C0F600000CF078
:101C880023FAFB89A3F11003FB814FF000033B61AA
:101C980018E0FB893A68D3181B787B73FB8903F13A
:101CA8000103FB817B7B202B04D97B7B18460CF03E
:101CB80023FA03E04FF02E000CF01EFA3B6903F103
:101CC80001033B613B690F2BE3D94EF6E470C0F684
:101CD80000000CF0F9F97B6903F101037B617B6972
:101CE8001F2B9CD907F11807BD4680BD80B5ADF5FF
:101CF800047D00AF07F1040318604FF00003C7F834
:101D08000C3235E007F108031846D7F80C124FF4E7
:101D180000724FF0010301F0F5FC034687F80B321F
:101D280097F80B32002B04D097F80B32184600F0C6
:101D380035F800BF00F04EFB0346002BFAD1D7F868
:101D48000C324FEA432207F1080310461946FFF701
:101D580051FFD7F80C32D7F80C2202F10102C7F86C
:101D68000C224EF6E870C0F6000019460CF0ACF9EB
:101D780007F104031B68002B0CBF00230123DBB20F
:101D880007F1040207F10401096801F1FF3111604C
:101D9800002BB7D107F50477BD4680BD80B5ACB040
:101DA80000AF0346FB714FF26833C0F6000307F13A
:101DB80008011A464FF0A803084611461A460CF0C7
:101DC80060F9FA79FB794FEA830307F1B001CB1880
:101DD80053F8A83C4EF6F870C0F6000011461A46B3
:101DE8000CF072F907F1B007BD4680BDB0B58CB0F4
:101DF80000AF0346FB714FF2D443C0F6000307F16E
:101E08000C041D460FCD0FC40FCD0FC42B682360E3
:101E1800FB79072B11D8FA79FB794FEA830307F18D
:101E28003001CB1853F8243C4FF21040C0F60000A4
:101E380011461A460CF048F909E0FA79FB6A4FF2A4
:101E48001040C0F6000011461A460CF03DF907F1A3
:101E58003007BD46B0BD00BFF0B58BB000AF4FF244
:101E68006873C0F6000307F104069E46BEE80F003B
:101E78000FC69EE80F0086E80F004FF2F840C0F644
:101E880000000CF021F943F69070C2F2010000F056
:101E980003FE034687F8273097F82730002B0DD02C
:101EA8004FF20850C0F600000CF00EF997F82730F2
:101EB8001846FFF773FF97F8273003E197F82730A4
:101EC800002B40F0FD8000F0A3FA03461846FFF708
:101ED8008DFF43F69073C2F201031B6D4FF2385029
:101EE800C0F6000019460CF0EFF843F69073C2F202
:101EF8000103D3E912234FF24C50C0F600000CF056
:101F0800E3F843F69073C2F20103D3E912234FEAD0
:101F180003314FEA12540C434FEA135523464FF24C
:101F28006450C0F6000019460CF0CEF843F69073E2
:101F3800C2F2010393F856304FEA830307F12802EF
:101F4800D31853F8243C4FF27050C0F600001946DD
:101F58000CF0BAF843F69073C2F20103B3F85430A8
:101F68004FF27C50C0F6000019460CF0ADF843F66D
:101F78009073C2F201035B79DBB24FF28850C0F66E
:101F8800000019460CF0A0F843F69073C2F2010362
:101F98001B694FF2A450C0F6000019460CF094F8E3
:101FA80043F69073C2F201031B7EDBB24FF2BC50C2
:101FB800C0F6000019460CF087F843F69073C2F299
:101FC80001031B7ADBB24FF2D850C0F60000194665
:101FD8000CF07AF843F69073C2F20103DB7FDBB2B0
:101FE8004FF2F050C0F6000019460CF06DF84FF2B1
:101FF8000C60C0F600000CF067F843F69073C2F26C
:10200800010393F82C30DBB24FF21460C0F60000E5
:1020180019460CF059F843F69073C2F201031B6B92
:102028004FF22C60C0F6000019460CF04DF843F64C
:102038009073C2F2010393F83430DBB24FF2406080
:10204800C0F6000019460CF03FF843F69073C2F250
:10205800010393F83530DBB24FF25460C0F600004C
:1020680019460CF031F843F69073C2F201039B6BEA
:102078004FF26460C0F6000019460CF025F843F6EC
:102088009073C2F20103DB8F9BB24FF27460C0F60B
:10209800000019460CF018F843F69073C2F20103D9
:1020A80093F84030DBB24FF28C60C0F6000019465E
:1020B8000CF00AF800F0ACF903461846FFF796FE54
:1020C8004FF00003184607F12C07BD46F0BD00BFCE
:1020D80080B586B000AF4FF28870C0F600000BF0F4
:1020E800F3FF07F10403184601F070F80346FB7587
:1020F800FB7D002B0BD04FF29870C0F600000BF060
:10210800E3FFFB7D1846FFF749FEFB7D5DE0FB7DA5
:10211800002B58D13B79DBB24FF2CC70C0F60000EF
:1021280019460BF0D1FF7B79DBB24FF2E470C0F6B1
:10213800000019460BF0C8FFFB889BB24FF2FC70F9
:10214800C0F6000019460BF0BFFFBB684FF614003D
:10215800C0F6000019460BF0B7FF3B7BDBB24FF629
:102168003400C0F6000019460BF0AEFF7B7BDBB2F3
:102178004FF64800C0F6000019460BF0A5FFBB7BE0
:10218800DBB24FF66400C0F6000019460BF09CFF66
:102198003B8A9BB24FF67400C0F6000019460BF05C
:1021A80093FFBB7CDBB24FF68800C0F600001946EF
:1021B8000BF08AFFFB7CDBB24FF6A000C0F60000F4
:1021C80019460BF081FF4FF00003184607F1180776
:1021D800BD4680BD80B582B000AF4FF6B800C0F6EE
:1021E80000000BF071FFFFF7D9FC40F21803C2F2B0
:1021F80000031B684FF6D000C0F6000019460BF02C
:1022080063FF40F21803C2F200031A6848F6890314
:10221800C8F68803A3FB02134FEA93134FF608107E
:10222800C0F6000019460BF04FFF40F21803C2F247
:1022380000031B684FEA93034FF64410C0F60000F2
:1022480019460BF041FF4FF68810C0F600000BF05E
:102258003BFF00F045F80346FB71FB79002B09D0E2
:102268004FF69810C0F600000BF02EFFFB791846C9
:10227800FFF794FDFFF7F0FDFFF72AFF4FF6C410B4
:10228800C0F600000BF020FF43F69070C2F2010088
:1022980000F002FC0346FB71FB79002B09D04FF2DA
:1022A8000850C0F600000BF00FFFFB791846FFF747
:1022B80075FD43F69073C2F201031B694FF6E010F7
:1022C800C0F6000019460BF0FFFE07F10807BD46EF
:1022D80080BD00BF80B500AF03F068FA80BD00BFC5
:1022E80080B582B000AF4FF00003FB7103F0D8FA5D
:1022F80007F066FA00F0C0F80346FB71FB79DBB221
:10230800002B02D0FB79DBB25FE000F08BFA0346CA
:10231800FB71FB79DBB2002B02D0FB79DBB254E016
:1023280043F6E873C2F201034FF002021A7543F64E
:10233800E873C2F201034FF000021A6043F6E87333
:10234800C2F201034FF000025A6043F6E873C2F28A
:1023580001034FF000029A6043F6E873C2F20103EA
:102368004FF00002DA6043F6E873C2F201034FF05F
:1023780000021A6143F6E870C2F2010007F030FA71
:1023880043F69070C2F2010000F086FB0346FB7131
:10239800FB79DBB2002B0CD143F69073C2F2010338
:1023A800B3F854304FEA0343184601F091F8034656
:1023B800FB71FB79DBB2002B05D14FF4006000F014
:1023C800D9FF0346FB71FB79DBB2184607F1080712
:1023D800BD4680BD80B582B000AF4FF00403FB71ED
:1023E80000F016F80346FB71FB79042B02D14FF07D
:1023F800000307E0FB79FF2B02D14FF0020301E055
:102408004FF00103184607F10807BD4680BD00BF1D
:1024180080B582B000AF4FF000037B6000F01EF87B
:102428000346012B12D107F10403184602F018F9EC
:102438000346002B02D04FF0FF0309E07B684FEA08
:102448005323DBB203F00F03DBB201E04FF0FF03CD
:10245800184607F10807BD4680BD00BF80B483B0A9
:1024680000AF4FF00103FB71FB79DBB2184607F1AF
:102478000C07BD4680BC704780B586B000AF4FF0F2
:102488000003FB714FF000037B614FF000033B61D9
:102498004FF00003FB604FF00003BB6043F6E873A6
:1024A800C2F201034FF076021A7543F6E873C2F2DE
:1024B80001034FF000021A6043F6E873C2F2010309
:1024C8004FF000025A6043F6E873C2F201034FF07E
:1024D80000029A6043F6E873C2F201034FF000026B
:1024E800DA6043F6E873C2F201034FF000021A61A2
:1024F80043F6E870C2F2010007F072F94FF00300EA
:1025080007F0D4F94FF0010007F0C0F943F67873EB
:10251800C2F201034FF000021A6043F67873C2F268
:1025280001034FF000025A6043F67873C2F20103C8
:102538004FF000029A6043F67873C2F201034FF03D
:102548000002DA6043F67873C2F201034FF4806246
:102558001A6143F67870C2F2010007F0C5F902F07B
:10256800F3FA0346FB71FB79DBB2002B02D0FB794F
:10257800DBB242E143F67873C2F201034FF4D5723D
:102588001A6043F67873C2F201034FF008025A60EA
:1025980043F67873C2F201034FF040029A6043F6A3
:1025A8007873C2F201034FF00002DA6043F67873E1
:1025B800C2F201034FF480621A6143F67870C2F2E6
:1025C800010007F091F902F0E9FA0346FB71FB7983
:1025D800DBB2002B0AD140F2A803C2F200034FF08D
:1025E80001021A604FF08043BB602EE043F6787317
:1025F800C2F201034FF000021A6043F67873C2F288
:1026080001034FF037025A6043F67873C2F20103B0
:102618004FF040029A6043F67873C2F201034FF01C
:102628000002DA6043F67873C2F201034FF4806265
:102638001A6143F67870C2F2010007F055F94FF0BD
:10264800370002F0F3FA0346FB7143F67873C2F2DF
:1026580001034FF000021A6043F67873C2F20103D7
:102668004FF037025A6043F67873C2F201034FF015
:1026780040029A6043F67873C2F201034FF00002F9
:10268800DA6043F67873C2F201034FF480621A618C
:1026980043F67870C2F2010007F026F94FF03700D0
:1026A80002F0C4FA0346FB71FB79DBB2002B40F061
:1026B800A2807EE043F67873C2F201034FF0000275
:1026C8001A6043F67873C2F201034FF037025A607A
:1026D80043F67873C2F201034FF040029A6043F662
:1026E8007873C2F201034FF00002DA6043F67873A0
:1026F800C2F201034FF480621A6143F67870C2F2A5
:10270800010007F0F1F84FF0370002F08FFA0346A6
:10271800FB71FB79DBB2002B02D0FB79DBB26CE0FA
:10272800BB6843F0004242F4801243F67873C2F269
:1027380001031A6043F67873C2F201034FF02902CD
:102748005A6043F67873C2F201034FF040029A6070
:1027580043F67873C2F201034FF00002DA6043F6E1
:102768007873C2F201034FF480621A6143F67870FD
:10277800C2F2010007F0B8F802F048FB0346FB710B
:10278800FB79DBB2002B02D0FB79DBB235E04FF0EE
:10279800000007F007F978617B694FEAD373012BD2
:1027A80014BF00230123DBB2FB603B6903F1010383
:1027B8003B61FB68002B05D13A694FF6FE739A42DC
:1027C8007FF678AF3A694FF6FE739A4205D94FF013
:1027D8001B03FB71FB79DBB20FE07B6903F08043DD
:1027E8007B617B69002B06D040F2A803C2F200038C
:1027F8004FF002021A60FB79DBB2184607F118079E
:10280800BD4680BD80B582B000AF4FF00003FB71BC
:102818004FF0000007F04AF8FB79184607F108075F
:10282800BD4680BD80B582B000AF4FF00003FB719C
:102838004FF00103BB8007F049F80346002B04D191
:102848004FF02503FB71FB7921E140F2A803C2F2A6
:1028580000031B68042B59D043F67873C2F20103B6
:102868004FF000021A6043F67873C2F201034FF08A
:1028780002025A6043F67873C2F201034FF0C002B5
:102888009A6043F67873C2F201034FF00002DA60EF
:1028980043F67873C2F201034FF480621A6143F67B
:1028A8007870C2F2010007F01FF802F0DFFA034661
:1028B800FB71FB79002B01D0FB79E8E04FF00000B9
:1028C80007F070F8024640F2BC03C2F200031A6037
:1028D8004FF0040007F066F8024640F2BC03C2F26B
:1028E80000035A604FF0080007F05CF8024640F217
:1028F800BC03C2F200039A604FF00C0007F052F8D4
:10290800024640F2BC03C2F20003DA6040F2A803B8
:10291800C2F200031B68002B14D040F2A803C2F2D5
:1029280000031B68012B0DD040F2A803C2F200037C
:102938001B68062B06D040F2A803C2F200031B68EE
:10294800022B36D143F67873C2F201034FF000022E
:102958001A6043F67873C2F201034FF003025A601B
:1029680043F67873C2F201034FF040029A6043F6CF
:102978007873C2F201034FF00002DA6043F678730D
:10298800C2F201034FF480621A6143F67870C2F212
:10299800010006F0A9FF07F104034FF003001946F0
:1029A80002F0A2FA0346FB71FB79002B01D0FB79F8
:1029B8006DE040F2A803C2F200031B68042B62D04A
:1029C800BB881A4640F2CC03C2F200031A60BB88E7
:1029D8004FEA03431A4643F67873C2F201031A60BA
:1029E80043F67873C2F201034FF009025A6043F6C6
:1029F8007873C2F201034FF0C0029A6043F678730D
:102A0800C2F201034FF00002DA6043F67873C2F2B3
:102A180001034FF480621A6143F67870C2F2010034
:102A280006F062FF02F022FA0346FB71FB79002BE5
:102A380001D0FB792BE04FF0000006F0B3FF02460F
:102A480040F2AC03C2F200031A604FF0040006F033
:102A5800A9FF024640F2AC03C2F200035A604FF0ED
:102A6800080006F09FFF024640F2AC03C2F20003E2
:102A78009A604FF00C0006F095FF024640F2AC0356
:102A8800C2F20003DA604FF00003FB71FB791846CD
:102A980007F10807BD4680BDB0B485B000AF7860C7
:102AA8004FF00001B9734FF00001F97340F2A8012B
:102AB800C2F200010968C8B2796881F8560040F28C
:102AC800CC01C2F20001096888B27968A1F8540003
:102AD80040F2AC01C2F2000109684FEA1161F973D2
:102AE800F97B4FEA9111C8B279680870F97B01F057
:102AF8003C014FEAA101C8B279684870F97B01F03E
:102B08000301C8B27968887040F2AC01C2F20001D2
:102B1800096801F47F014FEA1141F9737968F87B7C
:102B2800C87040F2AC01C2F20001096801F47F41AB
:102B38004FEA1121F9737968F87B087140F2AC010A
:102B4800C2F200010968F9737968F87B487140F2AC
:102B5800AC01C2F2000149684FEA1161F973F97BCF
:102B680089B24FEA011188B27968C88040F2AC0195
:102B7800C2F20001496801F47F014FEA1141F9737B
:102B88007968C98888B2F97B4FEA1111C9B2014343
:102B980088B27968C880F97B01F00F01C8B27968FA
:102BA800087240F2AC01C2F20001496801F47F41A9
:102BB8004FEA1121F973F97B4FEAD111C8B279684C
:102BC8004872F97B01F040014FEAA111C8B2796857
:102BD8008872F97B01F020014FEA6111C8B2796867
:102BE800C872F97B01F010014FEA2111C8B2796867
:102BF800087379684FF00000487340F2A801C2F2E8
:102C080000010968002907D040F2A801C2F20001BA
:102C18000968012940F0AF80FB7B03F003034FEA0A
:102C280083231A467B681A6140F2AC03C2F20003A0
:102C38005B68FB737B681A69FB7B4FEA83031A4363
:102C48007B681A6140F2AC03C2F200039B684FEA4A
:102C58001363FB737B681A69FB7B4FEA9313DBB240
:102C68001A437B681A61FB7B03F038034FEAE303DE
:102C7800DAB27B681A75FB7B03F00703DAB27B686C
:102C88005A7540F2AC03C2F200039B6803F47F0359
:102C98004FEA1343FB73FB7B4FEA5313DAB27B68AB
:102CA8009A75FB7B03F01C034FEAA303DAB27B6837
:102CB800DA75FB7B03F00303DBB24FEA4303DAB2B6
:102CC8007B681A7640F2AC03C2F200039B6803F4F7
:102CD8007F434FEA1323FB737B681B7EDAB2FB7BCF
:102CE8004FEAD313DBB21343DAB27B681A767B68F8
:102CF8001B6903F101010A464FF000037968C1E935
:102D080012237B68D3E912017B681B7EDBB203F1D7
:102D180002034FF0010202FA03F422464FEAE2737B
:102D280002FB01F500FB03F42C19A0FB0223E118B8
:102D38000B467968C1E912237B681B7ADBB24FF036
:102D4800010202FA03F31A467B681A657B68D3E925
:102D580012017B681C6D22464FF0000302FB01F54F
:102D680000FB03F42C19A0FB0223E1180B46796839
:102D7800C1E9122353E040F2A801C2F20001096838
:102D880002294CD140F2AC01C2F200014968F97342
:102D9800F97B01F03F014FEA014108467968086173
:102DA80040F2AC01C2F2000189684FEA1161F9737F
:102DB80079680869F97B4FEA012108437968086155
:102DC80040F2AC01C2F20001896801F47F014FEAC8
:102DD8001141F97379680869F97B084379680861D2
:102DE80040F2AC01C2F20001896801F47F414FEA68
:102DF8001121F9737968096901F1010420464FF03E
:102E080000014FEA50344FEAC14323434FEAC0421E
:102E18007968C1E912237B684FF400721A65FB7B5D
:102E280003F040034FEAA313DAB27B685A76FB7BC0
:102E380003F03F03DBB24FEA4303DAB27B689A76CA
:102E480040F2AC03C2F200039B68FB737B689B7E75
:102E5800DAB2FB7B4FEAD313DBB21343DAB27B68F7
:102E68009A76FB7B03F07F03DAB27B68DA7640F26E
:102E7800AC03C2F20003DB684FEA1363FB73FB7B0E
:102E88004FEAD313DAB27B681A77FB7B03F060034F
:102E98004FEA6313DAB27B685A77FB7B03F01C03B3
:102EA8004FEAA303DAB27B689A77FB7B03F003034C
:102EB800DBB24FEA8303DAB27B68DA7740F2AC031D
:102EC800C2F20003DB6803F47F034FEA1343FB738A
:102ED8007B68DB7FDAB2FB7B4FEA9313DBB21343E9
:102EE800DAB27B68DA77FB7B03F020034FEA6313DF
:102EF800DAB27B6883F820207B684FF0000283F801
:102F08002120FB7B03F00103DAB27B6883F82220DF
:102F180040F2AC03C2F20003DB6803F47F434FEADC
:102F28001323FB73FB7B4FEAD313DAB27B6883F876
:102F38002320FB7B03F040034FEAA313DAB27B683C
:102F480083F82420FB7B03F020034FEA6313DAB2F3
:102F58007B6883F82520FB7B03F010034FEA2313DB
:102F6800DAB27B6883F82620FB7B03F00C034FEA78
:102F7800A303DAB27B6883F82720FB7B03F0030303
:102F8800DAB27B6883F8282040F2AC03C2F200036F
:102F9800DB68FB73FB7B4FEA5303DAB27B6883F889
:102FA80029207B684FF0010283F82A2040F2BC03F5
:102FB800C2F200031B684FEA1363FB737B68FA7B5A
:102FC80083F82C2040F2BC03C2F200031B6803F410
:102FD8007F034FEA1343FB73FB7B9BB24FEA032348
:102FE8009AB27B68DA8540F2BC03C2F200031B6820
:102FF80003F47F434FEA1323FB737B68DB8D9AB29C
:10300800FB7B9BB213439AB27B68DA8540F2BC0320
:10301800C2F200031B68FB73FB7B4FEA03631A468B
:103028007B681A6340F2BC03C2F200035B684FEA94
:103038001363FB737B681A6BFB7B4FEA03431A43EA
:103048007B681A6340F2BC03C2F200035B6803F4B6
:103058007F034FEA1343FB737B681A6BFB7B4FEAD2
:1030680003231A437B681A6340F2BC03C2F20003CD
:103078005B6803F47F434FEA1323FB737B681A6B87
:10308800FB7B1A437B681A6340F2BC03C2F200035D
:103098005B68FB737B68FA7B83F8342040F2BC03DF
:1030A800C2F200039B684FEA1363FB737B68FA7BE9
:1030B80083F8352040F2BC03C2F200039B6803F496
:1030C8007F034FEA1343FB73FB7B4FEA03631A4604
:1030D8007B689A6340F2BC03C2F200039B6803F466
:1030E8007F434FEA1323FB737B689A6BFB7B4FEAA2
:1030F80003431A437B689A6340F2BC03C2F200039D
:103108009B68FB737B689A6BFB7B4FEA03231A432C
:103118007B689A6340F2BC03C2F20003DB684FEAA3
:103128001363FB737B689A6BFB7B1A437B689A6318
:1031380040F2BC03C2F20003DB6803F47F034FEAEA
:103148001343FB737B6893F83C30DAB2FB7B4FEA9E
:103158001313DBB21343DAB27B6883F83C20FB7BA2
:103168009BB203F00F039BB24FEA03239AB27B682A
:10317800DA8740F2BC03C2F20003DB6803F47F4342
:103188004FEA1323FB737B68DB8F9AB2FB7B9BB2FE
:1031980013439AB27B68DA8740F2BC03C2F2000399
:1031A800DB68FB73FB7B4FEA5303DAB27B6883F877
:1031B80040207B684FF0010283F84120BB7B184612
:1031C80007F11407BD46B0BC704700BF80B584B096
:1031D80000AF78604FF00003FB734FF00003BB7340
:1031E80040F2D000C2F2000001F090FA0346FB73EF
:1031F800FB7B002B01D0FB7BB7E040F2D003C2F28F
:1032080000031B784FEA9313BB737B68BA7B1A7071
:1032180040F2D003C2F200031B7803F020034FEA08
:103228006313BB737B68BA7B5A7040F2D003C2F257
:1032380000039B78BB73BB7B9BB24FEA03239AB214
:103248007B685A8040F2D003C2F20003DB78BB737C
:103258007B685B889AB2BB7B9BB213439AB27B684C
:103268005A8040F2D003C2F200031B79BB73BB7BC8
:103278004FEA03631A467B685A6040F2D003C2F2F1
:1032880000035B79BB737B685A68BB7B4FEA0343D7
:103298001A437B685A6040F2D003C2F200039B795C
:1032A800BB737B685A68BB7B4FEA03231A437B686E
:1032B8005A6040F2D003C2F20003DB79BB737B682B
:1032C8005A68BB7B1A437B685A6040F2D003C2F24B
:1032D80000031B7ABB737B68BA7B1A7240F2D00377
:1032E800C2F200035B7ABB737B68BA7B5A7240F206
:1032F800D003C2F200039B7A4FEA1313BB737B68B7
:10330800BA7B9A7240F2D003C2F20003DB7ABB7335
:10331800BB7B9BB24FEA03239AB27B689A8140F247
:10332800D003C2F200031B7BBB737B689B899AB2F4
:10333800BB7B9BB213439AB27B689A8140F2D0035D
:10334800C2F200035B7B4FEA9303BB737B68BA7BD3
:103358009A7340F2D003C2F200035B7B03F00303CD
:10336800BB737B68BA7BDA73FB7B184607F11007DF
:10337800BD4680BD80B584B000AF78604FF00003D3
:10338800FB7340F2A803C2F200031B68032B04D1AD
:103398004FF02703FB73FB7B95E040F2A803C2F2D2
:1033A80000031B68002B0DD040F2A803C2F20003F3
:1033B8001B68012B06D040F2A803C2F200031B6869
:1033C800022B7FD17B68B3F5805F04D14FF02703D0
:1033D800FB73FB7B77E07B68B3F5006F39D14FF067
:1033E800010001F0F7FD0346FB73FB7B002B69D15D
:1033F80043F6E873C2F201034FF002021A7543F66E
:10340800E873C2F201034FF000021A6043F6E87352
:10341800C2F201034FF000025A6043F6E873C2F2A9
:1034280001034FF000029A6043F6E873C2F2010309
:103438004FF40062DA6043F6E873C2F201034FF01A
:1034480000021A6143F6E870C2F2010006F0C8F9FA
:1034580038E04FF0000001F0BDFD0346FB73FB7B35
:10346800002B2FD143F6E873C2F201034FF002029A
:103478001A7543F6E873C2F201034FF000021A60AE
:1034880043F6E873C2F201034FF000025A6043F6B4
:10349800E873C2F201034FF000029A6043F6E87342
:1034A800C2F201034FF00002DA6043F6E873C2F299
:1034B80001034FF000021A6143F6E870C2F20100FE
:1034C80006F08EF9FB7B184607F11007BD4680BD54
:1034D80080B584B000AF78604FF00003FB7343F60B
:1034E8007873C2F201037A681A6043F67873C2F2FD
:1034F80001034FF007025A6043F67873C2F20103E2
:103508004FF040029A6043F67873C2F201034FF01D
:103518000002DA6043F67873C2F201034FF4806266
:103528001A6143F67870C2F2010006F0DDF94FF037
:10353800070001F07BFB0346FB73FB7B184607F192
:103548001007BD4680BD00BF80B586B000AFF860EB
:10355800B9601346FB804FF00003FB7540F2E403AB
:10356800C2F200034FF000021A7040F2E803C2F200
:1035780000034FF000021A6040F2E003C2F20003B9
:103588004FF000021A604FF43053C4F201034FF0B9
:103598000002DA6240F2A803C2F200031B68022BA1
:1035A80006D14FF40073FB80BB684FEA5323BB601E
:1035B800FA8843F67873C2F201031A6043F6787307
:1035C800C2F201034FF010025A6043F67873C2F258
:1035D80001034FF040029A6043F67873C2F2010388
:1035E8004FF00002DA6043F67873C2F201034FF439
:1035F80080621A6143F67870C2F2010006F074F92D
:103608004FF0100001F012FB0346FB75FB7D002B09
:1036180001D0FB7D71E044F20003C2F201034FF0D8
:10362800FF321A60FA8844F20003C2F201035A60BA
:1036380044F20003C2F201034FF090029A6044F290
:103648000003C2F201034FF00202DA6044F2000301
:10365800C2F201034FF000021A6144F20003C2F201
:1036680001034FF001025A6144F20000C2F2010066
:1036780006F0AEF943F67873C2F20103BA681A602D
:1036880043F67873C2F201034FF011025A6043F611
:103698007873C2F201034FF040029A6043F67873E0
:1036A800C2F201034FF00002DA6043F67873C2F207
:1036B80001034FF480621A6143F67870C2F2010088
:1036C80006F012F94FF0110001F0B0FA0346FB754D
:1036D800FB7D002B01D0FB7D0FE040F22A304FF03C
:1036E800010106F09BFA4FF0010006F087FAFB880B
:1036F800F868194602F0DAF9FB7D184607F1180751
:10370800BD4680BD80B586B000AFF860B9603B604B
:103718001346FB804FF00003FB7540F2E403C2F24E
:1037280000034FF000021A7040F2E803C2F20003EF
:103738004FF000021A6040F2E003C2F200034FF0BB
:1037480001021A604FF43053C4F201034FF0000233
:10375800DA6240F2A803C2F200031B68022B06D10A
:103768004FF40073FB80BB684FEA5323BB60FA88B1
:1037780043F67873C2F201031A6043F67873C2F213
:1037880001034FF010025A6043F67873C2F2010346
:103798004FF040029A6043F67873C2F201034FF08B
:1037A8000002DA6043F67873C2F201034FF48062D4
:1037B8001A6143F67870C2F2010006F095F84FF0EE
:1037C800100001F033FA0346FB75FB7D002B01D096
:1037D800FB7D77E044F20003C2F201034FF0FF32B1
:1037E8001A60FB883A6802FB03F244F20003C2F253
:1037F80001035A6044F20003C2F201034FF0900241
:103808009A6044F20003C2F201034FF00202DA6048
:1038180044F20003C2F201034FF000021A6144F2BD
:103828000003C2F201034FF001025A6144F20000A2
:10383800C2F2010006F0CCF843F67873C2F2010335
:10384800BA681A6043F67873C2F201034FF01202A5
:103858005A6043F67873C2F201034FF040029A604F
:1038680043F67873C2F201034FF00002DA6043F6C0
:103878007873C2F201034FF480621A6143F67870DC
:10388800C2F2010006F030F84FF0120001F0CEF954
:103898000346FB75FB7D002B01D0FB7D12E040F257
:1038A8002A304FF0010106F0B9F94FF0010006F097
:1038B800A5F9FB883A6802FB03F3F868194602F099
:1038C800F5F8FB7D184607F11807BD4680BD00BF17
:1038D80080B586B000AFF860B9607A603B604FF0A1
:1038E8000003FB7540F2E403C2F200034FF000024C
:1038F8001A7040F2E803C2F200034FF000021A60A7
:1039080040F2E003C2F200034FF001021A604FF4E4
:103918003053C4F201034FF00002DA6240F2A80308
:10392800C2F200031B68022B03D14FF400737B60C3
:1039380004E0BB687A6802FB03F3BB6043F6787364
:10394800C2F201037A681A6043F67873C2F201037F
:103958004FF010025A6043F67873C2F201034FF039
:1039680040029A6043F67873C2F201034FF00002F6
:10397800DA6043F67873C2F201034FF480621A6189
:1039880043F67870C2F2010005F0AEFF4FF0100068
:1039980001F04CF90346FB75FB7D002B01D0FB7D44
:1039A80077E044F20003C2F201034FF0FF321A60DD
:1039B8003B687A6802FB03F244F20003C2F2010397
:1039C8005A6044F20003C2F201034FF090029A6079
:1039D80044F20003C2F201034FF00202DA6044F23B
:1039E8000003C2F201034FF000021A6144F200031F
:1039F800C2F201034FF001025A6144F20000C2F220
:103A0800010005F0E5FF43F67873C2F20103BA68D6
:103A18001A6043F67873C2F201034FF012025A603B
:103A280043F67873C2F201034FF040029A6043F6FE
:103A38007873C2F201034FF00002DA6043F678733C
:103A4800C2F201034FF480621A6143F67870C2F241
:103A5800010005F049FF4FF0120001F0E7F80346B6
:103A6800FB75FB7D002B01D0FB7D12E040F22A3074
:103A78004FF0010106F0D2F84FF0010006F0BEF851
:103A88003B687A6802FB03F3F868194602F00EF8FF
:103A9800FB7D184607F11807BD4680BD80B582B08A
:103AA80000AF4FF00003FB714FF0FF333B6003E0C2
:103AB8003B6803F1FF333B6040F2EC03C2F20003C2
:103AC8001B68002B11D140F2E803C2F200031B6807
:103AD800002B0AD140F2E403C2F200031B78DBB2E8
:103AE800002B02D13B68002BE2D140F2EC03C2F27A
:103AF80000034FF000021A604FF0FF333B6003E011
:103B08003B6803F1FF333B604FF43053C4F20103C9
:103B18005B6B03F40053002B02D03B68002BEFD102
:103B280040F2E003C2F200031B68012B03D100F04E
:103B38002BFC0346FB713B68002B05D1FB79002B5E
:103B480002D14FF00403FB7140F2FF5006F0AEF8CB
:103B580040F2E403C2F200031B78DBB2002B06D06C
:103B680040F2E403C2F200031B78DBB200E0FB7909
:103B7800184607F10807BD4680BD00BF80B586B06E
:103B880000AFF860B9601346FB804FF00003FB7587
:103B980040F2E403C2F200034FF000021A7040F250
:103BA800E803C2F200034FF000021A6040F2E0039B
:103BB800C2F200034FF000021A604FF43053C4F20F
:103BC80001034FF00002DA6240F2A803C2F20003D8
:103BD8001B68022B06D14FF40073FB80BB684FEAC9
:103BE8005323BB60FA8843F67873C2F201031A6064
:103BF80043F67873C2F201034FF010025A6043F69D
:103C08007873C2F201034FF040029A6043F678736A
:103C1800C2F201034FF00002DA6043F67873C2F291
:103C280001034FF480621A6143F67870C2F2010012
:103C380005F05AFE4FF0100000F0F8FF0346FB7540
:103C4800FB7D002B01D0FB7D71E043F67873C2F257
:103C58000103BA681A6043F67873C2F201034FF0A1
:103C680018025A6043F67873C2F201034FF040021B
:103C78009A6043F67873C2F201034FF00002DA60EB
:103C880043F67873C2F201034FF480621A6143F677
:103C98007870C2F2010005F027FE4FF0180000F01E
:103CA800C5FF0346FB75FB7D002B01D0FB7D3EE085
:103CB80044F20003C2F201034FF0FF321A60FA889F
:103CC80044F20003C2F201035A6044F20003C2F254
:103CD80001034FF090029A6044F20003C2F201031C
:103CE8004FF00002DA6044F20003C2F201034FF021
:103CF80000021A6144F20003C2F201034FF001020C
:103D08005A6144F20000C2F2010005F061FE40F27F
:103D18002A304FF0010105F081FFFB88F868194649
:103D280001F054FE4FF0010005F068FFFB7D1846D6
:103D380007F11807BD4680BD80B586B000AFF860B2
:103D4800B9603B601346FB804FF00003FB7540F2FF
:103D5800E403C2F200034FF000021A7040F2E803D5
:103D6800C2F200034FF000021A6040F2E003C2F210
:103D780000034FF001021A604FF43053C4F20103FC
:103D88004FF00002DA6240F2A803C2F200031B6897
:103D9800022B06D14FF40073FB80BB684FEA532314
:103DA800BB60FA8843F67873C2F201031A6043F6DF
:103DB8007873C2F201034FF010025A6043F6787329
:103DC800C2F201034FF040029A6043F67873C2F2E0
:103DD80001034FF00002DA6043F67873C2F2010380
:103DE8004FF480621A6143F67870C2F2010005F060
:103DF8007BFD4FF0100000F019FF0346FB75FB7DBB
:103E0800002B01D0FB7DE3E040F2CC03C2F20003BB
:103E18001B684FEA034243F67873C2F201031A6043
:103E280043F67873C2F201034FF037025A6043F643
:103E38007873C2F201034FF040029A6043F6787338
:103E4800C2F201034FF00002DA6043F67873C2F25F
:103E580001034FF480621A6143F67870C2F20100E0
:103E680005F042FD4FF0370000F0E0FE0346FB7519
:103E7800FB7D002B01D0FB7DAAE043F67873C2F2EC
:103E880001033A681A6043F67873C2F201034FF0EF
:103E980017025A6043F67873C2F201034FF04002EA
:103EA8009A6043F67873C2F201034FF00002DA60B9
:103EB80043F67873C2F201034FF480621A6143F645
:103EC8007870C2F2010005F00FFD4FF0170000F006
:103ED800ADFE0346FB75FB7D002B01D0FB7D77E033
:103EE80043F67873C2F20103BA681A6043F678732E
:103EF800C2F201034FF019025A6043F67873C2F216
:103F080001034FF040029A6043F67873C2F201034E
:103F18004FF00002DA6043F67873C2F201034FF4FF
:103F280080621A6143F67870C2F2010005F0DCFC89
:103F38004FF0190000F07AFE0346FB75FB7D002B5D
:103F480001D0FB7D44E044F20003C2F201034FF0CC
:103F5800FF321A60FB883A6802FB03F244F200035E
:103F6800C2F201035A6044F20003C2F201034FF0A7
:103F780090029A6044F20003C2F201034FF000027B
:103F8800DA6044F20003C2F201034FF000021A6142
:103F980044F20003C2F201034FF001025A6144F2F5
:103FA8000000C2F2010005F013FD40F22A304FF084
:103FB800010105F033FE4FF0010005F01FFEFB88FC
:103FC8003A6802FB03F3F868194601F0FFFCFB7D31
:103FD800184607F11807BD4680BD00BF80B586B0FA
:103FE80000AFF860B9607A603B604FF00003FB7582
:103FF80040F2E403C2F200034FF000021A7040F2EC
:10400800E803C2F200034FF000021A6040F2E00336
:10401800C2F200034FF001021A604FF43053C4F2A9
:1040280001034FF00002DA6240F2A803C2F2000373
:104038001B68022B03D14FF400737B6004E0BB685C
:104048007A6802FB03F3BB6043F67873C2F201039C
:104058007A681A6043F67873C2F201034FF01002CF
:104068005A6043F67873C2F201034FF040029A6037
:1040780043F67873C2F201034FF00002DA6043F6A8
:104088007873C2F201034FF480621A6143F67870C4
:10409800C2F2010005F028FC4FF0100000F0C6FD48
:1040A8000346FB75FB7D002B01D0FB7DE3E040F26E
:1040B800CC03C2F200031B684FEA034243F678734D
:1040C800C2F201031A6043F67873C2F201034FF09B
:1040D80037025A6043F67873C2F201034FF0400288
:1040E8009A6043F67873C2F201034FF00002DA6077
:1040F80043F67873C2F201034FF480621A6143F603
:104108007870C2F2010005F0EFFB4FF0370000F0C5
:104118008DFD0346FB75FB7D002B01D0FB7DAAE0DE
:1041280043F67873C2F201033A681A6043F678736B
:10413800C2F201034FF017025A6043F67873C2F2D5
:1041480001034FF040029A6043F67873C2F201030C
:104158004FF00002DA6043F67873C2F201034FF4BD
:1041680080621A6143F67870C2F2010005F0BCFB68
:104178004FF0170000F05AFD0346FB75FB7D002B3E
:1041880001D0FB7D77E043F67873C2F20103BA6889
:104198001A6043F67873C2F201034FF019025A60AD
:1041A80043F67873C2F201034FF040029A6043F677
:1041B8007873C2F201034FF00002DA6043F67873B5
:1041C800C2F201034FF480621A6143F67870C2F2BA
:1041D800010005F089FB4FF0190000F027FD0346A8
:1041E800FB75FB7D002B01D0FB7D44E044F200030E
:1041F800C2F201034FF0FF321A603B687A6802FB93
:1042080003F244F20003C2F201035A6044F20003CD
:10421800C2F201034FF090029A6044F20003C2F226
:1042280001034FF00002DA6044F20003C2F2010316
:104238004FF000021A6144F20003C2F201034FF08A
:1042480001025A6144F20000C2F2010005F0C0FB0D
:1042580040F22A304FF0010105F0E0FC4FF0010078
:1042680005F0CCFC3B687A6802FB03F3F868194652
:1042780001F0ACFBFB7D184607F11807BD4680BD71
:1042880080B582B000AF4FF00003FB714FF0FF33F1
:104298003B6003E03B6803F1FF333B6040F2EC0313
:1042A800C2F200031B68002B11D140F2E803C2F2EE
:1042B80000031B68002B0AD140F2E403C2F200039A
:1042C8001B78DBB2002B02D13B68002BE2D140F215
:1042D800EC03C2F200034FF000021A604FF0FF3304
:1042E8003B6003E03B6803F1FF333B604FF430531E
:1042F800C4F201035B6B03F48053002B02D03B68CC
:10430800002BEFD140F2E003C2F200031B68012B3F
:1043180003D100F039F80346FB713B68002B05D147
:10432800FB79002B02D14FF00403FB7140F2FF50E0
:1043380005F0BCFC40F2E403C2F200031B78DBB2D8
:10434800002B06D040F2E403C2F200031B78DBB274
:1043580000E0FB79184607F10807BD4680BD00BF9D
:1043680080B400AF4FF43053C4F201035B6B03F425
:104378004053002B02D04FF0010301E04FF000033F
:104388001846BD4680BC704780B582B000AF4FF07C
:104398000003FB7143F67873C2F201034FF0000289
:1043A8001A6043F67873C2F201034FF00C025A60A8
:1043B80043F67873C2F201034FF040029A6043F665
:1043C8007873C2F201034FF00002DA6043F67873A3
:1043D800C2F201034FF480621A6143F67870C2F2A8
:1043E800010005F081FA4FF00C0000F01FFC0346B5
:1043F800FB71FB79184607F10807BD4680BD00BF71
:1044080080B586B000AF786039604FF00003FB7567
:104418004FF000033B614FF00003FB604FF00003D7
:10442800FB7240F2AC03C2F200035B684FEA13531D
:1044380003F02003002B04D14FF02503FB75FB7D0F
:1044480009E14FF43053C4F201035B68DBB203F1B6
:1044580002024DF2C043C0F20103B3FBF2F3FB606A
:104468004FF0000005F09EFA034603F00073002B9E
:1044780004D04FF00E03FB75FB7DECE040F2A8037F
:10448800C2F200031B68022B07D17B684FEA532353
:104498007B603B684FEA53233B6040F2A803C2F2BB
:1044A80000031B68002B0DD040F2A803C2F20003E2
:1044B8001B68012B06D040F2A803C2F200031B6858
:1044C800022B65D143F67873C2F201037A681A6049
:1044D80043F67873C2F201034FF020025A6043F6A4
:1044E8007873C2F201034FF040029A6043F6787382
:1044F800C2F201034FF00002DA6043F67873C2F2A9
:1045080001034FF480621A6143F67870C2F2010029
:1045180005F0EAF94FF0200000F088FB0346FB7530
:10452800FB7D002B01D0FB7D95E043F67873C2F24A
:1045380001033A681A6043F67873C2F201034FF038
:1045480021025A6043F67873C2F201034FF0400229
:104558009A6043F67873C2F201034FF00002DA6002
:1045680043F67873C2F201034FF480621A6143F68E
:104578007870C2F2010005F0B7F94FF0210000F0A1
:1045880055FB0346FB75FB7D002B01D0FB7D62E0EC
:1045980043F67873C2F201034FF000021A6043F643
:1045A8007873C2F201034FF026025A6043F678731B
:1045B800C2F201034FF040029A6043F67873C2F2E8
:1045C80001034FF00002DA6043F67873C2F2010388
:1045D8004FF480621A6143F67870C2F2010005F068
:1045E80083F94FF0260000F021FB0346FB75FB7DA5
:1045F800002B01D0FB7D2EE04FF000033B6103E070
:104608003B6903F101033B61FB683A699A42F7D3BE
:1046180007F10B03184600F005FE0346FB754FF043
:10462800FF333B610AE007F10B03184600F0FAFD7F
:104638000346FB753B6903F1FF333B613B69002B84
:1046480008D0FB7D002B05D1FB7A072BEBD0FB7A3A
:10465800062BE8D0FB7D184607F11807BD4680BD3C
:1046680080B584B000AF78604FF00003FB737B68BF
:10467800002B04D14FF02603FB73FB7B40E040F294
:10468800CC03C2F200031B684FEA034243F6787377
:10469800C2F201031A6043F67873C2F201034FF0C5
:1046A8000D025A6043F67873C2F201034FF04002DC
:1046B8009A6043F67873C2F201034FF00002DA60A1
:1046C80043F67873C2F201034FF480621A6143F62D
:1046D8007870C2F2010005F007F94FF00D0000F004
:1046E800A5FA0346FB73FB7B002B01D0FB7B07E09D
:1046F8004FF0000005F056F902467B681A60FB7B14
:10470800184607F11007BD4680BD00BF90B585B0BB
:1047180000AF78604FF00003FB724FF00003FB60BE
:104728004FF0000005F03EF9034603F00073002B3C
:1047380004D04FF00E03FB72FB7A5BE143F678730B
:10474800C2F201034FF040021A6043F67873C2F2D6
:1047580001034FF010025A6043F67873C2F2010366
:104768004FF040029A6043F67873C2F201034FF0AB
:104778000002DA6043F67873C2F201034FF48062F4
:104788001A6143F67870C2F2010005F0ADF84FF0F7
:10479800100000F04BFA0346FB72FB7A002B01D0A5
:1047A800FB7A27E140F2CC03C2F200031B684FEA10
:1047B800034243F67873C2F201031A6043F6787332
:1047C800C2F201034FF037025A6043F67873C2F21F
:1047D80001034FF040029A6043F67873C2F2010376
:1047E8004FF00002DA6043F67873C2F201034FF427
:1047F80080621A6143F67870C2F2010005F074F81D
:104808004FF0370000F012FA0346FB72FB7A002BD8
:1048180001D0FB7AEEE044F20003C2F201034FF04C
:10482800FF321A6044F20003C2F201034FF0400263
:104838005A6044F20003C2F201034FF060029A602A
:1048480044F20003C2F201034FF00202DA6044F2BC
:104858000003C2F201034FF000021A6144F20003A0
:10486800C2F201034FF001025A6144F20000C2F2A1
:10487800010005F0ADF843F67873C2F201034FF07A
:1048880000021A6043F67873C2F201034FF00D027A
:104898005A6043F67873C2F201034FF040029A60FF
:1048A80043F67873C2F201034FF00002DA6043F670
:1048B8007873C2F201034FF480621A6143F678708C
:1048C800C2F2010005F010F84FF00D0000F0AEF94B
:1048D8000346FB72FB7A002B21D0FB7A8AE04FF467
:1048E800004005F0C5F90346002B19D04FF000032E
:1048F800FB600CE0FB684FEA83037A68D41805F084
:10490800CDF803462360FB6803F10103FB60FB68F5
:10491800072BEFD97B6803F120037B6000E000BF21
:104928004FF43053C4F201035A6B40F22A63134028
:10493800002BD4D04FF0080005F09AF90346002B5D
:1049480008D04FF0080005F0B1F94FF00403FB72EE
:10495800FB7A4FE04FF0020005F08AF90346002B7E
:1049680008D04FF0020005F0A1F94FF00203FB72E6
:10497800FB7A3FE04FF0200005F07AF90346002B60
:1049880008D04FF0200005F091F94FF00603FB72B4
:10499800FB7A2FE04FF4007005F06AF90346002B0C
:1049A80008D04FF4007005F081F94FF00703FB724F
:1049B800FB7A1FE04FF0FF33FB600CE005F06EF868
:1049C80002467B681A607B6803F104037B60FB681E
:1049D80003F1FF33FB604FF4001005F049F903467B
:1049E800002B02D0FB68002BE8D140F2FF5005F005
:1049F8005DF9FB7A184607F11407BD4690BD00BF64
:104A080080B500AF4FF4807005F060F90346002BC5
:104A180012D040F2E403C2F200034FF000021A7011
:104A28004FF4807005F070F940F2E803C2F2000319
:104A38004FF001021A605DE04FF0020005F046F900
:104A48000346002B0BD04FF0020005F05DF940F251
:104A5800E403C2F200034FF002021A704AE04FF07A
:104A6800080005F033F90346002B0BD04FF008007F
:104A780005F04AF940F2E403C2F200034FF00402E1
:104A88001A7037E04FF0200005F020F90346002B9C
:104A98000BD04FF0200005F037F940F2E403C2F2E2
:104AA80000034FF006021A7024E04FF0100005F0E2
:104AB8000DF90346002B0BD04FF0100005F024F938
:104AC80040F2E403C2F200034FF005021A7011E04D
:104AD8004FF4007005F0FAF80346002B0AD04FF4A3
:104AE800007005F011F940F2E403C2F200034FF040
:104AF80007021A704CF23A304FF0000105F08EF8B8
:104B080040F2E403C2F200031B78DBB2184680BD12
:104B180080B500AF4FF4C843C4F202031B6803F02A
:104B2800C053002B0ED040F2EC03C2F200034FF04A
:104B380001021A6046F25840C4F202004FF0C25116
:104B480004F044FD80BD00BF80B582B000AF4FF0D7
:104B58000003FB704FF480337B6003E07B6803F154
:104B6800FF337B607B68002B06D04FF0800005F098
:104B78007FF80346002BF1D07B68002B04D14FF05F
:104B88000303FB70FB7804E040F2FF5005F08EF859
:104B9800FB78184607F10807BD4680BD80B584B08C
:104BA80000AF4FF00003FB714FF48033BB604FF44C
:104BB8003053C4F201035B6BFB6009E0BB6803F18F
:104BC800FF33BB604FF43053C4F201035B6BFB60EF
:104BD800FB6803F04503002B02D1BB68002BEDD125
:104BE800BB68002B04D0FB6803F00403002B08D03B
:104BF8004FF00303FB714FF0040005F057F8FB7901
:104C08000EE0FB6803F04003002B08D04FF00003D0
:104C1800FB714FF0400005F049F8FB7900E0FB79A3
:104C2800184607F11007BD4680BD00BF80B586B0A5
:104C380000AF0346FB714FF00003FB744FF4305391
:104C4800C4F201035B6B7B6105E04FF43053C4F29F
:104C580001035B6B7B617B6903F04503002BF4D098
:104C68007B6903F00403002B08D04FF00303FB74A7
:104C78004FF0040005F01AF8FB7CC2E07B6903F0F2
:104C88000103002B08D04FF00103FB744FF0010023
:104C980005F00CF8FB7CB4E004F078FE0346FA79E2
:104CA8009A4204D04FF01003FB74FB7CA9E040F259
:104CB800FF5004F0FBFF4FF0000004F073FEF860B3
:104CC800FA684EF20803CFF6FF531340002B01D1C8
:104CD800FB7C96E0FB68002B02DA4FF01C0390E0A7
:104CE800FB6803F08043002B02D04FF0090388E0F3
:104CF800FB6803F00053002B02D04FF00A0380E05A
:104D0800FB6803F08053002B02D04FF00B0378E0D0
:104D1800FB6803F00063002B02D04FF00C0370E037
:104D2800FB6803F08063002B02D04FF00D0368E0AE
:104D3800FB6803F08073002B02D04FF00E0360E095
:104D4800FB6803F40003002B02D04FF00F0358E078
:104D5800FB6803F48003002B02D04FF0100350E0EF
:104D6800FB6803F40013002B02D04FF0110348E056
:104D7800FB6803F48013002B02D04FF0120340E0CD
:104D8800FB6803F40023002B02D04FF0130338E034
:104D9800FB6803F48023002B02D04FF0140330E0AB
:104DA800FB6803F40033002B02D04FF0150328E012
:104DB800FB6803F48033002B02D04FF0160320E089
:104DC800FB6803F40043002B02D04FF0170318E0F0
:104DD800FB6803F48043002B02D04FF0180310E067
:104DE800FB6803F40053002B02D04FF0190308E0CE
:104DF800FB6803F00803002B02D04FF01A0300E011
:104E0800FB7C184607F11807BD4680BD80B582B007
:104E180000AF4FF00003FB704FF43053C4F20103AE
:104E28005B6B7B6005E04FF43053C4F201035B6BAE
:104E38007B607B6803F04503002BF4D07B6803F0AC
:104E48000403002B08D04FF00303FB704FF004005D
:104E580004F02CFFFB7804E040F2FF5004F026FF3A
:104E6800FB78184607F10807BD4680BD80B582B0BB
:104E780000AF4FF00003FB704FF43053C4F201034E
:104E88005B6B7B6005E04FF43053C4F201035B6B4E
:104E98007B607B6803F04503002BF4D07B6803F04C
:104EA8000403002B08D04FF00303FB704FF00400FD
:104EB80004F0FCFEFB7812E07B6803F00103002B92
:104EC80008D04FF00103FB704FF0010004F0EEFE34
:104ED800FB7804E040F2FF5004F0E8FEFB78184647
:104EE80007F10807BD4680BD80B586B000AF034610
:104EF8003960FB714FF00003FB744FF43053C4F278
:104F080001035B6B7B6105E04FF43053C4F201038E
:104F18005B6B7B617B6903F04503002BF4D07B69F5
:104F280003F00403002B08D04FF00303FB744FF089
:104F3800040004F0BBFEFB7C47E07B6903F001033F
:104F4800002B08D04FF00103FB744FF0010004F070
:104F5800ADFEFB7C39E004F019FD0346FA799A426C
:104F680004D04FF01003FB74FB7C2EE040F2FF509E
:104F780004F09CFE4FF0000004F014FDF860FB689C
:104F880003F46043002B07D1FB684FEA13439AB23E
:104F98003B681A80FB7C18E0FB6803F40053002B85
:104FA80002D04FF0130310E0FB6803F48043002B9A
:104FB80002D04FF0100308E0FB6803F40043002B15
:104FC80002D04FF00F0300E0FB7C184607F11807EA
:104FD800BD4680BD80B586B000AF0346FB714FF07B
:104FE8000003FB754FF00003FB604FF000033B61CB
:104FF8004FF0000004F0D6FC034603F00073002BCA
:1050080004D04FF00E03FB75FB7D06E140F2CC03A4
:10501800C2F200031B689AB207F10C031046194646
:1050280000F02EFA0346FB75FB7D002B01D0FB7DBB
:10503800F3E0FB79012B78D13B6903F48023002B43
:105048006ED040F2CC03C2F200031B684FEA034261
:1050580043F67873C2F201031A6043F67873C2F21A
:1050680001034FF037025A6043F67873C2F2010326
:105078004FF040029A6043F67873C2F201034FF092
:105088000002DA6043F67873C2F201034FF48062DB
:105098001A6143F67870C2F2010004F025FC4FF063
:1050A8003700FFF7C3FD0346FB75FB7D002B01D0DE
:1050B800FB7DB2E043F67873C2F201034FF00202BF
:1050C8001A6043F67873C2F201034FF006025A6081
:1050D80043F67873C2F201034FF040029A6043F638
:1050E8007873C2F201034FF00002DA6043F6787376
:1050F800C2F201034FF480621A6143F67870C2F27B
:10510800010004F0F1FB4FF00600FFF78FFD0346A6
:10511800FB75FB7D002B01D0FB7D7EE0FB7D7CE0F9
:105128004FF02503FB75FB7D77E03B6903F4803383
:10513800002B6ED040F2CC03C2F200031B684FEA8A
:10514800034243F67873C2F201031A6043F6787398
:10515800C2F201034FF037025A6043F67873C2F285
:1051680001034FF040029A6043F67873C2F20103DC
:105178004FF00002DA6043F67873C2F201034FF48D
:1051880080621A6143F67870C2F2010004F0ACFB49
:105198004FF03700FFF74AFD0346FB75FB7D002BF8
:1051A80001D0FB7D39E043F67873C2F201034FF07A
:1051B80000021A6043F67873C2F201034FF0060248
:1051C8005A6043F67873C2F201034FF040029A60C6
:1051D80043F67873C2F201034FF00002DA6043F637
:1051E8007873C2F201034FF480621A6143F6787053
:1051F800C2F2010004F078FB4FF00600FFF716FD3D
:105208000346FB75FB7D002B01D0FB7D05E0FB7D94
:1052180003E04FF02503FB75FB7D184607F11807DF
:10522800BD4680BD80B586B000AF78604FF0000302
:10523800FB754FF000033B614FF00003FB6040F249
:10524800CC03C2F200031B684FEA034243F67873AB
:10525800C2F201031A6043F67873C2F201034FF0F9
:105268000D025A6043F67873C2F201034FF0400210
:105278009A6043F67873C2F201034FF00002DA60D5
:1052880043F67873C2F201034FF480621A6143F661
:105298007870C2F2010004F027FB4FF43053C4F2D7
:1052A80001035B6BFB6005E04FF43053C4F201036C
:1052B8005B6BFB60FB6803F04503002BF4D0FB68D5
:1052C80003F00403002B08D04FF00303FB754FF0E5
:1052D800040004F0EBFCFB7DCDE0FB6803F0010368
:1052E800002B08D04FF00103FB754FF0010004F0CC
:1052F800DDFCFB7DBFE004F049FB0346FB60FB6877
:105308000D2B04D04FF01003FB75FB7DB3E040F28A
:10531800FF5004F0CBFC4FF0000004F043FB0346C1
:105328003B613B694FEA5323DBB203F00F03DAB268
:105338007B681A703A694EF20803CFF6FF531340A0
:10534800002B01D1FB7D96E03B69002B02DA4FF080
:105358001C0390E03B6903F08043002B02D04FF020
:10536800090388E03B6903F00053002B02D04FF09B
:105378000A0380E03B6903F08053002B02D04FF012
:105388000B0378E03B6903F00063002B02D04FF079
:105398000C0370E03B6903F08063002B02D04FF0F0
:1053A8000D0368E03B6903F08073002B02D04FF0D7
:1053B8000E0360E03B6903F40003002B02D04FF0BA
:1053C8000F0358E03B6903F48003002B02D04FF031
:1053D800100350E03B6903F40013002B02D04FF098
:1053E800110348E03B6903F48013002B02D04FF00F
:1053F800120340E03B6903F40023002B02D04FF076
:10540800130338E03B6903F48023002B02D04FF0EC
:10541800140330E03B6903F40033002B02D04FF053
:10542800150328E03B6903F48033002B02D04FF0CA
:10543800160320E03B6903F40043002B02D04FF031
:10544800170318E03B6903F48043002B02D04FF0A8
:10545800180310E03B6903F40053002B02D04FF00F
:10546800190308E03B6903F00803002B02D04FF052
:105478001A0300E0FB7D184607F11807BD4680BDFA
:1054880090B587B000AF03463960FB804FF000034A
:105498007B614FF00003FB744FF00003BB604FF0DB
:1054A8000003FB6043F67873C2F201034FF0080271
:1054B8001A6043F67873C2F201034FF010025A6083
:1054C80043F67873C2F201034FF040029A6043F644
:1054D8007873C2F201034FF00002DA6043F6787382
:1054E800C2F201034FF480621A6143F67870C2F287
:1054F800010004F0F9F94FF01000FFF797FB03469D
:10550800FB74FB7C002B01D0FB7C2EE140F2CC032A
:10551800C2F200031B684FEA034243F67873C2F2F3
:1055280001031A6043F67873C2F201034FF03702A1
:105538005A6043F67873C2F201034FF040029A6052
:1055480043F67873C2F201034FF00002DA6043F6C3
:105558007873C2F201034FF480621A6143F67870DF
:10556800C2F2010004F0C0F94FF03700FFF75EFB0C
:105578000346FB74FB7C002B01D0FB7CF5E044F276
:105588000003C2F201034FF0FF321A6044F2000335
:10559800C2F201034FF008025A6044F20003C2F25B
:1055A80001034FF030029A6044F20003C2F2010393
:1055B8004FF00202DA6044F20003C2F201034FF036
:1055C80000021A6144F20003C2F201034FF0010223
:1055D8005A6144F20000C2F2010004F0F9F943F6FE
:1055E8007873C2F201034FF000021A6043F6787331
:1055F800C2F201034FF033025A6043F67873C2F2E5
:1056080001034FF040029A6043F67873C2F2010337
:105618004FF00002DA6043F67873C2F201034FF4E8
:1056280080621A6143F67870C2F2010004F05CF9F6
:105638004FF03300FFF7FAFA0346FB74FB7C002BAC
:1056480017D0FB7C91E04FF4001004F011FB0346E7
:10565800002B0FD07B694FEA830307F10802D418A7
:1056680004F01CFA034623607B6903F101037B61A4
:1056780000E000BF4FF43053C4F201035A6B40F20C
:105688002A631340002BDED04FF0080004F0F0FA34
:105698000346002B08D04FF0080004F007FB4FF03A
:1056A8000403FB74FB7C60E04FF0020004F0E0FAB6
:1056B8000346002B08D04FF0020004F0F7FA4FF031
:1056C8000203FB74FB7C50E04FF0200004F0D0FA9A
:1056D8000346002B08D04FF0200004F0E7FA4FF003
:1056E8000603FB74FB7C40E04FF4007004F0C0FA42
:1056F8000346002B08D04FF4007004F0D7FA4FF09F
:105708000703FB74FB7C30E040F2FF5004F0CEFA54
:105718003B6803F10403BA684FEA0261BA6802F40D
:105728007F424FEA02221143BA6802F47F024FEA2D
:1057380012221143BA684FEA12620A431A60FB68E0
:105748004FEA0362FB6803F47F434FEA03231A43DB
:10575800FB6803F47F034FEA13231A43FB684FEAFD
:1057680013631A433B681A60FB7C184607F11C0751
:10577800BD4690BD80B485B000AF0346FB804FF0B6
:105788000003FB7307E0FB884FEA5303FB80FB7BB6
:1057980003F10103FB73FB88012BF4D1FB7B184653
:1057A80007F11407BD4680BC704700BF80B582B0C2
:1057B80000AF4FF0000004F069F84FF0000004F06B
:1057C80075F803F0FDFF4FF400604FF0000105F09D
:1057D80087F94FF40060C4F202004FF008014FF05F
:1057E800000204F0EBFC4FF40060C4F202004FF03A
:1057F80009014FF0000204F0E1FC4FF40060C4F22C
:1058080002004FF00A014FF0000204F0D7FC4FF4F9
:105818000060C4F202004FF00B014FF0000204F0E8
:10582800CDFC4FF40060C4F202004FF00C014FF0C1
:10583800000204F0C3FC4FF44060C4F202004FF0D1
:1058480002014FF0000204F0B9FC4FF470633B60B2
:105858004FF000033B714FF00003FB713B464FF4E0
:105868000060C4F20200194604F01AFB4FF004036A
:105878003B603B464FF44060C4F20200194604F016
:105888000FFB4FF480533B603B464FF40060C4F27B
:105898000200194604F004FB07F10807BD4680BD65
:1058A80080B582B000AF4FF00C004FF0010105F059
:1058B8006FF84FF40060C4F202004FF008014FF097
:1058C8000C0204F07BFC4FF40060C4F202004FF0BD
:1058D80009014FF00C0204F071FC4FF40060C4F2AF
:1058E80002004FF00A014FF00C0204F067FC4FF47D
:1058F8000060C4F202004FF00B014FF00C0204F0FC
:105908005DFC4FF40060C4F202004FF00C014FF050
:105918000C0204F053FC4FF44060C4F202004FF054
:1059280002014FF00C0204F049FC4FF470633B6035
:105938004FF001037B714FF002033B714FF00003FE
:10594800BB714FF00103FB713B464FF40060C4F29A
:105958000200194604F0A4FA4FF004033B603B46EA
:105968004FF44060C4F20200194604F099FA4FF46B
:1059780080533B604FF00003FB713B464FF40060DF
:10598800C4F20200194604F08BFA4FF004033B609E
:105998004FF000033B714FF00103FB713B464FF49E
:1059A8000060C4F20200194604F07AFA4FF400606D
:1059B8004FF0010105F094F84FF480004FF0010119
:1059C80004F0E6FF07F10807BD4680BD80B592B038
:1059D80000AF7860396046F25840C4F202004FF0D8
:1059E800FA5103F0F3FD46F25840C4F202004FF0BA
:1059F800000103F0A1FC46F25840C4F2020003F093
:105A0800DBFA4FF00063FB604FF43253C4F201033A
:105A18003B617B687B614FF04003BB614FF0000343
:105A2800FB614FF000033B624FF480637B624FF4ED
:105A38008053BB624FF48043FB624FF000033B632B
:105A48004FF440337B634FF00403BB634FF0030311
:105A5800FB634FF400033B644FF400137B6407F1CE
:105A68000C0346F25840C4F20200194603F0C6FB84
:105A780046F25840C4F202004FF010014FF0010204
:105A880003F0D4FD46F25840C4F202004FF0200162
:105A980003F088FC46F25840C4F202004FF00101BE
:105AA80003F04AFC07F14807BD4680BD80B592B0B7
:105AB80000AF7860396046F25840C4F202004FF0F7
:105AC800FA5103F083FD46F25840C4F202004FF049
