:020000040800F2
:1000000000000220A5DD000889010008F1DD0008DC
:10001000E9010008F1010008F901000800000000F2
:100020000000000000000000000000006162000805
:10003000010200080000000059640008FD080008E3
:10004000F1DD0008F1DD0008F1DD0008F1DD000858
:10005000F1DD0008F1DD0008F1DD0008F1DD000848
:10006000F1DD0008F1DD0008F1DD0008F1DD000838
:10007000F1DD0008F1DD0008F1DD0008F1DD000828
:10008000F1DD0008F1DD0008F1DD0008F1DD000818
:10009000F1DD0008F1DD0008F1DD0008F1DD000808
:1000A000F1DD0008F1DD0008F1DD0008F1DD0008F8
:1000B000F1DD0008F1DD0008F1DD0008F1DD0008E8
:1000C000F1DD0008F1DD0008F1DD0008F1DD0008D8
:1000D000F1DD0008F1DD0008F1DD0008F1DD0008C8
:1000E000F1DD0008F1DD0008F1DD0008F1DD0008B8
:1000F000F1DD0008F1DD0008F1DD0008F1DD0008A8
:10010000F1DD0008E9210008F1DD0008F1DD00085B
:10011000F1DD0008F1DD0008F1DD0008F1DD000887
:10012000F1DD0008F1DD0008F1DD0008F52100082F
:10013000F1DD0008F1DD0008F1DD0008F1DD000867
:10014000F1DD0008F1DD0008F1DD0008F1DD000857
:10015000F1DD0008F1DD0008F1DD0008F1DD000847
:10016000F1DD0008F1DD0008F1DD0008F1DD000837
:10017000F1DD0008F1DD0008F1DD0008F1DD000827
:08018000F1DD0008F1DD0008CB
:1001880080B400AFBD4680BC704700BF80B48BB060
:1001980000AF78607B681B687B627B685B683B624A
:1001A8007B689B68FB617B68DB68BB617B681B695C
:1001B8007B617B685B693B617B689B69FB607B68F3
:1001C800DB69BB60FEE700BF1EF0040F0CBFEFF356
:1001D8000880EFF309808169004A104795010008FB
:1001E80080B400AFFEE700BF80B400AFFEE700BFF9
:1001F80080B400AFFEE700BF80B400AFBD4680BC4E
:10020800704700BF80B500AF4FF46053C4F20203DB
:100218004FF46052C4F20202126842F001021A60FE
:100228004FF46053C4F202034FF000029A604FF497
:100238006053C4F202034FF46052C4F2020212681F
:1002480022F0847222F480321A604FF46053C4F2B0
:10025800020343F21002C2F200425A604FF46053A4
:10026800C4F202034FF46052C4F20202126822F48C
:1002780080221A604FF46053C4F202034FF0000268
:10028800DA6000F0CFF84FF46D43CEF200034FF080
:1002980000629A604FF46D43CEF200034FF46D4252
:1002A800CEF20002D2F8882042F47002C3F8882007
:1002B80080BD00BF80B487B000AF4FF000033B6142
:1002C8004FF000037B614FF00203FB604FF0000327
:1002D800BB604FF002037B604FF46053C4F202032B
:1002E8009B6803F00C033B613B69042B0DD0082B82
:1002F80015D0002B69D140F20003C2F200034FF47D
:100308001052C0F2F4021A6069E040F20003C2F22F
:1003180000034FF49052C0F27A021A605FE04FF483
:100328006053C4F202035B6803F480034FEA9353FB
:10033800BB604FF46053C4F202035B6803F03F03F1
:100348007B60BB68002B14D04FF49053C0F27A0343
:100358007A68B3FBF2F24FF46053C4F202035968AF
:1003680047F6C0730B404FEA931303FB02F37B611C
:1003780013E04FF41053C0F2F4037A68B3FBF2F2BF
:100388004FF46053C4F20203596847F6C0730B4038
:100398004FEA931303FB02F37B614FF46053C4F2FB
:1003A80002035B6803F440334FEA134303F101038C
:1003B8004FEA4303FB607A69FB68B2FBF3F240F251
:1003C8000003C2F200031A6009E040F20003C2F21F
:1003D80000034FF41052C0F2F4021A6000BF4FF449
:1003E8006053C4F202039B6803F0F0034FEA131250
:1003F80040F20403C2F200039B5CDBB23B6140F2B3
:100408000003C2F200031A683B6922FA03F240F2C1
:100418000003C2F200031A6007F11C07BD4680BC46
:10042800704700BF80B483B000AF4FF000037B601B
:100438004FF000033B604FF46053C4F202034FF4E3
:100448006052C4F20202126842F480321A604FF419
:100458006053C4F202031B6803F400333B607B68FB
:1004680003F101037B603B68002B03D17B68B3F584
:10047800A06FECD14FF46053C4F202031B6803F47D
:100488000033002B03D04FF001033B6002E04FF034
:1004980000033B603B68012B40F082804FF46053BF
:1004A800C4F202034FF46052C4F20202126C42F02A
:1004B80080521A644FF4E043C4F200034FF4E04260
:1004C800C4F20002126842F480421A604FF460538A
:1004D800C4F202034FF46052C4F2020292689A60B6
:1004E8004FF46053C4F202034FF46052C4F20202A4
:1004F800926842F400429A604FF46053C4F20203D7
:100508004FF46052C4F20202926842F4A0529A6018
:100518004FF46053C4F2020345F20842C0F240723D
:100528005A604FF46053C4F202034FF46052C4F2AD
:100538000202126842F080721A6000BF4FF46053E2
:10054800C4F202031B6803F00073002BF6D04FF4CB
:100558007053C4F2020340F205621A604FF460530C
:10056800C4F202034FF46052C4F20202926822F00D
:1005780003029A604FF46053C4F202034FF46052CE
:10058800C4F20202926842F002029A6000BF4FF47D
:100598006053C4F202039B6803F00C03082BF6D1E6
:1005A8004FF46053C4F202034FF46052C4F20202E3
:1005B800926822F400029A604FF46053C4F2020376
:1005C8004FF44052C5F20002C3F884204FF4605340
:1005D800C4F202034FF46052C4F20202126842F0FD
:1005E80080621A6000BF4FF46053C4F202031B68B4
:1005F80003F00063002BF6D007F10C07BD4680BC62
:10060800704700BF80B500AF00F0A0F900F0DAF93C
:1006180000F0B4F900F032FC00F024FC00F04AFCD1
:10062800FEE700BF80B400AFBD4680BC704700BF86
:1006380080B500AF05F0FEFEFEE700BF80B400AF56
:10064800BD4680BC704700BF80B582B000AF7860FF
:10065800396005F0EFFEFEE780B485B000AFF860C2
:10066800B9607A604FF0FF33184607F11407BD46AA
:1006780080BC704780B584B000AFF860B9607A601C
:100688000DF0BCFB03464FF016021A604FF0FF3323
:10069800184607F11007BD4680BD00BF80B485B07D
:1006A80000AFF860B9607A604FF00003184607F1B0
:1006B8001407BD4680BC704780B586B000AFF860AF
:1006C800B9607A60BB68002B02D14FF0000322E0CA
:1006D8004FF000037B6119E000BF4FF49043C4F270
:1006E80000031B889BB203F04003002BF5D07B6905
:1006F800BA68D3181B784FF49040C4F2000019462A
:100708000DF09AF87B6903F101037B617A697B68D4
:100718009A42E1DB7B68184607F11807BD4680BDA1
:1007280080B483B000AF78604FF00003184607F13B
:100738000C07BD4680BC704780B584B000AF7860B8
:1007480040F2A003C2F200031B68002B08D140F25C
:10075800A003C2F2000344F25C02C2F201021A6072
:1007680040F2A003C2F200031B68FB6040F2A00342
:10077800C2F200031A687B68D2186B469A4208D9FD
:100788000DF03CFB03464FF00C021A604FF0FF33AC
:100798000CE040F2A003C2F200031A687B68D2188A
:1007A80040F2A003C2F200031A60FB68184607F182
:1007B8001007BD4680BD00BF80B582B000AF78602D
:1007C800396038684FF000014FF03C020DF090FF9F
:1007D8003B684FF400525A604FF00003184607F187
:1007E8000807BD4680BD00BF80B483B000AF786005
:1007F8004FF00103184607F10C07BD4680BC70474F
:1008080080B582B000AF786039600DF0F7FA034622
:100818004FF016021A604FF0FF33184607F1080729
:10082800BD4680BD80B400AF4FF001031846BD46F9
:1008380080BC704780B483B000AF03463960FB7159
:1008480097F90730002B10DA4FF46D43CEF200030E
:10085800FA7902F00F02A2F104013A68D2B24FEA23
:100868000212D2B25B181A760DE04FF46143CEF251
:10087800000397F907103A68D2B24FEA0212D2B2CF
:100888005B1883F8002307F10C07BD4680BC70474E
:1008980080B582B000AF78607A686FF07F439A4283
:1008A80002D94FF001031FE04EF21003CEF200030D
:1008B8007A6822F07F4202F1FF325A604FF0FF302F
:1008C8004FF00F01FFF7B6FF4EF21003CEF2000310
:1008D8004FF000029A604EF21003CEF200034FF080
:1008E80007021A604FF00003184607F10807BD46D3
:1008F80080BD00BF80B400AF43F27033C2F2010381
:100908001B6803F1010243F27033C2F201031A605B
:10091800BD4680BC704700BF80B485B000AF78602A
:1009280043F27033C2F201031B68FB6000BF43F25D
:100938007033C2F201031A68FB68D21A7B689A42C4
:10094800F5D307F11407BD4680BC704780B500AFEA
:1009580040F20003C2F200031A6844F6D353C1F20E
:100968006203A3FB02134FEA93131846FFF790FFA5
:100978000346002B00D0FEE780BD00BF80B582B0E3
:1009880000AF4FF040004FF001010AF02FFB46F294
:10099800E0733B604FF001033B714FF00003BB7104
:1009A8004FF00003FB714FF000037B713B464FF49F
:1009B800C050C4F20200194609F0A0FD07F108076B
:1009C800BD4680BD80B58CB000AF4FF004004FF03D
:1009D80001010AF089FB4FF002004FF001010AF013
:1009E80005FB4FF040037B624FF0020387F8283085
:1009F8004FF0030387F829304FF0000387F82A30B7
:100A08004FF0010387F82B3007F124034FF480607F
:100A1800C4F20200194609F071FD4FF48060C4F277
:100A280002004FF006014FF0020209F0F5FE4FF404
:100A38008060C4F202004FF007014FF0020209F093
:100A4800EBFE4FF05403FB8544F61F63FB61FB8DFF
:100A58003B834FF000033B844FF000037B8307F197
:100A680018034FF40060C4F2000019460AF00AFFA8
:100A78004FF06003BB804FF00103FB804FF0000391
:100A8800FB604FF000033B8207F104034FF4006062
:100A9800C4F2000019460BF0ABF84FF40060C4F242
:100AA80000004FF008010BF0EFFB07F104034FF4CF
:100AB8000060C4F2000019460BF018F94FF400600A
:100AC800C4F200004FF008010BF0FAFB4FF400608D
:100AD800C4F200004FF001010BF012F84FF400606F
:100AE800C4F200004FF001010BF062F807F1300783
:100AF800BD4680BD80B500AF4FF4C050C4F20200BF
:100B08004FF4804109F034FE4FF00200FFF704FF74
:100B18004FF4C050C4F202004FF4005109F036FE01
:100B28004FF00200FFF7F8FE4FF4C050C4F2020085
:100B38004FF4806109F01CFE4FF00200FFF7ECFE55
:100B48004FF4C050C4F202004FF4007109F01EFEC9
:100B58004FF00200FFF7E0FE4FF4C050C4F202006D
:100B68004FF4804109F012FE4FF00200FFF7D4FE67
:100B78004FF4C050C4F202004FF4005109F0F8FDE0
:100B88004FF00200FFF7C8FE4FF4C050C4F2020055
:100B98004FF4806109F0ECFD4FF00200FFF7BCFE56
:100BA8004FF4C050C4F202004FF4007109F0EEFD9A
:100BB8004FF00200FFF7B0FE4FF4C050C4F202003D
:100BC8004FF4804109F0E2FD4FF00200FFF7A4FE68
:100BD8004FF4C050C4F202004FF4005109F0C8FDB0
:100BE8004FF00200FFF798FE4FF4C050C4F2020025
:100BF8004FF4806109F0CAFD4FF00200FFF78CFE48
:100C08004FF4C050C4F202004FF4007109F0B0FD77
:100C18004FF00200FFF780FE4FF4C050C4F202000C
:100C28004FF4804109F0A4FD4FF00200FFF774FE75
:100C38004FF4C050C4F202004FF4005109F0A6FD71
:100C48004FF00200FFF768FE4FF4C050C4F20200F4
:100C58004FF4806109F09AFD4FF00200FFF75CFE47
:100C68004FF4C050C4F202004FF4007109F080FD47
:100C78004FF00200FFF750FE80BD00BF80B500AF07
:100C88004FF4C050C4F202004FF4007109F070FD37
:100C98004FF00200FFF740FE4FF4C050C4F20200CC
:100CA8004FF4806109F072FD4FF00200FFF734FE47
:100CB8004FF4C050C4F202004FF4005109F058FD3F
:100CC8004FF00200FFF728FE4FF4C050C4F20200B4
:100CD8004FF4804109F05AFD4FF00200FFF71CFE67
:100CE8004FF4C050C4F202004FF4007109F04EFDF9
:100CF8004FF00200FFF710FE4FF4C050C4F202009C
:100D08004FF4806109F034FD4FF00200FFF704FE54
:100D18004FF4C050C4F202004FF4005109F028FD0E
:100D28004FF00200FFF7F8FD4FF4C050C4F2020084
:100D38004FF4804109F02AFD4FF00200FFF7ECFD67
:100D48004FF4C050C4F202004FF4007109F01EFDC8
:100D58004FF00200FFF7E0FD4FF4C050C4F202006C
:100D68004FF4806109F004FD4FF00200FFF7D4FD55
:100D78004FF4C050C4F202004FF4005109F006FDD0
:100D88004FF00200FFF7C8FD4FF4C050C4F2020054
:100D98004FF4804109F0ECFC4FF00200FFF7BCFD76
:100DA8004FF4C050C4F202004FF4007109F0E0FCA7
:100DB8004FF00200FFF7B0FD4FF4C050C4F202003C
:100DC8004FF4806109F0E2FC4FF00200FFF7A4FD48
:100DD8004FF4C050C4F202004FF4005109F0D6FCA1
:100DE8004FF00200FFF798FD4FF4C050C4F2020024
:100DF8004FF4804109F0BCFC4FF00200FFF78CFD76
:100E080080BD00BF80B586B000AF78604FF00003AA
:100E1800FB607B68002B0EDB4FF000037B6105E075
:100E2800FFF72CFF7B6903F101037B617A697B681B
:100E38009A42F5DB11E07B68C3F100037B604FF059
:100E480000033B6105E0FFF755FE3B6903F1010331
:100E58003B613A697B689A42F5DB07F11807BD46A2
:100E680080BD00BF80B500AF6FF04000FFF7CAFF3C
:100E78004FF4FA70FFF750FD80BD00BF80B500AF9A
:100E88004FF40063C4F2000340F2A4625A634FF4C3
:100E9800FA70FFF741FD80BD80B500AF4FF40063E5
:100EA800C4F200034FF461725A634FF4FA70FFF70B
:100EB80033FD80BD80B500AF4FF04100FFF7A2FFC2
:100EC800FFF7EAFF6FF00100FFF79CFF4FF000000B
:100ED800FFF722FD6FF00100FFF794FF4FF00000CD
:100EE800FFF71AFD4FF0FF30FFF78CFF4FF020009F
:100EF800FFF712FD6FF00100FFF784FF6FF00100AC
:100F0800FFF780FF4FF00000FFF706FD4FF00200EB
:100F1800FFF778FF4FF02000FFF7FEFC4FF00200CC
:100F2800FFF770FF4FF02000FFF7F6FC4FF00000CE
:100F3800FFF768FF4FF04000FFF7EEFC4FF00100AD
:100F4800FFF760FF4FF00000FFF7E6FC4FF00100ED
:100F5800FFF758FF4FF02000FFF7DEFC4FF00000CE
:100F6800FFF750FF4FF04000FFF7D6FC4FF00100AD
:100F7800FFF748FF4FF02000FFF7CEFC4FF00000CE
:100F8800FFF740FF4FF02000FFF7C6FC4FF00000CE
:100F9800FFF738FF4FF04000FFF7BEFC4FF00000AE
:100FA800FFF730FF4FF04000FFF7B6FC4FF00000AE
:100FB800FFF728FF4FF04000FFF7AEFC4FF0FF307F
:100FC800FFF720FF4FF06000FFF7A6FC4FF0FF305F
:100FD800FFF718FF4FF06000FFF79EFC4FF0FF305F
:100FE800FFF710FF4FF00000FFF796FC6FF00100CD
:100FF800FFF708FF4FF04000FFF78EFC6FF001008D
:10100800FFF700FF6FF00100FFF7FCFE4FF0200034
:10101800FFF782FC6FF00100FFF7F4FE6FF00100AC
:10102800FFF7F0FE6FF00200FFF7ECFE6FF0010033
:10103800FFF7E8FE4FF0FF30FFF7E4FE6FF0020025
:10104800FFF7E0FE6FF00200FFF7DCFE6FF0020032
:10105800FFF7D8FE6FF00100FFF7D4FE6FF0030032
:10106800FFF7D0FE6FF00300FFF7CCFE6FF0030030
:10107800FFF7C8FE6FF00300FFF7C4FE6FF0020031
:10108800FFF7C0FE6FF00200FFF7BCFE6FF0010033
:10109800FFF7B8FE6FF00100FFF7B4FE6FF0010034
:1010A800FFF7B0FE4FF0FF30FFF7ACFE6FF0010026
:1010B800FFF7A8FE4FF0FF30FFF7A4FE4FF06000E7
:1010C800FFF72AFC4FF00000FFF79CFE4FF04000AE
:1010D800FFF722FC4FF00000FFF794FE4FF04000AE
:1010E800FFF71AFC4FF00000FFF78CFE4FF060008E
:1010F800FFF712FC4FF00000FFF784FE4FF060008E
:10110800FFF70AFC4FF00000FFF77CFE4FF02000CD
:10111800FFF702FC4FF0FF30FFF774FE4FF040007E
:10112800FFF7FAFB4FF00000FFF76CFE4FF04000AE
:10113800FFF7F2FB4FF00000FFF764FE4FF060008E
:10114800FFF7EAFB4FF00000FFF75CFE4FF060008E
:10115800FFF7E2FB4FF00000FFF754FE4FF02000CE
:10116800FFF7DAFB4FF00000FFF74CFE4FF060008E
:10117800FFF7D2FB4FF00000FFF744FE4FF0A0004E
:10118800FFF7CAFB4FF00000FFF73CFE4FF04000AE
:10119800FFF7C2FB4FF00100FFF734FE4FF02000CD
:1011A800FFF7BAFB4FF00000FFF72CFE4FF02000CE
:1011B800FFF7B2FB4FF00000FFF724FE4FF04000AE
:1011C800FFF7AAFB4FF00100FFF71CFE4FF02000CD
:1011D800FFF7A2FB4FF00200FFF714FE4FF00000EC
:1011E800FFF79AFB4FF00100FFF70CFE4FF00000ED
:1011F800FFF708FE4FF04000FFF78EFB4FF00200AC
:10120800FFF700FE4FF00200FFF7FCFD4FF0030070
:10121800FFF7F8FD4FF00300FFF7F4FD4FF005006E
:10122800FFF7F0FD4FF00500FFF7ECFD4FF006006B
:10123800FFF7E8FD4FF00300FFF7E4FD4FF0020071
:10124800FFF7E0FD4FF00300FFF7DCFD4FF0020071
:10125800FFF7D8FD4FF00000FFF75EFB4FF00300EB
:10126800FFF7D0FD4FF00200FFF7CCFD4FF0000074
:10127800FFF752FB4FF00100FFF7C4FD4FF02000CD
:10128800FFF74AFB4FF00100FFF7BCFD4FF00000ED
:10129800FFF742FB4FF00100FFF7B4FD4FF02000CD
:1012A800FFF73AFB4FF00100FFF7ACFD4FF02000CD
:1012B800FFF732FB4FF00000FFF7A4FD4FF080006E
:1012C800FFF72AFB4FF0FF30FFF79CFD4FF040007F
:1012D800FFF722FB4FF00000FFF794FD4FF080006E
:1012E800FFF71AFB6FF00100FFF78CFD4FF0FF309E
:1012F800FFF788FD4FF02000FFF70EFB4FF0FF309F
:10130800FFF780FD4FF00000FFF706FB6FF00200CB
:10131800FFF778FD6FF00100FFF774FD6FF0010033
:10132800FFF770FD6FF00300FFF76CFD6FF0020030
:10133800FFF768FD6FF00200FFF764FD6FF004002F
:10134800FFF760FD6FF00100FFF75CFD6FF0020032
:10135800FFF758FD4FF00000FFF7DEFA4FF0FF30BF
:10136800FFF750FD4FF00000FFF7D6FA4FF0FF30BF
:10137800FFF748FD4FF00000FFF744FD4FF0200055
:10138800FFF7CAFA4FF00000FFF73CFD4FF02000CE
:10139800FFF7C2FA4FF0FF30FFF734FD4FF00000BF
:1013A800FFF7BAFA4FF00000FFF72CFD4FF060008E
:1013B800FFF7B2FA4FF00000FFF724FD4FF04000AE
:1013C800FFF7AAFA4FF00000FFF71CFD4FF04000AE
:1013D800FFF7A2FA4FF00100FFF714FD4FF00000ED
:1013E800FFF79AFA4FF00100FFF70CFD4FF02000CD
:1013F800FFF792FA4FF00100FFF704FD4FF00000ED
:10140800FFF78AFA4FF00100FFF7FCFC4FF00000ED
:10141800FFF782FA4FF00300FFF7F4FC4FF00100EA
:10142800FFF7F0FC4FF00000FFF776FA4FF00300EB
:10143800FFF7E8FC4FF00200FFF7E4FC4FF0020072
:10144800FFF7E0FC4FF00200FFF7DCFC4FF0030071
:10145800FFF7D8FC4FF00100FFF7D4FC4FF0000075
:10146800FFF75AFA4FF00000FFF7CCFC4FF00000EE
:10147800FFF752FA4FF00000FFF7C4FC4FF02000CE
:10148800FFF74AFA4FF00000FFF7BCFC4FF02000CE
:10149800FFF742FA4FF0FF30FFF7B4FC4FF0FF3090
:1014A800FFF7B0FC6FF00200FFF7ACFC4FF0FF3025
:1014B800FFF7A8FC6FF00100FFF7A4FC6FF0010034
:1014C800FFF7A0FC6FF00200FFF79CFC4FF0FF3025
:1014D800FFF798FC4FF00000FFF71EFA4FF0FF30BF
:1014E800FFF790FC4FF00000FFF716FA4FF0FF30BF
:1014F800FFF788FC4FF0FF30FFF784FC4FF0200027
:10150800FFF70AFA4FF00000FFF77CFC4FF02000CD
:10151800FFF702FA4FF00000FFF774FC4FF04000AD
:10152800FFF7FAF94FF00100FFF76CFC4FF00000ED
:10153800FFF7F2F94FF00000FFF764FC4FF04000AE
:10154800FFF7EAF94FF00200FFF75CFC4FF00000EC
:10155800FFF758FC4FF02000FFF7DEF94FF00200CC
:10156800FFF750FC4FF00100FFF74CFC4FF0000074
:10157800FFF7D2F94FF00200FFF744FC4FF00200EA
:10158800FFF740FC4FF00300FFF73CFC4FF003006F
:10159800FFF738FC4FF00200FFF734FC4FF005006E
:1015A800FFF730FC4FF00000FFF72CFC4FF0400035
:1015B800FFF7B2F94FF00300FFF724FC4FF00000EB
:1015C800FFF720FC4FF08000FFF7A6F94FF000006E
:1015D800FFF718FC4FF04000FFF79EF94FF0FF307F
:1015E800FFF710FC4FF06000FFF796F94FF0FF305F
:1015F800FFF708FC4FF06000FFF78EF96FF001006D
:10160800FFF700FC4FF0FF30FFF7FCFB4FF0200026
:10161800FFF782F94FF0FF30FFF7F4FB4FF0FF3090
:10162800FFF7F0FB4FF00000FFF776F96FF00100CD
:10163800FFF7E8FB4FF0FF30FFF7E4FB6FF0020025
:10164800FFF7E0FB6FF00100FFF7DCFB6FF0010034
:10165800FFF7D8FB6FF00200FFF7D4FB4FF0FF3025
:10166800FFF7D0FB6FF00200FFF7CCFB4FF0FF3025
:10167800FFF7C8FB6FF00200FFF7C4FB6FF0010033
:10168800FFF7C0FB6FF00100FFF7BCFB6FF0010034
:10169800FFF7B8FB6FF00100FFF7B4FB4FF0000055
:1016A800FFF73AF96FF00100FFF7ACFB4FF00000CD
:1016B800FFF732F94FF00000FFF7A4FB4FF02000CE
:1016C800FFF72AF94FF0FF30FFF79CFB4FF00000BF
:1016D800FFF722F94FF0FF30FFF794FB4FF00000BF
:1016E800FFF71AF94FF00000FFF78CFB4FF04000AE
:1016F800FFF712F94FF00000FFF784FB4FF04000AE
:10170800FFF70AF94FF00000FFF77CFB4FF060008D
:10171800FFF702F94FF00000FFF774FB4FF02000CD
:10172800FFF7FAF84FF00000FFF76CFB4FF04000AE
:10173800FFF7F2F84FF00100FFF764FB4FF060008D
:10174800FFF7EAF84FF00000FFF75CFB4FF02000CE
:10175800FFF7E2F84FF00100FFF754FB4FF02000CD
:10176800FFF7DAF84FF00100FFF74CFB4FF00000ED
:10177800FFF7D2F84FF00100FFF744FB4FF00000ED
:10178800FFF7CAF84FF00200FFF73CFB4FF00000EC
:10179800FFF7C2F84FF00200FFF734FB4FF00000EC
:1017A800FFF730FB4FF02000FFF7B6F84FF00300CB
:1017B800FFF728FB4FF00300FFF724FB4FF0020070
:1017C800FFF720FB4FF00200FFF71CFB4FF0020071
:1017D800FFF718FB4FF00200FFF714FB4FF0FF3044
:1017E800FFF710FB4FF04000FFF796F86FF004008A
:1017F800FFF708FB6FF00200FFF704FB6FF0010032
:10180800FFF700FB6FF00200FFF7FCFA6FF0010032
:10181800FFF7F8FA6FF00100FFF7F4FA6FF0010034
:10182800FFF7F0FA4FF0FF30FFF7ECFA4FF0000047
:10183800FFF7E8FA4FF04000FFF76EF84FF00000AE
:10184800FFF7E0FA4FF04000FFF766F84FF00000AE
:10185800FFF7D8FA4FF04000FFF75EF84FF00000AE
:10186800FFF7D0FA4FF00000FFF756F84FF00000EE
:10187800FFF7C8FA4FF04000FFF74EF84FF00100AD
:10188800FFF7C0FA4FF00000FFF746F84FF0FF30BF
:10189800FFF7B8FA4FF02000FFF73EF84FF00000CE
:1018A800FFF7B0FA4FF00000FFF736F84FF00000EE
:1018B800FFF7A8FA4FF02000FFF72EF84FF00000CE
:1018C800FFF7A0FA4FF04000FFF726F84FF00200AC
:1018D800FFF798FA4FF00100FFF794FA4FF0200055
:1018E800FFF71AF84FF00200FFF78CFA4FF00200EA
:1018F800FFF788FA4FF00200FFF784FA4FF0010073
:10190800FFF780FA4FF00000FFF706F84FF00100EC
:10191800FFF778FA4FF00000FEF7FEFF4FF00200E5
:10192800FFF770FA4FF00200FFF76CFA4FF0020071
:10193800FFF768FA4FF00100FFF764FA4FF0010073
:10194800FFF760FA4FF00000FEF7E6FF4FF00100E6
:10195800FFF758FA4FF08000FEF7DEFF4FF0030064
:10196800FFF750FA4FF00200FFF74CFA4FF0010072
:10197800FFF748FA4FF00200FFF744FA4FF0030070
:10198800FFF740FA4FF00400FFF73CFA4FF0010070
:10199800FFF738FA4FF00200FFF734FA4FF0030070
:1019A800FFF730FA4FF00200FFF72CFA4FF0010072
:1019B800FFF728FA4FF02000FEF7AEFF4FF00200C5
:1019C800FFF720FA4FF02000FEF7A6FF4FF00200C5
:1019D800FFF718FA4FF00100FFF714FA4FF0200054
:1019E800FEF79AFF4FF00100FFF70CFA4FF02000C6
:1019F800FEF792FF4FF00100FFF704FA4FF02000C6
:101A0800FEF78AFF4FF00100FFF7FCF94FF02000C6
:101A1800FEF782FF4FF00000FFF7F4F94FF04000A7
:101A2800FEF77AFF4FF00000FFF7ECF94FF0600087
:101A3800FEF772FF4FF0FF30FFF7E4F94FF0200098
:101A4800FEF76AFF4FF00100FFF7DCF94FF02000C6
:101A5800FEF762FF4FF00000FFF7D4F94FF0600087
:101A6800FEF75AFF6FF00100FFF7CCF94FF00000C6
:101A7800FEF752FF4FF00000FFF7C4F94FF02000C7
:101A8800FEF74AFF4FF0FF30FFF7BCF94FF00000B8
:101A9800FEF742FF4FF00000FFF7B4F94FF04000A7
:101AA800FEF73AFF4FF0FF30FFF7ACF94FF0FF3089
:101AB800FFF7A8F94FF02000FEF72EFF4FF0FF3098
:101AC800FFF7A0F94FF00000FEF726FF4FF00000E7
:101AD800FFF798F94FF02000FEF71EFF4FF0FF3098
:101AE800FFF790F94FF00000FEF716FF4FF00000E7
:101AF800FFF788F94FF00000FEF70EFF4FF00100E6
:101B0800FFF780F94FF02000FEF706FF4FF00100C5
:101B1800FFF778F94FF00000FEF7FEFE4FF00100E6
:101B2800FFF770F94FF00000FEF7F6FE4FF00000E7
:101B3800FFF768F94FF02000FEF7EEFE4FF00100C6
:101B4800FFF760F94FF00000FFF75CF94FF0400035
:101B5800FEF7E2FE4FF00200FFF754F94FF00100E4
:101B6800FFF750F94FF02000FEF7D6FE4FF00100C6
:101B7800FFF748F94FF00000FEF7CEFE4FF00100E6
:101B8800FFF740F94FF00000FEF7C6FE4FF00300E4
:101B9800FFF738F94FF00100FFF734F9FFF76EF956
:101BA80080BD00BF80B586B000AF4FF000037B61F9
:101BB8004FF22840C0F600004FF23441C0F6000151
:101BC8000CF0AAFB38613B69002B37D02BE03B4671
:101BD80018464FF23841C0F600010CF0AFFEF8602D
:101BE800F8680CF007F9014642F63863C2F20103BF
:101BF8007A6943F822104FF000004FF23C41C0F6DA
:101C080000010CF09BFEF860F8680CF0F3F8014650
:101C180043F2D403C2F201037A6943F822107B69C4
:101C280003F101037B613B4618464FF00A013A690C
:101C38000CF066FA0346002BC9D105E04FF240408C
:101C4800C0F600000CF06EFD38690CF033F907F1AE
:101C58001807BD4680BD00BF90B583B000AF4FF0F8
:101C680000037B6031E043F2D403C2F201037A68D7
:101C780053F822301846FFF7C5F842F63860C2F22A
:101C880001000CF0B3F8044643F2D400C2F201009C
:101C98000CF0ACF803469C4213DB42F63860C2F203
:101CA80001000CF0A3F8044643F2D400C2F201008C
:101CB8000CF09CF80346E31A4FEA43131846FEF764
:101CC8002BFE7B6803F101037B607B68A62BCADDD2
:101CD80007F10C07BD4690BD80B582B000AF4FF04C
:101CE8000003FB714FF000004FF4806102F0B6FE74
:101CF8000346FB71FB79002B07D0FB794FF2544068
:101D0800C0F6000019460CF00DFDFB79002B35D10B
:101D18004FF26C40C0F600000CF004FD43F674105E
:101D2800C2F201004FF000014FF400724FF00203BD
:101D380002F016F80346FB71FB79002B05D04FF231
:101D48009C40C0F600000CF0EDFC02F0D5F903460B
:101D5800FB71FB79002B05D04FF2B840C0F60000AC
:101D68000CF0E0FC00BF00F063FE0346002BFAD144
:101D78004FF2D840C0F600000CF0D4FCFB79002BE1
:101D88000ED143F67410C2F201004FF4806100F0E6
:101D980035F903461A4640F2A403C2F200031A704A
:101DA80040F2A403C2F200031B78DBB2012B05D179
:101DB8004FF2EC40C0F600000CF0B4FC07F1080745
:101DC800BD4680BD80B582B000AF43F67450C2F204
:101DD80001004FF4007143F20F2200F0BFF843F600
:101DE8007450C2F201004FF000014FF4007202F08B
:101DF800F3F90346FB7102F071FD0346FB7100BF66
:101E080000F016FE0346002BFAD1FB79002B15D102
:101E180043F27470C2F201004FF000014FF40072F7
:101E280001F0C0FE0346FB7102F066F90346FB7140
:101E380000BF00F0FDFD0346002BFAD1FB79002B13
:101E480012D143F67450C2F2010043F27471C2F227
:101E580001014FF4007200F0A5F803461A4640F25B
:101E6800A503C2F200031A7040F2A503C2F20003F0
:101E78001B78DBB2012B05D14FF20450C0F60000ED
:101E88000CF050FC07F10807BD4680BD80B582B054
:101E980000AF43F27430C2F201004FF480614FF09A
:101EA800000200F05BF843F27430C2F201004FF018
:101EB80000014FF400724FF0020302F0BDFB03462D
:101EC800FB7102F00BFD0346FB7100BF00F0B0FD93
:101ED8000346002BFAD1FB79002B17D143F6741077
:101EE800C2F201004FF000014FF400724FF00203FC
:101EF80002F01CF80346FB7102F0FEF80346FB7182
:101F080000BF00F095FD0346002BFAD1FB79002BAA
:101F180012D143F27430C2F2010043F67411C2F2D6
:101F280001014FF4806200F03DF803461A4640F282
:101F3800A603C2F200031A7040F2A603C2F200031D
:101F48001B78DBB2012B05D14FF22450C0F60000FC
:101F58000CF0E8FB07F10807BD4680BD80B487B0E8
:101F680000AFF860B9607A604FF00003FB824FF071
:101F78000003FB820DE0FB8AFA68D318FA8AD1B213
:101F88007A68D2B28A18D2B21A70FB8A03F10103B6
:101F9800FB82FA8ABB689A42EDD307F11C07BD465B
:101FA80080BC704780B485B000AFF860B9607A60D3
:101FB80010E0FB681A78BB681B789A4202D04FF091
:101FC800000315E0FB6803F10103FB60BB6803F144
:101FD8000103BB607B68002B0CBF00230123DBB22D
:101FE8007A6802F1FF327A60002BE2D14FF00103E8
:101FF800184607F11407BD4680BC704780B483B00B
:1020080000AF786039600EE07B681B78FF2B06D044
:102018007B681B78002B02D04FF0000311E07B682F
:1020280003F101037B603B68002B0CBF00230123F5
:10203800DBB23A6802F1FF323A60002BE4D14FF08C
:102048000103184607F10C07BD4680BC704700BF66
:1020580080B582B000AF00F09BF800F06FFC03463B
:10206800FB714FF24850C0F600000CF05BFBFB79A7
:10207800002B06D14FF26050C0F600000CF052FB66
:102088000DE04FF27450C0F600000CF04BFBFB79EA
:102098004FF28450C0F6000019460CF043FB43F69B
:1020A8009073C2F2010393F856304FF29450C0F681
:1020B800000019460CF036FB43F69073C2F2010398
:1020C800D3E912234FF2A450C0F600000CF02AFB0B
:1020D80043F69073C2F201031B6D4FF2B850C0F67D
:1020E800000019460CF01EFB43F69073C2F2010380
:1020F80093F82C30DBB24FF2CC50C0F600001946F2
:102108000CF010FB43F69073C2F20103B3F854309D
:102118004FF2E050C0F6000019460CF003FB29E02E
:1021280040F21403C2F200031B68012B04D0012BF8
:102138000CD3022B14D01DE0FFF744FE40F2140329
:10214800C2F200034FF000021A6013E0FFF7C4FD6B
:1021580040F21403C2F200034FF002021A6009E0D1
:10216800FFF794FE40F21403C2F200034FF003029B
:102178001A6000BFFB79002B06D140F21403C2F2AB
:1021880000031B68032BCBD107F10807BD4680BDB0
:1021980080B582B000AF4FF4407007F04FF94FF0B0
:1021A80031033B714FF000037B714FF00003BB71AB
:1021B8004FF00103FB7107F10403184607F052F9C9
:1021C8004FF03B033B714FF001037B7107F10403B0
:1021D800184607F047F907F10807BD4680BD00BF5C
:1021E80080B500AF02F03AFF80BD00BF80B500AFF8
:1021F80002F0BCFF80BD00BF80B584B000AF3B4695
:10220800184608F0A3FD3B684FF2EC50C0F60000FA
:1022180019460CF087FA7B684FF2FC50C0F60000B4
:1022280019460CF07FFABB684FF20860C0F6000050
:1022380019460CF077FAFB684FF21860C0F60000F8
:1022480019460CF06FFA07F11007BD4680BD00BFB4
:1022580080B586B000AF786039604FF000037B61CD
:102268004FF000033B614FF00003FB813B681B7894
:102278007B734FF000037B615FE04FF00A000CF0C6
:1022880069FA7B694FEA03127B68D3184FF228601A
:10229800C0F6000019460CF045FA4FF000033B6108
:1022A80014E0FB893A68D3181B787B73FB8903F128
:1022B8000103FB817B7B4FF23460C0F600001946B6
:1022C8000CF030FA3B6903F101033B613B690F2BCA
:1022D800E7D94FF23C60C0F600000CF023FAFB8906
:1022E800A3F11003FB814FF000033B6118E0FB8969
:1022F8003A68D3181B787B73FB8903F10103FB81D0
:102308007B7B202B04D97B7B18460CF023FA03E057
:102318004FF02E000CF01EFA3B6903F101033B61FC
:102328003B690F2BE3D94FF24060C0F600000CF078
:10233800F9F97B6903F101037B617B691F2B9CD948
:1023480007F11807BD4680BD80B5ADF5047D00AF27
:1023580007F1040318604FF00003C7F80C3235E0AA
:1023680007F108031846D7F80C124FF400724FF023
:10237800010301F0F5FC034687F80B3297F80B329E
:10238800002B04D097F80B32184600F035F800BF40
:1023980000F04EFB0346002BFAD1D7F80C324FEA77
:1023A800432207F1080310461946FFF751FFD7F8F3
:1023B8000C32D7F80C2202F10102C7F80C224FF2B6
:1023C8004460C0F6000019460CF0ACF907F10403AC
:1023D8001B68002B0CBF00230123DBB207F10402AA
:1023E80007F10401096801F1FF311160002BB7D131
:1023F80007F50477BD4680BD80B5ACB000AF034695
:10240800FB714FF6C413C0F6000307F108011A4622
:102418004FF0A803084611461A460CF060F9FA79FD
:10242800FB794FEA830307F1B001CB1853F8A83CB6
:102438004FF25460C0F6000011461A460CF072F9CB
:1024480007F1B007BD4680BDB0B58CB000AF0346FC
:10245800FB714FF63033C0F6000307F10C041D463C
:102468000FCD0FC40FCD0FC42B682360FB79072B4A
:1024780011D8FA79FB794FEA830307F13001CB18B9
:1024880053F8243C4FF66C20C0F6000011461A465B
:102498000CF048F909E0FA79FB6A4FF66C20C0F6AF
:1024A800000011461A460CF03DF907F13007BD4609
:1024B800B0BD00BFF0B58BB000AF4FF6C453C0F647
:1024C800000307F104069E46BEE80F000FC69EE80B
:1024D8000F0086E80F004FF65430C0F600000CF0ED
:1024E80021F943F69070C2F2010000F003FE0346A2
:1024F80087F8273097F82730002B0DD04FF6643037
:10250800C0F600000CF00EF997F827301846FFF7D0
:1025180073FF97F8273003E197F82730002B40F036
:10252800FD8000F0A3FA03461846FFF78DFF43F637
:102538009073C2F201031B6D4FF69430C0F6000091
:1025480019460CF0EFF843F69073C2F20103D3E991
:1025580012234FF6A830C0F600000CF0E3F843F65B
:102568009073C2F20103D3E912234FEA03314FEA11
:1025780012540C434FEA135523464FF6C030C0F6A9
:10258800000019460CF0CEF843F69073C2F201032E
:1025980093F856304FEA830307F12802D31853F80B
:1025A800243C4FF6CC30C0F6000019460CF0BAF8BF
:1025B80043F69073C2F20103B3F854304FF6D830A3
:1025C800C0F6000019460CF0ADF843F69073C2F25D
:1025D80001035B79DBB24FF6E430C0F60000194620
:1025E8000CF0A0F843F69073C2F201031B694FF692
:1025F8000040C0F6000019460CF094F843F69073BA
:10260800C2F201031B7EDBB24FF61840C0F6000091
:1026180019460CF087F843F69073C2F201031B7A4F
:10262800DBB24FF63440C0F6000019460CF07AF8D9
:1026380043F69073C2F20103DB7FDBB24FF64C40E6
:10264800C0F6000019460CF06DF84FF66840C0F669
:1026580000000CF067F843F69073C2F2010393F898
:102668002C30DBB24FF67040C0F6000019460CF073
:1026780059F843F69073C2F201031B6B4FF688407A
:10268800C0F6000019460CF04DF843F69073C2F2FC
:10269800010393F83430DBB24FF69C40C0F60000DB
:1026A80019460CF03FF843F69073C2F2010393F811
:1026B8003530DBB24FF6B040C0F6000019460CF0DA
:1026C80031F843F69073C2F201039B6B4FF6C0409A
:1026D800C0F6000019460CF025F843F69073C2F2D4
:1026E8000103DB8F9BB24FF6D040C0F600001946BD
:1026F8000CF018F843F69073C2F2010393F84030D7
:10270800DBB24FF6E840C0F6000019460CF00AF8B4
:1027180000F0ACF903461846FFF796FE4FF00003A9
:10272800184607F12C07BD46F0BD00BF80B586B03E
:1027380000AF4FF6E450C0F600000BF0F3FF07F1CE
:102748000403184601F070F80346FB75FB7D002B67
:102758000BD04FF6F450C0F600000BF0E3FFFB7D02
:102768001846FFF749FEFB7D5DE0FB7D002B58D145
:102778003B79DBB24FF62860C0F6000019460BF033
:10278800D1FF7B79DBB24FF64060C0F600001946F6
:102798000BF0C8FFFB889BB24FF65860C0F60000EC
:1027A80019460BF0BFFFBB684FF67060C0F600001B
:1027B80019460BF0B7FF3B7BDBB24FF69060C0F6D3
:1027C800000019460BF0AEFF7B7BDBB24FF6A4602E
:1027D800C0F6000019460BF0A5FFBB7BDBB24FF635
:1027E800C060C0F6000019460BF09CFF3B8A9BB204
:1027F8004FF6D060C0F6000019460BF093FFBB7C83
:10280800DBB24FF6E460C0F6000019460BF08AFF11
:10281800FB7CDBB24FF6FC60C0F6000019460BF0FB
:1028280081FF4FF00003184607F11807BD4680BD29
:1028380080B582B000AF4FF61470C0F600000BF000
:1028480071FFFFF7D9FC40F21803C2F200031B68BE
:102858004FF62C70C0F6000019460BF063FF40F2EB
:102868001803C2F200031A6848F68903C8F68803F9
:10287800A3FB02134FEA93134FF66470C0F60000EF
:1028880019460BF04FFF40F21803C2F200031B6811
:102898004FEA93034FF6A070C0F6000019460BF0FC
:1028A80041FF4FF6E470C0F600000BF03BFF00F06C
:1028B80045F80346FB71FB79002B09D04FF6F470FD
:1028C800C0F600000BF02EFFFB791846FFF794FDC9
:1028D800FFF7F0FDFFF72AFF40F22000C0F60100E5
:1028E8000BF020FF43F69070C2F2010000F002FCEA
:1028F8000346FB71FB79002B09D04FF66430C0F614
:1029080000000BF00FFFFB791846FFF775FD43F643
:102918009073C2F201031B6940F23C00C0F601004B
:1029280019460BF0FFFE07F10807BD4680BD00BF42
:1029380080B500AF03F068FA80BD00BF80B582B0F3
:1029480000AF4FF00003FB7103F0D8FA07F066FA06
:1029580000F0C0F80346FB71FB79DBB2002B02D014
:10296800FB79DBB25FE000F08BFA0346FB71FB7981
:10297800DBB2002B02D0FB79DBB254E043F6E873FC
:10298800C2F201034FF002021A7543F6E873C2F26D
:1029980001034FF000021A6043F6E873C2F2010324
:1029A8004FF000025A6043F6E873C2F201034FF099
:1029B80000029A6043F6E873C2F201034FF0000286
:1029C800DA6043F6E873C2F201034FF000021A61BD
:1029D80043F6E870C2F2010007F030FA43F690704F
:1029E800C2F2010000F086FB0346FB71FB79DBB203
:1029F800002B0CD143F69073C2F20103B3F85430A4
:102A08004FEA0343184601F091F80346FB71FB793E
:102A1800DBB2002B05D14FF4006000F0D9FF03466C
:102A2800FB71FB79DBB2184607F10807BD4680BD8C
:102A380080B582B000AF4FF00403FB7100F016F8C8
:102A48000346FB71FB79042B02D14FF0000307E02A
:102A5800FB79FF2B02D14FF0020301E04FF0010395
:102A6800184607F10807BD4680BD00BF80B582B093
:102A780000AF4FF000037B6000F01EF80346012B07
:102A880012D107F10403184602F018F90346002B87
:102A980002D04FF0FF0309E07B684FEA5323DBB213
:102AA80003F00F03DBB201E04FF0FF03184607F114
:102AB8000807BD4680BD00BF80B483B000AF4FF0AB
:102AC8000103FB71FB79DBB2184607F10C07BD4621
:102AD80080BC704780B586B000AF4FF00003FB7133
:102AE8004FF000037B614FF000033B614FF00003A0
:102AF800FB604FF00003BB6043F6E873C2F20103CA
:102B08004FF076021A7543F6E873C2F201034FF0EC
:102B180000021A6043F6E873C2F201034FF00002A4
:102B28005A6043F6E873C2F201034FF000029A605C
:102B380043F6E873C2F201034FF00002DA6043F68D
:102B4800E873C2F201034FF000021A6143F6E8701D
:102B5800C2F2010007F072F94FF0030007F0D4F950
:102B68004FF0010007F0C0F943F67873C2F2010391
:102B78004FF000021A6043F67873C2F201034FF077
:102B880000025A6043F67873C2F201034FF0000264
:102B98009A6043F67873C2F201034FF00002DA60DC
:102BA80043F67873C2F201034FF480621A6143F668
:102BB8007870C2F2010007F0C5F902F0F3FA034693
:102BC800FB71FB79DBB2002B02D0FB79DBB242E16F
:102BD80043F67873C2F201034FF4D5721A6043F6D4
:102BE8007873C2F201034FF008025A6043F6787313
:102BF800C2F201034FF040029A6043F67873C2F2C2
:102C080001034FF00002DA6043F67873C2F2010361
:102C18004FF480621A6143F67870C2F2010007F03F
:102C280091F902F0E9FA0346FB71FB79DBB2002B5C
:102C38000AD140F2A803C2F200034FF001021A6061
:102C48004FF08043BB602EE043F67873C2F2010375
:102C58004FF000021A6043F67873C2F201034FF096
:102C680037025A6043F67873C2F201034FF040020C
:102C78009A6043F67873C2F201034FF00002DA60FB
:102C880043F67873C2F201034FF480621A6143F687
:102C98007870C2F2010007F055F94FF0370002F0E2
:102CA800F3FA0346FB7143F67873C2F201034FF05F
:102CB80000021A6043F67873C2F201034FF037023C
:102CC8005A6043F67873C2F201034FF040029A60EB
:102CD80043F67873C2F201034FF00002DA6043F65C
:102CE8007873C2F201034FF480621A6143F6787078
:102CF800C2F2010007F026F94FF0370002F0C4FADB
:102D08000346FB71FB79DBB2002B40F0A2807EE02A
:102D180043F67873C2F201034FF000021A6043F6DB
:102D28007873C2F201034FF037025A6043F67873A2
:102D3800C2F201034FF040029A6043F67873C2F280
:102D480001034FF00002DA6043F67873C2F2010320
:102D58004FF480621A6143F67870C2F2010007F0FE
:102D6800F1F84FF0370002F08FFA0346FB71FB7958
:102D7800DBB2002B02D0FB79DBB26CE0BB6843F01E
:102D8800004242F4801243F67873C2F201031A60DB
:102D980043F67873C2F201034FF029025A6043F6F2
:102DA8007873C2F201034FF040029A6043F67873D9
:102DB800C2F201034FF00002DA6043F67873C2F200
:102DC80001034FF480621A6143F67870C2F2010081
:102DD80007F0B8F802F048FB0346FB71FB79DBB259
:102DE800002B02D0FB79DBB235E04FF0000007F092
:102DF80007F978617B694FEAD373012B14BF00236D
:102E08000123DBB2FB603B6903F101033B61FB6813
:102E1800002B05D13A694FF6FE739A427FF678AFD8
:102E28003A694FF6FE739A4205D94FF01B03FB71BE
:102E3800FB79DBB20FE07B6903F080437B617B6940
:102E4800002B06D040F2A803C2F200034FF00202A2
:102E58001A60FB79DBB2184607F11807BD4680BD3A
:102E680080B582B000AF4FF00003FB714FF0000057
:102E780007F04AF8FB79184607F10807BD4680BDF8
:102E880080B582B000AF4FF00003FB714FF0010333
:102E9800BB8007F049F80346002B04D14FF0250307
:102EA800FB71FB7921E140F2A803C2F200031B6821
:102EB800042B59D043F67873C2F201034FF0000295
:102EC8001A6043F67873C2F201034FF002025A60A7
:102ED80043F67873C2F201034FF0C0029A6043F6DA
:102EE8007873C2F201034FF00002DA6043F6787398
:102EF800C2F201034FF480621A6143F67870C2F29D
:102F0800010007F01FF802F0DFFA0346FB71FB79B6
:102F1800002B01D0FB79E8E04FF0000007F070F8D3
:102F2800024640F2BC03C2F200031A604FF00400EC
:102F380007F066F8024640F2BC03C2F200035A608A
:102F48004FF0080007F05CF8024640F2BC03C2F2FA
:102F580000039A604FF00C0007F052F8024640F266
:102F6800BC03C2F20003DA6040F2A803C2F2000315
:102F78001B68002B14D040F2A803C2F200031B68A0
:102F8800012B0DD040F2A803C2F200031B68062BE8
:102F980006D040F2A803C2F200031B68022B36D108
:102FA80043F67873C2F201034FF000021A6043F649
:102FB8007873C2F201034FF003025A6043F6787344
:102FC800C2F201034FF040029A6043F67873C2F2EE
:102FD80001034FF00002DA6043F67873C2F201038E
:102FE8004FF480621A6143F67870C2F2010006F06D
:102FF800A9FF07F104034FF00300194602F0A2FAF3
:103008000346FB71FB79002B01D0FB796DE040F2A0
:10301800A803C2F200031B68042B62D0BB881A46BF
:1030280040F2CC03C2F200031A60BB884FEA0343A4
:103038001A4643F67873C2F201031A6043F67873AE
:10304800C2F201034FF009025A6043F67873C2F2E4
:1030580001034FF0C0029A6043F67873C2F201038D
:103068004FF00002DA6043F67873C2F201034FF4BE
:1030780080621A6143F67870C2F2010006F062FFBE
:1030880002F022FA0346FB71FB79002B01D0FB7991
:103098002BE04FF0000006F0B3FF024640F2AC030D
:1030A800C2F200031A604FF0040006F0A9FF0246BE
:1030B80040F2AC03C2F200035A604FF0080006F079
:1030C8009FFF024640F2AC03C2F200039A604FF041
:1030D8000C0006F095FF024640F2AC03C2F2000372
:1030E800DA604FF00003FB71FB79184607F1080717
:1030F800BD4680BDB0B485B000AF78604FF0000128
:10310800B9734FF00001F97340F2A801C2F200014F
:103118000968C8B2796881F8560040F2CC01C2F259
:103128000001096888B27968A1F8540040F2AC013E
:10313800C2F2000109684FEA1161F973F97B4FEA9D
:103148009111C8B279680870F97B01F03C014FEA27
:10315800A101C8B279684870F97B01F00301C8B2CF
:103168007968887040F2AC01C2F20001096801F484
:103178007F014FEA1141F9737968F87BC87040F212
:10318800AC01C2F20001096801F47F414FEA112144
:10319800F9737968F87B087140F2AC01C2F200015A
:1031A8000968F9737968F87B487140F2AC01C2F29A
:1031B800000149684FEA1161F973F97B89B24FEA56
:1031C800011188B27968C88040F2AC01C2F20001EE
:1031D800496801F47F014FEA1141F9737968C98898
:1031E80088B2F97B4FEA1111C9B2014388B27968F4
:1031F800C880F97B01F00F01C8B27968087240F203
:10320800AC01C2F20001496801F47F414FEA112183
:10321800F973F97B4FEAD111C8B279684872F97B22
:1032280001F040014FEAA111C8B279688872F97BB0
:1032380001F020014FEA6111C8B27968C872F97BC0
:1032480001F010014FEA2111C8B279680873796852
:103258004FF00000487340F2A801C2F2000109686B
:10326800002907D040F2A801C2F20001096801292B
:1032780040F0AF80FB7B03F003034FEA83231A4639
:103288007B681A6140F2AC03C2F200035B68FB730F
:103298007B681A69FB7B4FEA83031A437B681A61D0
:1032A80040F2AC03C2F200039B684FEA1363FB735E
:1032B8007B681A69FB7B4FEA9313DBB21A437B687E
:1032C8001A61FB7B03F038034FEAE303DAB27B6849
:1032D8001A75FB7B03F00703DAB27B685A7540F274
:1032E800AC03C2F200039B6803F47F034FEA134365
:1032F800FB73FB7B4FEA5313DAB27B689A75FB7B4F
:1033080003F01C034FEAA303DAB27B68DA75FB7B90
:1033180003F00303DBB24FEA4303DAB27B681A76A1
:1033280040F2AC03C2F200039B6803F47F434FEA08
:103338001323FB737B681B7EDAB2FB7B4FEAD31344
:10334800DBB21343DAB27B681A767B681B6903F138
:1033580001010A464FF000037968C1E912237B682E
:10336800D3E912017B681B7EDBB203F102034FF045
:10337800010202FA03F422464FEAE27302FB01F566
:1033880000FB03F42C19A0FB0223E1180B46796813
:10339800C1E912237B681B7ADBB24FF0010202FA03
:1033A80003F31A467B681A657B68D3E912017B68C8
:1033B8001C6D22464FF0000302FB01F500FB03F4ED
:1033C8002C19A0FB0223E1180B467968C1E91223E6
:1033D80053E040F2A801C2F20001096802294CD169
:1033E80040F2AC01C2F200014968F973F97B01F0BF
:1033F8003F014FEA014108467968086140F2AC0193
:10340800C2F2000189684FEA1161F97379680869A5
:10341800F97B4FEA012108437968086140F2AC0161
:10342800C2F20001896801F47F014FEA1141F97382
:1034380079680869F97B08437968086140F2AC014A
:10344800C2F20001896801F47F414FEA1121F97342
:103458007968096901F1010420464FF000014FEA3B
:1034680050344FEAC14323434FEAC0427968C1E967
:1034780012237B684FF400721A65FB7B03F040034C
:103488004FEAA313DAB27B685A76FB7B03F03F035B
:10349800DBB24FEA4303DAB27B689A7640F2AC03B8
:1034A800C2F200039B68FB737B689B7EDAB2FB7BEE
:1034B8004FEAD313DBB21343DAB27B689A76FB7B0D
:1034C80003F07F03DAB27B68DA7640F2AC03C2F22B
:1034D8000003DB684FEA1363FB73FB7B4FEAD313EC
:1034E800DAB27B681A77FB7B03F060034FEA631359
:1034F800DAB27B685A77FB7B03F01C034FEAA3031D
:10350800DAB27B689A77FB7B03F00303DBB24FEAFE
:103518008303DAB27B68DA7740F2AC03C2F20003C5
:10352800DB6803F47F034FEA1343FB737B68DB7F9D
:10353800DAB2FB7B4FEA9313DBB21343DAB27B6850
:10354800DA77FB7B03F020034FEA6313DAB27B6878
:1035580083F820207B684FF0000283F82120FB7B52
:1035680003F00103DAB27B6883F8222040F2AC034F
:10357800C2F20003DB6803F47F434FEA1323FB73B3
:10358800FB7B4FEAD313DAB27B6883F82320FB7BFB
:1035980003F040034FEAA313DAB27B6883F82420D0
:1035A800FB7B03F020034FEA6313DAB27B6883F8EE
:1035B8002520FB7B03F010034FEA2313DAB27B6864
:1035C80083F82620FB7B03F00C034FEAA303DAB24F
:1035D8007B6883F82720FB7B03F00303DAB27B6860
:1035E80083F8282040F2AC03C2F20003DB68FB73C7
:1035F800FB7B4FEA5303DAB27B6883F829207B68A8
:103608004FF0010283F82A2040F2BC03C2F2000303
:103618001B684FEA1363FB737B68FA7B83F82C20E3
:1036280040F2BC03C2F200031B6803F47F034FEAB5
:103638001343FB73FB7B9BB24FEA03239AB27B686D
:10364800DA8540F2BC03C2F200031B6803F47F432F
:103658004FEA1323FB737B68DB8D9AB2FB7B9BB22B
:1036680013439AB27B68DA8540F2BC03C2F20003C6
:103678001B68FB73FB7B4FEA03631A467B681A637C
:1036880040F2BC03C2F200035B684FEA1363FB73AA
:103698007B681A6BFB7B4FEA03431A437B681A6308
:1036A80040F2BC03C2F200035B6803F47F034FEAF5
:1036B8001343FB737B681A6BFB7B4FEA03231A43A4
:1036C8007B681A6340F2BC03C2F200035B6803F430
:1036D8007F434FEA1323FB737B681A6BFB7B1A4308
:1036E8007B681A6340F2BC03C2F200035B68FB7399
:1036F8007B68FA7B83F8342040F2BC03C2F20003F3
:103708009B684FEA1363FB737B68FA7B83F8352069
:1037180040F2BC03C2F200039B6803F47F034FEA44
:103728001343FB73FB7B4FEA03631A467B689A6378
:1037380040F2BC03C2F200039B6803F47F434FEAE4
:103748001323FB737B689A6BFB7B4FEA03431A4393
:103758007B689A6340F2BC03C2F200039B68FB7368
:103768007B689A6BFB7B4FEA03231A437B689A6357
:1037780040F2BC03C2F20003DB684FEA1363FB7339
:103788007B689A6BFB7B1A437B689A6340F2BC03A5
:10379800C2F20003DB6803F47F034FEA1343FB73B1
:1037A8007B6893F83C30DAB2FB7B4FEA1313DBB249
:1037B8001343DAB27B6883F83C20FB7B9BB203F0AF
:1037C8000F039BB24FEA03239AB27B68DA8740F271
:1037D800BC03C2F20003DB6803F47F434FEA132300
:1037E800FB737B68DB8F9AB2FB7B9BB213439AB265
:1037F8007B68DA8740F2BC03C2F20003DB68FB7324
:10380800FB7B4FEA5303DAB27B6883F840207B687E
:103818004FF0010283F84120BB7B184607F11407DB
:10382800BD46B0BC704700BF80B584B000AF7860BB
:103838004FF00003FB734FF00003BB7340F2D0005E
:10384800C2F2000001F090FA0346FB73FB7B002BE9
:1038580001D0FB7BB7E040F2D003C2F200031B7833
:103868004FEA9313BB737B68BA7B1A7040F2D0039C
:10387800C2F200031B7803F020034FEA6313BB7303
:103888007B68BA7B5A7040F2D003C2F200039B787F
:10389800BB73BB7B9BB24FEA03239AB27B685A8007
:1038A80040F2D003C2F20003DB78BB737B685B880D
:1038B8009AB2BB7B9BB213439AB27B685A8040F2A0
:1038C800D003C2F200031B79BB73BB7B4FEA0363CF
:1038D8001A467B685A6040F2D003C2F200035B7953
:1038E800BB737B685A68BB7B4FEA03431A437B6808
:1038F8005A6040F2D003C2F200039B79BB737B6825
:103908005A68BB7B4FEA03231A437B685A6040F22C
:10391800D003C2F20003DB79BB737B685A68BB7BB8
:103928001A437B685A6040F2D003C2F200031B7A44
:10393800BB737B68BA7B1A7240F2D003C2F20003F1
:103948005B7ABB737B68BA7B5A7240F2D003C2F2CF
:1039580000039B7A4FEA1313BB737B68BA7B9A7296
:1039680040F2D003C2F20003DB7ABB73BB7B9BB28D
:103978004FEA03239AB27B689A8140F2D003C2F2DD
:1039880000031B7BBB737B689B899AB2BB7B9BB292
:1039980013439AB27B689A8140F2D003C2F20003C3
:1039A8005B7B4FEA9303BB737B68BA7B9A7340F2E5
:1039B800D003C2F200035B7B03F00303BB737B6895
:1039C800BA7BDA73FB7B184607F11007BD4680BD4A
:1039D80080B584B000AF78604FF00003FB7340F20D
:1039E800A803C2F200031B68032B04D14FF027037E
:1039F800FB73FB7B95E040F2A803C2F200031B684F
:103A0800002B0DD040F2A803C2F200031B68012B63
:103A180006D040F2A803C2F200031B68022B7FD134
:103A28007B68B3F5805F04D14FF02703FB73FB7B02
:103A380077E07B68B3F5006F39D14FF0010001F0F2
:103A4800F7FD0346FB73FB7B002B69D143F6E87354
:103A5800C2F201034FF002021A7543F6E873C2F28C
:103A680001034FF000021A6043F6E873C2F2010343
:103A78004FF000025A6043F6E873C2F201034FF0B8
:103A880000029A6043F6E873C2F201034FF4006241
:103A9800DA6043F6E873C2F201034FF000021A61DC
:103AA80043F6E870C2F2010006F0C8F938E04FF0BA
:103AB800000001F0BDFD0346FB73FB7B002B2FD1FB
:103AC80043F6E873C2F201034FF002021A7543F697
:103AD800E873C2F201034FF000021A6043F6E8737C
:103AE800C2F201034FF000025A6043F6E873C2F2D3
:103AF80001034FF000029A6043F6E873C2F2010333
:103B08004FF00002DA6043F6E873C2F201034FF0A7
:103B180000021A6143F6E870C2F2010006F08EF95D
:103B2800FB7B184607F11007BD4680BD80B584B001
:103B380000AF78604FF00003FB7343F67873C2F26E
:103B480001037A681A6043F67873C2F201034FF0F2
:103B580007025A6043F67873C2F201034FF040023D
:103B68009A6043F67873C2F201034FF00002DA60FC
:103B780043F67873C2F201034FF480621A6143F688
:103B88007870C2F2010006F0DDF94FF0070001F08D
:103B98007BFB0346FB73FB7B184607F11007BD460A
:103BA80080BD00BF80B586B000AFF860B96013462D
:103BB800FB804FF00003FB7540F2E403C2F2000300
:103BC8004FF000021A7040F2E803C2F200034FF00F
:103BD80000021A6040F2E003C2F200034FF0000254
:103BE8001A604FF43053C4F201034FF00002DA6256
:103BF80040F2A803C2F200031B68022B06D14FF45F
:103C08000073FB80BB684FEA5323BB60FA8843F616
:103C18007873C2F201031A6043F67873C2F20103A3
:103C28004FF010025A6043F67873C2F201034FF066
:103C380040029A6043F67873C2F201034FF0000223
:103C4800DA6043F67873C2F201034FF480621A61B6
:103C580043F67870C2F2010006F074F94FF01000D4
:103C680001F012FB0346FB75FB7D002B01D0FB7DA9
:103C780071E044F20003C2F201034FF0FF321A6010
:103C8800FA8844F20003C2F201035A6044F20003C6
:103C9800C2F201034FF090029A6044F20003C2F2AC
:103CA80001034FF00202DA6044F20003C2F201039A
:103CB8004FF000021A6144F20003C2F201034FF010
:103CC80001025A6144F20000C2F2010006F0AEF9A6
:103CD80043F67873C2F20103BA681A6043F6787340
:103CE800C2F201034FF011025A6043F67873C2F230
:103CF80001034FF040029A6043F67873C2F2010361
:103D08004FF00002DA6043F67873C2F201034FF411
:103D180080621A6143F67870C2F2010006F012F967
:103D28004FF0110001F0B0FA0346FB75FB7D002B44
:103D380001D0FB7D0FE040F22A304FF0010106F080
:103D48009BFA4FF0010006F087FAFB88F8681946DD
:103D580002F0DAF9FB7D184607F11807BD4680BD69
:103D680080B586B000AFF860B9603B601346FB8051
:103D78004FF00003FB7540F2E403C2F200034FF07A
:103D880000021A7040F2E803C2F200034FF000028A
:103D98001A6040F2E003C2F200034FF001021A6019
:103DA8004FF43053C4F201034FF00002DA6240F2DC
:103DB800A803C2F200031B68022B06D14FF400735C
:103DC800FB80BB684FEA5323BB60FA8843F67873DD
:103DD800C2F201031A6043F67873C2F201034FF08E
:103DE80010025A6043F67873C2F201034FF04002A2
:103DF8009A6043F67873C2F201034FF00002DA606A
:103E080043F67873C2F201034FF480621A6143F6F5
:103E18007870C2F2010006F095F84FF0100001F03A
:103E280033FA0346FB75FB7D002B01D0FB7D77E061
:103E380044F20003C2F201034FF0FF321A60FB881C
:103E48003A6802FB03F244F20003C2F201035A602B
:103E580044F20003C2F201034FF090029A6044F268
:103E68000003C2F201034FF00202DA6044F20003D9
:103E7800C2F201034FF000021A6144F20003C2F2D9
:103E880001034FF001025A6144F20000C2F201003E
:103E980006F0CCF843F67873C2F20103BA681A60E8
:103EA80043F67873C2F201034FF012025A6043F6E8
:103EB8007873C2F201034FF040029A6043F67873B8
:103EC800C2F201034FF00002DA6043F67873C2F2DF
:103ED80001034FF480621A6143F67870C2F2010060
:103EE80006F030F84FF0120001F0CEF90346FB75EA
:103EF800FB7D002B01D0FB7D12E040F22A304FF011
:103F0800010106F0B9F94FF0010006F0A5F9FB88A8
:103F18003A6802FB03F3F868194602F0F5F8FB7DEE
:103F2800184607F11807BD4680BD00BF80B586B0AA
:103F380000AFF860B9607A603B604FF00003FB7532
:103F480040F2E403C2F200034FF000021A7040F29C
:103F5800E803C2F200034FF000021A6040F2E003E7
:103F6800C2F200034FF001021A604FF43053C4F25A
:103F780001034FF00002DA6240F2A803C2F2000324
:103F88001B68022B03D14FF400737B6004E0BB680D
:103F98007A6802FB03F3BB6043F67873C2F201034D
:103FA8007A681A6043F67873C2F201034FF0100280
:103FB8005A6043F67873C2F201034FF040029A60E8
:103FC80043F67873C2F201034FF00002DA6043F659
:103FD8007873C2F201034FF480621A6143F6787075
:103FE800C2F2010005F0AEFF4FF0100001F04CF9ED
:103FF8000346FB75FB7D002B01D0FB7D77E044F287
:104008000003C2F201034FF0FF321A603B687A687E
:1040180002FB03F244F20003C2F201035A6044F2C5
:104028000003C2F201034FF090029A6044F20003C9
:10403800C2F201034FF00202DA6044F20003C2F256
:1040480001034FF000021A6144F20003C2F20103B7
:104058004FF001025A6144F20000C2F2010005F07B
:10406800E5FF43F67873C2F20103BA681A6043F6B3
:104078007873C2F201034FF012025A6043F6787364
:10408800C2F201034FF040029A6043F67873C2F21D
:1040980001034FF00002DA6043F67873C2F20103BD
:1040A8004FF480621A6143F67870C2F2010005F09D
:1040B80049FF4FF0120001F0E7F80346FB75FB7D5E
:1040C800002B01D0FB7D12E040F22A304FF00101B5
:1040D80006F0D2F84FF0010006F0BEF83B687A68A7
:1040E80002FB03F3F868194602F00EF8FB7D184648
:1040F80007F11807BD4680BD80B582B000AF4FF00C
:104108000003FB714FF0FF333B6003E03B6803F1B2
:10411800FF333B6040F2EC03C2F200031B68002B44
:1041280011D140F2E803C2F200031B68002B0AD148
:1041380040F2E403C2F200031B78DBB2002B02D189
:104148003B68002BE2D140F2EC03C2F200034FF0CF
:1041580000021A604FF0FF333B6003E03B6803F155
:10416800FF333B604FF43053C4F201035B6B03F43D
:104178000053002B02D03B68002BEFD140F2E00344
:10418800C2F200031B68012B03D100F02BFC03468D
:10419800FB713B68002B05D1FB79002B02D14FF056
:1041A8000403FB7140F2FF5006F0AEF840F2E4035E
:1041B800C2F200031B78DBB2002B06D040F2E40306
:1041C800C2F200031B78DBB200E0FB79184607F166
:1041D8000807BD4680BD00BF80B586B000AFF86057
:1041E800B9601346FB804FF00003FB7540F2E4030F
:1041F800C2F200034FF000021A7040F2E803C2F264
:1042080000034FF000021A6040F2E003C2F200031C
:104218004FF000021A604FF43053C4F201034FF01C
:104228000002DA6240F2A803C2F200031B68022B04
:1042380006D14FF40073FB80BB684FEA5323BB6081
:10424800FA8843F67873C2F201031A6043F678736A
:10425800C2F201034FF010025A6043F67873C2F2BB
:1042680001034FF040029A6043F67873C2F20103EB
:104278004FF00002DA6043F67873C2F201034FF49C
:1042880080621A6143F67870C2F2010005F05AFEA6
:104298004FF0100000F0F8FF0346FB75FB7D002B84
:1042A80001D0FB7D71E043F67873C2F20103BA686E
:1042B8001A6043F67873C2F201034FF018025A608D
:1042C80043F67873C2F201034FF040029A6043F656
:1042D8007873C2F201034FF00002DA6043F6787394
:1042E800C2F201034FF480621A6143F67870C2F299
:1042F800010005F027FE4FF0180000F0C5FF034647
:10430800FB75FB7D002B01D0FB7D3EE044F20003F2
:10431800C2F201034FF0FF321A60FA8844F2000338
:10432800C2F201035A6044F20003C2F201034FF0E3
:1043380090029A6044F20003C2F201034FF00002B7
:10434800DA6044F20003C2F201034FF000021A617E
:1043580044F20003C2F201034FF001025A6144F231
:104368000000C2F2010005F061FE40F22A304FF071
:10437800010105F081FFFB88F868194601F054FE39
:104388004FF0010005F068FFFB7D184607F118079C
:10439800BD4680BD80B586B000AFF860B9603B60AF
:1043A8001346FB804FF00003FB7540F2E403C2F2B2
:1043B80000034FF000021A7040F2E803C2F2000353
:1043C8004FF000021A6040F2E003C2F200034FF01F
:1043D80001021A604FF43053C4F201034FF0000297
:1043E800DA6240F2A803C2F200031B68022B06D16E
:1043F8004FF40073FB80BB684FEA5323BB60FA8815
:1044080043F67873C2F201031A6043F67873C2F276
:1044180001034FF010025A6043F67873C2F20103A9
:104428004FF040029A6043F67873C2F201034FF0EE
:104438000002DA6043F67873C2F201034FF4806237
:104448001A6143F67870C2F2010005F07BFD4FF067
:10445800100000F019FF0346FB75FB7D002B01D00F
:10446800FB7DE3E040F2CC03C2F200031B684FEA95
:10447800034243F67873C2F201031A6043F6787375
:10448800C2F201034FF037025A6043F67873C2F262
:1044980001034FF040029A6043F67873C2F20103B9
:1044A8004FF00002DA6043F67873C2F201034FF46A
:1044B80080621A6143F67870C2F2010005F042FD8D
:1044C8004FF0370000F0E0FE0346FB75FB7D002B44
:1044D80001D0FB7DAAE043F67873C2F201033A6883
:1044E8001A6043F67873C2F201034FF017025A605C
:1044F80043F67873C2F201034FF040029A6043F624
:104508007873C2F201034FF00002DA6043F6787361
:10451800C2F201034FF480621A6143F67870C2F266
:10452800010005F00FFD4FF0170000F0ADFE034647
:10453800FB75FB7D002B01D0FB7D77E043F678739C
:10454800C2F20103BA681A6043F67873C2F2010333
:104558004FF019025A6043F67873C2F201034FF024
:1045680040029A6043F67873C2F201034FF00002EA
:10457800DA6043F67873C2F201034FF480621A617D
:1045880043F67870C2F2010005F0DCFC4FF0190028
:1045980000F07AFE0346FB75FB7D002B01D0FB7D06
:1045A80044E044F20003C2F201034FF0FF321A6004
:1045B800FB883A6802FB03F244F20003C2F20103EB
:1045C8005A6044F20003C2F201034FF090029A606D
:1045D80044F20003C2F201034FF00002DA6044F231
:1045E8000003C2F201034FF000021A6144F2000313
:1045F800C2F201034FF001025A6144F20000C2F214
:10460800010005F013FD40F22A304FF0010105F0DA
:1046180033FE4FF0010005F01FFEFB883A6802FBED
:1046280003F3F868194601F0FFFCFB7D184607F113
:104638001807BD4680BD00BF80B586B000AFF860E2
:10464800B9607A603B604FF00003FB7540F2E40309
:10465800C2F200034FF000021A7040F2E803C2F2FF
:1046680000034FF000021A6040F2E003C2F20003B8
:104678004FF001021A604FF43053C4F201034FF0B7
:104688000002DA6240F2A803C2F200031B68022BA0
:1046980003D14FF400737B6004E0BB687A6802FBC7
:1046A80003F3BB6043F67873C2F201037A681A60B9
:1046B80043F67873C2F201034FF010025A6043F6D2
:1046C8007873C2F201034FF040029A6043F67873A0
:1046D800C2F201034FF00002DA6043F67873C2F2C7
:1046E80001034FF480621A6143F67870C2F2010048
:1046F80005F028FC4FF0100000F0C6FD0346FB75DE
:10470800FB7D002B01D0FB7DE3E040F2CC03C2F23D
:1047180000031B684FEA034243F67873C2F20103B1
:104728001A6043F67873C2F201034FF037025A60F9
:1047380043F67873C2F201034FF040029A6043F6E1
:104748007873C2F201034FF00002DA6043F678731F
:10475800C2F201034FF480621A6143F67870C2F224
:10476800010005F0EFFB4FF0370000F08DFD034628
:10477800FB75FB7D002B01D0FB7DAAE043F6787327
:10478800C2F201033A681A6043F67873C2F2010371
:104798004FF017025A6043F67873C2F201034FF0E4
:1047A80040029A6043F67873C2F201034FF00002A8
:1047B800DA6043F67873C2F201034FF480621A613B
:1047C80043F67870C2F2010005F0BCFB4FF0170009
:1047D80000F05AFD0346FB75FB7D002B01D0FB7DE5
:1047E80077E043F67873C2F20103BA681A6043F6B9
:1047F8007873C2F201034FF019025A6043F67873D6
:10480800C2F201034FF040029A6043F67873C2F295
:1048180001034FF00002DA6043F67873C2F2010335
:104828004FF480621A6143F67870C2F2010005F015
:1048380089FB4FF0190000F027FD0346FB75FB7D4F
:10484800002B01D0FB7D44E044F20003C2F20103D7
:104858004FF0FF321A603B687A6802FB03F244F2B9
:104868000003C2F201035A6044F20003C2F20103DA
:104878004FF090029A6044F20003C2F201034FF035
:104888000002DA6044F20003C2F201034FF00002B2
:104898001A6144F20003C2F201034FF001025A61A7
:1048A80044F20000C2F2010005F0C0FB40F22A30D9
:1048B8004FF0010105F0E0FC4FF0010005F0CCFCE1
:1048C8003B687A6802FB03F3F868194601F0ACFB11
:1048D800FB7D184607F11807BD4680BD80B582B03C
:1048E80000AF4FF00003FB714FF0FF333B6003E074
:1048F8003B6803F1FF333B6040F2EC03C2F2000374
:104908001B68002B11D140F2E803C2F200031B68B8
:10491800002B0AD140F2E403C2F200031B78DBB299
:10492800002B02D13B68002BE2D140F2EC03C2F22B
:1049380000034FF000021A604FF0FF333B6003E0C2
:104948003B6803F1FF333B604FF43053C4F201037B
:104958005B6B03F48053002B02D03B68002BEFD134
:1049680040F2E003C2F200031B68012B03D100F000
:1049780039F80346FB713B68002B05D1FB79002B06
:1049880002D14FF00403FB7140F2FF5005F0BCFC6C
:1049980040F2E403C2F200031B78DBB2002B06D01E
:1049A80040F2E403C2F200031B78DBB200E0FB79BB
:1049B800184607F10807BD4680BD00BF80B400AFA8
:1049C8004FF43053C4F201035B6B03F44053002BE4
:1049D80002D04FF0010301E04FF000031846BD4636
:1049E80080BC704780B582B000AF4FF00003FB7108
:1049F80043F67873C2F201034FF000021A6043F6DF
:104A08007873C2F201034FF00C025A6043F67873D0
:104A1800C2F201034FF040029A6043F67873C2F283
:104A280001034FF00002DA6043F67873C2F2010323
:104A38004FF480621A6143F67870C2F2010005F003
:104A480081FA4FF00C0000F01FFC0346FB71FB7964
:104A5800184607F10807BD4680BD00BF80B586B07F
:104A680000AF786039604FF00003FB754FF000032A
:104A78003B614FF00003FB604FF00003FB7240F214
:104A8800AC03C2F200035B684FEA135303F0200340
:104A9800002B04D14FF02503FB75FB7D09E14FF492
:104AA8003053C4F201035B68DBB203F102024DF23A
:104AB800C043C0F20103B3FBF2F3FB604FF0000008
:104AC80005F09EFA034603F00073002B04D04FF064
:104AD8000E03FB75FB7DECE040F2A803C2F2000375
:104AE8001B68022B07D17B684FEA53237B603B6826
:104AF8004FEA53233B6040F2A803C2F200031B684D
:104B0800002B0DD040F2A803C2F200031B68012B52
:104B180006D040F2A803C2F200031B68022B65D13D
:104B280043F67873C2F201037A681A6043F6787321
:104B3800C2F201034FF020025A6043F67873C2F2C2
:104B480001034FF040029A6043F67873C2F2010302
:104B58004FF00002DA6043F67873C2F201034FF4B3
:104B680080621A6143F67870C2F2010005F0EAF932
:104B78004FF0200000F088FB0346FB75FB7D002BFF
:104B880001D0FB7D95E043F67873C2F201033A68E1
:104B98001A6043F67873C2F201034FF021025A609B
:104BA80043F67873C2F201034FF040029A6043F66D
:104BB8007873C2F201034FF00002DA6043F67873AB
:104BC800C2F201034FF480621A6143F67870C2F2B0
:104BD800010005F0B7F94FF0210000F055FB03463E
:104BE800FB75FB7D002B01D0FB7D62E043F67873FB
:104BF800C2F201034FF000021A6043F67873C2F262
:104C080001034FF026025A6043F67873C2F201039B
:104C18004FF040029A6043F67873C2F201034FF0F6
:104C28000002DA6043F67873C2F201034FF480623F
:104C38001A6143F67870C2F2010005F083F94FF06B
:104C4800260000F021FB0346FB75FB7D002B01D0FD
:104C5800FB7D2EE04FF000033B6103E03B6903F16D
:104C680001033B61FB683A699A42F7D307F10B03EA
:104C7800184600F005FE0346FB754FF0FF333B6115
:104C88000AE007F10B03184600F0FAFD0346FB752E
:104C98003B6903F1FF333B613B69002B08D0FB7D87
:104CA800002B05D1FB7A072BEBD0FB7A062BE8D03B
:104CB800FB7D184607F11807BD4680BD80B584B056
:104CC80000AF78604FF00003FB737B68002B04D1C2
:104CD8004FF02603FB73FB7B40E040F2CC03C2F2AB
:104CE80000031B684FEA034243F67873C2F20103DC
:104CF8001A6043F67873C2F201034FF00D025A604E
:104D080043F67873C2F201034FF040029A6043F60B
:104D18007873C2F201034FF00002DA6043F6787349
:104D2800C2F201034FF480621A6143F67870C2F24E
:104D3800010005F007F94FF00D0000F0A5FA034651
:104D4800FB73FB7B002B01D0FB7B07E04FF00000DF
:104D580005F056F902467B681A60FB7B184607F196
:104D68001007BD4680BD00BF90B585B000AF786024
:104D78004FF00003FB724FF00003FB604FF00000A0
:104D880005F03EF9034603F00073002B04D04FF002
:104D98000E03FB72FB7A5BE143F67873C2F2010300
:104DA8004FF040021A6043F67873C2F201034FF0E5
:104DB80010025A6043F67873C2F201034FF04002C2
:104DC8009A6043F67873C2F201034FF00002DA608A
:104DD80043F67873C2F201034FF480621A6143F616
:104DE8007870C2F2010005F0ADF84FF0100000F045
:104DF8004BFA0346FB72FB7A002B01D0FB7A27E1C2
:104E080040F2CC03C2F200031B684FEA034243F6A8
:104E18007873C2F201031A6043F67873C2F2010391
:104E28004FF037025A6043F67873C2F201034FF02D
:104E380040029A6043F67873C2F201034FF0000211
:104E4800DA6043F67873C2F201034FF480621A61A4
:104E580043F67870C2F2010005F074F84FF037009D
:104E680000F012FA0346FB72FB7A002B01D0FB7AA2
:104E7800EEE044F20003C2F201034FF0FF321A6081
:104E880044F20003C2F201034FF040025A6044F2B8
:104E98000003C2F201034FF060029A6044F200037B
:104EA800C2F201034FF00202DA6044F20003C2F2D8
:104EB80001034FF000021A6144F20003C2F2010339
:104EC8004FF001025A6144F20000C2F2010005F0FD
:104ED800ADF843F67873C2F201034FF000021A608E
:104EE80043F67873C2F201034FF00D025A6043F69D
:104EF8007873C2F201034FF040029A6043F6787368
:104F0800C2F201034FF00002DA6043F67873C2F28E
:104F180001034FF480621A6143F67870C2F201000F
:104F280005F010F84FF00D0000F0AEF90346FB72E3
:104F3800FB7A002B21D0FB7A8AE04FF4004005F081
:104F4800C5F90346002B19D04FF00003FB600CE0B5
:104F5800FB684FEA83037A68D41805F0CDF8034656
:104F68002360FB6803F10103FB60FB68072BEFD9A3
:104F78007B6803F120037B6000E000BF4FF43053EF
:104F8800C4F201035A6B40F22A631340002BD4D0B9
:104F98004FF0080005F09AF90346002B08D04FF0AF
:104FA800080005F0B1F94FF00403FB72FB7A4FE0FB
:104FB8004FF0020005F08AF90346002B08D04FF0A5
:104FC800020005F0A1F94FF00203FB72FB7A3FE003
:104FD8004FF0200005F07AF90346002B08D04FF077
:104FE800200005F091F94FF00603FB72FB7A2FE0E1
:104FF8004FF4007005F06AF90346002B08D04FF40F
:10500800007005F081F94FF00703FB72FB7A1FE08F
:105018004FF0FF33FB600CE005F06EF802467B684A
:105028001A607B6803F104037B60FB6803F1FF33BC
:10503800FB604FF4001005F049F90346002B02D03D
:10504800FB68002BE8D140F2FF5005F05DF9FB7AD0
:10505800184607F11407BD4690BD00BF80B500AFE4
:105068004FF4807005F060F90346002B12D040F22F
:10507800E403C2F200034FF000021A704FF480708C
:1050880005F070F940F2E803C2F200034FF00102A4
:105098001A605DE04FF0020005F046F90346002B68
:1050A8000BD04FF0020005F05DF940F2E403C2F2C4
:1050B80000034FF002021A704AE04FF0080005F0B2
:1050C80033F90346002B0BD04FF0080005F04AF9DE
:1050D80040F2E403C2F200034FF004021A7037E012
:1050E8004FF0200005F020F90346002B0BD04FF0BD
:1050F800200005F037F940F2E403C2F200034FF054
:1051080006021A7024E04FF0100005F00DF903466E
:10511800002B0BD04FF0100005F024F940F2E40307
:10512800C2F200034FF005021A7011E04FF400704C
:1051380005F0FAF80346002B0AD04FF4007005F08A
:1051480011F940F2E403C2F200034FF007021A70AB
:105158004CF23A304FF0000105F08EF840F2E403CB
:10516800C2F200031B78DBB2184680BD80B500AFE1
:105178004FF4C843C4F202031B6803F0C053002B6A
:105188000ED040F2EC03C2F200034FF001021A60A5
:1051980046F25840C4F202004FF0C25104F044FDF8
:1051A80080BD00BF80B582B000AF4FF00003FB7038
:1051B8004FF480337B6003E07B6803F1FF337B604F
:1051C8007B68002B06D04FF0800005F07FF803467F
:1051D800002BF1D07B68002B04D14FF00303FB7048
:1051E800FB7804E040F2FF5005F08EF8FB78184693
:1051F80007F10807BD4680BD80B584B000AF4FF009
:105208000003FB714FF48033BB604FF43053C4F29A
:1052180001035B6BFB6009E0BB6803F1FF33BB6014
:105228004FF43053C4F201035B6BFB60FB6803F07F
:105238004503002B02D1BB68002BEDD1BB68002BC6
:1052480004D0FB6803F00403002B08D04FF00303DD
:10525800FB714FF0040005F057F8FB790EE0FB688E
:1052680003F04003002B08D04FF00003FB714FF010
:10527800400005F049F8FB7900E0FB79184607F192
:105288001007BD4680BD00BF80B586B000AF03469D
:10529800FB714FF00003FB744FF43053C4F2010369
:1052A8005B6B7B6105E04FF43053C4F201035B6B29
:1052B8007B617B6903F04503002BF4D07B6903F025
:1052C8000403002B08D04FF00303FB744FF00400D5
:1052D80005F01AF8FB7CC2E07B6903F00103002BA0
:1052E80008D04FF00103FB744FF0010005F00CF8F3
:1052F800FB7CB4E004F078FE0346FA799A4204D0C5
:105308004FF01003FB74FB7CA9E040F2FF5004F05F
:10531800FBFF4FF0000004F073FEF860FA684EF2ED
:105328000803CFF6FF531340002B01D1FB7C96E016
:10533800FB68002B02DA4FF01C0390E0FB6803F0D7
:105348008043002B02D04FF0090388E0FB6803F08C
:105358000053002B02D04FF00A0380E0FB6803F0F3
:105368008053002B02D04FF00B0378E0FB6803F06A
:105378000063002B02D04FF00C0370E0FB6803F0D1
:105388008063002B02D04FF00D0368E0FB6803F048
:105398008073002B02D04FF00E0360E0FB6803F42B
:1053A8000003002B02D04FF00F0358E0FB6803F412
:1053B8008003002B02D04FF0100350E0FB6803F489
:1053C8000013002B02D04FF0110348E0FB6803F4F0
:1053D8008013002B02D04FF0120340E0FB6803F467
:1053E8000023002B02D04FF0130338E0FB6803F4CE
:1053F8008023002B02D04FF0140330E0FB6803F445
:105408000033002B02D04FF0150328E0FB6803F4AB
:105418008033002B02D04FF0160320E0FB6803F422
:105428000043002B02D04FF0170318E0FB6803F489
:105438008043002B02D04FF0180310E0FB6803F400
:105448000053002B02D04FF0190308E0FB6803F06B
:105458000803002B02D04FF01A0300E0FB7C18462B
:1054680007F11807BD4680BD80B582B000AF4FF088
:105478000003FB704FF43053C4F201035B6B7B6095
:1054880005E04FF43053C4F201035B6B7B607B682B
:1054980003F04503002BF4D07B6803F00403002BD2
:1054A80008D04FF00303FB704FF0040004F02CFF0A
:1054B800FB7804E040F2FF5004F026FFFB78184622
:1054C80007F10807BD4680BD80B582B000AF4FF038
:1054D8000003FB704FF43053C4F201035B6B7B6035
:1054E80005E04FF43053C4F201035B6B7B607B68CB
:1054F80003F04503002BF4D07B6803F00403002B72
:1055080008D04FF00303FB704FF0040004F0FCFEDA
:10551800FB7812E07B6803F00103002B08D04FF002
:105528000103FB704FF0010004F0EEFEFB7804E08D
:1055380040F2FF5004F0E8FEFB78184607F1080730
:10554800BD4680BD80B586B000AF03463960FB71AB
:105558004FF00003FB744FF43053C4F201035B6B4C
:105568007B6105E04FF43053C4F201035B6B7B6150
:105578007B6903F04503002BF4D07B6903F0040337
:10558800002B08D04FF00303FB744FF0040004F025
:10559800BBFEFB7C47E07B6903F00103002B08D0CE
:1055A8004FF00103FB744FF0010004F0ADFEFB7CEB
:1055B80039E004F019FD0346FA799A4204D04FF015
:1055C8001003FB74FB7C2EE040F2FF5004F09CFEBD
:1055D8004FF0000004F014FDF860FB6803F460432A
:1055E800002B07D1FB684FEA13439AB23B681A8035
:1055F800FB7C18E0FB6803F40053002B02D04FF04B
:10560800130310E0FB6803F48043002B02D04FF033
:10561800100308E0FB6803F40043002B02D04FF0AE
:105628000F0300E0FB7C184607F11807BD4680BD54
:1056380080B586B000AF0346FB714FF00003FB75E1
:105648004FF00003FB604FF000033B614FF0000098
:1056580004F0D6FC034603F00073002B04D04FF08F
:105668000E03FB75FB7D06E140F2CC03C2F200039A
:105678001B689AB207F10C031046194600F02EFA7F
:105688000346FB75FB7D002B01D0FB7DF3E0FB7926
:10569800012B78D13B6903F48023002B6ED040F2B4
:1056A800CC03C2F200031B684FEA034243F6787347
:1056B800C2F201031A6043F67873C2F201034FF095
:1056C80037025A6043F67873C2F201034FF0400282
:1056D8009A6043F67873C2F201034FF00002DA6071
:1056E80043F67873C2F201034FF480621A6143F6FD
:1056F8007870C2F2010004F025FC4FF03700FFF784
:10570800C3FD0346FB75FB7D002B01D0FB7DB2E09A
:1057180043F67873C2F201034FF002021A6043F6AF
:105728007873C2F201034FF006025A6043F67873A9
:10573800C2F201034FF040029A6043F67873C2F256
:1057480001034FF00002DA6043F67873C2F20103F6
:105758004FF480621A6143F67870C2F2010004F0D7
:10576800F1FB4FF00600FFF78FFD0346FB75FB7D4D
:10577800002B01D0FB7D7EE0FB7D7CE04FF0250314
:10578800FB75FB7D77E03B6903F48033002B6ED01B
:1057980040F2CC03C2F200031B684FEA034243F60F
:1057A8007873C2F201031A6043F67873C2F20103F8
:1057B8004FF037025A6043F67873C2F201034FF094
:1057C80040029A6043F67873C2F201034FF0000278
:1057D800DA6043F67873C2F201034FF480621A610B
:1057E80043F67870C2F2010004F0ACFB4FF03700CA
:1057F800FFF74AFD0346FB75FB7D002B01D0FB7DBF
:1058080039E043F67873C2F201034FF000021A60E0
:1058180043F67873C2F201034FF006025A6043F66A
:105828007873C2F201034FF040029A6043F678732E
:10583800C2F201034FF00002DA6043F67873C2F255
:1058480001034FF480621A6143F67870C2F20100D6
:1058580004F078FB4FF00600FFF716FD0346FB75D2
:10586800FB7D002B01D0FB7D05E0FB7D03E04FF0C5
:105878002503FB75FB7D184607F11807BD4680BD5B
:1058880080B586B000AF78604FF00003FB754FF02D
:1058980000033B614FF00003FB6040F2CC03C2F20F
:1058A80000031B684FEA034243F67873C2F2010310
:1058B8001A6043F67873C2F201034FF00D025A6082
:1058C80043F67873C2F201034FF040029A6043F640
:1058D8007873C2F201034FF00002DA6043F678737E
:1058E800C2F201034FF480621A6143F67870C2F283
:1058F800010004F027FB4FF43053C4F201035B6B43
:10590800FB6005E04FF43053C4F201035B6BFB60AE
:10591800FB6803F04503002BF4D0FB6803F0040395
:10592800002B08D04FF00303FB754FF0040004F080
:10593800EBFCFB7DCDE0FB6803F00103002B08D0F6
:105948004FF00103FB754FF0010004F0DDFCFB7D17
:10595800BFE004F049FB0346FB60FB680D2B04D055
:105968004FF01003FB75FB7DB3E040F2FF5004F0ED
:10597800CBFC4FF0000004F043FB03463B613B695E
:105988004FEA5323DBB203F00F03DAB27B681A70D5
:105998003A694EF20803CFF6FF531340002B01D1AA
:1059A800FB7D96E03B69002B02DA4FF01C0390E088
:1059B8003B6903F08043002B02D04FF0090388E0D5
:1059C8003B6903F00053002B02D04FF00A0380E03C
:1059D8003B6903F08053002B02D04FF00B0378E0B3
:1059E8003B6903F00063002B02D04FF00C0370E01A
:1059F8003B6903F08063002B02D04FF00D0368E091
:105A08003B6903F08073002B02D04FF00E0360E077
:105A18003B6903F40003002B02D04FF00F0358E05A
:105A28003B6903F48003002B02D04FF0100350E0D1
:105A38003B6903F40013002B02D04FF0110348E038
:105A48003B6903F48013002B02D04FF0120340E0AF
:105A58003B6903F40023002B02D04FF0130338E016
:105A68003B6903F48023002B02D04FF0140330E08D
:105A78003B6903F40033002B02D04FF0150328E0F4
:105A88003B6903F48033002B02D04FF0160320E06B
:105A98003B6903F40043002B02D04FF0170318E0D2
:105AA8003B6903F48043002B02D04FF0180310E049
:105AB8003B6903F40053002B02D04FF0190308E0B0
:105AC8003B6903F00803002B02D04FF01A0300E0F3
