:020000040800F2
:10000000000002208D010008E9090008ED09000840
:10001000890100088901000889010008000000002A
:10002000000000000000000000000000890100083E
:10003000890100080000000089010008F90100089A
:100040008901000889010008890100088901000868
:100050008901000889010008890100088901000858
:100060008901000889010008890100088901000848
:100070008901000889010008890100088901000838
:100080008901000889010008890100088901000828
:100090008901000889010008890100088901000818
:1000A0008901000889010008890100088901000808
:1000B00089010008890100088901000889010008F8
:1000C00089010008890100088901000889010008E8
:1000D00089010008890100088901000889010008D8
:1000E00089010008890100088901000889010008C8
:1000F00089010008890100088901000889010008B8
:1001000089010008890100088901000889010008A7
:100110008901000889010008890100088901000897
:100120008901000889010008890100088901000887
:100130008901000889010008890100088901000877
:100140008901000889010008890100088901000867
:100150008901000889010008890100088901000857
:100160008901000889010008890100088901000847
:100170008901000889010008890100088901000837
:08018000890100088901000853
:10018800FEE700BF684620F007018D4619B5134900
:10019800134B99420BD2C843184420F00300114C6A
:1001A80004300023E258CA5004338342FAD10E4B7C
:1001B8000E4A93420AD2D943114421F0030119444B
:1001C8000022043B43F8042F8B42FBD100F01AFCB9
:1001D80001F0A0FFBDE819408546704700000020E7
:1001E800240000207C210008240000202800002092
:1001F800024B1A6801321A60704700BF24000020C1
:100208000C4A0D4B1268A3FB02129209013AB2F193
:10021800807F10B40CD2094B09485A60F02480F84A
:1002280023400021072299605DF8044B1A6070474B
:10023800FEE700BF10000020D34D621010E000E080
:1002480000ED00E000B5402083B0012100F032FE4F
:1002580046F2E07100230122009107488DF804203E
:1002680069468DF806308DF807308DF8053000F0B6
:10027800C1FF03B05DF804FB001802402DE9F0410E
:1002880004208AB02B4F2C4C012100F037FE0220AD
:10029800012100F00FFE0025032301264FF002087C
:1002A8003846C02269468DF8053000928DF80480E2
:1002B8008DF806508DF8076000F09CFF38464246DE
:1002C800062101F035F838464246072101F030F89A
:1002D80044F61F622046542302A90392ADF8083061
:1002E800ADF81050ADF80A5001F012F9602320461D
:1002F80005A9ADF81430ADF816600795ADF8205093
:1003080001F0C4F92046082101F022FB204605A986
:1003180001F0FCF92046082101F022FB2046314675
:1003280001F080F92046314601F0A2F90AB0BDE893
:10033800F08100BF0004024000080040F8B54FF407
:10034800CC410746564800F0E5FF002F40F3A78050
:10035800544C0026254652484FF4007100F0D8FF4F
:10036800226823689B1A022BFBD34D484FF4806107
:1003780000F0D0FF2A6823689B1A022BFBD3484859
:100388004FF4005100F0C4FF2A6823689B1A022B1F
:10039800FBD343484FF4804100F0BCFF2A68236830
:1003A8009B1A022BFBD33E484FF4007100F0B2FFBA
:1003B8002A6823689B1A022BFBD339484FF48061C3
:1003C80000F0A6FF2A6823689B1A022BFBD3344847
:1003D8004FF4005100F09CFF2A6823689B1A022BF7
:1003E800FBD32F484FF4804100F094FF2A6823681C
:1003F8009B1A022BFBD32A484FF4007100F08AFFA6
:100408002A6823689B1A022BFBD325484FF4806186
:1004180000F07EFF2A6823689B1A022BFBD3204832
:100428004FF4005100F076FF2A6823689B1A022BCC
:10043800FBD31B484FF4804100F06AFF2A68236809
:100448009B1A022BFBD316484FF4007100F060FF93
:100458002A6823689B1A022BFBD311484FF480614A
:1004680000F058FF2A6823689B1A022BFBD30C481C
:100478004FF4005100F04EFF2A6823689B1A022BA4
:10048800FBD307484FF4804100F042FF2A682368F5
:100498009B1A022BFBD30136BE427FF45CAFF8BD3A
:1004A8000018024024000020F8B54FF4CC4107465C
:1004B800564800F02FFF002F40F3A780544C002629
:1004C800254652484FF4804100F022FF22682368F5
:1004D8009B1A022BFBD34D484FF4005100F01AFF32
:1004E8002A6823689B1A022BFBD348484FF4806183
:1004F80000F00EFF2A6823689B1A022BFBD343489F
:100508004FF4007100F006FF2A6823689B1A022B3B
:10051800FBD33E484FF4804100F0FCFE2A68236874
:100528009B1A022BFBD339484FF4005100F0F0FE20
:100538002A6823689B1A022BFBD334484FF4806146
:1005480000F0E6FE2A6823689B1A022BFBD32F488B
:100558004FF4007100F0DEFE2A6823689B1A022B14
:10056800FBD32A484FF4804100F0D4FE2A68236860
:100578009B1A022BFBD325484FF4005100F0C8FE0C
:100588002A6823689B1A022BFBD320484FF480610A
:1005980000F0C0FE2A6823689B1A022BFBD31B4875
:1005A8004FF4007100F0B4FE2A6823689B1A022BEE
:1005B800FBD316484FF4804100F0AAFE2A6823684E
:1005C8009B1A022BFBD311484FF4005100F0A2FEF6
:1005D8002A6823689B1A022BFBD30C484FF48061CE
:1005E80000F098FE2A6823689B1A022BFBD3074861
:1005F8004FF4007100F08CFE2A6823689B1A022BC6
:10060800FBD30136BE427FF45CAFF8BD0018024050
:1006180024000020F8B54FF4F0710746504800F068
:1006280079FE002F40F39B804E4C002625464C480F
:10063800202100F06DFE226823689B1A022BFBD351
:100648004748402100F066FE2A6823689B1A022B5F
:10065800FBD34348802100F05BFE2A6823689B1A7D
:10066800022BFBD33E484FF4807100F053FE2A68FA
:1006780023689B1A022BFBD33948202100F04AFE3D
:100688002A6823689B1A022BFBD33548402100F0C7
:100698003FFE2A6823689B1A022BFBD3304880212F
:1006A80000F036FE2A6823689B1A022BFBD32C48DD
:1006B8004FF4807100F02EFE2A6823689B1A022BE3
:1006C800FBD32748202100F025FE2A6823689B1ABF
:1006D800022BFBD32248402100F01AFE2A68236827
:1006E8009B1A022BFBD31E48802100F013FE2A68B8
:1006F80023689B1A022BFBD319484FF4807100F032
:1007080007FE2A6823689B1A022BFBD31448202172
:1007180000F0FEFD2A6823689B1A022BFBD31048C1
:10072800402100F0F7FD2A6823689B1A022BFBD3AF
:100738000B48802100F0EEFD2A6823689B1A022BE3
:10074800FBD307484FF4807100F0E2FD2A68236864
:100758009B1A022BFBD30136BE427FF468AFF8BD6B
:100768000018024024000020F8B54FF4F071074645
:10077800504800F0CFFD002F40F39B804E4C0026E0
:1007880025464C484FF4807100F0C2FD226823686A
:100798009B1A022BFBD34748802100F0BBFD2A6837
:1007A80023689B1A022BFBD34248402100F0B0FD7E
:1007B8002A6823689B1A022BFBD33E48202100F0AD
:1007C800A9FD2A6823689B1A022BFBD339484FF4EA
:1007D800807100F09FFD2A6823689B1A022BFBD3C7
:1007E8003448802100F094FD2A6823689B1A022B64
:1007F800FBD33048402100F08BFD2A6823689B1A00
:10080800022BFBD32B48202100F084FD2A682368A3
:100818009B1A022BFBD327484FF4807100F07AFD16
:100828002A6823689B1A022BFBD32248802100F0F8
:100838006FFD2A6823689B1A022BFBD31D484021B1
:1008480000F068FD2A6823689B1A022BFBD319481D
:10085800202100F05DFD2A6823689B1A022BFBD338
:1008680014484FF4807100F053FD2A6823689B1ADE
:10087800022BFBD30F48802100F04CFD2A68236827
:100888009B1A022BFBD30B48402100F043FD2A683A
:1008980023689B1A022BFBD30648202100F038FD61
:1008A8002A6823689B1A022BFBD30136BE427FF4C9
:1008B80068AFF8BD001802402400002008B54120A8
:1008C800FFF7A8FE4120BDE80840FFF737BD00BF8D
:1008D800054B064A40F2A4615963116813685B1A14
:1008E800B3F5FA7FFAD370470008004024000020CF
:1008F800054B064A4FF461715963116813685B1A16
:10090800B3F5FA6FFAD370470008004024000020BE
:1009180038B5314B314C40F2A4625A6322682368DF
:100928002E4D9B1AB3F5FA7FF9D31420FFF71CFF5D
:100938001420FFF703FD284B4FF461725A632A68AD
:100948002368264D9B1AB3F5FA6FF9D31E20FFF7DB
:10095800F5FC214B40F2A4625A632A6823681F4DB4
:100968009B1AB3F5FA7FF9D30F20FFF79DFD1A4BB9
:100978004FF461725A632A682368184D9B1AB3F5BD
:10098800FA6FF9D30F20FFF7EFFE134B40F2A46282
:100998005A632A682368114D9B1AB3F5FA7FF9D375
:1009A8000F20FFF781FD0C4B4FF461725A632A68E0
:1009B80023680A4D9B1AB3F5FA6FF9D31E20FFF787
:1009C800BDFC054B40F2A4625A632A6823689B1A4F
:1009D800B3F5FA7FFAD338BD0008004024000020A0
:1009E800704700BFFEE700BFFEE700BFFEE700BF9D
:1009F800FEE700BF704700BF704700BF704700BFE9
:100A0800704700BF354B36481968002241F0010194
:100A180019609A60196821F0847121F48031196095
:100A28005860196882B021F480211960DA60009258
:100A380001921A6842F480321A601A4603E0009B59
:100A4800B3F5A04F09D0136803F400330193009B5A
:100A580001330093019B002BF1D0204B1B6813F44A
:100A6800003318BF01230193019B012B05D01D4BB7
:100A78004FF000629A6002B07047184B1A4A186C1F
:100A88001A4940F080501864106840F440401060E3
:100A98009A689A609A6842F400429A609A6842F4A6
:100AA800A0529A6059601A6842F080721A6019461A
:100AB8000B680A4A9B01FBD50D4B40F20571196082
:100AC800936823F003039360936843F002039360F1
:100AD800936803F00C03082BFAD1C8E700380240EA
:100AE8001030002400ED00E000700040085440077A
:100AF800003C0240154B9A6802F00C02042A23D0ED
:100B0800082A09D0124A1149124B8968C1F3031106
:100B1800595CCA401A617047586859685B68420254
:100B28004CBF0D4A0A4A01F03F01C3F38813B2FBD8
:100B3800F1F202FB03F2054B5B68C3F30143013397
:100B48005B00B2FBF3F2DEE7034ADCE70038024061
:100B58000024F4000000002000127A000F4B104817
:100B68001968002241F0010130B419609A601968CF
:100B78000C4D0D4C21F0A85121F4102119605D6035
:100B8800C3F88440C3F88800196821F480211960EB
:100B980030BCDA60C3F88C20704700BF00380240D0
:100BA800003000241030002400300020024B0022C6
:100BB8001A701870704700BF0238024082B00023D4
:100BC8000B4A019313689B030CD4019B01330193D7
:100BD800019BB3F5A04FF5D1054B1868C0F3404011
:100BE80002B07047019B01330193019BF4E700BFFA
:100BF80000380240034B1A6822F0F80242EAC000AB
:100C08001860704700380240014B1860704700BFF9
:100C180000004742064B002201281A701A7005D0BE
:100C2800042802D105221A7070477047187070475F
:100C380070380240014B1860704700BF800E474271
:100C480030B4029C064D40EA04605B080143013B56
:100C580041EA821242EA03436B6030BC704700BF2E
:100C680000380240014B1860704700BF60004742DF
:100C78000907034B41EA8010C3F88400704700BF9E
:100C880000380240014B1860704700BF68004742B7
:100C9800120742EA0161034B41EA8010C3F8880059
:100CA800704700BF00380240014B1860704700BF12
:100CB80070004742014B1860704700BF4C00474224
:100CC800034B9A6822F0EC6211430843986070471E
:100CD80000380240034B9A6822F0784211430843D7
:100CE8009860704700380240034B9A6822F003026C
:100CF80010439860704700BF00380240024B986864
:100D080000F00C00704700BF00380240034B9A689F
:100D180022F0F00210439860704700BF003802408C
:100D2800034B9A6822F4E05210439860704700BF62
:100D380000380240034B9A6822F4604242EAC0003D
:100D480098607047003802401F4A936803F00C030C
:100D5800042B10B41BD0082B1CD01C4B03601A4961
:100D68001B4A8C68C4F30314145DE34043608C6829
:100D7800C4F38224145D23FA04F4846089685DF85E
:100D8800044BC1F34231525CD340C3607047114BEE
:100D98000360E4E754685168526863024CBF0D4B26
:100DA8000A4B01F03F01C2F38812B3FBF1F303FBD6
:100DB80002F3054A5268C2F3014201325200B3FB02
:100DC800F2F30360CBE700BF003802400024F400D0
:100DD8001400002000127A0000F44073B3F5407F3D
:100DE80009D1084A916820F0704321F4F81123F4DE
:100DF80040730B439360034B1A6FC0F30B0010430F
:100E08001867704700380240014B1860704700BFF0
:100E18003C0E4742014B1860704700BF400E4742E6
:100E2800014B1860704700BF5C014742044BD3F880
:100E38008C20013822F01F020243C3F88C2070472F
:100E480000380240054BD3F88C20013822F4F852C0
:100E580042EA0022C3F88C20704700BF00380240E5
:100E6800044BD3F88C2022F440121043C3F88C00B2
:100E7800704700BF00380240044BD3F88C2022F49E
:100E880040021043C3F88C00704700BF003802408E
:100E9800044BD3F88C2022F440321043C3F88C0062
:100EA800704700BF00380240014B1860704700BF10
:100EB800E0114742044B1A6B19B922EA0000186383
:100EC800704710431863704700380240044B5A6B50
:100ED80019B922EA000058637047104358637047F5
:100EE80000380240044B9A6B19B922EA0000986353
:100EF800704710439863704700380240044B1A6CDF
:100F080019B922EA00001864704710431864704742
:100F180000380240044B5A6C19B922EA00005864A0
:100F2800704710435864704700380240044B1A69F0
:100F380019B922EA00001861704710431861704718
:100F480000380240044B5A6919B922EA0000586176
:100F5800704710435861704700380240044B9A6943
:100F680019B922EA000098617047104398617047E8
:100F780000380240044B1A6A19B922EA00001862C4
:100F8800704710431862704700380240044B5A6A91
:100F980019B922EA00005862704710435862704736
:100FA80000380240044B1A6D19B922EA000018658E
:100FB800704710431865704700380240044B5A6D5B
:100FC80019B922EA00005865704710435865704700
:100FD80000380240044B9A6D19B922EA000098655E
:100FE800704710439865704700380240044B1A6EEA
:100FF80019B922EA0000186670471043186670474E
:1010080000380240044B5A6E19B922EA00005866AB
:10101800704710435866704700380240044B1A78EE
:1010280019B922EA00001870704710431870704709
:101038000D3802404309012B0BD0022B094B0CBF82
:101048001B6F5B6F00F01F0023FA00F000F0010037
:101058007047044B1B6800F01F0023FA00F000F0F3
:101068000100704700380240024B5A6F42F080720C
:101078005A67704700380240034BDB6818420CBFC0
:1010880000200120704700BF00380240014B187053
:10109800704700BF0E38024008B54B4B98422AD023
:1010A8004A4B984231D04A4B984238D0494B9842E3
:1010B8003FD0494B984246D0484B98424DD0484B78
:1010C800984254D0474B98425BD0474B984262D0E5
:1010D800464B98426BD0464B984200D008BD4FF41F
:1010E80080600121FFF722FF4FF480600021BDE8F6
:1010F8000840FFF71BBF01200146FFF717FF01203B
:101108000021BDE80840FFF711BF02200121FFF7C9
:101118000DFF02200021BDE80840FFF707BF0420AB
:101128000121FFF703FF04200021BDE80840FFF775
:10113800FDBE08200121FFF7F9FE08200021BDE8C7
:101148000840FFF7F3BE10200121FFF7EFFE102043
:101158000021BDE80840FFF7E9BE20200121FFF784
:10116800E5FE20200021BDE80840FFF7DFBE402053
:101178000121FFF7DBFE40200021BDE80840FFF712
:10118800D5BE80200121FFF7D1FE80200021BDE8D7
:101198000840FFF7CBBE4FF480700121FFF7C6FE71
:1011A8004FF480700021BDE80840FFF7BFBE4FF440
:1011B80000700121FFF7BAFE4FF400700021BDE86E
:1011C8000840FFF7B3BE00BF000002400004024021
:1011D80000080240000C02400010024000140240C7
:1011E80000180240001C0240002002400024024077
:1011F8000028024000222DE9F00713460E68012757
:101208004FF0030804E00133102B02F102022CD046
:1012180007FA03F404EA0605A542F4D1D0F80090D1
:1012280091F804C008FA02F4E44304EA0909C0F892
:101238000090D0F800900CFA02FA0CF1FF3C4AEA50
:101248000909BCF1010FC0F8009011D9C56891F8DF
:1012580007C02C40C460C5680CFA02F401332C4363
:10126800102BC46002F10202D2D1BDE8F00770472A
:10127800D0F808A091F8059091F806C004EA0A0A87
:10128800C0F808A0D0F808A009FA02F949EA0A0942
:10129800C0F80890D0F8049029EA0505456045682B
:1012A8000CFA03FC1FFA8CFC4CEA05054560CDE7F7
:1012B80000234FF6FF720260037143718371C3719B
:1012C800704700BF82B04FF480330193019B0B43FA
:1012D8000193019BC361C161019BC361C369019310
:1012E800C369019302B07047036919420CBF00201B
:1012F80001207047006980B2704700BF43691942F6
:101308000CBF002001207047406980B2704700BFC1
:1013180001837047418370470AB94183704701834D
:10132800704700BF41617047436959404161704748
:10133800CB0800EB830001F0070110B48900046AB0
:101348000F238B4024EA03030362036A5DF8044B0E
:101358008A4013430362704708B5604B984235D002
:10136800B0F1804F3CD05E4B984243D05D4B9842E1
:101378004AD05D4B984251D05C4B984258D05C4B58
:1013880098425FD05B4B984266D05B4B98426DD0D9
:101398005A4B984276D05A4B98427FD0594B984234
:1013A80000F08880584B984200F08E80574B984246
:1013B80000D008BD4FF480700121FFF7DBFD4FF42A
:1013C80080700021BDE80840FFF7D4BD0120014628
:1013D800FFF7DCFD01200021BDE80840FFF7D6BD7E
:1013E80001200146FFF7C6FD01200021BDE80840A5
:1013F800FFF7C0BD02200121FFF7BCFD022000213C
:10140800BDE80840FFF7B6BD04200121FFF7B2FD93
:1014180004200021BDE80840FFF7ACBD08200121E9
:10142800FFF7A8FD08200021BDE80840FFF7A2BD8E
:1014380010200121FFF79EFD10200021BDE8084083
:10144800FFF798BD20200121FFF794FD20200021FF
:10145800BDE80840FFF78EBD02200121FFF796FD89
:1014680002200021BDE80840FFF790BD4FF480300E
:101478000121FFF78BFD4FF480300021BDE80840C3
:10148800FFF784BD4FF400300121FFF77FFD4FF4D3
:1014980000300021BDE80840FFF778BD4FF48020F8
:1014A8000121FFF773FD4FF480200021BDE80840BB
:1014B800FFF76CBD40200121FFF75CFD40200021B3
:1014C800BDE80840FFF756BD80200121FFF752FD17
:1014D80080200021BDE80840FFF74CBD0000014016
:1014E8000004004000080040000C004000100040CC
:1014F8000014004000040140004001400044014045
:101508000048014000180040001C00400020004036
:10151800234A0388904270B49BB212D002F58062CD
:1015280090420ED0B0F1804F0BD0A2F5803290429D
:1015380007D002F58062904203D002F580629042A3
:1015480003D14A8823F070031343164A90421ED0F1
:1015580002F5806290421AD00E894D680C8823F4F7
:10156800407302F56C429BB2334390420380C562DC
:10157800048506D00C4B984203D00123838270BCAB
:1015880070478B7A03860123838270BC704703807F
:101598000B884A68C26203850123838270BC704746
:1015A80000000140001000400004014000234FF0FB
:1015B800FF3242600380038143808372704700BF1B
:1015C80001858282704700BF038823F070031B04E3
:1015D8001B0C19430180704741627047C162704714
:1015E800406A7047008D80B2704700BF038829B9F0
:1015F80023F002031B041B0C038070479BB243F0CB
:1016080002030380704700BF038829B923F004034D
:101618001B041B0C038070479BB243F00403038038
:10162800704700BF038829B923F080031B041B0CF3
:10163800038070479BB243F080030380704700BF6C
:10164800038823F008031B041B0C038003889BB248
:1016580019430180704700BF038823F440731B04BB
:101668001B0C038003889BB219430180704700BF9D
:10167800038829B923F001031B041B0C038070475E
:101688009BB243F001030380704700BFF0B4048CA1
:10169800B1F802C08F890E881B4D24F00104240480
:1016A800240C0484028C8488038B22F0020223F029
:1016B800730312044CEA07071B04120CBFB21B0C7D
:1016C800A84247EA0202A4B243EA06030AD005F593
:1016D8008065A84206D0896884800383F0BC416392
:1016E80002847047B1F80EC04F8A0D8A8E8822F0A6
:1016F800080242EA0C023D4324F4407422F004023A
:10170800ADB232432C43E6E700000140F0B4048C4C
:10171800B1F80CC04F880E881F4D24F01004240423
:10172800240C0484028C8488038B22F02002120487
:1017380023F4E643120C1B0442EA0C121B0C42EA87
:10174800071243EA0623A84292B2A4B29BB20AD077
:1017580005F58065A84206D0896884800383F0BCBB
:10176800816302847047CD89B1F810C08F884E8A92
:1017780022F0800292B242EA051224F440644FF645
:10178800BF75154044EA8C0445EA071244EA86040A
:1017980092B2A4B2E0E700BF00000140F0B4048CAC
:1017A800B1F80CC04F880E881E4D24F480742404B0
:1017B800240C0484028C8488838B22F40072120423
:1017C800120C23F0730342EA0C221B0442EA07229C
:1017D8001B0CA84292B2A4B243EA06030AD005F54C
:1017E8008065A84206D0896884808383F0BCC16381
:1017F80002847047CD89B1F810C08F884E8A22F4D0
:10180800006292B242EA052224F440544FF6FF35B2
:10181800154044EA0C1445EA072244EA061492B239
:10182800A4B2E0E700000140F0B4048CB1F80CC0A9
:101838004F880E88164D24F480542404240C048404
:10184800028C8488838B22F40052120423F4E6432A
:10185800120C1B0442EA0C321B0C42EA073243EA20
:101868000623A84292B2A4B29BB20AD005F58065BD
:10187800A84206D0896884808383F0BC016402840E
:1018880070470D8A24F4804444EA8514A4B2F1E731
:1018980000000140002303804380838083608381AC
:1018A800C381038243827047038C10B401249BB226
:1018B8008C4023EA040421F00803048418307BB127
:1018C8000439C1F34E0148F6FF730C5823400B50FE
:1018D80012020B585DF8044B92B21A430A50704733
:1018E80049084FF68F7344582340435043585DF8D6
:1018F800044B1A43425070474163704781637047F5
:10190800C163704701647047038B23F070031B04A5
:101918001B0C194301837047038B23F4E0431B041A
:101928001B0C43EA01218BB203837047838B23F09E
:1019380070031B041B0C194381837047838B23F4AA
:10194800E0431B041B0C43EA01218BB283837047DD
:10195800038B23F008031B041B0C194301837047F6
:10196800038B23F400631B041B0C43EA01218BB295
:1019780003837047838B23F008031B041B0C194354
:1019880081837047838B23F400631B041B0C43EA99
:1019980001218BB283837047038B23F004031B045C
:1019A8001B0C194301837047038B23F480631B04CA
:1019B8001B0C43EA01218BB203837047838B23F00E
:1019C80004031B041B0C194381837047838B23F486
:1019D80080631B041B0C43EA01218BB2838370478D
:1019E800038B23F080031B041B0C194301837047EE
:1019F800038BC3F30E0343EA01218BB203837047C1
:101A0800838B23F080031B041B0C194381837047CD
:101A1800838BC3F30E0343EA01218BB283837047A0
:101A2800038C23F002031B041B0C19430184704729
:101A3800038C23F008031B041B0C19430184704713
:101A4800038C23F020031B041B0C43EA01118BB207
:101A580003847047038C23F080031B041B0C43EAA8
:101A680001118BB203847047038C23F400731B04A9
:101A78001B0C43EA01218BB203847047038C23F4C7
:101A880000631B041B0C43EA01218BB203847047DB
:101A9800038C23F400531B041B0C43EA01318BB263
:101AA80003847047038C10B401248C409BB223EA52
:101AB80004030384038C5DF8044B8A4013439BB2F0
:101AC80003847047038C10B404248C409BB223EA2F
:101AD80004030384038C5DF8044B8A4013439BB2D0
:101AE800038470470B88F0B4002B32D0042B58D0F5
:101AF800082B038C00F083804E888F880D89CC8852
:101B080023F480510904090C0184828B038C22F48C
:101B1800407223F4005312055B04120D5B0C42EA79
:101B2800072243EA063342EA05329BB243F4805364
:101B380092B282830384838B23F440631B041B0CBF
:101B48008383838B9BB243EA04239BB28383F0BCD9
:101B58007047028C8D880E894C88C98822F0010252
:101B68001204120C0284028B038C92B222F0F3024C
:101B780023F00A0342EA06121B0444F0010492B25D
:101B88001B0C23432A4302830384038B23F00C0397
:101B98001B041B0C0383038B9BB20B430383F0BC16
:101BA8007047028C4E888C880F89C98822F01002F1
:101BB8001204120C0284038B058C23F440731B055A
:101BC8001B0DADB243EA073225F0A00545EA06131E
:101BD80092B242EA04229BB243F0100392B202830B
:101BE8000384038B23F440631B041B0C0383038BC4
:101BF8009BB243EA01239BB20383F0BC704723F4F2
:101C080080731B041B0C4D888C880E89CA8803843A
:101C1800818B038C89B29BB221F0F30123F42063FA
:101C280041EA061143EA052389B29BB243F4807363
:101C3800214381830384838B23F00C031B041B0C37
:101C48008383838B9BB21343838380E70023012222
:101C5800828003804380C38003817047F0B44D883D
:101C68008C880B88B1F808C0028CC988002D14BF75
:101C780000260226012C14BF01270227002B4BD077
:101C880022F010021204120C0284038B028C23F43B
:101C980040731B051B0D92B243EA0C3322F0A002DD
:101CA8009BB242EA051543EA0424ADB2A4B245F05A
:101CB800100504830584038B23F440631B041B0C69
:101CC8000383038B9BB243EA01239BB20383038CF8
:101CD80023F001031B041B0C0384028B038C92B2B8
:101CE80022F0F3029BB242EA0C1C23F00A0343F0F1
:101CF80001031FFA8CFC1E434CEA0707078306847E
:101D0800038B23F00C031B041B0C0383038B9BB274
:101D180019430183F0BC704722F001021204120C2F
:101D28000284038B028C9BB223F0F30322F00A0295
:101D380043EA0C13120445F001059BB2120C1C4334
:101D48002A4304830284028B22F00C021204120C30
:101D58000283038B9BB20B430383028C22F0100295
:101D68001204120C0284038B028C23F440731B05AB
:101D78001B0D92B243EA0C3322F0A0029BB242F050
:101D8800100243EA072742EA061607830684038BF4
:101D980023F440631B041B0C0383038B9BB243EAAD
:101DA800012189B20183F0BC704700BF406B7047C6
:101DB800806B7047C06B7047006C7047038B23F0D3
:101DC8000C031B041B0C0383038B9BB21943018375
:101DD800704700BF038B23F440631B041B0C038371
:101DE800038B9BB243EA01218BB20383704700BF88
:101DF800838B23F00C031B041B0C8383838B9BB204
:101E080019438183704700BF838B23F440631B040D
:101E18001B0C8383838B9BB243EA01218BB28383A0
:101E2800704700BFB1F802C00B888A89F0B48F8868
:101E3800CE880D894C894CEA03033B4333432B433B
:101E4800234313439BB2A0F84430F0BC704700BF53
:101E58000023038043808380C3800381438183817F
:101E6800704700BFB0F8443021B9C3F30E03A0F89F
:101E7800443070476FEA43436FEA53439BB2A0F87C
:101E880044307047838829B923F004031B041B0CD2
:101E9800838070479BB243F004038380704700BF80
:101EA800838829B923F001031B041B0C8380704726
:101EB8009BB243F001038380704700BF83899BB2C4
:101EC8001AB923EA0101818170471943818170475A
:101ED80081827047038A19420CBF00200120704795
:101EE800C94389B201827047038A828911EA0300D3
:101EF80092B203D011420CBF00200120704700BFEE
:101F0800C94389B2018270470A43A0F84820704744
:101F180083899BB21AB923EA010181817047194369
:101F280081817047838829B923F008031B041B0C9F
:101F3800838070479BB243F008038380704700BFDB
:101F4800038923F007031B041B0C0381704700BFA0
:101F5800038923F070031B041B0C194301810389B7
:101F68009BB243F007030381704700BF602930B478
:101F7800048C24D024F001042404240C0484058B4C
:101F8800048CADB225F0F305A4B245F0010524F0A8
:101F98000A0445EA031344F001049BB22243038375
:101FA8000284038923F070031B041B0C0B43038179
:101FB80003899BB243F00703038130BC704724F0C8
:101FC80010042404240C0484048B058C24F4407429
:101FD8002405ADB2240D25F0A00544F4807445F025
:101FE800100544EA033345EA02129BB292B2038316
:101FF8000284D6E710B4048942EA0323E4B22343F7
:102008009BB21943018103895DF8044B23F07703E0
:102018001B041B0C43F077030381704710B4048939
:1020280042EA0323E4B223439BB2194301810389A3
:102038005DF8044B9BB243F480430381704700BFB3
:10204800038923F070031B041B0C1943018170479B
:10205800838823F070031B041B0C838083889BB246
:1020680019438180704700BF038923F007031B04CD
:102078001B0C038103899BB219430181704700BF80
:10208800038923F080031B041B0C038103899BB283
:1020980019430181704700BF10B40489E4B2214399
:1020A8000A4342EA03239CB204815DF8044B70475B
:1020B80070B40589048B068C24F4407424F003045E
:1020C800B6B226F0220625F00705240432432D0473
:1020D800240C2D0C44F4807442EA0313294344F081
:1020E80001049EB201810483068470BC704700BF5E
:1020F800838829B923F080031B041B0C8380704755
:102108009BB243F080038380704700BFA0F8501053
:10211800704700BF134A144B1268A3FB02129209BE
:10212800013AB2F1807F10B51BD2104B10495A60AA
:10213800F0200722002481F823009C601A60FEF733
:102148009DF8FEF77FF84120FEF764FA4120FEF77C
:10215800F5F84120FEF708FB4120FEF7A5F92046D7
:1021680010BDFEE710000020D34D621010E000E023
:0421780000ED00E096
:10217C00000000000000000001020304060708092B
:10218C00007A030A000000000102030401020304A8
:04219C000607080921
:040000050800018D61
:00000001FF
